{
  "_format": "hh-sol-artifact-1",
  "contractName": "Proxy",
  "sourceName": "contracts/Proxy.sol",
  "abi": [
    {
      "inputs": [
        {
          "internalType": "address",
          "name": "_Implementation",
          "type": "address"
        },
        {
          "internalType": "address",
          "name": "_Owner",
          "type": "address"
        }
      ],
      "stateMutability": "nonpayable",
      "type": "constructor"
    },
    {
      "stateMutability": "payable",
      "type": "fallback"
    },
    {
      "inputs": [],
      "name": "OWNER",
      "outputs": [
        {
          "internalType": "address",
          "name": "",
          "type": "address"
        }
      ],
      "stateMutability": "view",
      "type": "function"
    },
    {
      "inputs": [],
      "name": "Totaltax",
      "outputs": [
        {
          "internalType": "uint256",
          "name": "",
          "type": "uint256"
        }
      ],
      "stateMutability": "view",
      "type": "function"
    },
    {
      "inputs": [
        {
          "internalType": "address",
          "name": "",
          "type": "address"
        },
        {
          "internalType": "address",
          "name": "",
          "type": "address"
        }
      ],
      "name": "balances",
      "outputs": [
        {
          "internalType": "uint256",
          "name": "",
          "type": "uint256"
        }
      ],
      "stateMutability": "view",
      "type": "function"
    },
    {
      "inputs": [],
      "name": "getimplementation",
      "outputs": [
        {
          "internalType": "address",
          "name": "",
          "type": "address"
        }
      ],
      "stateMutability": "view",
      "type": "function"
    },
    {
      "inputs": [],
      "name": "implementation",
      "outputs": [
        {
          "internalType": "address",
          "name": "",
          "type": "address"
        }
      ],
      "stateMutability": "view",
      "type": "function"
    },
    {
      "inputs": [],
      "name": "isOwnerinit",
      "outputs": [
        {
          "internalType": "bool",
          "name": "",
          "type": "bool"
        }
      ],
      "stateMutability": "view",
      "type": "function"
    },
    {
      "inputs": [],
      "name": "owner",
      "outputs": [
        {
          "internalType": "address",
          "name": "",
          "type": "address"
        }
      ],
      "stateMutability": "view",
      "type": "function"
    },
    {
      "inputs": [
        {
          "internalType": "address",
          "name": "",
          "type": "address"
        }
      ],
      "name": "tokenFee",
      "outputs": [
        {
          "internalType": "uint256",
          "name": "",
          "type": "uint256"
        }
      ],
      "stateMutability": "view",
      "type": "function"
    },
    {
      "inputs": [
        {
          "internalType": "address",
          "name": "newImplementation",
          "type": "address"
        }
      ],
      "name": "upgrade",
      "outputs": [],
      "stateMutability": "nonpayable",
      "type": "function"
    }
  ],
  "bytecode": "0x60806040526000600460006101000a81548160ff0219169083151502179055503480156200002c57600080fd5b506040516200102d3803806200102d8339818101604052810190620000529190620005e5565b6200006e674c7a9ad35c6cacbf60c01b6200035560201b60201c565b6200008a6740732ad98b3d3eb160c01b6200035560201b60201c565b620000a6677728ba36a8cd107560c01b6200035560201b60201c565b620000b7826200035860201b60201c565b620000d367534a6c42b0e86e6360c01b6200035560201b60201c565b620000ef672431588dd6f9e57860c01b6200035560201b60201c565b6200010033620003f460201b60201c565b6200011c67e00e3a902dccc18160c01b6200035560201b60201c565b6200012c6200049060201b60201c565b600460016101000a81548173ffffffffffffffffffffffffffffffffffffffff021916908373ffffffffffffffffffffffffffffffffffffffff160217905550620001886787729d15ff7435de60c01b6200035560201b60201c565b620001986200052f60201b60201c565b600160006101000a81548173ffffffffffffffffffffffffffffffffffffffff021916908373ffffffffffffffffffffffffffffffffffffffff160217905550620001f4675b6053ce334b94dc60c01b6200035560201b60201c565b62000210670db5d9dfff6fd81c60c01b6200035560201b60201c565b60008160405160240162000225919062000687565b6040516020818303038152906040527f90b4b79c000000000000000000000000000000000000000000000000000000007bffffffffffffffffffffffffffffffffffffffffffffffffffffffff19166020820180517bffffffffffffffffffffffffffffffffffffffffffffffffffffffff83818316178352505050509050620002c067d5abec86a70e521260c01b6200035560201b60201c565b620002dc67fe139f0dca604f8360c01b6200035560201b60201c565b60008373ffffffffffffffffffffffffffffffffffffffff16826040516200030591906200066e565b600060405180830381855af49150503d806000811462000342576040519150601f19603f3d011682016040523d82523d6000602084013e62000347565b606091505b50915050505050506200073e565b50565b6200037467a341a99dc1dadccf60c01b6200035560201b60201c565b62000390674f5f71bb3bd580c660c01b6200035560201b60201c565b620003ac67529ec0686f4b7a9560c01b6200035560201b60201c565b60007fbdeff4dcb7832d4903fcc4e1b401b95e520306665ad43f1f2ae62de00e2e963f9050620003ed67ebd46e659864462560c01b6200035560201b60201c565b8181555050565b62000410671715c1415df8c46560c01b6200035560201b60201c565b6200042c6753515ae78f23ac1f60c01b6200035560201b60201c565b6200044867f803d2872ffc00e160c01b6200035560201b60201c565b60007f30ab0d7ac4c206e185dd69af287e1177c2e55fbcc5348145664e0407b2be9a2390506200048967f9296f5fb7f5454660c01b6200035560201b60201c565b8181555050565b6000620004ae67014f627acc398bc360c01b6200035560201b60201c565b620004ca677727187f2d5139b860c01b6200035560201b60201c565b620004e667776001ef97bba63b60c01b6200035560201b60201c565b60007fbdeff4dcb7832d4903fcc4e1b401b95e520306665ad43f1f2ae62de00e2e963f905062000527678de9ed4c15bae8dd60c01b6200035560201b60201c565b805491505090565b60006200054d6744a1e87d127ef73460c01b6200035560201b60201c565b6200056967aa4b20674ec82a7460c01b6200035560201b60201c565b6200058567a18763b86eb5109b60c01b6200035560201b60201c565b60007f30ab0d7ac4c206e185dd69af287e1177c2e55fbcc5348145664e0407b2be9a239050620005c667cc458853d18ba0fc60c01b6200035560201b60201c565b805491505090565b600081519050620005df8162000724565b92915050565b60008060408385031215620005f957600080fd5b60006200060985828601620005ce565b92505060206200061c85828601620005ce565b9150509250929050565b6200063181620006ba565b82525050565b60006200064482620006a4565b620006508185620006af565b935062000662818560208601620006ee565b80840191505092915050565b60006200067c828462000637565b915081905092915050565b60006020820190506200069e600083018462000626565b92915050565b600081519050919050565b600081905092915050565b6000620006c782620006ce565b9050919050565b600073ffffffffffffffffffffffffffffffffffffffff82169050919050565b60005b838110156200070e578082015181840152602081019050620006f1565b838111156200071e576000848401525b50505050565b6200072f81620006ba565b81146200073b57600080fd5b50565b6108df806200074e6000396000f3fe60806040526004361061008a5760003560e01c80637d6f9665116100595780637d6f9665146101835780638da5cb5b146101ae578063c23f001f146101d9578063d785818314610216578063f348f4fc146102415761008b565b80630900f010146100d9578063117803e3146101025780633e38b80d1461012d5780635c60da1b146101585761008b565b5b61009f67702352b9ac8cb11f60c01b61027e565b6100b367522533dd673d915760c01b61027e565b6100c7677a93301dea86f62360c01b61027e565b6100d76100d2610281565b610300565b005b3480156100e557600080fd5b5061010060048036038101906100fb919061070f565b6103ae565b005b34801561010e57600080fd5b50610117610510565b60405161012491906107df565b60405180910390f35b34801561013957600080fd5b50610142610576565b60405161014f9190610815565b60405180910390f35b34801561016457600080fd5b5061016d61057c565b60405161017a91906107df565b60405180910390f35b34801561018f57600080fd5b506101986105a2565b6040516101a591906107fa565b60405180910390f35b3480156101ba57600080fd5b506101c36105b5565b6040516101d091906107df565b60405180910390f35b3480156101e557600080fd5b5061020060048036038101906101fb9190610738565b6105db565b60405161020d9190610815565b60405180910390f35b34801561022257600080fd5b5061022b610600565b60405161023891906107df565b60405180910390f35b34801561024d57600080fd5b506102686004803603810190610263919061070f565b610666565b6040516102759190610815565b60405180910390f35b50565b600061029767014f627acc398bc360c01b61027e565b6102ab677727187f2d5139b860c01b61027e565b6102bf67776001ef97bba63b60c01b61027e565b60007fbdeff4dcb7832d4903fcc4e1b401b95e520306665ad43f1f2ae62de00e2e963f90506102f8678de9ed4c15bae8dd60c01b61027e565b805491505090565b610314676a263c0a656eb02e60c01b61027e565b61032867322f8ba2fc95466c60c01b61027e565b61033c67cda9800bd4377fc760c01b61027e565b60008173ffffffffffffffffffffffffffffffffffffffff166000366040516103669291906107c6565b600060405180830381855af49150503d80600081146103a1576040519150601f19603f3d011682016040523d82523d6000602084013e6103a6565b606091505b509150505050565b6103c2677519c7874f50372960c01b61027e565b6103d667488fd798612d1c9b60c01b61027e565b6103ea67f63ffc486d706bbe60c01b61027e565b600160009054906101000a900473ffffffffffffffffffffffffffffffffffffffff1673ffffffffffffffffffffffffffffffffffffffff163373ffffffffffffffffffffffffffffffffffffffff161461046c5761045367772670c8288af71560c01b61027e565b61046767ece39f297a12c03260c01b61027e565b600080fd5b610480675cca1c478a99f4c560c01b61027e565b61049467c55f472a45b63f2160c01b61027e565b6104a8673f103a2f28817c2c60c01b61027e565b6104b18161067e565b6104c567856cae8f9309281660c01b61027e565b6104cd610281565b600460016101000a81548173ffffffffffffffffffffffffffffffffffffffff021916908373ffffffffffffffffffffffffffffffffffffffff16021790555050565b600061052667cba700deab8f3bdf60c01b61027e565b61053a67da1c4fa783c7a48a60c01b61027e565b61054e67c3d99caa7575e1c660c01b61027e565b600160009054906101000a900473ffffffffffffffffffffffffffffffffffffffff16905090565b60035481565b600460019054906101000a900473ffffffffffffffffffffffffffffffffffffffff1681565b600460009054906101000a900460ff1681565b600160009054906101000a900473ffffffffffffffffffffffffffffffffffffffff1681565b6000602052816000526040600020602052806000526040600020600091509150505481565b60006106166796c667e29e5956ce60c01b61027e565b61062a6716a32e2ef48da92360c01b61027e565b61063e67a45b0e789362425660c01b61027e565b600460019054906101000a900473ffffffffffffffffffffffffffffffffffffffff16905090565b60026020528060005260406000206000915090505481565b61069267a341a99dc1dadccf60c01b61027e565b6106a6674f5f71bb3bd580c660c01b61027e565b6106ba67529ec0686f4b7a9560c01b61027e565b60007fbdeff4dcb7832d4903fcc4e1b401b95e520306665ad43f1f2ae62de00e2e963f90506106f367ebd46e659864462560c01b61027e565b8181555050565b60008135905061070981610892565b92915050565b60006020828403121561072157600080fd5b600061072f848285016106fa565b91505092915050565b6000806040838503121561074b57600080fd5b6000610759858286016106fa565b925050602061076a858286016106fa565b9150509250929050565b61077d8161083b565b82525050565b61078c8161084d565b82525050565b600061079e8385610830565b93506107ab838584610883565b82840190509392505050565b6107c081610879565b82525050565b60006107d3828486610792565b91508190509392505050565b60006020820190506107f46000830184610774565b92915050565b600060208201905061080f6000830184610783565b92915050565b600060208201905061082a60008301846107b7565b92915050565b600081905092915050565b600061084682610859565b9050919050565b60008115159050919050565b600073ffffffffffffffffffffffffffffffffffffffff82169050919050565b6000819050919050565b82818337600083830152505050565b61089b8161083b565b81146108a657600080fd5b5056fea2646970667358221220c82bb7f88ba10446dd70a4955a89ccf69262136b79f7da9a4fa9b2f8bf69359164736f6c63430008000033",
  "linkReferences": {},
  "deployedLinkReferences": {}
}