{"contracts/Proxy.sol":{"Proxy":{"abi":[{"inputs":[{"internalType":"address","name":"_Implementation","type":"address"},{"internalType":"address","name":"_Owner","type":"address"}],"stateMutability":"nonpayable","type":"constructor"},{"stateMutability":"payable","type":"fallback"},{"inputs":[],"name":"OWNER","outputs":[{"internalType":"address","name":"","type":"address"}],"stateMutability":"view","type":"function"},{"inputs":[],"name":"Totaltax","outputs":[{"internalType":"uint256","name":"","type":"uint256"}],"stateMutability":"view","type":"function"},{"inputs":[{"internalType":"address","name":"","type":"address"},{"internalType":"address","name":"","type":"address"}],"name":"balances","outputs":[{"internalType":"uint256","name":"","type":"uint256"}],"stateMutability":"view","type":"function"},{"inputs":[],"name":"getimplementation","outputs":[{"internalType":"address","name":"","type":"address"}],"stateMutability":"view","type":"function"},{"inputs":[],"name":"implementation","outputs":[{"internalType":"address","name":"","type":"address"}],"stateMutability":"view","type":"function"},{"inputs":[],"name":"isOwnerinit","outputs":[{"internalType":"bool","name":"","type":"bool"}],"stateMutability":"view","type":"function"},{"inputs":[],"name":"owner","outputs":[{"internalType":"address","name":"","type":"address"}],"stateMutability":"view","type":"function"},{"inputs":[{"internalType":"address","name":"","type":"address"}],"name":"tokenFee","outputs":[{"internalType":"uint256","name":"","type":"uint256"}],"stateMutability":"view","type":"function"},{"inputs":[{"internalType":"address","name":"newImplementation","type":"address"}],"name":"upgrade","outputs":[],"stateMutability":"nonpayable","type":"function"}],"evm":{"bytecode":{"linkReferences":{},"object":"60806040526000600460006101000a81548160ff0219169083151502179055503480156200002c57600080fd5b506040516200102d3803806200102d8339818101604052810190620000529190620005e5565b6200006e674c7a9ad35c6cacbf60c01b6200035560201b60201c565b6200008a6740732ad98b3d3eb160c01b6200035560201b60201c565b620000a6677728ba36a8cd107560c01b6200035560201b60201c565b620000b7826200035860201b60201c565b620000d367534a6c42b0e86e6360c01b6200035560201b60201c565b620000ef672431588dd6f9e57860c01b6200035560201b60201c565b6200010033620003f460201b60201c565b6200011c67e00e3a902dccc18160c01b6200035560201b60201c565b6200012c6200049060201b60201c565b600460016101000a81548173ffffffffffffffffffffffffffffffffffffffff021916908373ffffffffffffffffffffffffffffffffffffffff160217905550620001886787729d15ff7435de60c01b6200035560201b60201c565b620001986200052f60201b60201c565b600160006101000a81548173ffffffffffffffffffffffffffffffffffffffff021916908373ffffffffffffffffffffffffffffffffffffffff160217905550620001f4675b6053ce334b94dc60c01b6200035560201b60201c565b62000210670db5d9dfff6fd81c60c01b6200035560201b60201c565b60008160405160240162000225919062000687565b6040516020818303038152906040527f90b4b79c000000000000000000000000000000000000000000000000000000007bffffffffffffffffffffffffffffffffffffffffffffffffffffffff19166020820180517bffffffffffffffffffffffffffffffffffffffffffffffffffffffff83818316178352505050509050620002c067d5abec86a70e521260c01b6200035560201b60201c565b620002dc67fe139f0dca604f8360c01b6200035560201b60201c565b60008373ffffffffffffffffffffffffffffffffffffffff16826040516200030591906200066e565b600060405180830381855af49150503d806000811462000342576040519150601f19603f3d011682016040523d82523d6000602084013e62000347565b606091505b50915050505050506200073e565b50565b6200037467a341a99dc1dadccf60c01b6200035560201b60201c565b62000390674f5f71bb3bd580c660c01b6200035560201b60201c565b620003ac67529ec0686f4b7a9560c01b6200035560201b60201c565b60007fbdeff4dcb7832d4903fcc4e1b401b95e520306665ad43f1f2ae62de00e2e963f9050620003ed67ebd46e659864462560c01b6200035560201b60201c565b8181555050565b62000410671715c1415df8c46560c01b6200035560201b60201c565b6200042c6753515ae78f23ac1f60c01b6200035560201b60201c565b6200044867f803d2872ffc00e160c01b6200035560201b60201c565b60007f30ab0d7ac4c206e185dd69af287e1177c2e55fbcc5348145664e0407b2be9a2390506200048967f9296f5fb7f5454660c01b6200035560201b60201c565b8181555050565b6000620004ae67014f627acc398bc360c01b6200035560201b60201c565b620004ca677727187f2d5139b860c01b6200035560201b60201c565b620004e667776001ef97bba63b60c01b6200035560201b60201c565b60007fbdeff4dcb7832d4903fcc4e1b401b95e520306665ad43f1f2ae62de00e2e963f905062000527678de9ed4c15bae8dd60c01b6200035560201b60201c565b805491505090565b60006200054d6744a1e87d127ef73460c01b6200035560201b60201c565b6200056967aa4b20674ec82a7460c01b6200035560201b60201c565b6200058567a18763b86eb5109b60c01b6200035560201b60201c565b60007f30ab0d7ac4c206e185dd69af287e1177c2e55fbcc5348145664e0407b2be9a239050620005c667cc458853d18ba0fc60c01b6200035560201b60201c565b805491505090565b600081519050620005df8162000724565b92915050565b60008060408385031215620005f957600080fd5b60006200060985828601620005ce565b92505060206200061c85828601620005ce565b9150509250929050565b6200063181620006ba565b82525050565b60006200064482620006a4565b620006508185620006af565b935062000662818560208601620006ee565b80840191505092915050565b60006200067c828462000637565b915081905092915050565b60006020820190506200069e600083018462000626565b92915050565b600081519050919050565b600081905092915050565b6000620006c782620006ce565b9050919050565b600073ffffffffffffffffffffffffffffffffffffffff82169050919050565b60005b838110156200070e578082015181840152602081019050620006f1565b838111156200071e576000848401525b50505050565b6200072f81620006ba565b81146200073b57600080fd5b50565b6108df806200074e6000396000f3fe60806040526004361061008a5760003560e01c80637d6f9665116100595780637d6f9665146101835780638da5cb5b146101ae578063c23f001f146101d9578063d785818314610216578063f348f4fc146102415761008b565b80630900f010146100d9578063117803e3146101025780633e38b80d1461012d5780635c60da1b146101585761008b565b5b61009f67702352b9ac8cb11f60c01b61027e565b6100b367522533dd673d915760c01b61027e565b6100c7677a93301dea86f62360c01b61027e565b6100d76100d2610281565b610300565b005b3480156100e557600080fd5b5061010060048036038101906100fb919061070f565b6103ae565b005b34801561010e57600080fd5b50610117610510565b60405161012491906107df565b60405180910390f35b34801561013957600080fd5b50610142610576565b60405161014f9190610815565b60405180910390f35b34801561016457600080fd5b5061016d61057c565b60405161017a91906107df565b60405180910390f35b34801561018f57600080fd5b506101986105a2565b6040516101a591906107fa565b60405180910390f35b3480156101ba57600080fd5b506101c36105b5565b6040516101d091906107df565b60405180910390f35b3480156101e557600080fd5b5061020060048036038101906101fb9190610738565b6105db565b60405161020d9190610815565b60405180910390f35b34801561022257600080fd5b5061022b610600565b60405161023891906107df565b60405180910390f35b34801561024d57600080fd5b506102686004803603810190610263919061070f565b610666565b6040516102759190610815565b60405180910390f35b50565b600061029767014f627acc398bc360c01b61027e565b6102ab677727187f2d5139b860c01b61027e565b6102bf67776001ef97bba63b60c01b61027e565b60007fbdeff4dcb7832d4903fcc4e1b401b95e520306665ad43f1f2ae62de00e2e963f90506102f8678de9ed4c15bae8dd60c01b61027e565b805491505090565b610314676a263c0a656eb02e60c01b61027e565b61032867322f8ba2fc95466c60c01b61027e565b61033c67cda9800bd4377fc760c01b61027e565b60008173ffffffffffffffffffffffffffffffffffffffff166000366040516103669291906107c6565b600060405180830381855af49150503d80600081146103a1576040519150601f19603f3d011682016040523d82523d6000602084013e6103a6565b606091505b509150505050565b6103c2677519c7874f50372960c01b61027e565b6103d667488fd798612d1c9b60c01b61027e565b6103ea67f63ffc486d706bbe60c01b61027e565b600160009054906101000a900473ffffffffffffffffffffffffffffffffffffffff1673ffffffffffffffffffffffffffffffffffffffff163373ffffffffffffffffffffffffffffffffffffffff161461046c5761045367772670c8288af71560c01b61027e565b61046767ece39f297a12c03260c01b61027e565b600080fd5b610480675cca1c478a99f4c560c01b61027e565b61049467c55f472a45b63f2160c01b61027e565b6104a8673f103a2f28817c2c60c01b61027e565b6104b18161067e565b6104c567856cae8f9309281660c01b61027e565b6104cd610281565b600460016101000a81548173ffffffffffffffffffffffffffffffffffffffff021916908373ffffffffffffffffffffffffffffffffffffffff16021790555050565b600061052667cba700deab8f3bdf60c01b61027e565b61053a67da1c4fa783c7a48a60c01b61027e565b61054e67c3d99caa7575e1c660c01b61027e565b600160009054906101000a900473ffffffffffffffffffffffffffffffffffffffff16905090565b60035481565b600460019054906101000a900473ffffffffffffffffffffffffffffffffffffffff1681565b600460009054906101000a900460ff1681565b600160009054906101000a900473ffffffffffffffffffffffffffffffffffffffff1681565b6000602052816000526040600020602052806000526040600020600091509150505481565b60006106166796c667e29e5956ce60c01b61027e565b61062a6716a32e2ef48da92360c01b61027e565b61063e67a45b0e789362425660c01b61027e565b600460019054906101000a900473ffffffffffffffffffffffffffffffffffffffff16905090565b60026020528060005260406000206000915090505481565b61069267a341a99dc1dadccf60c01b61027e565b6106a6674f5f71bb3bd580c660c01b61027e565b6106ba67529ec0686f4b7a9560c01b61027e565b60007fbdeff4dcb7832d4903fcc4e1b401b95e520306665ad43f1f2ae62de00e2e963f90506106f367ebd46e659864462560c01b61027e565b8181555050565b60008135905061070981610892565b92915050565b60006020828403121561072157600080fd5b600061072f848285016106fa565b91505092915050565b6000806040838503121561074b57600080fd5b6000610759858286016106fa565b925050602061076a858286016106fa565b9150509250929050565b61077d8161083b565b82525050565b61078c8161084d565b82525050565b600061079e8385610830565b93506107ab838584610883565b82840190509392505050565b6107c081610879565b82525050565b60006107d3828486610792565b91508190509392505050565b60006020820190506107f46000830184610774565b92915050565b600060208201905061080f6000830184610783565b92915050565b600060208201905061082a60008301846107b7565b92915050565b600081905092915050565b600061084682610859565b9050919050565b60008115159050919050565b600073ffffffffffffffffffffffffffffffffffffffff82169050919050565b6000819050919050565b82818337600083830152505050565b61089b8161083b565b81146108a657600080fd5b5056fea2646970667358221220c82bb7f88ba10446dd70a4955a89ccf69262136b79f7da9a4fa9b2f8bf69359164736f6c63430008000033","opcodes":"PUSH1 0x80 PUSH1 0x40 MSTORE PUSH1 0x0 PUSH1 0x4 PUSH1 0x0 PUSH2 0x100 EXP DUP2 SLOAD DUP2 PUSH1 0xFF MUL NOT AND SWAP1 DUP4 ISZERO ISZERO MUL OR SWAP1 SSTORE POP CALLVALUE DUP1 ISZERO PUSH3 0x2C JUMPI PUSH1 0x0 DUP1 REVERT JUMPDEST POP PUSH1 0x40 MLOAD PUSH3 0x102D CODESIZE SUB DUP1 PUSH3 0x102D DUP4 CODECOPY DUP2 DUP2 ADD PUSH1 0x40 MSTORE DUP2 ADD SWAP1 PUSH3 0x52 SWAP2 SWAP1 PUSH3 0x5E5 JUMP JUMPDEST PUSH3 0x6E PUSH8 0x4C7A9AD35C6CACBF PUSH1 0xC0 SHL PUSH3 0x355 PUSH1 0x20 SHL PUSH1 0x20 SHR JUMP JUMPDEST PUSH3 0x8A PUSH8 0x40732AD98B3D3EB1 PUSH1 0xC0 SHL PUSH3 0x355 PUSH1 0x20 SHL PUSH1 0x20 SHR JUMP JUMPDEST PUSH3 0xA6 PUSH8 0x7728BA36A8CD1075 PUSH1 0xC0 SHL PUSH3 0x355 PUSH1 0x20 SHL PUSH1 0x20 SHR JUMP JUMPDEST PUSH3 0xB7 DUP3 PUSH3 0x358 PUSH1 0x20 SHL PUSH1 0x20 SHR JUMP JUMPDEST PUSH3 0xD3 PUSH8 0x534A6C42B0E86E63 PUSH1 0xC0 SHL PUSH3 0x355 PUSH1 0x20 SHL PUSH1 0x20 SHR JUMP JUMPDEST PUSH3 0xEF PUSH8 0x2431588DD6F9E578 PUSH1 0xC0 SHL PUSH3 0x355 PUSH1 0x20 SHL PUSH1 0x20 SHR JUMP JUMPDEST PUSH3 0x100 CALLER PUSH3 0x3F4 PUSH1 0x20 SHL PUSH1 0x20 SHR JUMP JUMPDEST PUSH3 0x11C PUSH8 0xE00E3A902DCCC181 PUSH1 0xC0 SHL PUSH3 0x355 PUSH1 0x20 SHL PUSH1 0x20 SHR JUMP JUMPDEST PUSH3 0x12C PUSH3 0x490 PUSH1 0x20 SHL PUSH1 0x20 SHR JUMP JUMPDEST PUSH1 0x4 PUSH1 0x1 PUSH2 0x100 EXP DUP2 SLOAD DUP2 PUSH20 0xFFFFFFFFFFFFFFFFFFFFFFFFFFFFFFFFFFFFFFFF MUL NOT AND SWAP1 DUP4 PUSH20 0xFFFFFFFFFFFFFFFFFFFFFFFFFFFFFFFFFFFFFFFF AND MUL OR SWAP1 SSTORE POP PUSH3 0x188 PUSH8 0x87729D15FF7435DE PUSH1 0xC0 SHL PUSH3 0x355 PUSH1 0x20 SHL PUSH1 0x20 SHR JUMP JUMPDEST PUSH3 0x198 PUSH3 0x52F PUSH1 0x20 SHL PUSH1 0x20 SHR JUMP JUMPDEST PUSH1 0x1 PUSH1 0x0 PUSH2 0x100 EXP DUP2 SLOAD DUP2 PUSH20 0xFFFFFFFFFFFFFFFFFFFFFFFFFFFFFFFFFFFFFFFF MUL NOT AND SWAP1 DUP4 PUSH20 0xFFFFFFFFFFFFFFFFFFFFFFFFFFFFFFFFFFFFFFFF AND MUL OR SWAP1 SSTORE POP PUSH3 0x1F4 PUSH8 0x5B6053CE334B94DC PUSH1 0xC0 SHL PUSH3 0x355 PUSH1 0x20 SHL PUSH1 0x20 SHR JUMP JUMPDEST PUSH3 0x210 PUSH8 0xDB5D9DFFF6FD81C PUSH1 0xC0 SHL PUSH3 0x355 PUSH1 0x20 SHL PUSH1 0x20 SHR JUMP JUMPDEST PUSH1 0x0 DUP2 PUSH1 0x40 MLOAD PUSH1 0x24 ADD PUSH3 0x225 SWAP2 SWAP1 PUSH3 0x687 JUMP JUMPDEST PUSH1 0x40 MLOAD PUSH1 0x20 DUP2 DUP4 SUB SUB DUP2 MSTORE SWAP1 PUSH1 0x40 MSTORE PUSH32 0x90B4B79C00000000000000000000000000000000000000000000000000000000 PUSH28 0xFFFFFFFFFFFFFFFFFFFFFFFFFFFFFFFFFFFFFFFFFFFFFFFFFFFFFFFF NOT AND PUSH1 0x20 DUP3 ADD DUP1 MLOAD PUSH28 0xFFFFFFFFFFFFFFFFFFFFFFFFFFFFFFFFFFFFFFFFFFFFFFFFFFFFFFFF DUP4 DUP2 DUP4 AND OR DUP4 MSTORE POP POP POP POP SWAP1 POP PUSH3 0x2C0 PUSH8 0xD5ABEC86A70E5212 PUSH1 0xC0 SHL PUSH3 0x355 PUSH1 0x20 SHL PUSH1 0x20 SHR JUMP JUMPDEST PUSH3 0x2DC PUSH8 0xFE139F0DCA604F83 PUSH1 0xC0 SHL PUSH3 0x355 PUSH1 0x20 SHL PUSH1 0x20 SHR JUMP JUMPDEST PUSH1 0x0 DUP4 PUSH20 0xFFFFFFFFFFFFFFFFFFFFFFFFFFFFFFFFFFFFFFFF AND DUP3 PUSH1 0x40 MLOAD PUSH3 0x305 SWAP2 SWAP1 PUSH3 0x66E JUMP JUMPDEST PUSH1 0x0 PUSH1 0x40 MLOAD DUP1 DUP4 SUB DUP2 DUP6 GAS DELEGATECALL SWAP2 POP POP RETURNDATASIZE DUP1 PUSH1 0x0 DUP2 EQ PUSH3 0x342 JUMPI PUSH1 0x40 MLOAD SWAP2 POP PUSH1 0x1F NOT PUSH1 0x3F RETURNDATASIZE ADD AND DUP3 ADD PUSH1 0x40 MSTORE RETURNDATASIZE DUP3 MSTORE RETURNDATASIZE PUSH1 0x0 PUSH1 0x20 DUP5 ADD RETURNDATACOPY PUSH3 0x347 JUMP JUMPDEST PUSH1 0x60 SWAP2 POP JUMPDEST POP SWAP2 POP POP POP POP POP POP PUSH3 0x73E JUMP JUMPDEST POP JUMP JUMPDEST PUSH3 0x374 PUSH8 0xA341A99DC1DADCCF PUSH1 0xC0 SHL PUSH3 0x355 PUSH1 0x20 SHL PUSH1 0x20 SHR JUMP JUMPDEST PUSH3 0x390 PUSH8 0x4F5F71BB3BD580C6 PUSH1 0xC0 SHL PUSH3 0x355 PUSH1 0x20 SHL PUSH1 0x20 SHR JUMP JUMPDEST PUSH3 0x3AC PUSH8 0x529EC0686F4B7A95 PUSH1 0xC0 SHL PUSH3 0x355 PUSH1 0x20 SHL PUSH1 0x20 SHR JUMP JUMPDEST PUSH1 0x0 PUSH32 0xBDEFF4DCB7832D4903FCC4E1B401B95E520306665AD43F1F2AE62DE00E2E963F SWAP1 POP PUSH3 0x3ED PUSH8 0xEBD46E6598644625 PUSH1 0xC0 SHL PUSH3 0x355 PUSH1 0x20 SHL PUSH1 0x20 SHR JUMP JUMPDEST DUP2 DUP2 SSTORE POP POP JUMP JUMPDEST PUSH3 0x410 PUSH8 0x1715C1415DF8C465 PUSH1 0xC0 SHL PUSH3 0x355 PUSH1 0x20 SHL PUSH1 0x20 SHR JUMP JUMPDEST PUSH3 0x42C PUSH8 0x53515AE78F23AC1F PUSH1 0xC0 SHL PUSH3 0x355 PUSH1 0x20 SHL PUSH1 0x20 SHR JUMP JUMPDEST PUSH3 0x448 PUSH8 0xF803D2872FFC00E1 PUSH1 0xC0 SHL PUSH3 0x355 PUSH1 0x20 SHL PUSH1 0x20 SHR JUMP JUMPDEST PUSH1 0x0 PUSH32 0x30AB0D7AC4C206E185DD69AF287E1177C2E55FBCC5348145664E0407B2BE9A23 SWAP1 POP PUSH3 0x489 PUSH8 0xF9296F5FB7F54546 PUSH1 0xC0 SHL PUSH3 0x355 PUSH1 0x20 SHL PUSH1 0x20 SHR JUMP JUMPDEST DUP2 DUP2 SSTORE POP POP JUMP JUMPDEST PUSH1 0x0 PUSH3 0x4AE PUSH8 0x14F627ACC398BC3 PUSH1 0xC0 SHL PUSH3 0x355 PUSH1 0x20 SHL PUSH1 0x20 SHR JUMP JUMPDEST PUSH3 0x4CA PUSH8 0x7727187F2D5139B8 PUSH1 0xC0 SHL PUSH3 0x355 PUSH1 0x20 SHL PUSH1 0x20 SHR JUMP JUMPDEST PUSH3 0x4E6 PUSH8 0x776001EF97BBA63B PUSH1 0xC0 SHL PUSH3 0x355 PUSH1 0x20 SHL PUSH1 0x20 SHR JUMP JUMPDEST PUSH1 0x0 PUSH32 0xBDEFF4DCB7832D4903FCC4E1B401B95E520306665AD43F1F2AE62DE00E2E963F SWAP1 POP PUSH3 0x527 PUSH8 0x8DE9ED4C15BAE8DD PUSH1 0xC0 SHL PUSH3 0x355 PUSH1 0x20 SHL PUSH1 0x20 SHR JUMP JUMPDEST DUP1 SLOAD SWAP2 POP POP SWAP1 JUMP JUMPDEST PUSH1 0x0 PUSH3 0x54D PUSH8 0x44A1E87D127EF734 PUSH1 0xC0 SHL PUSH3 0x355 PUSH1 0x20 SHL PUSH1 0x20 SHR JUMP JUMPDEST PUSH3 0x569 PUSH8 0xAA4B20674EC82A74 PUSH1 0xC0 SHL PUSH3 0x355 PUSH1 0x20 SHL PUSH1 0x20 SHR JUMP JUMPDEST PUSH3 0x585 PUSH8 0xA18763B86EB5109B PUSH1 0xC0 SHL PUSH3 0x355 PUSH1 0x20 SHL PUSH1 0x20 SHR JUMP JUMPDEST PUSH1 0x0 PUSH32 0x30AB0D7AC4C206E185DD69AF287E1177C2E55FBCC5348145664E0407B2BE9A23 SWAP1 POP PUSH3 0x5C6 PUSH8 0xCC458853D18BA0FC PUSH1 0xC0 SHL PUSH3 0x355 PUSH1 0x20 SHL PUSH1 0x20 SHR JUMP JUMPDEST DUP1 SLOAD SWAP2 POP POP SWAP1 JUMP JUMPDEST PUSH1 0x0 DUP2 MLOAD SWAP1 POP PUSH3 0x5DF DUP2 PUSH3 0x724 JUMP JUMPDEST SWAP3 SWAP2 POP POP JUMP JUMPDEST PUSH1 0x0 DUP1 PUSH1 0x40 DUP4 DUP6 SUB SLT ISZERO PUSH3 0x5F9 JUMPI PUSH1 0x0 DUP1 REVERT JUMPDEST PUSH1 0x0 PUSH3 0x609 DUP6 DUP3 DUP7 ADD PUSH3 0x5CE JUMP JUMPDEST SWAP3 POP POP PUSH1 0x20 PUSH3 0x61C DUP6 DUP3 DUP7 ADD PUSH3 0x5CE JUMP JUMPDEST SWAP2 POP POP SWAP3 POP SWAP3 SWAP1 POP JUMP JUMPDEST PUSH3 0x631 DUP2 PUSH3 0x6BA JUMP JUMPDEST DUP3 MSTORE POP POP JUMP JUMPDEST PUSH1 0x0 PUSH3 0x644 DUP3 PUSH3 0x6A4 JUMP JUMPDEST PUSH3 0x650 DUP2 DUP6 PUSH3 0x6AF JUMP JUMPDEST SWAP4 POP PUSH3 0x662 DUP2 DUP6 PUSH1 0x20 DUP7 ADD PUSH3 0x6EE JUMP JUMPDEST DUP1 DUP5 ADD SWAP2 POP POP SWAP3 SWAP2 POP POP JUMP JUMPDEST PUSH1 0x0 PUSH3 0x67C DUP3 DUP5 PUSH3 0x637 JUMP JUMPDEST SWAP2 POP DUP2 SWAP1 POP SWAP3 SWAP2 POP POP JUMP JUMPDEST PUSH1 0x0 PUSH1 0x20 DUP3 ADD SWAP1 POP PUSH3 0x69E PUSH1 0x0 DUP4 ADD DUP5 PUSH3 0x626 JUMP JUMPDEST SWAP3 SWAP2 POP POP JUMP JUMPDEST PUSH1 0x0 DUP2 MLOAD SWAP1 POP SWAP2 SWAP1 POP JUMP JUMPDEST PUSH1 0x0 DUP2 SWAP1 POP SWAP3 SWAP2 POP POP JUMP JUMPDEST PUSH1 0x0 PUSH3 0x6C7 DUP3 PUSH3 0x6CE JUMP JUMPDEST SWAP1 POP SWAP2 SWAP1 POP JUMP JUMPDEST PUSH1 0x0 PUSH20 0xFFFFFFFFFFFFFFFFFFFFFFFFFFFFFFFFFFFFFFFF DUP3 AND SWAP1 POP SWAP2 SWAP1 POP JUMP JUMPDEST PUSH1 0x0 JUMPDEST DUP4 DUP2 LT ISZERO PUSH3 0x70E JUMPI DUP1 DUP3 ADD MLOAD DUP2 DUP5 ADD MSTORE PUSH1 0x20 DUP2 ADD SWAP1 POP PUSH3 0x6F1 JUMP JUMPDEST DUP4 DUP2 GT ISZERO PUSH3 0x71E JUMPI PUSH1 0x0 DUP5 DUP5 ADD MSTORE JUMPDEST POP POP POP POP JUMP JUMPDEST PUSH3 0x72F DUP2 PUSH3 0x6BA JUMP JUMPDEST DUP2 EQ PUSH3 0x73B JUMPI PUSH1 0x0 DUP1 REVERT JUMPDEST POP JUMP JUMPDEST PUSH2 0x8DF DUP1 PUSH3 0x74E PUSH1 0x0 CODECOPY PUSH1 0x0 RETURN INVALID PUSH1 0x80 PUSH1 0x40 MSTORE PUSH1 0x4 CALLDATASIZE LT PUSH2 0x8A JUMPI PUSH1 0x0 CALLDATALOAD PUSH1 0xE0 SHR DUP1 PUSH4 0x7D6F9665 GT PUSH2 0x59 JUMPI DUP1 PUSH4 0x7D6F9665 EQ PUSH2 0x183 JUMPI DUP1 PUSH4 0x8DA5CB5B EQ PUSH2 0x1AE JUMPI DUP1 PUSH4 0xC23F001F EQ PUSH2 0x1D9 JUMPI DUP1 PUSH4 0xD7858183 EQ PUSH2 0x216 JUMPI DUP1 PUSH4 0xF348F4FC EQ PUSH2 0x241 JUMPI PUSH2 0x8B JUMP JUMPDEST DUP1 PUSH4 0x900F010 EQ PUSH2 0xD9 JUMPI DUP1 PUSH4 0x117803E3 EQ PUSH2 0x102 JUMPI DUP1 PUSH4 0x3E38B80D EQ PUSH2 0x12D JUMPI DUP1 PUSH4 0x5C60DA1B EQ PUSH2 0x158 JUMPI PUSH2 0x8B JUMP JUMPDEST JUMPDEST PUSH2 0x9F PUSH8 0x702352B9AC8CB11F PUSH1 0xC0 SHL PUSH2 0x27E JUMP JUMPDEST PUSH2 0xB3 PUSH8 0x522533DD673D9157 PUSH1 0xC0 SHL PUSH2 0x27E JUMP JUMPDEST PUSH2 0xC7 PUSH8 0x7A93301DEA86F623 PUSH1 0xC0 SHL PUSH2 0x27E JUMP JUMPDEST PUSH2 0xD7 PUSH2 0xD2 PUSH2 0x281 JUMP JUMPDEST PUSH2 0x300 JUMP JUMPDEST STOP JUMPDEST CALLVALUE DUP1 ISZERO PUSH2 0xE5 JUMPI PUSH1 0x0 DUP1 REVERT JUMPDEST POP PUSH2 0x100 PUSH1 0x4 DUP1 CALLDATASIZE SUB DUP2 ADD SWAP1 PUSH2 0xFB SWAP2 SWAP1 PUSH2 0x70F JUMP JUMPDEST PUSH2 0x3AE JUMP JUMPDEST STOP JUMPDEST CALLVALUE DUP1 ISZERO PUSH2 0x10E JUMPI PUSH1 0x0 DUP1 REVERT JUMPDEST POP PUSH2 0x117 PUSH2 0x510 JUMP JUMPDEST PUSH1 0x40 MLOAD PUSH2 0x124 SWAP2 SWAP1 PUSH2 0x7DF JUMP JUMPDEST PUSH1 0x40 MLOAD DUP1 SWAP2 SUB SWAP1 RETURN JUMPDEST CALLVALUE DUP1 ISZERO PUSH2 0x139 JUMPI PUSH1 0x0 DUP1 REVERT JUMPDEST POP PUSH2 0x142 PUSH2 0x576 JUMP JUMPDEST PUSH1 0x40 MLOAD PUSH2 0x14F SWAP2 SWAP1 PUSH2 0x815 JUMP JUMPDEST PUSH1 0x40 MLOAD DUP1 SWAP2 SUB SWAP1 RETURN JUMPDEST CALLVALUE DUP1 ISZERO PUSH2 0x164 JUMPI PUSH1 0x0 DUP1 REVERT JUMPDEST POP PUSH2 0x16D PUSH2 0x57C JUMP JUMPDEST PUSH1 0x40 MLOAD PUSH2 0x17A SWAP2 SWAP1 PUSH2 0x7DF JUMP JUMPDEST PUSH1 0x40 MLOAD DUP1 SWAP2 SUB SWAP1 RETURN JUMPDEST CALLVALUE DUP1 ISZERO PUSH2 0x18F JUMPI PUSH1 0x0 DUP1 REVERT JUMPDEST POP PUSH2 0x198 PUSH2 0x5A2 JUMP JUMPDEST PUSH1 0x40 MLOAD PUSH2 0x1A5 SWAP2 SWAP1 PUSH2 0x7FA JUMP JUMPDEST PUSH1 0x40 MLOAD DUP1 SWAP2 SUB SWAP1 RETURN JUMPDEST CALLVALUE DUP1 ISZERO PUSH2 0x1BA JUMPI PUSH1 0x0 DUP1 REVERT JUMPDEST POP PUSH2 0x1C3 PUSH2 0x5B5 JUMP JUMPDEST PUSH1 0x40 MLOAD PUSH2 0x1D0 SWAP2 SWAP1 PUSH2 0x7DF JUMP JUMPDEST PUSH1 0x40 MLOAD DUP1 SWAP2 SUB SWAP1 RETURN JUMPDEST CALLVALUE DUP1 ISZERO PUSH2 0x1E5 JUMPI PUSH1 0x0 DUP1 REVERT JUMPDEST POP PUSH2 0x200 PUSH1 0x4 DUP1 CALLDATASIZE SUB DUP2 ADD SWAP1 PUSH2 0x1FB SWAP2 SWAP1 PUSH2 0x738 JUMP JUMPDEST PUSH2 0x5DB JUMP JUMPDEST PUSH1 0x40 MLOAD PUSH2 0x20D SWAP2 SWAP1 PUSH2 0x815 JUMP JUMPDEST PUSH1 0x40 MLOAD DUP1 SWAP2 SUB SWAP1 RETURN JUMPDEST CALLVALUE DUP1 ISZERO PUSH2 0x222 JUMPI PUSH1 0x0 DUP1 REVERT JUMPDEST POP PUSH2 0x22B PUSH2 0x600 JUMP JUMPDEST PUSH1 0x40 MLOAD PUSH2 0x238 SWAP2 SWAP1 PUSH2 0x7DF JUMP JUMPDEST PUSH1 0x40 MLOAD DUP1 SWAP2 SUB SWAP1 RETURN JUMPDEST CALLVALUE DUP1 ISZERO PUSH2 0x24D JUMPI PUSH1 0x0 DUP1 REVERT JUMPDEST POP PUSH2 0x268 PUSH1 0x4 DUP1 CALLDATASIZE SUB DUP2 ADD SWAP1 PUSH2 0x263 SWAP2 SWAP1 PUSH2 0x70F JUMP JUMPDEST PUSH2 0x666 JUMP JUMPDEST PUSH1 0x40 MLOAD PUSH2 0x275 SWAP2 SWAP1 PUSH2 0x815 JUMP JUMPDEST PUSH1 0x40 MLOAD DUP1 SWAP2 SUB SWAP1 RETURN JUMPDEST POP JUMP JUMPDEST PUSH1 0x0 PUSH2 0x297 PUSH8 0x14F627ACC398BC3 PUSH1 0xC0 SHL PUSH2 0x27E JUMP JUMPDEST PUSH2 0x2AB PUSH8 0x7727187F2D5139B8 PUSH1 0xC0 SHL PUSH2 0x27E JUMP JUMPDEST PUSH2 0x2BF PUSH8 0x776001EF97BBA63B PUSH1 0xC0 SHL PUSH2 0x27E JUMP JUMPDEST PUSH1 0x0 PUSH32 0xBDEFF4DCB7832D4903FCC4E1B401B95E520306665AD43F1F2AE62DE00E2E963F SWAP1 POP PUSH2 0x2F8 PUSH8 0x8DE9ED4C15BAE8DD PUSH1 0xC0 SHL PUSH2 0x27E JUMP JUMPDEST DUP1 SLOAD SWAP2 POP POP SWAP1 JUMP JUMPDEST PUSH2 0x314 PUSH8 0x6A263C0A656EB02E PUSH1 0xC0 SHL PUSH2 0x27E JUMP JUMPDEST PUSH2 0x328 PUSH8 0x322F8BA2FC95466C PUSH1 0xC0 SHL PUSH2 0x27E JUMP JUMPDEST PUSH2 0x33C PUSH8 0xCDA9800BD4377FC7 PUSH1 0xC0 SHL PUSH2 0x27E JUMP JUMPDEST PUSH1 0x0 DUP2 PUSH20 0xFFFFFFFFFFFFFFFFFFFFFFFFFFFFFFFFFFFFFFFF AND PUSH1 0x0 CALLDATASIZE PUSH1 0x40 MLOAD PUSH2 0x366 SWAP3 SWAP2 SWAP1 PUSH2 0x7C6 JUMP JUMPDEST PUSH1 0x0 PUSH1 0x40 MLOAD DUP1 DUP4 SUB DUP2 DUP6 GAS DELEGATECALL SWAP2 POP POP RETURNDATASIZE DUP1 PUSH1 0x0 DUP2 EQ PUSH2 0x3A1 JUMPI PUSH1 0x40 MLOAD SWAP2 POP PUSH1 0x1F NOT PUSH1 0x3F RETURNDATASIZE ADD AND DUP3 ADD PUSH1 0x40 MSTORE RETURNDATASIZE DUP3 MSTORE RETURNDATASIZE PUSH1 0x0 PUSH1 0x20 DUP5 ADD RETURNDATACOPY PUSH2 0x3A6 JUMP JUMPDEST PUSH1 0x60 SWAP2 POP JUMPDEST POP SWAP2 POP POP POP POP JUMP JUMPDEST PUSH2 0x3C2 PUSH8 0x7519C7874F503729 PUSH1 0xC0 SHL PUSH2 0x27E JUMP JUMPDEST PUSH2 0x3D6 PUSH8 0x488FD798612D1C9B PUSH1 0xC0 SHL PUSH2 0x27E JUMP JUMPDEST PUSH2 0x3EA PUSH8 0xF63FFC486D706BBE PUSH1 0xC0 SHL PUSH2 0x27E JUMP JUMPDEST PUSH1 0x1 PUSH1 0x0 SWAP1 SLOAD SWAP1 PUSH2 0x100 EXP SWAP1 DIV PUSH20 0xFFFFFFFFFFFFFFFFFFFFFFFFFFFFFFFFFFFFFFFF AND PUSH20 0xFFFFFFFFFFFFFFFFFFFFFFFFFFFFFFFFFFFFFFFF AND CALLER PUSH20 0xFFFFFFFFFFFFFFFFFFFFFFFFFFFFFFFFFFFFFFFF AND EQ PUSH2 0x46C JUMPI PUSH2 0x453 PUSH8 0x772670C8288AF715 PUSH1 0xC0 SHL PUSH2 0x27E JUMP JUMPDEST PUSH2 0x467 PUSH8 0xECE39F297A12C032 PUSH1 0xC0 SHL PUSH2 0x27E JUMP JUMPDEST PUSH1 0x0 DUP1 REVERT JUMPDEST PUSH2 0x480 PUSH8 0x5CCA1C478A99F4C5 PUSH1 0xC0 SHL PUSH2 0x27E JUMP JUMPDEST PUSH2 0x494 PUSH8 0xC55F472A45B63F21 PUSH1 0xC0 SHL PUSH2 0x27E JUMP JUMPDEST PUSH2 0x4A8 PUSH8 0x3F103A2F28817C2C PUSH1 0xC0 SHL PUSH2 0x27E JUMP JUMPDEST PUSH2 0x4B1 DUP2 PUSH2 0x67E JUMP JUMPDEST PUSH2 0x4C5 PUSH8 0x856CAE8F93092816 PUSH1 0xC0 SHL PUSH2 0x27E JUMP JUMPDEST PUSH2 0x4CD PUSH2 0x281 JUMP JUMPDEST PUSH1 0x4 PUSH1 0x1 PUSH2 0x100 EXP DUP2 SLOAD DUP2 PUSH20 0xFFFFFFFFFFFFFFFFFFFFFFFFFFFFFFFFFFFFFFFF MUL NOT AND SWAP1 DUP4 PUSH20 0xFFFFFFFFFFFFFFFFFFFFFFFFFFFFFFFFFFFFFFFF AND MUL OR SWAP1 SSTORE POP POP JUMP JUMPDEST PUSH1 0x0 PUSH2 0x526 PUSH8 0xCBA700DEAB8F3BDF PUSH1 0xC0 SHL PUSH2 0x27E JUMP JUMPDEST PUSH2 0x53A PUSH8 0xDA1C4FA783C7A48A PUSH1 0xC0 SHL PUSH2 0x27E JUMP JUMPDEST PUSH2 0x54E PUSH8 0xC3D99CAA7575E1C6 PUSH1 0xC0 SHL PUSH2 0x27E JUMP JUMPDEST PUSH1 0x1 PUSH1 0x0 SWAP1 SLOAD SWAP1 PUSH2 0x100 EXP SWAP1 DIV PUSH20 0xFFFFFFFFFFFFFFFFFFFFFFFFFFFFFFFFFFFFFFFF AND SWAP1 POP SWAP1 JUMP JUMPDEST PUSH1 0x3 SLOAD DUP2 JUMP JUMPDEST PUSH1 0x4 PUSH1 0x1 SWAP1 SLOAD SWAP1 PUSH2 0x100 EXP SWAP1 DIV PUSH20 0xFFFFFFFFFFFFFFFFFFFFFFFFFFFFFFFFFFFFFFFF AND DUP2 JUMP JUMPDEST PUSH1 0x4 PUSH1 0x0 SWAP1 SLOAD SWAP1 PUSH2 0x100 EXP SWAP1 DIV PUSH1 0xFF AND DUP2 JUMP JUMPDEST PUSH1 0x1 PUSH1 0x0 SWAP1 SLOAD SWAP1 PUSH2 0x100 EXP SWAP1 DIV PUSH20 0xFFFFFFFFFFFFFFFFFFFFFFFFFFFFFFFFFFFFFFFF AND DUP2 JUMP JUMPDEST PUSH1 0x0 PUSH1 0x20 MSTORE DUP2 PUSH1 0x0 MSTORE PUSH1 0x40 PUSH1 0x0 KECCAK256 PUSH1 0x20 MSTORE DUP1 PUSH1 0x0 MSTORE PUSH1 0x40 PUSH1 0x0 KECCAK256 PUSH1 0x0 SWAP2 POP SWAP2 POP POP SLOAD DUP2 JUMP JUMPDEST PUSH1 0x0 PUSH2 0x616 PUSH8 0x96C667E29E5956CE PUSH1 0xC0 SHL PUSH2 0x27E JUMP JUMPDEST PUSH2 0x62A PUSH8 0x16A32E2EF48DA923 PUSH1 0xC0 SHL PUSH2 0x27E JUMP JUMPDEST PUSH2 0x63E PUSH8 0xA45B0E7893624256 PUSH1 0xC0 SHL PUSH2 0x27E JUMP JUMPDEST PUSH1 0x4 PUSH1 0x1 SWAP1 SLOAD SWAP1 PUSH2 0x100 EXP SWAP1 DIV PUSH20 0xFFFFFFFFFFFFFFFFFFFFFFFFFFFFFFFFFFFFFFFF AND SWAP1 POP SWAP1 JUMP JUMPDEST PUSH1 0x2 PUSH1 0x20 MSTORE DUP1 PUSH1 0x0 MSTORE PUSH1 0x40 PUSH1 0x0 KECCAK256 PUSH1 0x0 SWAP2 POP SWAP1 POP SLOAD DUP2 JUMP JUMPDEST PUSH2 0x692 PUSH8 0xA341A99DC1DADCCF PUSH1 0xC0 SHL PUSH2 0x27E JUMP JUMPDEST PUSH2 0x6A6 PUSH8 0x4F5F71BB3BD580C6 PUSH1 0xC0 SHL PUSH2 0x27E JUMP JUMPDEST PUSH2 0x6BA PUSH8 0x529EC0686F4B7A95 PUSH1 0xC0 SHL PUSH2 0x27E JUMP JUMPDEST PUSH1 0x0 PUSH32 0xBDEFF4DCB7832D4903FCC4E1B401B95E520306665AD43F1F2AE62DE00E2E963F SWAP1 POP PUSH2 0x6F3 PUSH8 0xEBD46E6598644625 PUSH1 0xC0 SHL PUSH2 0x27E JUMP JUMPDEST DUP2 DUP2 SSTORE POP POP JUMP JUMPDEST PUSH1 0x0 DUP2 CALLDATALOAD SWAP1 POP PUSH2 0x709 DUP2 PUSH2 0x892 JUMP JUMPDEST SWAP3 SWAP2 POP POP JUMP JUMPDEST PUSH1 0x0 PUSH1 0x20 DUP3 DUP5 SUB SLT ISZERO PUSH2 0x721 JUMPI PUSH1 0x0 DUP1 REVERT JUMPDEST PUSH1 0x0 PUSH2 0x72F DUP5 DUP3 DUP6 ADD PUSH2 0x6FA JUMP JUMPDEST SWAP2 POP POP SWAP3 SWAP2 POP POP JUMP JUMPDEST PUSH1 0x0 DUP1 PUSH1 0x40 DUP4 DUP6 SUB SLT ISZERO PUSH2 0x74B JUMPI PUSH1 0x0 DUP1 REVERT JUMPDEST PUSH1 0x0 PUSH2 0x759 DUP6 DUP3 DUP7 ADD PUSH2 0x6FA JUMP JUMPDEST SWAP3 POP POP PUSH1 0x20 PUSH2 0x76A DUP6 DUP3 DUP7 ADD PUSH2 0x6FA JUMP JUMPDEST SWAP2 POP POP SWAP3 POP SWAP3 SWAP1 POP JUMP JUMPDEST PUSH2 0x77D DUP2 PUSH2 0x83B JUMP JUMPDEST DUP3 MSTORE POP POP JUMP JUMPDEST PUSH2 0x78C DUP2 PUSH2 0x84D JUMP JUMPDEST DUP3 MSTORE POP POP JUMP JUMPDEST PUSH1 0x0 PUSH2 0x79E DUP4 DUP6 PUSH2 0x830 JUMP JUMPDEST SWAP4 POP PUSH2 0x7AB DUP4 DUP6 DUP5 PUSH2 0x883 JUMP JUMPDEST DUP3 DUP5 ADD SWAP1 POP SWAP4 SWAP3 POP POP POP JUMP JUMPDEST PUSH2 0x7C0 DUP2 PUSH2 0x879 JUMP JUMPDEST DUP3 MSTORE POP POP JUMP JUMPDEST PUSH1 0x0 PUSH2 0x7D3 DUP3 DUP5 DUP7 PUSH2 0x792 JUMP JUMPDEST SWAP2 POP DUP2 SWAP1 POP SWAP4 SWAP3 POP POP POP JUMP JUMPDEST PUSH1 0x0 PUSH1 0x20 DUP3 ADD SWAP1 POP PUSH2 0x7F4 PUSH1 0x0 DUP4 ADD DUP5 PUSH2 0x774 JUMP JUMPDEST SWAP3 SWAP2 POP POP JUMP JUMPDEST PUSH1 0x0 PUSH1 0x20 DUP3 ADD SWAP1 POP PUSH2 0x80F PUSH1 0x0 DUP4 ADD DUP5 PUSH2 0x783 JUMP JUMPDEST SWAP3 SWAP2 POP POP JUMP JUMPDEST PUSH1 0x0 PUSH1 0x20 DUP3 ADD SWAP1 POP PUSH2 0x82A PUSH1 0x0 DUP4 ADD DUP5 PUSH2 0x7B7 JUMP JUMPDEST SWAP3 SWAP2 POP POP JUMP JUMPDEST PUSH1 0x0 DUP2 SWAP1 POP SWAP3 SWAP2 POP POP JUMP JUMPDEST PUSH1 0x0 PUSH2 0x846 DUP3 PUSH2 0x859 JUMP JUMPDEST SWAP1 POP SWAP2 SWAP1 POP JUMP JUMPDEST PUSH1 0x0 DUP2 ISZERO ISZERO SWAP1 POP SWAP2 SWAP1 POP JUMP JUMPDEST PUSH1 0x0 PUSH20 0xFFFFFFFFFFFFFFFFFFFFFFFFFFFFFFFFFFFFFFFF DUP3 AND SWAP1 POP SWAP2 SWAP1 POP JUMP JUMPDEST PUSH1 0x0 DUP2 SWAP1 POP SWAP2 SWAP1 POP JUMP JUMPDEST DUP3 DUP2 DUP4 CALLDATACOPY PUSH1 0x0 DUP4 DUP4 ADD MSTORE POP POP POP JUMP JUMPDEST PUSH2 0x89B DUP2 PUSH2 0x83B JUMP JUMPDEST DUP2 EQ PUSH2 0x8A6 JUMPI PUSH1 0x0 DUP1 REVERT JUMPDEST POP JUMP INVALID LOG2 PUSH5 0x6970667358 0x22 SLT KECCAK256 0xC8 0x2B 0xB7 0xF8 DUP12 LOG1 DIV CHAINID 0xDD PUSH17 0xA4955A89CCF69262136B79F7DA9A4FA9B2 0xF8 0xBF PUSH10 0x359164736F6C63430008 STOP STOP CALLER "},"methodIdentifiers":{"OWNER()":"117803e3","Totaltax()":"3e38b80d","balances(address,address)":"c23f001f","getimplementation()":"d7858183","implementation()":"5c60da1b","isOwnerinit()":"7d6f9665","owner()":"8da5cb5b","tokenFee(address)":"f348f4fc","upgrade(address)":"0900f010"}}}}}