{"contracts/InitSimplesafe.sol":{"InitSimplesafe":{"abi":[{"inputs":[],"name":"Totaltax","outputs":[{"internalType":"uint256","name":"","type":"uint256"}],"stateMutability":"view","type":"function"},{"inputs":[{"internalType":"address","name":"token","type":"address"}],"name":"balanceOf","outputs":[{"internalType":"uint256","name":"","type":"uint256"}],"stateMutability":"view","type":"function"},{"inputs":[{"internalType":"address","name":"","type":"address"},{"internalType":"address","name":"","type":"address"}],"name":"balances","outputs":[{"internalType":"uint256","name":"","type":"uint256"}],"stateMutability":"view","type":"function"},{"inputs":[{"internalType":"address","name":"token","type":"address"},{"internalType":"uint256","name":"amount","type":"uint256"}],"name":"deposit","outputs":[],"stateMutability":"nonpayable","type":"function"},{"inputs":[{"internalType":"address","name":"newOwner","type":"address"}],"name":"initialization","outputs":[],"stateMutability":"payable","type":"function"},{"inputs":[],"name":"isOwnerinit","outputs":[{"internalType":"bool","name":"","type":"bool"}],"stateMutability":"view","type":"function"},{"inputs":[],"name":"owner","outputs":[{"internalType":"address payable","name":"","type":"address"}],"stateMutability":"view","type":"function"},{"inputs":[{"internalType":"address","name":"token","type":"address"}],"name":"takeFee","outputs":[],"stateMutability":"nonpayable","type":"function"},{"inputs":[{"internalType":"address","name":"","type":"address"}],"name":"tokenFee","outputs":[{"internalType":"uint256","name":"","type":"uint256"}],"stateMutability":"view","type":"function"},{"inputs":[{"internalType":"address","name":"token","type":"address"},{"internalType":"uint256","name":"amount","type":"uint256"}],"name":"withdraw","outputs":[],"stateMutability":"nonpayable","type":"function"}],"evm":{"bytecode":{"linkReferences":{},"object":"60806040526000600460006101000a81548160ff02191690831515021790555034801561002b57600080fd5b506116c88061003b6000396000f3fe6080604052600436106100915760003560e01c806390b4b79c1161005957806390b4b79c1461017d578063a5bf8ec614610199578063c23f001f146101c2578063f348f4fc146101ff578063f3fef3a31461023c57610091565b80633e38b80d1461009657806347e7ef24146100c157806370a08231146100ea5780637d6f9665146101275780638da5cb5b14610152575b600080fd5b3480156100a257600080fd5b506100ab610265565b6040516100b891906114ae565b60405180910390f35b3480156100cd57600080fd5b506100e860048036038101906100e3919061103f565b61026b565b005b3480156100f657600080fd5b50610111600480360381019061010c9190610fda565b610534565b60405161011e91906114ae565b60405180910390f35b34801561013357600080fd5b5061013c6105f5565b60405161014991906113b3565b60405180910390f35b34801561015e57600080fd5b50610167610608565b6040516101749190611338565b60405180910390f35b61019760048036038101906101929190610fda565b61062e565b005b3480156101a557600080fd5b506101c060048036038101906101bb9190610fda565b610768565b005b3480156101ce57600080fd5b506101e960048036038101906101e49190611003565b610a92565b6040516101f691906114ae565b60405180910390f35b34801561020b57600080fd5b5061022660048036038101906102219190610fda565b610ab7565b60405161023391906114ae565b60405180910390f35b34801561024857600080fd5b50610263600480360381019061025e919061103f565b610acf565b005b60035481565b61027f67212223a22b20b68260c01b610f98565b6102936783ec5d0ed8bc0aa060c01b610f98565b6102a767f3fe789e647f625c60c01b610f98565b6102bb671bf7398593a7eadc60c01b610f98565b600081116102fe576040517f08c379a00000000000000000000000000000000000000000000000000000000081526004016102f5906113ee565b60405180910390fd5b610312675beb9c72c216f46a60c01b610f98565b61032667f034bed47d3f494560c01b610f98565b61033a67e684d89cf421ba1760c01b610f98565b61034e67ef3564f411c32e1e60c01b610f98565b600073ffffffffffffffffffffffffffffffffffffffff168273ffffffffffffffffffffffffffffffffffffffff1614156103be576040517f08c379a00000000000000000000000000000000000000000000000000000000081526004016103b59061144e565b60405180910390fd5b6103d267bed77937122f4f9b60c01b610f98565b6103e6679893f2a0723a728160c01b610f98565b6103fa6726ba89ff658fc30060c01b610f98565b8173ffffffffffffffffffffffffffffffffffffffff166323b872dd3330846040518463ffffffff1660e01b815260040161043793929190611353565b602060405180830381600087803b15801561045157600080fd5b505af1158015610465573d6000803e3d6000fd5b505050506040513d601f19601f82011682018060405250810190610489919061107b565b5061049e6719028d016887499560c01b610f98565b806000803373ffffffffffffffffffffffffffffffffffffffff1673ffffffffffffffffffffffffffffffffffffffff16815260200190815260200160002060008473ffffffffffffffffffffffffffffffffffffffff1673ffffffffffffffffffffffffffffffffffffffff168152602001908152602001600020600082825461052991906114da565b925050819055505050565b600061054a67dbc157e489002ea860c01b610f98565b61055e67126d4d6dea730ebd60c01b610f98565b61057267b513085ee026f1b660c01b610f98565b6000803373ffffffffffffffffffffffffffffffffffffffff1673ffffffffffffffffffffffffffffffffffffffff16815260200190815260200160002060008373ffffffffffffffffffffffffffffffffffffffff1673ffffffffffffffffffffffffffffffffffffffff168152602001908152602001600020549050919050565b600460009054906101000a900460ff1681565b600160009054906101000a900473ffffffffffffffffffffffffffffffffffffffff1681565b61064267c32873ac7a651bd760c01b610f98565b61065667779fb9bb40bbb85a60c01b610f98565b61066a6746a54fbc033d298860c01b610f98565b61067e6786f3c0553004480f60c01b610f98565b600460009054906101000a900460ff16156106ce576040517f08c379a00000000000000000000000000000000000000000000000000000000081526004016106c59061142e565b60405180910390fd5b6106e267366a7f15e7424e3b60c01b610f98565b6106f6670eb929652adde57660c01b610f98565b80600160006101000a81548173ffffffffffffffffffffffffffffffffffffffff021916908373ffffffffffffffffffffffffffffffffffffffff16021790555061074a66d7335bfd19403760c01b610f98565b6001600460006101000a81548160ff02191690831515021790555050565b61077c6768f5b3dbb257748f60c01b610f98565b61079067cf0d6a6c78a1d30a60c01b610f98565b6107a467ad565021bb2657b160c01b610f98565b6107b867aeed176d946607d760c01b610f98565b6107cc67a8ec9397b593c08c60c01b610f98565b600160009054906101000a900473ffffffffffffffffffffffffffffffffffffffff1673ffffffffffffffffffffffffffffffffffffffff163373ffffffffffffffffffffffffffffffffffffffff161461085c576040517f08c379a0000000000000000000000000000000000000000000000000000000008152600401610853906113ce565b60405180910390fd5b61087067bfd82387bfa6f32b60c01b610f98565b610884678667e0c40dfbf05260c01b610f98565b610898674afd7efcc838ac8b60c01b610f98565b6108ac675dddd9d6922383a860c01b610f98565b6108c067a94c6844dc82f36d60c01b610f98565b6108d467b4fa0e5239d1b42060c01b610f98565b6000600260008373ffffffffffffffffffffffffffffffffffffffff1673ffffffffffffffffffffffffffffffffffffffff16815260200190815260200160002054905061092c67063112a550cb0d1a60c01b610f98565b610940675e772b3908ad96b260c01b610f98565b610954678451102aa7bbcabf60c01b610f98565b60008111610997576040517f08c379a000000000000000000000000000000000000000000000000000000000815260040161098e9061140e565b60405180910390fd5b6109ab677c8b4f33513c640f60c01b610f98565b6109bf6707413b581faaa71f60c01b610f98565b80600360008282546109d19190611561565b925050819055506109ec67935844714933626760c01b610f98565b610a0067ee20543f292e028860c01b610f98565b8173ffffffffffffffffffffffffffffffffffffffff1663a9059cbb33836040518363ffffffff1660e01b8152600401610a3b92919061138a565b602060405180830381600087803b158015610a5557600080fd5b505af1158015610a69573d6000803e3d6000fd5b505050506040513d601f19601f82011682018060405250810190610a8d919061107b565b505050565b6000602052816000526040600020602052806000526040600020600091509150505481565b60026020528060005260406000206000915090505481565b610ae367992daee7aac83dfc60c01b610f98565b610af7676b65466f75fee59060c01b610f98565b610b0b670abe5ec78f15196660c01b610f98565b610b1f674fb1d9cc38b2f0be60c01b610f98565b60008111610b62576040517f08c379a0000000000000000000000000000000000000000000000000000000008152600401610b599061146e565b60405180910390fd5b610b76673662bceefc3cf1c460c01b610f98565b610b8a67cab9c553da7364a660c01b610f98565b610b9e677a84cd97b4f70bb060c01b610f98565b610bb267d24c8b060e42e98e60c01b610f98565b806000803373ffffffffffffffffffffffffffffffffffffffff1673ffffffffffffffffffffffffffffffffffffffff16815260200190815260200160002060008473ffffffffffffffffffffffffffffffffffffffff1673ffffffffffffffffffffffffffffffffffffffff168152602001908152602001600020541015610c70576040517f08c379a0000000000000000000000000000000000000000000000000000000008152600401610c679061148e565b60405180910390fd5b610c8467bd8ef6440696572c60c01b610f98565b610c9867c160fd752b0afda460c01b610f98565b610cac67190d3243de7b0b7160c01b610f98565b610cc0677b9b9fd9270a8e1660c01b610f98565b600073ffffffffffffffffffffffffffffffffffffffff168273ffffffffffffffffffffffffffffffffffffffff161415610d30576040517f08c379a0000000000000000000000000000000000000000000000000000000008152600401610d279061144e565b60405180910390fd5b610d4467b10df451018382b360c01b610f98565b610d586784ca9ee0af6448f760c01b610f98565b806000803373ffffffffffffffffffffffffffffffffffffffff1673ffffffffffffffffffffffffffffffffffffffff16815260200190815260200160002060008473ffffffffffffffffffffffffffffffffffffffff1673ffffffffffffffffffffffffffffffffffffffff1681526020019081526020016000206000828254610de39190611561565b92505081905550610dfe67a92cc80fc7e6ceb160c01b610f98565b610e12678e43f18b91fa0e8560c01b610f98565b60006103e882610e229190611530565b9050610e3867d72140f32c0bb92060c01b610f98565b80600260008573ffffffffffffffffffffffffffffffffffffffff1673ffffffffffffffffffffffffffffffffffffffff1681526020019081526020016000206000828254610e8791906114da565b92505081905550610ea2679cd41aaf94b27d4960c01b610f98565b8060036000828254610eb491906114da565b92505081905550610ecf67a5f657d88ea0a56960c01b610f98565b8082610edb9190611561565b9150610ef16792de6c4f8244c06e60c01b610f98565b610f056730a04077de53e7ee60c01b610f98565b8273ffffffffffffffffffffffffffffffffffffffff1663a9059cbb33846040518363ffffffff1660e01b8152600401610f4092919061138a565b602060405180830381600087803b158015610f5a57600080fd5b505af1158015610f6e573d6000803e3d6000fd5b505050506040513d601f19601f82011682018060405250810190610f92919061107b565b50505050565b50565b600081359050610faa8161164d565b92915050565b600081519050610fbf81611664565b92915050565b600081359050610fd48161167b565b92915050565b600060208284031215610fec57600080fd5b6000610ffa84828501610f9b565b91505092915050565b6000806040838503121561101657600080fd5b600061102485828601610f9b565b925050602061103585828601610f9b565b9150509250929050565b6000806040838503121561105257600080fd5b600061106085828601610f9b565b925050602061107185828601610fc5565b9150509250929050565b60006020828403121561108d57600080fd5b600061109b84828501610fb0565b91505092915050565b6110ad816115a7565b82525050565b6110bc81611595565b82525050565b6110cb816115b9565b82525050565b60006110de6026836114c9565b91507f4f6e6c7920746865206f776e65722063616e2063616c6c20746869732066756e60008301527f6374696f6e2e00000000000000000000000000000000000000000000000000006020830152604082019050919050565b60006111446025836114c9565b91507f4465706f73697420616d6f756e74206d7573742062652067726561746572207460008301527f68616e20300000000000000000000000000000000000000000000000000000006020830152604082019050919050565b60006111aa602b836114c9565b91507f5468657265206e6f20656e6f7567682074617820666f7220796f75207769746860008301527f207468697320746f6b656e0000000000000000000000000000000000000000006020830152604082019050919050565b6000611210601f836114c9565b91507f4f776e65722063616e206f6e6c79206265206368616e676564206f6e63652e006000830152602082019050919050565b6000611250601b836114c9565b91507f546f6b656e2061646472657373206d7573742062652076616c696400000000006000830152602082019050919050565b60006112906028836114c9565b91507f5769746864726177616c20616d6f756e74206d7573742062652067726561746560008301527f72207468616e20300000000000000000000000000000000000000000000000006020830152604082019050919050565b60006112f66015836114c9565b91507f52756e206f7574206f6620796f7572206d6f6e657900000000000000000000006000830152602082019050919050565b611332816115e5565b82525050565b600060208201905061134d60008301846110a4565b92915050565b600060608201905061136860008301866110b3565b61137560208301856110b3565b6113826040830184611329565b949350505050565b600060408201905061139f60008301856110b3565b6113ac6020830184611329565b9392505050565b60006020820190506113c860008301846110c2565b92915050565b600060208201905081810360008301526113e7816110d1565b9050919050565b6000602082019050818103600083015261140781611137565b9050919050565b600060208201905081810360008301526114278161119d565b9050919050565b6000602082019050818103600083015261144781611203565b9050919050565b6000602082019050818103600083015261146781611243565b9050919050565b6000602082019050818103600083015261148781611283565b9050919050565b600060208201905081810360008301526114a7816112e9565b9050919050565b60006020820190506114c36000830184611329565b92915050565b600082825260208201905092915050565b60006114e5826115e5565b91506114f0836115e5565b9250827fffffffffffffffffffffffffffffffffffffffffffffffffffffffffffffffff03821115611525576115246115ef565b5b828201905092915050565b600061153b826115e5565b9150611546836115e5565b9250826115565761155561161e565b5b828204905092915050565b600061156c826115e5565b9150611577836115e5565b92508282101561158a576115896115ef565b5b828203905092915050565b60006115a0826115c5565b9050919050565b60006115b2826115c5565b9050919050565b60008115159050919050565b600073ffffffffffffffffffffffffffffffffffffffff82169050919050565b6000819050919050565b7f4e487b7100000000000000000000000000000000000000000000000000000000600052601160045260246000fd5b7f4e487b7100000000000000000000000000000000000000000000000000000000600052601260045260246000fd5b61165681611595565b811461166157600080fd5b50565b61166d816115b9565b811461167857600080fd5b50565b611684816115e5565b811461168f57600080fd5b5056fea2646970667358221220799b74eab116049168a6cdee325dc91306b3c8c0ccc900ddc28e853335313f5764736f6c63430008000033","opcodes":"PUSH1 0x80 PUSH1 0x40 MSTORE PUSH1 0x0 PUSH1 0x4 PUSH1 0x0 PUSH2 0x100 EXP DUP2 SLOAD DUP2 PUSH1 0xFF MUL NOT AND SWAP1 DUP4 ISZERO ISZERO MUL OR SWAP1 SSTORE POP CALLVALUE DUP1 ISZERO PUSH2 0x2B JUMPI PUSH1 0x0 DUP1 REVERT JUMPDEST POP PUSH2 0x16C8 DUP1 PUSH2 0x3B PUSH1 0x0 CODECOPY PUSH1 0x0 RETURN INVALID PUSH1 0x80 PUSH1 0x40 MSTORE PUSH1 0x4 CALLDATASIZE LT PUSH2 0x91 JUMPI PUSH1 0x0 CALLDATALOAD PUSH1 0xE0 SHR DUP1 PUSH4 0x90B4B79C GT PUSH2 0x59 JUMPI DUP1 PUSH4 0x90B4B79C EQ PUSH2 0x17D JUMPI DUP1 PUSH4 0xA5BF8EC6 EQ PUSH2 0x199 JUMPI DUP1 PUSH4 0xC23F001F EQ PUSH2 0x1C2 JUMPI DUP1 PUSH4 0xF348F4FC EQ PUSH2 0x1FF JUMPI DUP1 PUSH4 0xF3FEF3A3 EQ PUSH2 0x23C JUMPI PUSH2 0x91 JUMP JUMPDEST DUP1 PUSH4 0x3E38B80D EQ PUSH2 0x96 JUMPI DUP1 PUSH4 0x47E7EF24 EQ PUSH2 0xC1 JUMPI DUP1 PUSH4 0x70A08231 EQ PUSH2 0xEA JUMPI DUP1 PUSH4 0x7D6F9665 EQ PUSH2 0x127 JUMPI DUP1 PUSH4 0x8DA5CB5B EQ PUSH2 0x152 JUMPI JUMPDEST PUSH1 0x0 DUP1 REVERT JUMPDEST CALLVALUE DUP1 ISZERO PUSH2 0xA2 JUMPI PUSH1 0x0 DUP1 REVERT JUMPDEST POP PUSH2 0xAB PUSH2 0x265 JUMP JUMPDEST PUSH1 0x40 MLOAD PUSH2 0xB8 SWAP2 SWAP1 PUSH2 0x14AE JUMP JUMPDEST PUSH1 0x40 MLOAD DUP1 SWAP2 SUB SWAP1 RETURN JUMPDEST CALLVALUE DUP1 ISZERO PUSH2 0xCD JUMPI PUSH1 0x0 DUP1 REVERT JUMPDEST POP PUSH2 0xE8 PUSH1 0x4 DUP1 CALLDATASIZE SUB DUP2 ADD SWAP1 PUSH2 0xE3 SWAP2 SWAP1 PUSH2 0x103F JUMP JUMPDEST PUSH2 0x26B JUMP JUMPDEST STOP JUMPDEST CALLVALUE DUP1 ISZERO PUSH2 0xF6 JUMPI PUSH1 0x0 DUP1 REVERT JUMPDEST POP PUSH2 0x111 PUSH1 0x4 DUP1 CALLDATASIZE SUB DUP2 ADD SWAP1 PUSH2 0x10C SWAP2 SWAP1 PUSH2 0xFDA JUMP JUMPDEST PUSH2 0x534 JUMP JUMPDEST PUSH1 0x40 MLOAD PUSH2 0x11E SWAP2 SWAP1 PUSH2 0x14AE JUMP JUMPDEST PUSH1 0x40 MLOAD DUP1 SWAP2 SUB SWAP1 RETURN JUMPDEST CALLVALUE DUP1 ISZERO PUSH2 0x133 JUMPI PUSH1 0x0 DUP1 REVERT JUMPDEST POP PUSH2 0x13C PUSH2 0x5F5 JUMP JUMPDEST PUSH1 0x40 MLOAD PUSH2 0x149 SWAP2 SWAP1 PUSH2 0x13B3 JUMP JUMPDEST PUSH1 0x40 MLOAD DUP1 SWAP2 SUB SWAP1 RETURN JUMPDEST CALLVALUE DUP1 ISZERO PUSH2 0x15E JUMPI PUSH1 0x0 DUP1 REVERT JUMPDEST POP PUSH2 0x167 PUSH2 0x608 JUMP JUMPDEST PUSH1 0x40 MLOAD PUSH2 0x174 SWAP2 SWAP1 PUSH2 0x1338 JUMP JUMPDEST PUSH1 0x40 MLOAD DUP1 SWAP2 SUB SWAP1 RETURN JUMPDEST PUSH2 0x197 PUSH1 0x4 DUP1 CALLDATASIZE SUB DUP2 ADD SWAP1 PUSH2 0x192 SWAP2 SWAP1 PUSH2 0xFDA JUMP JUMPDEST PUSH2 0x62E JUMP JUMPDEST STOP JUMPDEST CALLVALUE DUP1 ISZERO PUSH2 0x1A5 JUMPI PUSH1 0x0 DUP1 REVERT JUMPDEST POP PUSH2 0x1C0 PUSH1 0x4 DUP1 CALLDATASIZE SUB DUP2 ADD SWAP1 PUSH2 0x1BB SWAP2 SWAP1 PUSH2 0xFDA JUMP JUMPDEST PUSH2 0x768 JUMP JUMPDEST STOP JUMPDEST CALLVALUE DUP1 ISZERO PUSH2 0x1CE JUMPI PUSH1 0x0 DUP1 REVERT JUMPDEST POP PUSH2 0x1E9 PUSH1 0x4 DUP1 CALLDATASIZE SUB DUP2 ADD SWAP1 PUSH2 0x1E4 SWAP2 SWAP1 PUSH2 0x1003 JUMP JUMPDEST PUSH2 0xA92 JUMP JUMPDEST PUSH1 0x40 MLOAD PUSH2 0x1F6 SWAP2 SWAP1 PUSH2 0x14AE JUMP JUMPDEST PUSH1 0x40 MLOAD DUP1 SWAP2 SUB SWAP1 RETURN JUMPDEST CALLVALUE DUP1 ISZERO PUSH2 0x20B JUMPI PUSH1 0x0 DUP1 REVERT JUMPDEST POP PUSH2 0x226 PUSH1 0x4 DUP1 CALLDATASIZE SUB DUP2 ADD SWAP1 PUSH2 0x221 SWAP2 SWAP1 PUSH2 0xFDA JUMP JUMPDEST PUSH2 0xAB7 JUMP JUMPDEST PUSH1 0x40 MLOAD PUSH2 0x233 SWAP2 SWAP1 PUSH2 0x14AE JUMP JUMPDEST PUSH1 0x40 MLOAD DUP1 SWAP2 SUB SWAP1 RETURN JUMPDEST CALLVALUE DUP1 ISZERO PUSH2 0x248 JUMPI PUSH1 0x0 DUP1 REVERT JUMPDEST POP PUSH2 0x263 PUSH1 0x4 DUP1 CALLDATASIZE SUB DUP2 ADD SWAP1 PUSH2 0x25E SWAP2 SWAP1 PUSH2 0x103F JUMP JUMPDEST PUSH2 0xACF JUMP JUMPDEST STOP JUMPDEST PUSH1 0x3 SLOAD DUP2 JUMP JUMPDEST PUSH2 0x27F PUSH8 0x212223A22B20B682 PUSH1 0xC0 SHL PUSH2 0xF98 JUMP JUMPDEST PUSH2 0x293 PUSH8 0x83EC5D0ED8BC0AA0 PUSH1 0xC0 SHL PUSH2 0xF98 JUMP JUMPDEST PUSH2 0x2A7 PUSH8 0xF3FE789E647F625C PUSH1 0xC0 SHL PUSH2 0xF98 JUMP JUMPDEST PUSH2 0x2BB PUSH8 0x1BF7398593A7EADC PUSH1 0xC0 SHL PUSH2 0xF98 JUMP JUMPDEST PUSH1 0x0 DUP2 GT PUSH2 0x2FE JUMPI PUSH1 0x40 MLOAD PUSH32 0x8C379A000000000000000000000000000000000000000000000000000000000 DUP2 MSTORE PUSH1 0x4 ADD PUSH2 0x2F5 SWAP1 PUSH2 0x13EE JUMP JUMPDEST PUSH1 0x40 MLOAD DUP1 SWAP2 SUB SWAP1 REVERT JUMPDEST PUSH2 0x312 PUSH8 0x5BEB9C72C216F46A PUSH1 0xC0 SHL PUSH2 0xF98 JUMP JUMPDEST PUSH2 0x326 PUSH8 0xF034BED47D3F4945 PUSH1 0xC0 SHL PUSH2 0xF98 JUMP JUMPDEST PUSH2 0x33A PUSH8 0xE684D89CF421BA17 PUSH1 0xC0 SHL PUSH2 0xF98 JUMP JUMPDEST PUSH2 0x34E PUSH8 0xEF3564F411C32E1E PUSH1 0xC0 SHL PUSH2 0xF98 JUMP JUMPDEST PUSH1 0x0 PUSH20 0xFFFFFFFFFFFFFFFFFFFFFFFFFFFFFFFFFFFFFFFF AND DUP3 PUSH20 0xFFFFFFFFFFFFFFFFFFFFFFFFFFFFFFFFFFFFFFFF AND EQ ISZERO PUSH2 0x3BE JUMPI PUSH1 0x40 MLOAD PUSH32 0x8C379A000000000000000000000000000000000000000000000000000000000 DUP2 MSTORE PUSH1 0x4 ADD PUSH2 0x3B5 SWAP1 PUSH2 0x144E JUMP JUMPDEST PUSH1 0x40 MLOAD DUP1 SWAP2 SUB SWAP1 REVERT JUMPDEST PUSH2 0x3D2 PUSH8 0xBED77937122F4F9B PUSH1 0xC0 SHL PUSH2 0xF98 JUMP JUMPDEST PUSH2 0x3E6 PUSH8 0x9893F2A0723A7281 PUSH1 0xC0 SHL PUSH2 0xF98 JUMP JUMPDEST PUSH2 0x3FA PUSH8 0x26BA89FF658FC300 PUSH1 0xC0 SHL PUSH2 0xF98 JUMP JUMPDEST DUP2 PUSH20 0xFFFFFFFFFFFFFFFFFFFFFFFFFFFFFFFFFFFFFFFF AND PUSH4 0x23B872DD CALLER ADDRESS DUP5 PUSH1 0x40 MLOAD DUP5 PUSH4 0xFFFFFFFF AND PUSH1 0xE0 SHL DUP2 MSTORE PUSH1 0x4 ADD PUSH2 0x437 SWAP4 SWAP3 SWAP2 SWAP1 PUSH2 0x1353 JUMP JUMPDEST PUSH1 0x20 PUSH1 0x40 MLOAD DUP1 DUP4 SUB DUP2 PUSH1 0x0 DUP8 DUP1 EXTCODESIZE ISZERO DUP1 ISZERO PUSH2 0x451 JUMPI PUSH1 0x0 DUP1 REVERT JUMPDEST POP GAS CALL ISZERO DUP1 ISZERO PUSH2 0x465 JUMPI RETURNDATASIZE PUSH1 0x0 DUP1 RETURNDATACOPY RETURNDATASIZE PUSH1 0x0 REVERT JUMPDEST POP POP POP POP PUSH1 0x40 MLOAD RETURNDATASIZE PUSH1 0x1F NOT PUSH1 0x1F DUP3 ADD AND DUP3 ADD DUP1 PUSH1 0x40 MSTORE POP DUP2 ADD SWAP1 PUSH2 0x489 SWAP2 SWAP1 PUSH2 0x107B JUMP JUMPDEST POP PUSH2 0x49E PUSH8 0x19028D0168874995 PUSH1 0xC0 SHL PUSH2 0xF98 JUMP JUMPDEST DUP1 PUSH1 0x0 DUP1 CALLER PUSH20 0xFFFFFFFFFFFFFFFFFFFFFFFFFFFFFFFFFFFFFFFF AND PUSH20 0xFFFFFFFFFFFFFFFFFFFFFFFFFFFFFFFFFFFFFFFF AND DUP2 MSTORE PUSH1 0x20 ADD SWAP1 DUP2 MSTORE PUSH1 0x20 ADD PUSH1 0x0 KECCAK256 PUSH1 0x0 DUP5 PUSH20 0xFFFFFFFFFFFFFFFFFFFFFFFFFFFFFFFFFFFFFFFF AND PUSH20 0xFFFFFFFFFFFFFFFFFFFFFFFFFFFFFFFFFFFFFFFF AND DUP2 MSTORE PUSH1 0x20 ADD SWAP1 DUP2 MSTORE PUSH1 0x20 ADD PUSH1 0x0 KECCAK256 PUSH1 0x0 DUP3 DUP3 SLOAD PUSH2 0x529 SWAP2 SWAP1 PUSH2 0x14DA JUMP JUMPDEST SWAP3 POP POP DUP2 SWAP1 SSTORE POP POP POP JUMP JUMPDEST PUSH1 0x0 PUSH2 0x54A PUSH8 0xDBC157E489002EA8 PUSH1 0xC0 SHL PUSH2 0xF98 JUMP JUMPDEST PUSH2 0x55E PUSH8 0x126D4D6DEA730EBD PUSH1 0xC0 SHL PUSH2 0xF98 JUMP JUMPDEST PUSH2 0x572 PUSH8 0xB513085EE026F1B6 PUSH1 0xC0 SHL PUSH2 0xF98 JUMP JUMPDEST PUSH1 0x0 DUP1 CALLER PUSH20 0xFFFFFFFFFFFFFFFFFFFFFFFFFFFFFFFFFFFFFFFF AND PUSH20 0xFFFFFFFFFFFFFFFFFFFFFFFFFFFFFFFFFFFFFFFF AND DUP2 MSTORE PUSH1 0x20 ADD SWAP1 DUP2 MSTORE PUSH1 0x20 ADD PUSH1 0x0 KECCAK256 PUSH1 0x0 DUP4 PUSH20 0xFFFFFFFFFFFFFFFFFFFFFFFFFFFFFFFFFFFFFFFF AND PUSH20 0xFFFFFFFFFFFFFFFFFFFFFFFFFFFFFFFFFFFFFFFF AND DUP2 MSTORE PUSH1 0x20 ADD SWAP1 DUP2 MSTORE PUSH1 0x20 ADD PUSH1 0x0 KECCAK256 SLOAD SWAP1 POP SWAP2 SWAP1 POP JUMP JUMPDEST PUSH1 0x4 PUSH1 0x0 SWAP1 SLOAD SWAP1 PUSH2 0x100 EXP SWAP1 DIV PUSH1 0xFF AND DUP2 JUMP JUMPDEST PUSH1 0x1 PUSH1 0x0 SWAP1 SLOAD SWAP1 PUSH2 0x100 EXP SWAP1 DIV PUSH20 0xFFFFFFFFFFFFFFFFFFFFFFFFFFFFFFFFFFFFFFFF AND DUP2 JUMP JUMPDEST PUSH2 0x642 PUSH8 0xC32873AC7A651BD7 PUSH1 0xC0 SHL PUSH2 0xF98 JUMP JUMPDEST PUSH2 0x656 PUSH8 0x779FB9BB40BBB85A PUSH1 0xC0 SHL PUSH2 0xF98 JUMP JUMPDEST PUSH2 0x66A PUSH8 0x46A54FBC033D2988 PUSH1 0xC0 SHL PUSH2 0xF98 JUMP JUMPDEST PUSH2 0x67E PUSH8 0x86F3C0553004480F PUSH1 0xC0 SHL PUSH2 0xF98 JUMP JUMPDEST PUSH1 0x4 PUSH1 0x0 SWAP1 SLOAD SWAP1 PUSH2 0x100 EXP SWAP1 DIV PUSH1 0xFF AND ISZERO PUSH2 0x6CE JUMPI PUSH1 0x40 MLOAD PUSH32 0x8C379A000000000000000000000000000000000000000000000000000000000 DUP2 MSTORE PUSH1 0x4 ADD PUSH2 0x6C5 SWAP1 PUSH2 0x142E JUMP JUMPDEST PUSH1 0x40 MLOAD DUP1 SWAP2 SUB SWAP1 REVERT JUMPDEST PUSH2 0x6E2 PUSH8 0x366A7F15E7424E3B PUSH1 0xC0 SHL PUSH2 0xF98 JUMP JUMPDEST PUSH2 0x6F6 PUSH8 0xEB929652ADDE576 PUSH1 0xC0 SHL PUSH2 0xF98 JUMP JUMPDEST DUP1 PUSH1 0x1 PUSH1 0x0 PUSH2 0x100 EXP DUP2 SLOAD DUP2 PUSH20 0xFFFFFFFFFFFFFFFFFFFFFFFFFFFFFFFFFFFFFFFF MUL NOT AND SWAP1 DUP4 PUSH20 0xFFFFFFFFFFFFFFFFFFFFFFFFFFFFFFFFFFFFFFFF AND MUL OR SWAP1 SSTORE POP PUSH2 0x74A PUSH7 0xD7335BFD194037 PUSH1 0xC0 SHL PUSH2 0xF98 JUMP JUMPDEST PUSH1 0x1 PUSH1 0x4 PUSH1 0x0 PUSH2 0x100 EXP DUP2 SLOAD DUP2 PUSH1 0xFF MUL NOT AND SWAP1 DUP4 ISZERO ISZERO MUL OR SWAP1 SSTORE POP POP JUMP JUMPDEST PUSH2 0x77C PUSH8 0x68F5B3DBB257748F PUSH1 0xC0 SHL PUSH2 0xF98 JUMP JUMPDEST PUSH2 0x790 PUSH8 0xCF0D6A6C78A1D30A PUSH1 0xC0 SHL PUSH2 0xF98 JUMP JUMPDEST PUSH2 0x7A4 PUSH8 0xAD565021BB2657B1 PUSH1 0xC0 SHL PUSH2 0xF98 JUMP JUMPDEST PUSH2 0x7B8 PUSH8 0xAEED176D946607D7 PUSH1 0xC0 SHL PUSH2 0xF98 JUMP JUMPDEST PUSH2 0x7CC PUSH8 0xA8EC9397B593C08C PUSH1 0xC0 SHL PUSH2 0xF98 JUMP JUMPDEST PUSH1 0x1 PUSH1 0x0 SWAP1 SLOAD SWAP1 PUSH2 0x100 EXP SWAP1 DIV PUSH20 0xFFFFFFFFFFFFFFFFFFFFFFFFFFFFFFFFFFFFFFFF AND PUSH20 0xFFFFFFFFFFFFFFFFFFFFFFFFFFFFFFFFFFFFFFFF AND CALLER PUSH20 0xFFFFFFFFFFFFFFFFFFFFFFFFFFFFFFFFFFFFFFFF AND EQ PUSH2 0x85C JUMPI PUSH1 0x40 MLOAD PUSH32 0x8C379A000000000000000000000000000000000000000000000000000000000 DUP2 MSTORE PUSH1 0x4 ADD PUSH2 0x853 SWAP1 PUSH2 0x13CE JUMP JUMPDEST PUSH1 0x40 MLOAD DUP1 SWAP2 SUB SWAP1 REVERT JUMPDEST PUSH2 0x870 PUSH8 0xBFD82387BFA6F32B PUSH1 0xC0 SHL PUSH2 0xF98 JUMP JUMPDEST PUSH2 0x884 PUSH8 0x8667E0C40DFBF052 PUSH1 0xC0 SHL PUSH2 0xF98 JUMP JUMPDEST PUSH2 0x898 PUSH8 0x4AFD7EFCC838AC8B PUSH1 0xC0 SHL PUSH2 0xF98 JUMP JUMPDEST PUSH2 0x8AC PUSH8 0x5DDDD9D6922383A8 PUSH1 0xC0 SHL PUSH2 0xF98 JUMP JUMPDEST PUSH2 0x8C0 PUSH8 0xA94C6844DC82F36D PUSH1 0xC0 SHL PUSH2 0xF98 JUMP JUMPDEST PUSH2 0x8D4 PUSH8 0xB4FA0E5239D1B420 PUSH1 0xC0 SHL PUSH2 0xF98 JUMP JUMPDEST PUSH1 0x0 PUSH1 0x2 PUSH1 0x0 DUP4 PUSH20 0xFFFFFFFFFFFFFFFFFFFFFFFFFFFFFFFFFFFFFFFF AND PUSH20 0xFFFFFFFFFFFFFFFFFFFFFFFFFFFFFFFFFFFFFFFF AND DUP2 MSTORE PUSH1 0x20 ADD SWAP1 DUP2 MSTORE PUSH1 0x20 ADD PUSH1 0x0 KECCAK256 SLOAD SWAP1 POP PUSH2 0x92C PUSH8 0x63112A550CB0D1A PUSH1 0xC0 SHL PUSH2 0xF98 JUMP JUMPDEST PUSH2 0x940 PUSH8 0x5E772B3908AD96B2 PUSH1 0xC0 SHL PUSH2 0xF98 JUMP JUMPDEST PUSH2 0x954 PUSH8 0x8451102AA7BBCABF PUSH1 0xC0 SHL PUSH2 0xF98 JUMP JUMPDEST PUSH1 0x0 DUP2 GT PUSH2 0x997 JUMPI PUSH1 0x40 MLOAD PUSH32 0x8C379A000000000000000000000000000000000000000000000000000000000 DUP2 MSTORE PUSH1 0x4 ADD PUSH2 0x98E SWAP1 PUSH2 0x140E JUMP JUMPDEST PUSH1 0x40 MLOAD DUP1 SWAP2 SUB SWAP1 REVERT JUMPDEST PUSH2 0x9AB PUSH8 0x7C8B4F33513C640F PUSH1 0xC0 SHL PUSH2 0xF98 JUMP JUMPDEST PUSH2 0x9BF PUSH8 0x7413B581FAAA71F PUSH1 0xC0 SHL PUSH2 0xF98 JUMP JUMPDEST DUP1 PUSH1 0x3 PUSH1 0x0 DUP3 DUP3 SLOAD PUSH2 0x9D1 SWAP2 SWAP1 PUSH2 0x1561 JUMP JUMPDEST SWAP3 POP POP DUP2 SWAP1 SSTORE POP PUSH2 0x9EC PUSH8 0x9358447149336267 PUSH1 0xC0 SHL PUSH2 0xF98 JUMP JUMPDEST PUSH2 0xA00 PUSH8 0xEE20543F292E0288 PUSH1 0xC0 SHL PUSH2 0xF98 JUMP JUMPDEST DUP2 PUSH20 0xFFFFFFFFFFFFFFFFFFFFFFFFFFFFFFFFFFFFFFFF AND PUSH4 0xA9059CBB CALLER DUP4 PUSH1 0x40 MLOAD DUP4 PUSH4 0xFFFFFFFF AND PUSH1 0xE0 SHL DUP2 MSTORE PUSH1 0x4 ADD PUSH2 0xA3B SWAP3 SWAP2 SWAP1 PUSH2 0x138A JUMP JUMPDEST PUSH1 0x20 PUSH1 0x40 MLOAD DUP1 DUP4 SUB DUP2 PUSH1 0x0 DUP8 DUP1 EXTCODESIZE ISZERO DUP1 ISZERO PUSH2 0xA55 JUMPI PUSH1 0x0 DUP1 REVERT JUMPDEST POP GAS CALL ISZERO DUP1 ISZERO PUSH2 0xA69 JUMPI RETURNDATASIZE PUSH1 0x0 DUP1 RETURNDATACOPY RETURNDATASIZE PUSH1 0x0 REVERT JUMPDEST POP POP POP POP PUSH1 0x40 MLOAD RETURNDATASIZE PUSH1 0x1F NOT PUSH1 0x1F DUP3 ADD AND DUP3 ADD DUP1 PUSH1 0x40 MSTORE POP DUP2 ADD SWAP1 PUSH2 0xA8D SWAP2 SWAP1 PUSH2 0x107B JUMP JUMPDEST POP POP POP JUMP JUMPDEST PUSH1 0x0 PUSH1 0x20 MSTORE DUP2 PUSH1 0x0 MSTORE PUSH1 0x40 PUSH1 0x0 KECCAK256 PUSH1 0x20 MSTORE DUP1 PUSH1 0x0 MSTORE PUSH1 0x40 PUSH1 0x0 KECCAK256 PUSH1 0x0 SWAP2 POP SWAP2 POP POP SLOAD DUP2 JUMP JUMPDEST PUSH1 0x2 PUSH1 0x20 MSTORE DUP1 PUSH1 0x0 MSTORE PUSH1 0x40 PUSH1 0x0 KECCAK256 PUSH1 0x0 SWAP2 POP SWAP1 POP SLOAD DUP2 JUMP JUMPDEST PUSH2 0xAE3 PUSH8 0x992DAEE7AAC83DFC PUSH1 0xC0 SHL PUSH2 0xF98 JUMP JUMPDEST PUSH2 0xAF7 PUSH8 0x6B65466F75FEE590 PUSH1 0xC0 SHL PUSH2 0xF98 JUMP JUMPDEST PUSH2 0xB0B PUSH8 0xABE5EC78F151966 PUSH1 0xC0 SHL PUSH2 0xF98 JUMP JUMPDEST PUSH2 0xB1F PUSH8 0x4FB1D9CC38B2F0BE PUSH1 0xC0 SHL PUSH2 0xF98 JUMP JUMPDEST PUSH1 0x0 DUP2 GT PUSH2 0xB62 JUMPI PUSH1 0x40 MLOAD PUSH32 0x8C379A000000000000000000000000000000000000000000000000000000000 DUP2 MSTORE PUSH1 0x4 ADD PUSH2 0xB59 SWAP1 PUSH2 0x146E JUMP JUMPDEST PUSH1 0x40 MLOAD DUP1 SWAP2 SUB SWAP1 REVERT JUMPDEST PUSH2 0xB76 PUSH8 0x3662BCEEFC3CF1C4 PUSH1 0xC0 SHL PUSH2 0xF98 JUMP JUMPDEST PUSH2 0xB8A PUSH8 0xCAB9C553DA7364A6 PUSH1 0xC0 SHL PUSH2 0xF98 JUMP JUMPDEST PUSH2 0xB9E PUSH8 0x7A84CD97B4F70BB0 PUSH1 0xC0 SHL PUSH2 0xF98 JUMP JUMPDEST PUSH2 0xBB2 PUSH8 0xD24C8B060E42E98E PUSH1 0xC0 SHL PUSH2 0xF98 JUMP JUMPDEST DUP1 PUSH1 0x0 DUP1 CALLER PUSH20 0xFFFFFFFFFFFFFFFFFFFFFFFFFFFFFFFFFFFFFFFF AND PUSH20 0xFFFFFFFFFFFFFFFFFFFFFFFFFFFFFFFFFFFFFFFF AND DUP2 MSTORE PUSH1 0x20 ADD SWAP1 DUP2 MSTORE PUSH1 0x20 ADD PUSH1 0x0 KECCAK256 PUSH1 0x0 DUP5 PUSH20 0xFFFFFFFFFFFFFFFFFFFFFFFFFFFFFFFFFFFFFFFF AND PUSH20 0xFFFFFFFFFFFFFFFFFFFFFFFFFFFFFFFFFFFFFFFF AND DUP2 MSTORE PUSH1 0x20 ADD SWAP1 DUP2 MSTORE PUSH1 0x20 ADD PUSH1 0x0 KECCAK256 SLOAD LT ISZERO PUSH2 0xC70 JUMPI PUSH1 0x40 MLOAD PUSH32 0x8C379A000000000000000000000000000000000000000000000000000000000 DUP2 MSTORE PUSH1 0x4 ADD PUSH2 0xC67 SWAP1 PUSH2 0x148E JUMP JUMPDEST PUSH1 0x40 MLOAD DUP1 SWAP2 SUB SWAP1 REVERT JUMPDEST PUSH2 0xC84 PUSH8 0xBD8EF6440696572C PUSH1 0xC0 SHL PUSH2 0xF98 JUMP JUMPDEST PUSH2 0xC98 PUSH8 0xC160FD752B0AFDA4 PUSH1 0xC0 SHL PUSH2 0xF98 JUMP JUMPDEST PUSH2 0xCAC PUSH8 0x190D3243DE7B0B71 PUSH1 0xC0 SHL PUSH2 0xF98 JUMP JUMPDEST PUSH2 0xCC0 PUSH8 0x7B9B9FD9270A8E16 PUSH1 0xC0 SHL PUSH2 0xF98 JUMP JUMPDEST PUSH1 0x0 PUSH20 0xFFFFFFFFFFFFFFFFFFFFFFFFFFFFFFFFFFFFFFFF AND DUP3 PUSH20 0xFFFFFFFFFFFFFFFFFFFFFFFFFFFFFFFFFFFFFFFF AND EQ ISZERO PUSH2 0xD30 JUMPI PUSH1 0x40 MLOAD PUSH32 0x8C379A000000000000000000000000000000000000000000000000000000000 DUP2 MSTORE PUSH1 0x4 ADD PUSH2 0xD27 SWAP1 PUSH2 0x144E JUMP JUMPDEST PUSH1 0x40 MLOAD DUP1 SWAP2 SUB SWAP1 REVERT JUMPDEST PUSH2 0xD44 PUSH8 0xB10DF451018382B3 PUSH1 0xC0 SHL PUSH2 0xF98 JUMP JUMPDEST PUSH2 0xD58 PUSH8 0x84CA9EE0AF6448F7 PUSH1 0xC0 SHL PUSH2 0xF98 JUMP JUMPDEST DUP1 PUSH1 0x0 DUP1 CALLER PUSH20 0xFFFFFFFFFFFFFFFFFFFFFFFFFFFFFFFFFFFFFFFF AND PUSH20 0xFFFFFFFFFFFFFFFFFFFFFFFFFFFFFFFFFFFFFFFF AND DUP2 MSTORE PUSH1 0x20 ADD SWAP1 DUP2 MSTORE PUSH1 0x20 ADD PUSH1 0x0 KECCAK256 PUSH1 0x0 DUP5 PUSH20 0xFFFFFFFFFFFFFFFFFFFFFFFFFFFFFFFFFFFFFFFF AND PUSH20 0xFFFFFFFFFFFFFFFFFFFFFFFFFFFFFFFFFFFFFFFF AND DUP2 MSTORE PUSH1 0x20 ADD SWAP1 DUP2 MSTORE PUSH1 0x20 ADD PUSH1 0x0 KECCAK256 PUSH1 0x0 DUP3 DUP3 SLOAD PUSH2 0xDE3 SWAP2 SWAP1 PUSH2 0x1561 JUMP JUMPDEST SWAP3 POP POP DUP2 SWAP1 SSTORE POP PUSH2 0xDFE PUSH8 0xA92CC80FC7E6CEB1 PUSH1 0xC0 SHL PUSH2 0xF98 JUMP JUMPDEST PUSH2 0xE12 PUSH8 0x8E43F18B91FA0E85 PUSH1 0xC0 SHL PUSH2 0xF98 JUMP JUMPDEST PUSH1 0x0 PUSH2 0x3E8 DUP3 PUSH2 0xE22 SWAP2 SWAP1 PUSH2 0x1530 JUMP JUMPDEST SWAP1 POP PUSH2 0xE38 PUSH8 0xD72140F32C0BB920 PUSH1 0xC0 SHL PUSH2 0xF98 JUMP JUMPDEST DUP1 PUSH1 0x2 PUSH1 0x0 DUP6 PUSH20 0xFFFFFFFFFFFFFFFFFFFFFFFFFFFFFFFFFFFFFFFF AND PUSH20 0xFFFFFFFFFFFFFFFFFFFFFFFFFFFFFFFFFFFFFFFF AND DUP2 MSTORE PUSH1 0x20 ADD SWAP1 DUP2 MSTORE PUSH1 0x20 ADD PUSH1 0x0 KECCAK256 PUSH1 0x0 DUP3 DUP3 SLOAD PUSH2 0xE87 SWAP2 SWAP1 PUSH2 0x14DA JUMP JUMPDEST SWAP3 POP POP DUP2 SWAP1 SSTORE POP PUSH2 0xEA2 PUSH8 0x9CD41AAF94B27D49 PUSH1 0xC0 SHL PUSH2 0xF98 JUMP JUMPDEST DUP1 PUSH1 0x3 PUSH1 0x0 DUP3 DUP3 SLOAD PUSH2 0xEB4 SWAP2 SWAP1 PUSH2 0x14DA JUMP JUMPDEST SWAP3 POP POP DUP2 SWAP1 SSTORE POP PUSH2 0xECF PUSH8 0xA5F657D88EA0A569 PUSH1 0xC0 SHL PUSH2 0xF98 JUMP JUMPDEST DUP1 DUP3 PUSH2 0xEDB SWAP2 SWAP1 PUSH2 0x1561 JUMP JUMPDEST SWAP2 POP PUSH2 0xEF1 PUSH8 0x92DE6C4F8244C06E PUSH1 0xC0 SHL PUSH2 0xF98 JUMP JUMPDEST PUSH2 0xF05 PUSH8 0x30A04077DE53E7EE PUSH1 0xC0 SHL PUSH2 0xF98 JUMP JUMPDEST DUP3 PUSH20 0xFFFFFFFFFFFFFFFFFFFFFFFFFFFFFFFFFFFFFFFF AND PUSH4 0xA9059CBB CALLER DUP5 PUSH1 0x40 MLOAD DUP4 PUSH4 0xFFFFFFFF AND PUSH1 0xE0 SHL DUP2 MSTORE PUSH1 0x4 ADD PUSH2 0xF40 SWAP3 SWAP2 SWAP1 PUSH2 0x138A JUMP JUMPDEST PUSH1 0x20 PUSH1 0x40 MLOAD DUP1 DUP4 SUB DUP2 PUSH1 0x0 DUP8 DUP1 EXTCODESIZE ISZERO DUP1 ISZERO PUSH2 0xF5A JUMPI PUSH1 0x0 DUP1 REVERT JUMPDEST POP GAS CALL ISZERO DUP1 ISZERO PUSH2 0xF6E JUMPI RETURNDATASIZE PUSH1 0x0 DUP1 RETURNDATACOPY RETURNDATASIZE PUSH1 0x0 REVERT JUMPDEST POP POP POP POP PUSH1 0x40 MLOAD RETURNDATASIZE PUSH1 0x1F NOT PUSH1 0x1F DUP3 ADD AND DUP3 ADD DUP1 PUSH1 0x40 MSTORE POP DUP2 ADD SWAP1 PUSH2 0xF92 SWAP2 SWAP1 PUSH2 0x107B JUMP JUMPDEST POP POP POP POP JUMP JUMPDEST POP JUMP JUMPDEST PUSH1 0x0 DUP2 CALLDATALOAD SWAP1 POP PUSH2 0xFAA DUP2 PUSH2 0x164D JUMP JUMPDEST SWAP3 SWAP2 POP POP JUMP JUMPDEST PUSH1 0x0 DUP2 MLOAD SWAP1 POP PUSH2 0xFBF DUP2 PUSH2 0x1664 JUMP JUMPDEST SWAP3 SWAP2 POP POP JUMP JUMPDEST PUSH1 0x0 DUP2 CALLDATALOAD SWAP1 POP PUSH2 0xFD4 DUP2 PUSH2 0x167B JUMP JUMPDEST SWAP3 SWAP2 POP POP JUMP JUMPDEST PUSH1 0x0 PUSH1 0x20 DUP3 DUP5 SUB SLT ISZERO PUSH2 0xFEC JUMPI PUSH1 0x0 DUP1 REVERT JUMPDEST PUSH1 0x0 PUSH2 0xFFA DUP5 DUP3 DUP6 ADD PUSH2 0xF9B JUMP JUMPDEST SWAP2 POP POP SWAP3 SWAP2 POP POP JUMP JUMPDEST PUSH1 0x0 DUP1 PUSH1 0x40 DUP4 DUP6 SUB SLT ISZERO PUSH2 0x1016 JUMPI PUSH1 0x0 DUP1 REVERT JUMPDEST PUSH1 0x0 PUSH2 0x1024 DUP6 DUP3 DUP7 ADD PUSH2 0xF9B JUMP JUMPDEST SWAP3 POP POP PUSH1 0x20 PUSH2 0x1035 DUP6 DUP3 DUP7 ADD PUSH2 0xF9B JUMP JUMPDEST SWAP2 POP POP SWAP3 POP SWAP3 SWAP1 POP JUMP JUMPDEST PUSH1 0x0 DUP1 PUSH1 0x40 DUP4 DUP6 SUB SLT ISZERO PUSH2 0x1052 JUMPI PUSH1 0x0 DUP1 REVERT JUMPDEST PUSH1 0x0 PUSH2 0x1060 DUP6 DUP3 DUP7 ADD PUSH2 0xF9B JUMP JUMPDEST SWAP3 POP POP PUSH1 0x20 PUSH2 0x1071 DUP6 DUP3 DUP7 ADD PUSH2 0xFC5 JUMP JUMPDEST SWAP2 POP POP SWAP3 POP SWAP3 SWAP1 POP JUMP JUMPDEST PUSH1 0x0 PUSH1 0x20 DUP3 DUP5 SUB SLT ISZERO PUSH2 0x108D JUMPI PUSH1 0x0 DUP1 REVERT JUMPDEST PUSH1 0x0 PUSH2 0x109B DUP5 DUP3 DUP6 ADD PUSH2 0xFB0 JUMP JUMPDEST SWAP2 POP POP SWAP3 SWAP2 POP POP JUMP JUMPDEST PUSH2 0x10AD DUP2 PUSH2 0x15A7 JUMP JUMPDEST DUP3 MSTORE POP POP JUMP JUMPDEST PUSH2 0x10BC DUP2 PUSH2 0x1595 JUMP JUMPDEST DUP3 MSTORE POP POP JUMP JUMPDEST PUSH2 0x10CB DUP2 PUSH2 0x15B9 JUMP JUMPDEST DUP3 MSTORE POP POP JUMP JUMPDEST PUSH1 0x0 PUSH2 0x10DE PUSH1 0x26 DUP4 PUSH2 0x14C9 JUMP JUMPDEST SWAP2 POP PUSH32 0x4F6E6C7920746865206F776E65722063616E2063616C6C20746869732066756E PUSH1 0x0 DUP4 ADD MSTORE PUSH32 0x6374696F6E2E0000000000000000000000000000000000000000000000000000 PUSH1 0x20 DUP4 ADD MSTORE PUSH1 0x40 DUP3 ADD SWAP1 POP SWAP2 SWAP1 POP JUMP JUMPDEST PUSH1 0x0 PUSH2 0x1144 PUSH1 0x25 DUP4 PUSH2 0x14C9 JUMP JUMPDEST SWAP2 POP PUSH32 0x4465706F73697420616D6F756E74206D75737420626520677265617465722074 PUSH1 0x0 DUP4 ADD MSTORE PUSH32 0x68616E2030000000000000000000000000000000000000000000000000000000 PUSH1 0x20 DUP4 ADD MSTORE PUSH1 0x40 DUP3 ADD SWAP1 POP SWAP2 SWAP1 POP JUMP JUMPDEST PUSH1 0x0 PUSH2 0x11AA PUSH1 0x2B DUP4 PUSH2 0x14C9 JUMP JUMPDEST SWAP2 POP PUSH32 0x5468657265206E6F20656E6F7567682074617820666F7220796F752077697468 PUSH1 0x0 DUP4 ADD MSTORE PUSH32 0x207468697320746F6B656E000000000000000000000000000000000000000000 PUSH1 0x20 DUP4 ADD MSTORE PUSH1 0x40 DUP3 ADD SWAP1 POP SWAP2 SWAP1 POP JUMP JUMPDEST PUSH1 0x0 PUSH2 0x1210 PUSH1 0x1F DUP4 PUSH2 0x14C9 JUMP JUMPDEST SWAP2 POP PUSH32 0x4F776E65722063616E206F6E6C79206265206368616E676564206F6E63652E00 PUSH1 0x0 DUP4 ADD MSTORE PUSH1 0x20 DUP3 ADD SWAP1 POP SWAP2 SWAP1 POP JUMP JUMPDEST PUSH1 0x0 PUSH2 0x1250 PUSH1 0x1B DUP4 PUSH2 0x14C9 JUMP JUMPDEST SWAP2 POP PUSH32 0x546F6B656E2061646472657373206D7573742062652076616C69640000000000 PUSH1 0x0 DUP4 ADD MSTORE PUSH1 0x20 DUP3 ADD SWAP1 POP SWAP2 SWAP1 POP JUMP JUMPDEST PUSH1 0x0 PUSH2 0x1290 PUSH1 0x28 DUP4 PUSH2 0x14C9 JUMP JUMPDEST SWAP2 POP PUSH32 0x5769746864726177616C20616D6F756E74206D75737420626520677265617465 PUSH1 0x0 DUP4 ADD MSTORE PUSH32 0x72207468616E2030000000000000000000000000000000000000000000000000 PUSH1 0x20 DUP4 ADD MSTORE PUSH1 0x40 DUP3 ADD SWAP1 POP SWAP2 SWAP1 POP JUMP JUMPDEST PUSH1 0x0 PUSH2 0x12F6 PUSH1 0x15 DUP4 PUSH2 0x14C9 JUMP JUMPDEST SWAP2 POP PUSH32 0x52756E206F7574206F6620796F7572206D6F6E65790000000000000000000000 PUSH1 0x0 DUP4 ADD MSTORE PUSH1 0x20 DUP3 ADD SWAP1 POP SWAP2 SWAP1 POP JUMP JUMPDEST PUSH2 0x1332 DUP2 PUSH2 0x15E5 JUMP JUMPDEST DUP3 MSTORE POP POP JUMP JUMPDEST PUSH1 0x0 PUSH1 0x20 DUP3 ADD SWAP1 POP PUSH2 0x134D PUSH1 0x0 DUP4 ADD DUP5 PUSH2 0x10A4 JUMP JUMPDEST SWAP3 SWAP2 POP POP JUMP JUMPDEST PUSH1 0x0 PUSH1 0x60 DUP3 ADD SWAP1 POP PUSH2 0x1368 PUSH1 0x0 DUP4 ADD DUP7 PUSH2 0x10B3 JUMP JUMPDEST PUSH2 0x1375 PUSH1 0x20 DUP4 ADD DUP6 PUSH2 0x10B3 JUMP JUMPDEST PUSH2 0x1382 PUSH1 0x40 DUP4 ADD DUP5 PUSH2 0x1329 JUMP JUMPDEST SWAP5 SWAP4 POP POP POP POP JUMP JUMPDEST PUSH1 0x0 PUSH1 0x40 DUP3 ADD SWAP1 POP PUSH2 0x139F PUSH1 0x0 DUP4 ADD DUP6 PUSH2 0x10B3 JUMP JUMPDEST PUSH2 0x13AC PUSH1 0x20 DUP4 ADD DUP5 PUSH2 0x1329 JUMP JUMPDEST SWAP4 SWAP3 POP POP POP JUMP JUMPDEST PUSH1 0x0 PUSH1 0x20 DUP3 ADD SWAP1 POP PUSH2 0x13C8 PUSH1 0x0 DUP4 ADD DUP5 PUSH2 0x10C2 JUMP JUMPDEST SWAP3 SWAP2 POP POP JUMP JUMPDEST PUSH1 0x0 PUSH1 0x20 DUP3 ADD SWAP1 POP DUP2 DUP2 SUB PUSH1 0x0 DUP4 ADD MSTORE PUSH2 0x13E7 DUP2 PUSH2 0x10D1 JUMP JUMPDEST SWAP1 POP SWAP2 SWAP1 POP JUMP JUMPDEST PUSH1 0x0 PUSH1 0x20 DUP3 ADD SWAP1 POP DUP2 DUP2 SUB PUSH1 0x0 DUP4 ADD MSTORE PUSH2 0x1407 DUP2 PUSH2 0x1137 JUMP JUMPDEST SWAP1 POP SWAP2 SWAP1 POP JUMP JUMPDEST PUSH1 0x0 PUSH1 0x20 DUP3 ADD SWAP1 POP DUP2 DUP2 SUB PUSH1 0x0 DUP4 ADD MSTORE PUSH2 0x1427 DUP2 PUSH2 0x119D JUMP JUMPDEST SWAP1 POP SWAP2 SWAP1 POP JUMP JUMPDEST PUSH1 0x0 PUSH1 0x20 DUP3 ADD SWAP1 POP DUP2 DUP2 SUB PUSH1 0x0 DUP4 ADD MSTORE PUSH2 0x1447 DUP2 PUSH2 0x1203 JUMP JUMPDEST SWAP1 POP SWAP2 SWAP1 POP JUMP JUMPDEST PUSH1 0x0 PUSH1 0x20 DUP3 ADD SWAP1 POP DUP2 DUP2 SUB PUSH1 0x0 DUP4 ADD MSTORE PUSH2 0x1467 DUP2 PUSH2 0x1243 JUMP JUMPDEST SWAP1 POP SWAP2 SWAP1 POP JUMP JUMPDEST PUSH1 0x0 PUSH1 0x20 DUP3 ADD SWAP1 POP DUP2 DUP2 SUB PUSH1 0x0 DUP4 ADD MSTORE PUSH2 0x1487 DUP2 PUSH2 0x1283 JUMP JUMPDEST SWAP1 POP SWAP2 SWAP1 POP JUMP JUMPDEST PUSH1 0x0 PUSH1 0x20 DUP3 ADD SWAP1 POP DUP2 DUP2 SUB PUSH1 0x0 DUP4 ADD MSTORE PUSH2 0x14A7 DUP2 PUSH2 0x12E9 JUMP JUMPDEST SWAP1 POP SWAP2 SWAP1 POP JUMP JUMPDEST PUSH1 0x0 PUSH1 0x20 DUP3 ADD SWAP1 POP PUSH2 0x14C3 PUSH1 0x0 DUP4 ADD DUP5 PUSH2 0x1329 JUMP JUMPDEST SWAP3 SWAP2 POP POP JUMP JUMPDEST PUSH1 0x0 DUP3 DUP3 MSTORE PUSH1 0x20 DUP3 ADD SWAP1 POP SWAP3 SWAP2 POP POP JUMP JUMPDEST PUSH1 0x0 PUSH2 0x14E5 DUP3 PUSH2 0x15E5 JUMP JUMPDEST SWAP2 POP PUSH2 0x14F0 DUP4 PUSH2 0x15E5 JUMP JUMPDEST SWAP3 POP DUP3 PUSH32 0xFFFFFFFFFFFFFFFFFFFFFFFFFFFFFFFFFFFFFFFFFFFFFFFFFFFFFFFFFFFFFFFF SUB DUP3 GT ISZERO PUSH2 0x1525 JUMPI PUSH2 0x1524 PUSH2 0x15EF JUMP JUMPDEST JUMPDEST DUP3 DUP3 ADD SWAP1 POP SWAP3 SWAP2 POP POP JUMP JUMPDEST PUSH1 0x0 PUSH2 0x153B DUP3 PUSH2 0x15E5 JUMP JUMPDEST SWAP2 POP PUSH2 0x1546 DUP4 PUSH2 0x15E5 JUMP JUMPDEST SWAP3 POP DUP3 PUSH2 0x1556 JUMPI PUSH2 0x1555 PUSH2 0x161E JUMP JUMPDEST JUMPDEST DUP3 DUP3 DIV SWAP1 POP SWAP3 SWAP2 POP POP JUMP JUMPDEST PUSH1 0x0 PUSH2 0x156C DUP3 PUSH2 0x15E5 JUMP JUMPDEST SWAP2 POP PUSH2 0x1577 DUP4 PUSH2 0x15E5 JUMP JUMPDEST SWAP3 POP DUP3 DUP3 LT ISZERO PUSH2 0x158A JUMPI PUSH2 0x1589 PUSH2 0x15EF JUMP JUMPDEST JUMPDEST DUP3 DUP3 SUB SWAP1 POP SWAP3 SWAP2 POP POP JUMP JUMPDEST PUSH1 0x0 PUSH2 0x15A0 DUP3 PUSH2 0x15C5 JUMP JUMPDEST SWAP1 POP SWAP2 SWAP1 POP JUMP JUMPDEST PUSH1 0x0 PUSH2 0x15B2 DUP3 PUSH2 0x15C5 JUMP JUMPDEST SWAP1 POP SWAP2 SWAP1 POP JUMP JUMPDEST PUSH1 0x0 DUP2 ISZERO ISZERO SWAP1 POP SWAP2 SWAP1 POP JUMP JUMPDEST PUSH1 0x0 PUSH20 0xFFFFFFFFFFFFFFFFFFFFFFFFFFFFFFFFFFFFFFFF DUP3 AND SWAP1 POP SWAP2 SWAP1 POP JUMP JUMPDEST PUSH1 0x0 DUP2 SWAP1 POP SWAP2 SWAP1 POP JUMP JUMPDEST PUSH32 0x4E487B7100000000000000000000000000000000000000000000000000000000 PUSH1 0x0 MSTORE PUSH1 0x11 PUSH1 0x4 MSTORE PUSH1 0x24 PUSH1 0x0 REVERT JUMPDEST PUSH32 0x4E487B7100000000000000000000000000000000000000000000000000000000 PUSH1 0x0 MSTORE PUSH1 0x12 PUSH1 0x4 MSTORE PUSH1 0x24 PUSH1 0x0 REVERT JUMPDEST PUSH2 0x1656 DUP2 PUSH2 0x1595 JUMP JUMPDEST DUP2 EQ PUSH2 0x1661 JUMPI PUSH1 0x0 DUP1 REVERT JUMPDEST POP JUMP JUMPDEST PUSH2 0x166D DUP2 PUSH2 0x15B9 JUMP JUMPDEST DUP2 EQ PUSH2 0x1678 JUMPI PUSH1 0x0 DUP1 REVERT JUMPDEST POP JUMP JUMPDEST PUSH2 0x1684 DUP2 PUSH2 0x15E5 JUMP JUMPDEST DUP2 EQ PUSH2 0x168F JUMPI PUSH1 0x0 DUP1 REVERT JUMPDEST POP JUMP INVALID LOG2 PUSH5 0x6970667358 0x22 SLT KECCAK256 PUSH26 0x9B74EAB116049168A6CDEE325DC91306B3C8C0CCC900DDC28E85 CALLER CALLDATALOAD BALANCE EXTCODEHASH JUMPI PUSH5 0x736F6C6343 STOP ADDMOD STOP STOP CALLER "},"methodIdentifiers":{"Totaltax()":"3e38b80d","balanceOf(address)":"70a08231","balances(address,address)":"c23f001f","deposit(address,uint256)":"47e7ef24","initialization(address)":"90b4b79c","isOwnerinit()":"7d6f9665","owner()":"8da5cb5b","takeFee(address)":"a5bf8ec6","tokenFee(address)":"f348f4fc","withdraw(address,uint256)":"f3fef3a3"}}}}}