{"contracts/SafeFactory.sol":{"SafeFactory":{"abi":[{"inputs":[{"internalType":"address","name":"_implementation","type":"address"}],"stateMutability":"nonpayable","type":"constructor"},{"anonymous":false,"inputs":[{"indexed":false,"internalType":"address","name":"_contract","type":"address"}],"name":"CreateContract","type":"event"},{"anonymous":false,"inputs":[{"indexed":false,"internalType":"address","name":"newImplementation","type":"address"}],"name":"ImpleUpdated","type":"event"},{"inputs":[],"name":"OWNER","outputs":[{"internalType":"address","name":"","type":"address"}],"stateMutability":"view","type":"function"},{"inputs":[],"name":"deploySafe","outputs":[{"internalType":"address","name":"","type":"address"}],"stateMutability":"nonpayable","type":"function"},{"inputs":[],"name":"deploySafeProxy","outputs":[{"internalType":"address","name":"","type":"address"}],"stateMutability":"nonpayable","type":"function"},{"inputs":[{"internalType":"uint256","name":"index","type":"uint256"}],"name":"getdeployProxyAddr","outputs":[{"internalType":"address","name":"","type":"address"}],"stateMutability":"view","type":"function"},{"inputs":[{"internalType":"uint256","name":"index","type":"uint256"}],"name":"getdeploySafeAddr","outputs":[{"internalType":"address","name":"","type":"address"}],"stateMutability":"view","type":"function"},{"inputs":[],"name":"safeImpl","outputs":[{"internalType":"address","name":"","type":"address"}],"stateMutability":"view","type":"function"},{"inputs":[{"internalType":"address","name":"_newImpl","type":"address"}],"name":"updateImplementation","outputs":[],"stateMutability":"nonpayable","type":"function"}],"evm":{"bytecode":{"linkReferences":{},"object":"60806040523480156200001157600080fd5b506040516200360c3803806200360c83398181016040528101906200003791906200012d565b6200005367a5b304c0aa59871260c01b6200011360201b60201c565b6200006f6785686ee08a27db9660c01b6200011360201b60201c565b33600160006101000a81548173ffffffffffffffffffffffffffffffffffffffff021916908373ffffffffffffffffffffffffffffffffffffffff160217905550620000cc67efe869202669df0660c01b6200011360201b60201c565b806000806101000a81548173ffffffffffffffffffffffffffffffffffffffff021916908373ffffffffffffffffffffffffffffffffffffffff16021790555050620001a7565b50565b60008151905062000127816200018d565b92915050565b6000602082840312156200014057600080fd5b6000620001508482850162000116565b91505092915050565b600062000166826200016d565b9050919050565b600073ffffffffffffffffffffffffffffffffffffffff82169050919050565b620001988162000159565b8114620001a457600080fd5b50565b61345580620001b76000396000f3fe60806040523480156200001157600080fd5b5060043610620000885760003560e01c80631349cd9111620000635780631349cd911462000105578063644f7aac14620001275780639a8787bf14620001495780639f4fab76146200016b5762000088565b8063025b22bc146200008d578063096f8dbc14620000ad578063117803e314620000e3575b600080fd5b620000ab6004803603810190620000a5919062000b14565b620001a1565b005b620000cb6004803603810190620000c5919062000b40565b6200041e565b604051620000da919062000c8f565b60405180910390f35b620000ed62000571565b604051620000fc919062000c8f565b60405180910390f35b6200010f620005dd565b6040516200011e919062000c8f565b60405180910390f35b6200013162000601565b60405162000140919062000c8f565b60405180910390f35b62000153620007a9565b60405162000162919062000c8f565b60405180910390f35b62000189600480360381019062000183919062000b40565b62000974565b60405162000198919062000c8f565b60405180910390f35b620001b767cdddb9f6a6ecedfa60c01b62000ac7565b620001cd67c95e8e004f7a304a60c01b62000ac7565b620001e3670a11f2a3df8b22f660c01b62000ac7565b620001f967c7e172b563bec8fe60c01b62000ac7565b6200020f67b2d843d7a91ca46860c01b62000ac7565b600160009054906101000a900473ffffffffffffffffffffffffffffffffffffffff1673ffffffffffffffffffffffffffffffffffffffff163373ffffffffffffffffffffffffffffffffffffffff1614620002a2576040517f08c379a0000000000000000000000000000000000000000000000000000000008152600401620002999062000cfb565b60405180910390fd5b620002b86753533c2423d53ba060c01b62000ac7565b620002ce6779b5a4c6a75e26f860c01b62000ac7565b620002e467d27a73640b1e808f60c01b62000ac7565b620002fa672c2e5a45a1ca965360c01b62000ac7565b6200031067a314a81d9ed30aa860c01b62000ac7565b62000326670d7381719db2232860c01b62000ac7565b6200033c678b1cb21632f73e6260c01b62000ac7565b600073ffffffffffffffffffffffffffffffffffffffff168173ffffffffffffffffffffffffffffffffffffffff161415620003af576040517f08c379a0000000000000000000000000000000000000000000000000000000008152600401620003a69062000cd9565b60405180910390fd5b620003c5671cb9643e0c6499ce60c01b62000ac7565b620003db67bbf7b095cd59f2e160c01b62000ac7565b806000806101000a81548173ffffffffffffffffffffffffffffffffffffffff021916908373ffffffffffffffffffffffffffffffffffffffff16021790555050565b6000620004366707c551a74f23ced060c01b62000ac7565b6200044c676312119dc925377760c01b62000ac7565b6200046267de0cb5167f23348b60c01b62000ac7565b6200047867dbc8bd938beaf1f760c01b62000ac7565b6003805490508210620004c2576040517f08c379a0000000000000000000000000000000000000000000000000000000008152600401620004b99062000d1d565b60405180910390fd5b620004d8677abcee150738a56b60c01b62000ac7565b620004ee678cd529cc1596083860c01b62000ac7565b6200050467fb43cb8dc3be0f1660c01b62000ac7565b600382815481106200053f577f4e487b7100000000000000000000000000000000000000000000000000000000600052603260045260246000fd5b9060005260206000200160009054906101000a900473ffffffffffffffffffffffffffffffffffffffff169050919050565b60006200058967391fa83b8f58ed7a60c01b62000ac7565b6200059f678972fc3fdf1ae35a60c01b62000ac7565b620005b567c6079f645556743060c01b62000ac7565b600160009054906101000a900473ffffffffffffffffffffffffffffffffffffffff16905090565b60008054906101000a900473ffffffffffffffffffffffffffffffffffffffff1681565b60006200061967aac3ef9f096eb0a160c01b62000ac7565b6200062f67d98dff4bcb1b138160c01b62000ac7565b62000645678e471c0ed3b789cf60c01b62000ac7565b600033604051620006569062000aca565b62000662919062000c8f565b604051809103906000f0801580156200067f573d6000803e3d6000fd5b50905062000698670a1c4101250f6fab60c01b62000ac7565b620006ae676a99b6406fba027860c01b62000ac7565b7ff5b7f3f60acd3043a8ea44f042bf8abc20b068039901e50052f03e078ff3d9f081604051620006df919062000c8f565b60405180910390a1620006fd67ea56d6d52a130ba560c01b62000ac7565b6200071367eda98709b55a6abf60c01b62000ac7565b6002819080600181540180825580915050600190039060005260206000200160009091909190916101000a81548173ffffffffffffffffffffffffffffffffffffffff021916908373ffffffffffffffffffffffffffffffffffffffff1602179055506200078c679aa4c0f43c63df4a60c01b62000ac7565b620007a2673a4d815bc9f9060360c01b62000ac7565b8091505090565b6000620007c16798f214606a7bc80760c01b62000ac7565b620007d7678a5d8de229b6871760c01b62000ac7565b620007ed67f82b8b5c14a12da260c01b62000ac7565b60008060009054906101000a900473ffffffffffffffffffffffffffffffffffffffff1633604051620008209062000ad8565b6200082d92919062000cac565b604051809103906000f0801580156200084a573d6000803e3d6000fd5b50905062000863672a7b568e7c69411c60c01b62000ac7565b6200087967b7bc6392186b140960c01b62000ac7565b7ff5b7f3f60acd3043a8ea44f042bf8abc20b068039901e50052f03e078ff3d9f081604051620008aa919062000c8f565b60405180910390a1620008c867ffdd5b38465768da60c01b62000ac7565b620008de67e3f224380f32db8a60c01b62000ac7565b6003819080600181540180825580915050600190039060005260206000200160009091909190916101000a81548173ffffffffffffffffffffffffffffffffffffffff021916908373ffffffffffffffffffffffffffffffffffffffff160217905550620009576707ec8d354452d17460c01b62000ac7565b6200096d67fe927076a3c3389e60c01b62000ac7565b8091505090565b60006200098c67556a04972340738360c01b62000ac7565b620009a267767f10cbcfcad09760c01b62000ac7565b620009b8671fd9d38c8ab3415260c01b62000ac7565b620009ce67bcfdae9ae1f9efc460c01b62000ac7565b600280549050821062000a18576040517f08c379a000000000000000000000000000000000000000000000000000000000815260040162000a0f9062000d1d565b60405180910390fd5b62000a2e672dc8316630415c1760c01b62000ac7565b62000a44678a032726cae17c5960c01b62000ac7565b62000a5a6799d7337fa5b57b1c60c01b62000ac7565b6002828154811062000a95577f4e487b7100000000000000000000000000000000000000000000000000000000600052603260045260246000fd5b9060005260206000200160009054906101000a900473ffffffffffffffffffffffffffffffffffffffff169050919050565b50565b6116308062000dc383390190565b61102d80620023f383390190565b60008135905062000af78162000d8e565b92915050565b60008135905062000b0e8162000da8565b92915050565b60006020828403121562000b2757600080fd5b600062000b378482850162000ae6565b91505092915050565b60006020828403121562000b5357600080fd5b600062000b638482850162000afd565b91505092915050565b62000b778162000d50565b82525050565b600062000b8c602a8362000d3f565b91507f4e657720696d706c656d656e746174696f6e20616464726573732063616e6e6f60008301527f74206265207a65726f2e000000000000000000000000000000000000000000006020830152604082019050919050565b600062000bf460268362000d3f565b91507f4f6e6c7920746865206f776e65722063616e2063616c6c20746869732066756e60008301527f6374696f6e2e00000000000000000000000000000000000000000000000000006020830152604082019050919050565b600062000c5c600d8362000d3f565b91507f496e76616c696420696e646578000000000000000000000000000000000000006000830152602082019050919050565b600060208201905062000ca6600083018462000b6c565b92915050565b600060408201905062000cc3600083018562000b6c565b62000cd2602083018462000b6c565b9392505050565b6000602082019050818103600083015262000cf48162000b7d565b9050919050565b6000602082019050818103600083015262000d168162000be5565b9050919050565b6000602082019050818103600083015262000d388162000c4d565b9050919050565b600082825260208201905092915050565b600062000d5d8262000d64565b9050919050565b600073ffffffffffffffffffffffffffffffffffffffff82169050919050565b6000819050919050565b62000d998162000d50565b811462000da557600080fd5b50565b62000db38162000d84565b811462000dbf57600080fd5b5056fe608060405260405162001630380380620016308339818101604052810190620000299190620000c3565b620000456764d3716ec8ea3d2760c01b620000a960201b60201c565b6200006167c26d8f051727398e60c01b620000a960201b60201c565b80600160006101000a81548173ffffffffffffffffffffffffffffffffffffffff021916908373ffffffffffffffffffffffffffffffffffffffff160217905550506200013d565b50565b600081519050620000bd8162000123565b92915050565b600060208284031215620000d657600080fd5b6000620000e684828501620000ac565b91505092915050565b6000620000fc8262000103565b9050919050565b600073ffffffffffffffffffffffffffffffffffffffff82169050919050565b6200012e81620000ef565b81146200013a57600080fd5b50565b6114e3806200014d6000396000f3fe608060405234801561001057600080fd5b50600436106100935760003560e01c80638da5cb5b116100665780638da5cb5b14610120578063a5bf8ec61461013e578063c23f001f1461015a578063f348f4fc1461018a578063f3fef3a3146101ba57610093565b80633e38b80d1461009857806347e7ef24146100b65780635b0a296a146100d257806370a08231146100f0575b600080fd5b6100a06101d6565b6040516100ad91906112c9565b60405180910390f35b6100d060048036038101906100cb9190610ec9565b6101dc565b005b6100da6104a5565b6040516100e79190611173565b60405180910390f35b61010a60048036038101906101059190610e64565b61050b565b60405161011791906112c9565b60405180910390f35b6101286105cc565b604051610135919061118e565b60405180910390f35b61015860048036038101906101539190610e64565b6105f2565b005b610174600480360381019061016f9190610e8d565b61091c565b60405161018191906112c9565b60405180910390f35b6101a4600480360381019061019f9190610e64565b610941565b6040516101b191906112c9565b60405180910390f35b6101d460048036038101906101cf9190610ec9565b610959565b005b60035481565b6101f06742ff15c5a78e3a3660c01b610e22565b61020467ab5b27a8f24a34c660c01b610e22565b61021867752608ba51062ffc60c01b610e22565b61022c67f858f60ec4bdb28360c01b610e22565b6000811161026f576040517f08c379a000000000000000000000000000000000000000000000000000000000815260040161026690611229565b60405180910390fd5b610283670c4810258dc9e3e360c01b610e22565b61029767205f7cfae5a7974c60c01b610e22565b6102ab67dc6dd8a36d7dff4660c01b610e22565b6102bf67d58daf945ea159ab60c01b610e22565b600073ffffffffffffffffffffffffffffffffffffffff168273ffffffffffffffffffffffffffffffffffffffff16141561032f576040517f08c379a000000000000000000000000000000000000000000000000000000000815260040161032690611269565b60405180910390fd5b61034367d5f389fc2f765ff460c01b610e22565b610357677c74b59e4581698a60c01b610e22565b61036b678e92b0a60abc3c4660c01b610e22565b8173ffffffffffffffffffffffffffffffffffffffff166323b872dd3330846040518463ffffffff1660e01b81526004016103a8939291906111a9565b602060405180830381600087803b1580156103c257600080fd5b505af11580156103d6573d6000803e3d6000fd5b505050506040513d601f19601f820116820180604052508101906103fa9190610f05565b5061040f673c4fbe07d3fb3e0060c01b610e22565b806000803373ffffffffffffffffffffffffffffffffffffffff1673ffffffffffffffffffffffffffffffffffffffff16815260200190815260200160002060008473ffffffffffffffffffffffffffffffffffffffff1673ffffffffffffffffffffffffffffffffffffffff168152602001908152602001600020600082825461049a91906112f5565b925050819055505050565b60006104bb6788037edeae76af1f60c01b610e22565b6104cf67f9fd36d0e35cb76260c01b610e22565b6104e36770e89a609090cf6b60c01b610e22565b600160009054906101000a900473ffffffffffffffffffffffffffffffffffffffff16905090565b600061052167bc5fba23bf64d9cb60c01b610e22565b610535670d0c6f7ba734550960c01b610e22565b610549673bda04ada1e2cbfe60c01b610e22565b6000803373ffffffffffffffffffffffffffffffffffffffff1673ffffffffffffffffffffffffffffffffffffffff16815260200190815260200160002060008373ffffffffffffffffffffffffffffffffffffffff1673ffffffffffffffffffffffffffffffffffffffff168152602001908152602001600020549050919050565b600160009054906101000a900473ffffffffffffffffffffffffffffffffffffffff1681565b61060667c26a3065c01c3d1960c01b610e22565b61061a67519a3c9540d2143060c01b610e22565b61062e678495f1a01805abdc60c01b610e22565b610642676a6807f533e251af60c01b610e22565b61065667175594d13a65205d60c01b610e22565b600160009054906101000a900473ffffffffffffffffffffffffffffffffffffffff1673ffffffffffffffffffffffffffffffffffffffff163373ffffffffffffffffffffffffffffffffffffffff16146106e6576040517f08c379a00000000000000000000000000000000000000000000000000000000081526004016106dd90611209565b60405180910390fd5b6106fa670ef9f5e838525a7760c01b610e22565b61070e6751c3b7e5e792e85460c01b610e22565b610722676aff7e26b4cd029f60c01b610e22565b6107366798fa10e0644147a260c01b610e22565b61074a6775716d00802ecfc860c01b610e22565b61075e67a96838bd02934a3460c01b610e22565b6000600260008373ffffffffffffffffffffffffffffffffffffffff1673ffffffffffffffffffffffffffffffffffffffff1681526020019081526020016000205490506107b667c5d1c71b2a602ace60c01b610e22565b6107ca671d3ae4a45e0a924960c01b610e22565b6107de6751c5b748a5f812be60c01b610e22565b60008111610821576040517f08c379a000000000000000000000000000000000000000000000000000000000815260040161081890611249565b60405180910390fd5b610835672f6d0a11e2ae244060c01b610e22565b61084967b6ac816dfdca46a960c01b610e22565b806003600082825461085b919061137c565b9250508190555061087667d29a9e885797d70260c01b610e22565b61088a67a2cbd55a1a44da0e60c01b610e22565b8173ffffffffffffffffffffffffffffffffffffffff1663a9059cbb33836040518363ffffffff1660e01b81526004016108c59291906111e0565b602060405180830381600087803b1580156108df57600080fd5b505af11580156108f3573d6000803e3d6000fd5b505050506040513d601f19601f820116820180604052508101906109179190610f05565b505050565b6000602052816000526040600020602052806000526040600020600091509150505481565b60026020528060005260406000206000915090505481565b61096d671d51001503d1344660c01b610e22565b61098167c97abdd284b32ebf60c01b610e22565b61099567ba2d5ea7db351b7c60c01b610e22565b6109a967b06955df08ddd3de60c01b610e22565b600081116109ec576040517f08c379a00000000000000000000000000000000000000000000000000000000081526004016109e390611289565b60405180910390fd5b610a00676399e95c764cf63a60c01b610e22565b610a14671eec5c4babc5186e60c01b610e22565b610a286729bf313028c10bc560c01b610e22565b610a3c67a1748b534b13df7b60c01b610e22565b806000803373ffffffffffffffffffffffffffffffffffffffff1673ffffffffffffffffffffffffffffffffffffffff16815260200190815260200160002060008473ffffffffffffffffffffffffffffffffffffffff1673ffffffffffffffffffffffffffffffffffffffff168152602001908152602001600020541015610afa576040517f08c379a0000000000000000000000000000000000000000000000000000000008152600401610af1906112a9565b60405180910390fd5b610b0e67bab5db1f077cc6c260c01b610e22565b610b226731a4be32be7360c660c01b610e22565b610b36677655f54237b6d87960c01b610e22565b610b4a67da303f94275ac30160c01b610e22565b600073ffffffffffffffffffffffffffffffffffffffff168273ffffffffffffffffffffffffffffffffffffffff161415610bba576040517f08c379a0000000000000000000000000000000000000000000000000000000008152600401610bb190611269565b60405180910390fd5b610bce67d3080cf97bfe3fa760c01b610e22565b610be267eef7674e44124abc60c01b610e22565b806000803373ffffffffffffffffffffffffffffffffffffffff1673ffffffffffffffffffffffffffffffffffffffff16815260200190815260200160002060008473ffffffffffffffffffffffffffffffffffffffff1673ffffffffffffffffffffffffffffffffffffffff1681526020019081526020016000206000828254610c6d919061137c565b92505081905550610c886720d55089f55f9eb560c01b610e22565b610c9c67077edb151f84489960c01b610e22565b60006103e882610cac919061134b565b9050610cc267c727020af8b8c5a760c01b610e22565b80600260008573ffffffffffffffffffffffffffffffffffffffff1673ffffffffffffffffffffffffffffffffffffffff1681526020019081526020016000206000828254610d1191906112f5565b92505081905550610d2c67d3f15c27ba45999e60c01b610e22565b8060036000828254610d3e91906112f5565b92505081905550610d59674106ba80e8a0d46960c01b610e22565b8082610d65919061137c565b9150610d7b67fa58d86851eb0bb760c01b610e22565b610d8f677236e927fd0583e660c01b610e22565b8273ffffffffffffffffffffffffffffffffffffffff1663a9059cbb33846040518363ffffffff1660e01b8152600401610dca9291906111e0565b602060405180830381600087803b158015610de457600080fd5b505af1158015610df8573d6000803e3d6000fd5b505050506040513d601f19601f82011682018060405250810190610e1c9190610f05565b50505050565b50565b600081359050610e3481611468565b92915050565b600081519050610e498161147f565b92915050565b600081359050610e5e81611496565b92915050565b600060208284031215610e7657600080fd5b6000610e8484828501610e25565b91505092915050565b60008060408385031215610ea057600080fd5b6000610eae85828601610e25565b9250506020610ebf85828601610e25565b9150509250929050565b60008060408385031215610edc57600080fd5b6000610eea85828601610e25565b9250506020610efb85828601610e4f565b9150509250929050565b600060208284031215610f1757600080fd5b6000610f2584828501610e3a565b91505092915050565b610f37816113c2565b82525050565b610f46816113b0565b82525050565b6000610f596026836112e4565b91507f4f6e6c7920746865206f776e65722063616e2063616c6c20746869732066756e60008301527f6374696f6e2e00000000000000000000000000000000000000000000000000006020830152604082019050919050565b6000610fbf6025836112e4565b91507f4465706f73697420616d6f756e74206d7573742062652067726561746572207460008301527f68616e20300000000000000000000000000000000000000000000000000000006020830152604082019050919050565b6000611025602b836112e4565b91507f5468657265206e6f20656e6f7567682074617820666f7220796f75207769746860008301527f207468697320746f6b656e0000000000000000000000000000000000000000006020830152604082019050919050565b600061108b601b836112e4565b91507f546f6b656e2061646472657373206d7573742062652076616c696400000000006000830152602082019050919050565b60006110cb6028836112e4565b91507f5769746864726177616c20616d6f756e74206d7573742062652067726561746560008301527f72207468616e20300000000000000000000000000000000000000000000000006020830152604082019050919050565b60006111316015836112e4565b91507f52756e206f7574206f6620796f7572206d6f6e657900000000000000000000006000830152602082019050919050565b61116d81611400565b82525050565b60006020820190506111886000830184610f3d565b92915050565b60006020820190506111a36000830184610f2e565b92915050565b60006060820190506111be6000830186610f3d565b6111cb6020830185610f3d565b6111d86040830184611164565b949350505050565b60006040820190506111f56000830185610f3d565b6112026020830184611164565b9392505050565b6000602082019050818103600083015261122281610f4c565b9050919050565b6000602082019050818103600083015261124281610fb2565b9050919050565b6000602082019050818103600083015261126281611018565b9050919050565b600060208201905081810360008301526112828161107e565b9050919050565b600060208201905081810360008301526112a2816110be565b9050919050565b600060208201905081810360008301526112c281611124565b9050919050565b60006020820190506112de6000830184611164565b92915050565b600082825260208201905092915050565b600061130082611400565b915061130b83611400565b9250827fffffffffffffffffffffffffffffffffffffffffffffffffffffffffffffffff038211156113405761133f61140a565b5b828201905092915050565b600061135682611400565b915061136183611400565b92508261137157611370611439565b5b828204905092915050565b600061138782611400565b915061139283611400565b9250828210156113a5576113a461140a565b5b828203905092915050565b60006113bb826113e0565b9050919050565b60006113cd826113e0565b9050919050565b60008115159050919050565b600073ffffffffffffffffffffffffffffffffffffffff82169050919050565b6000819050919050565b7f4e487b7100000000000000000000000000000000000000000000000000000000600052601160045260246000fd5b7f4e487b7100000000000000000000000000000000000000000000000000000000600052601260045260246000fd5b611471816113b0565b811461147c57600080fd5b50565b611488816113d4565b811461149357600080fd5b50565b61149f81611400565b81146114aa57600080fd5b5056fea2646970667358221220d07330a022abc8a8b4c7b9b10a8c8f373efc537769800ca3966deeed271675cf64736f6c6343000800003360806040526000600460006101000a81548160ff0219169083151502179055503480156200002c57600080fd5b506040516200102d3803806200102d8339818101604052810190620000529190620005e5565b6200006e674c7a9ad35c6cacbf60c01b6200035560201b60201c565b6200008a6740732ad98b3d3eb160c01b6200035560201b60201c565b620000a6677728ba36a8cd107560c01b6200035560201b60201c565b620000b7826200035860201b60201c565b620000d367534a6c42b0e86e6360c01b6200035560201b60201c565b620000ef672431588dd6f9e57860c01b6200035560201b60201c565b6200010033620003f460201b60201c565b6200011c67e00e3a902dccc18160c01b6200035560201b60201c565b6200012c6200049060201b60201c565b600460016101000a81548173ffffffffffffffffffffffffffffffffffffffff021916908373ffffffffffffffffffffffffffffffffffffffff160217905550620001886787729d15ff7435de60c01b6200035560201b60201c565b620001986200052f60201b60201c565b600160006101000a81548173ffffffffffffffffffffffffffffffffffffffff021916908373ffffffffffffffffffffffffffffffffffffffff160217905550620001f4675b6053ce334b94dc60c01b6200035560201b60201c565b62000210670db5d9dfff6fd81c60c01b6200035560201b60201c565b60008160405160240162000225919062000687565b6040516020818303038152906040527f90b4b79c000000000000000000000000000000000000000000000000000000007bffffffffffffffffffffffffffffffffffffffffffffffffffffffff19166020820180517bffffffffffffffffffffffffffffffffffffffffffffffffffffffff83818316178352505050509050620002c067d5abec86a70e521260c01b6200035560201b60201c565b620002dc67fe139f0dca604f8360c01b6200035560201b60201c565b60008373ffffffffffffffffffffffffffffffffffffffff16826040516200030591906200066e565b600060405180830381855af49150503d806000811462000342576040519150601f19603f3d011682016040523d82523d6000602084013e62000347565b606091505b50915050505050506200073e565b50565b6200037467a341a99dc1dadccf60c01b6200035560201b60201c565b62000390674f5f71bb3bd580c660c01b6200035560201b60201c565b620003ac67529ec0686f4b7a9560c01b6200035560201b60201c565b60007fbdeff4dcb7832d4903fcc4e1b401b95e520306665ad43f1f2ae62de00e2e963f9050620003ed67ebd46e659864462560c01b6200035560201b60201c565b8181555050565b62000410671715c1415df8c46560c01b6200035560201b60201c565b6200042c6753515ae78f23ac1f60c01b6200035560201b60201c565b6200044867f803d2872ffc00e160c01b6200035560201b60201c565b60007f30ab0d7ac4c206e185dd69af287e1177c2e55fbcc5348145664e0407b2be9a2390506200048967f9296f5fb7f5454660c01b6200035560201b60201c565b8181555050565b6000620004ae67014f627acc398bc360c01b6200035560201b60201c565b620004ca677727187f2d5139b860c01b6200035560201b60201c565b620004e667776001ef97bba63b60c01b6200035560201b60201c565b60007fbdeff4dcb7832d4903fcc4e1b401b95e520306665ad43f1f2ae62de00e2e963f905062000527678de9ed4c15bae8dd60c01b6200035560201b60201c565b805491505090565b60006200054d6744a1e87d127ef73460c01b6200035560201b60201c565b6200056967aa4b20674ec82a7460c01b6200035560201b60201c565b6200058567a18763b86eb5109b60c01b6200035560201b60201c565b60007f30ab0d7ac4c206e185dd69af287e1177c2e55fbcc5348145664e0407b2be9a239050620005c667cc458853d18ba0fc60c01b6200035560201b60201c565b805491505090565b600081519050620005df8162000724565b92915050565b60008060408385031215620005f957600080fd5b60006200060985828601620005ce565b92505060206200061c85828601620005ce565b9150509250929050565b6200063181620006ba565b82525050565b60006200064482620006a4565b620006508185620006af565b935062000662818560208601620006ee565b80840191505092915050565b60006200067c828462000637565b915081905092915050565b60006020820190506200069e600083018462000626565b92915050565b600081519050919050565b600081905092915050565b6000620006c782620006ce565b9050919050565b600073ffffffffffffffffffffffffffffffffffffffff82169050919050565b60005b838110156200070e578082015181840152602081019050620006f1565b838111156200071e576000848401525b50505050565b6200072f81620006ba565b81146200073b57600080fd5b50565b6108df806200074e6000396000f3fe60806040526004361061008a5760003560e01c80637d6f9665116100595780637d6f9665146101835780638da5cb5b146101ae578063c23f001f146101d9578063d785818314610216578063f348f4fc146102415761008b565b80630900f010146100d9578063117803e3146101025780633e38b80d1461012d5780635c60da1b146101585761008b565b5b61009f67702352b9ac8cb11f60c01b61027e565b6100b367522533dd673d915760c01b61027e565b6100c7677a93301dea86f62360c01b61027e565b6100d76100d2610281565b610300565b005b3480156100e557600080fd5b5061010060048036038101906100fb919061070f565b6103ae565b005b34801561010e57600080fd5b50610117610510565b60405161012491906107df565b60405180910390f35b34801561013957600080fd5b50610142610576565b60405161014f9190610815565b60405180910390f35b34801561016457600080fd5b5061016d61057c565b60405161017a91906107df565b60405180910390f35b34801561018f57600080fd5b506101986105a2565b6040516101a591906107fa565b60405180910390f35b3480156101ba57600080fd5b506101c36105b5565b6040516101d091906107df565b60405180910390f35b3480156101e557600080fd5b5061020060048036038101906101fb9190610738565b6105db565b60405161020d9190610815565b60405180910390f35b34801561022257600080fd5b5061022b610600565b60405161023891906107df565b60405180910390f35b34801561024d57600080fd5b506102686004803603810190610263919061070f565b610666565b6040516102759190610815565b60405180910390f35b50565b600061029767014f627acc398bc360c01b61027e565b6102ab677727187f2d5139b860c01b61027e565b6102bf67776001ef97bba63b60c01b61027e565b60007fbdeff4dcb7832d4903fcc4e1b401b95e520306665ad43f1f2ae62de00e2e963f90506102f8678de9ed4c15bae8dd60c01b61027e565b805491505090565b610314676a263c0a656eb02e60c01b61027e565b61032867322f8ba2fc95466c60c01b61027e565b61033c67cda9800bd4377fc760c01b61027e565b60008173ffffffffffffffffffffffffffffffffffffffff166000366040516103669291906107c6565b600060405180830381855af49150503d80600081146103a1576040519150601f19603f3d011682016040523d82523d6000602084013e6103a6565b606091505b509150505050565b6103c2677519c7874f50372960c01b61027e565b6103d667488fd798612d1c9b60c01b61027e565b6103ea67f63ffc486d706bbe60c01b61027e565b600160009054906101000a900473ffffffffffffffffffffffffffffffffffffffff1673ffffffffffffffffffffffffffffffffffffffff163373ffffffffffffffffffffffffffffffffffffffff161461046c5761045367772670c8288af71560c01b61027e565b61046767ece39f297a12c03260c01b61027e565b600080fd5b610480675cca1c478a99f4c560c01b61027e565b61049467c55f472a45b63f2160c01b61027e565b6104a8673f103a2f28817c2c60c01b61027e565b6104b18161067e565b6104c567856cae8f9309281660c01b61027e565b6104cd610281565b600460016101000a81548173ffffffffffffffffffffffffffffffffffffffff021916908373ffffffffffffffffffffffffffffffffffffffff16021790555050565b600061052667cba700deab8f3bdf60c01b61027e565b61053a67da1c4fa783c7a48a60c01b61027e565b61054e67c3d99caa7575e1c660c01b61027e565b600160009054906101000a900473ffffffffffffffffffffffffffffffffffffffff16905090565b60035481565b600460019054906101000a900473ffffffffffffffffffffffffffffffffffffffff1681565b600460009054906101000a900460ff1681565b600160009054906101000a900473ffffffffffffffffffffffffffffffffffffffff1681565b6000602052816000526040600020602052806000526040600020600091509150505481565b60006106166796c667e29e5956ce60c01b61027e565b61062a6716a32e2ef48da92360c01b61027e565b61063e67a45b0e789362425660c01b61027e565b600460019054906101000a900473ffffffffffffffffffffffffffffffffffffffff16905090565b60026020528060005260406000206000915090505481565b61069267a341a99dc1dadccf60c01b61027e565b6106a6674f5f71bb3bd580c660c01b61027e565b6106ba67529ec0686f4b7a9560c01b61027e565b60007fbdeff4dcb7832d4903fcc4e1b401b95e520306665ad43f1f2ae62de00e2e963f90506106f367ebd46e659864462560c01b61027e565b8181555050565b60008135905061070981610892565b92915050565b60006020828403121561072157600080fd5b600061072f848285016106fa565b91505092915050565b6000806040838503121561074b57600080fd5b6000610759858286016106fa565b925050602061076a858286016106fa565b9150509250929050565b61077d8161083b565b82525050565b61078c8161084d565b82525050565b600061079e8385610830565b93506107ab838584610883565b82840190509392505050565b6107c081610879565b82525050565b60006107d3828486610792565b91508190509392505050565b60006020820190506107f46000830184610774565b92915050565b600060208201905061080f6000830184610783565b92915050565b600060208201905061082a60008301846107b7565b92915050565b600081905092915050565b600061084682610859565b9050919050565b60008115159050919050565b600073ffffffffffffffffffffffffffffffffffffffff82169050919050565b6000819050919050565b82818337600083830152505050565b61089b8161083b565b81146108a657600080fd5b5056fea2646970667358221220c82bb7f88ba10446dd70a4955a89ccf69262136b79f7da9a4fa9b2f8bf69359164736f6c63430008000033a2646970667358221220c51e72e94a87d1a2117ed1681aa47d74d83ceb116812872b9c4edfc9f6b4b21064736f6c63430008000033","opcodes":"PUSH1 0x80 PUSH1 0x40 MSTORE CALLVALUE DUP1 ISZERO PUSH3 0x11 JUMPI PUSH1 0x0 DUP1 REVERT JUMPDEST POP PUSH1 0x40 MLOAD PUSH3 0x360C CODESIZE SUB DUP1 PUSH3 0x360C DUP4 CODECOPY DUP2 DUP2 ADD PUSH1 0x40 MSTORE DUP2 ADD SWAP1 PUSH3 0x37 SWAP2 SWAP1 PUSH3 0x12D JUMP JUMPDEST PUSH3 0x53 PUSH8 0xA5B304C0AA598712 PUSH1 0xC0 SHL PUSH3 0x113 PUSH1 0x20 SHL PUSH1 0x20 SHR JUMP JUMPDEST PUSH3 0x6F PUSH8 0x85686EE08A27DB96 PUSH1 0xC0 SHL PUSH3 0x113 PUSH1 0x20 SHL PUSH1 0x20 SHR JUMP JUMPDEST CALLER PUSH1 0x1 PUSH1 0x0 PUSH2 0x100 EXP DUP2 SLOAD DUP2 PUSH20 0xFFFFFFFFFFFFFFFFFFFFFFFFFFFFFFFFFFFFFFFF MUL NOT AND SWAP1 DUP4 PUSH20 0xFFFFFFFFFFFFFFFFFFFFFFFFFFFFFFFFFFFFFFFF AND MUL OR SWAP1 SSTORE POP PUSH3 0xCC PUSH8 0xEFE869202669DF06 PUSH1 0xC0 SHL PUSH3 0x113 PUSH1 0x20 SHL PUSH1 0x20 SHR JUMP JUMPDEST DUP1 PUSH1 0x0 DUP1 PUSH2 0x100 EXP DUP2 SLOAD DUP2 PUSH20 0xFFFFFFFFFFFFFFFFFFFFFFFFFFFFFFFFFFFFFFFF MUL NOT AND SWAP1 DUP4 PUSH20 0xFFFFFFFFFFFFFFFFFFFFFFFFFFFFFFFFFFFFFFFF AND MUL OR SWAP1 SSTORE POP POP PUSH3 0x1A7 JUMP JUMPDEST POP JUMP JUMPDEST PUSH1 0x0 DUP2 MLOAD SWAP1 POP PUSH3 0x127 DUP2 PUSH3 0x18D JUMP JUMPDEST SWAP3 SWAP2 POP POP JUMP JUMPDEST PUSH1 0x0 PUSH1 0x20 DUP3 DUP5 SUB SLT ISZERO PUSH3 0x140 JUMPI PUSH1 0x0 DUP1 REVERT JUMPDEST PUSH1 0x0 PUSH3 0x150 DUP5 DUP3 DUP6 ADD PUSH3 0x116 JUMP JUMPDEST SWAP2 POP POP SWAP3 SWAP2 POP POP JUMP JUMPDEST PUSH1 0x0 PUSH3 0x166 DUP3 PUSH3 0x16D JUMP JUMPDEST SWAP1 POP SWAP2 SWAP1 POP JUMP JUMPDEST PUSH1 0x0 PUSH20 0xFFFFFFFFFFFFFFFFFFFFFFFFFFFFFFFFFFFFFFFF DUP3 AND SWAP1 POP SWAP2 SWAP1 POP JUMP JUMPDEST PUSH3 0x198 DUP2 PUSH3 0x159 JUMP JUMPDEST DUP2 EQ PUSH3 0x1A4 JUMPI PUSH1 0x0 DUP1 REVERT JUMPDEST POP JUMP JUMPDEST PUSH2 0x3455 DUP1 PUSH3 0x1B7 PUSH1 0x0 CODECOPY PUSH1 0x0 RETURN INVALID PUSH1 0x80 PUSH1 0x40 MSTORE CALLVALUE DUP1 ISZERO PUSH3 0x11 JUMPI PUSH1 0x0 DUP1 REVERT JUMPDEST POP PUSH1 0x4 CALLDATASIZE LT PUSH3 0x88 JUMPI PUSH1 0x0 CALLDATALOAD PUSH1 0xE0 SHR DUP1 PUSH4 0x1349CD91 GT PUSH3 0x63 JUMPI DUP1 PUSH4 0x1349CD91 EQ PUSH3 0x105 JUMPI DUP1 PUSH4 0x644F7AAC EQ PUSH3 0x127 JUMPI DUP1 PUSH4 0x9A8787BF EQ PUSH3 0x149 JUMPI DUP1 PUSH4 0x9F4FAB76 EQ PUSH3 0x16B JUMPI PUSH3 0x88 JUMP JUMPDEST DUP1 PUSH4 0x25B22BC EQ PUSH3 0x8D JUMPI DUP1 PUSH4 0x96F8DBC EQ PUSH3 0xAD JUMPI DUP1 PUSH4 0x117803E3 EQ PUSH3 0xE3 JUMPI JUMPDEST PUSH1 0x0 DUP1 REVERT JUMPDEST PUSH3 0xAB PUSH1 0x4 DUP1 CALLDATASIZE SUB DUP2 ADD SWAP1 PUSH3 0xA5 SWAP2 SWAP1 PUSH3 0xB14 JUMP JUMPDEST PUSH3 0x1A1 JUMP JUMPDEST STOP JUMPDEST PUSH3 0xCB PUSH1 0x4 DUP1 CALLDATASIZE SUB DUP2 ADD SWAP1 PUSH3 0xC5 SWAP2 SWAP1 PUSH3 0xB40 JUMP JUMPDEST PUSH3 0x41E JUMP JUMPDEST PUSH1 0x40 MLOAD PUSH3 0xDA SWAP2 SWAP1 PUSH3 0xC8F JUMP JUMPDEST PUSH1 0x40 MLOAD DUP1 SWAP2 SUB SWAP1 RETURN JUMPDEST PUSH3 0xED PUSH3 0x571 JUMP JUMPDEST PUSH1 0x40 MLOAD PUSH3 0xFC SWAP2 SWAP1 PUSH3 0xC8F JUMP JUMPDEST PUSH1 0x40 MLOAD DUP1 SWAP2 SUB SWAP1 RETURN JUMPDEST PUSH3 0x10F PUSH3 0x5DD JUMP JUMPDEST PUSH1 0x40 MLOAD PUSH3 0x11E SWAP2 SWAP1 PUSH3 0xC8F JUMP JUMPDEST PUSH1 0x40 MLOAD DUP1 SWAP2 SUB SWAP1 RETURN JUMPDEST PUSH3 0x131 PUSH3 0x601 JUMP JUMPDEST PUSH1 0x40 MLOAD PUSH3 0x140 SWAP2 SWAP1 PUSH3 0xC8F JUMP JUMPDEST PUSH1 0x40 MLOAD DUP1 SWAP2 SUB SWAP1 RETURN JUMPDEST PUSH3 0x153 PUSH3 0x7A9 JUMP JUMPDEST PUSH1 0x40 MLOAD PUSH3 0x162 SWAP2 SWAP1 PUSH3 0xC8F JUMP JUMPDEST PUSH1 0x40 MLOAD DUP1 SWAP2 SUB SWAP1 RETURN JUMPDEST PUSH3 0x189 PUSH1 0x4 DUP1 CALLDATASIZE SUB DUP2 ADD SWAP1 PUSH3 0x183 SWAP2 SWAP1 PUSH3 0xB40 JUMP JUMPDEST PUSH3 0x974 JUMP JUMPDEST PUSH1 0x40 MLOAD PUSH3 0x198 SWAP2 SWAP1 PUSH3 0xC8F JUMP JUMPDEST PUSH1 0x40 MLOAD DUP1 SWAP2 SUB SWAP1 RETURN JUMPDEST PUSH3 0x1B7 PUSH8 0xCDDDB9F6A6ECEDFA PUSH1 0xC0 SHL PUSH3 0xAC7 JUMP JUMPDEST PUSH3 0x1CD PUSH8 0xC95E8E004F7A304A PUSH1 0xC0 SHL PUSH3 0xAC7 JUMP JUMPDEST PUSH3 0x1E3 PUSH8 0xA11F2A3DF8B22F6 PUSH1 0xC0 SHL PUSH3 0xAC7 JUMP JUMPDEST PUSH3 0x1F9 PUSH8 0xC7E172B563BEC8FE PUSH1 0xC0 SHL PUSH3 0xAC7 JUMP JUMPDEST PUSH3 0x20F PUSH8 0xB2D843D7A91CA468 PUSH1 0xC0 SHL PUSH3 0xAC7 JUMP JUMPDEST PUSH1 0x1 PUSH1 0x0 SWAP1 SLOAD SWAP1 PUSH2 0x100 EXP SWAP1 DIV PUSH20 0xFFFFFFFFFFFFFFFFFFFFFFFFFFFFFFFFFFFFFFFF AND PUSH20 0xFFFFFFFFFFFFFFFFFFFFFFFFFFFFFFFFFFFFFFFF AND CALLER PUSH20 0xFFFFFFFFFFFFFFFFFFFFFFFFFFFFFFFFFFFFFFFF AND EQ PUSH3 0x2A2 JUMPI PUSH1 0x40 MLOAD PUSH32 0x8C379A000000000000000000000000000000000000000000000000000000000 DUP2 MSTORE PUSH1 0x4 ADD PUSH3 0x299 SWAP1 PUSH3 0xCFB JUMP JUMPDEST PUSH1 0x40 MLOAD DUP1 SWAP2 SUB SWAP1 REVERT JUMPDEST PUSH3 0x2B8 PUSH8 0x53533C2423D53BA0 PUSH1 0xC0 SHL PUSH3 0xAC7 JUMP JUMPDEST PUSH3 0x2CE PUSH8 0x79B5A4C6A75E26F8 PUSH1 0xC0 SHL PUSH3 0xAC7 JUMP JUMPDEST PUSH3 0x2E4 PUSH8 0xD27A73640B1E808F PUSH1 0xC0 SHL PUSH3 0xAC7 JUMP JUMPDEST PUSH3 0x2FA PUSH8 0x2C2E5A45A1CA9653 PUSH1 0xC0 SHL PUSH3 0xAC7 JUMP JUMPDEST PUSH3 0x310 PUSH8 0xA314A81D9ED30AA8 PUSH1 0xC0 SHL PUSH3 0xAC7 JUMP JUMPDEST PUSH3 0x326 PUSH8 0xD7381719DB22328 PUSH1 0xC0 SHL PUSH3 0xAC7 JUMP JUMPDEST PUSH3 0x33C PUSH8 0x8B1CB21632F73E62 PUSH1 0xC0 SHL PUSH3 0xAC7 JUMP JUMPDEST PUSH1 0x0 PUSH20 0xFFFFFFFFFFFFFFFFFFFFFFFFFFFFFFFFFFFFFFFF AND DUP2 PUSH20 0xFFFFFFFFFFFFFFFFFFFFFFFFFFFFFFFFFFFFFFFF AND EQ ISZERO PUSH3 0x3AF JUMPI PUSH1 0x40 MLOAD PUSH32 0x8C379A000000000000000000000000000000000000000000000000000000000 DUP2 MSTORE PUSH1 0x4 ADD PUSH3 0x3A6 SWAP1 PUSH3 0xCD9 JUMP JUMPDEST PUSH1 0x40 MLOAD DUP1 SWAP2 SUB SWAP1 REVERT JUMPDEST PUSH3 0x3C5 PUSH8 0x1CB9643E0C6499CE PUSH1 0xC0 SHL PUSH3 0xAC7 JUMP JUMPDEST PUSH3 0x3DB PUSH8 0xBBF7B095CD59F2E1 PUSH1 0xC0 SHL PUSH3 0xAC7 JUMP JUMPDEST DUP1 PUSH1 0x0 DUP1 PUSH2 0x100 EXP DUP2 SLOAD DUP2 PUSH20 0xFFFFFFFFFFFFFFFFFFFFFFFFFFFFFFFFFFFFFFFF MUL NOT AND SWAP1 DUP4 PUSH20 0xFFFFFFFFFFFFFFFFFFFFFFFFFFFFFFFFFFFFFFFF AND MUL OR SWAP1 SSTORE POP POP JUMP JUMPDEST PUSH1 0x0 PUSH3 0x436 PUSH8 0x7C551A74F23CED0 PUSH1 0xC0 SHL PUSH3 0xAC7 JUMP JUMPDEST PUSH3 0x44C PUSH8 0x6312119DC9253777 PUSH1 0xC0 SHL PUSH3 0xAC7 JUMP JUMPDEST PUSH3 0x462 PUSH8 0xDE0CB5167F23348B PUSH1 0xC0 SHL PUSH3 0xAC7 JUMP JUMPDEST PUSH3 0x478 PUSH8 0xDBC8BD938BEAF1F7 PUSH1 0xC0 SHL PUSH3 0xAC7 JUMP JUMPDEST PUSH1 0x3 DUP1 SLOAD SWAP1 POP DUP3 LT PUSH3 0x4C2 JUMPI PUSH1 0x40 MLOAD PUSH32 0x8C379A000000000000000000000000000000000000000000000000000000000 DUP2 MSTORE PUSH1 0x4 ADD PUSH3 0x4B9 SWAP1 PUSH3 0xD1D JUMP JUMPDEST PUSH1 0x40 MLOAD DUP1 SWAP2 SUB SWAP1 REVERT JUMPDEST PUSH3 0x4D8 PUSH8 0x7ABCEE150738A56B PUSH1 0xC0 SHL PUSH3 0xAC7 JUMP JUMPDEST PUSH3 0x4EE PUSH8 0x8CD529CC15960838 PUSH1 0xC0 SHL PUSH3 0xAC7 JUMP JUMPDEST PUSH3 0x504 PUSH8 0xFB43CB8DC3BE0F16 PUSH1 0xC0 SHL PUSH3 0xAC7 JUMP JUMPDEST PUSH1 0x3 DUP3 DUP2 SLOAD DUP2 LT PUSH3 0x53F JUMPI PUSH32 0x4E487B7100000000000000000000000000000000000000000000000000000000 PUSH1 0x0 MSTORE PUSH1 0x32 PUSH1 0x4 MSTORE PUSH1 0x24 PUSH1 0x0 REVERT JUMPDEST SWAP1 PUSH1 0x0 MSTORE PUSH1 0x20 PUSH1 0x0 KECCAK256 ADD PUSH1 0x0 SWAP1 SLOAD SWAP1 PUSH2 0x100 EXP SWAP1 DIV PUSH20 0xFFFFFFFFFFFFFFFFFFFFFFFFFFFFFFFFFFFFFFFF AND SWAP1 POP SWAP2 SWAP1 POP JUMP JUMPDEST PUSH1 0x0 PUSH3 0x589 PUSH8 0x391FA83B8F58ED7A PUSH1 0xC0 SHL PUSH3 0xAC7 JUMP JUMPDEST PUSH3 0x59F PUSH8 0x8972FC3FDF1AE35A PUSH1 0xC0 SHL PUSH3 0xAC7 JUMP JUMPDEST PUSH3 0x5B5 PUSH8 0xC6079F6455567430 PUSH1 0xC0 SHL PUSH3 0xAC7 JUMP JUMPDEST PUSH1 0x1 PUSH1 0x0 SWAP1 SLOAD SWAP1 PUSH2 0x100 EXP SWAP1 DIV PUSH20 0xFFFFFFFFFFFFFFFFFFFFFFFFFFFFFFFFFFFFFFFF AND SWAP1 POP SWAP1 JUMP JUMPDEST PUSH1 0x0 DUP1 SLOAD SWAP1 PUSH2 0x100 EXP SWAP1 DIV PUSH20 0xFFFFFFFFFFFFFFFFFFFFFFFFFFFFFFFFFFFFFFFF AND DUP2 JUMP JUMPDEST PUSH1 0x0 PUSH3 0x619 PUSH8 0xAAC3EF9F096EB0A1 PUSH1 0xC0 SHL PUSH3 0xAC7 JUMP JUMPDEST PUSH3 0x62F PUSH8 0xD98DFF4BCB1B1381 PUSH1 0xC0 SHL PUSH3 0xAC7 JUMP JUMPDEST PUSH3 0x645 PUSH8 0x8E471C0ED3B789CF PUSH1 0xC0 SHL PUSH3 0xAC7 JUMP JUMPDEST PUSH1 0x0 CALLER PUSH1 0x40 MLOAD PUSH3 0x656 SWAP1 PUSH3 0xACA JUMP JUMPDEST PUSH3 0x662 SWAP2 SWAP1 PUSH3 0xC8F JUMP JUMPDEST PUSH1 0x40 MLOAD DUP1 SWAP2 SUB SWAP1 PUSH1 0x0 CREATE DUP1 ISZERO DUP1 ISZERO PUSH3 0x67F JUMPI RETURNDATASIZE PUSH1 0x0 DUP1 RETURNDATACOPY RETURNDATASIZE PUSH1 0x0 REVERT JUMPDEST POP SWAP1 POP PUSH3 0x698 PUSH8 0xA1C4101250F6FAB PUSH1 0xC0 SHL PUSH3 0xAC7 JUMP JUMPDEST PUSH3 0x6AE PUSH8 0x6A99B6406FBA0278 PUSH1 0xC0 SHL PUSH3 0xAC7 JUMP JUMPDEST PUSH32 0xF5B7F3F60ACD3043A8EA44F042BF8ABC20B068039901E50052F03E078FF3D9F0 DUP2 PUSH1 0x40 MLOAD PUSH3 0x6DF SWAP2 SWAP1 PUSH3 0xC8F JUMP JUMPDEST PUSH1 0x40 MLOAD DUP1 SWAP2 SUB SWAP1 LOG1 PUSH3 0x6FD PUSH8 0xEA56D6D52A130BA5 PUSH1 0xC0 SHL PUSH3 0xAC7 JUMP JUMPDEST PUSH3 0x713 PUSH8 0xEDA98709B55A6ABF PUSH1 0xC0 SHL PUSH3 0xAC7 JUMP JUMPDEST PUSH1 0x2 DUP2 SWAP1 DUP1 PUSH1 0x1 DUP2 SLOAD ADD DUP1 DUP3 SSTORE DUP1 SWAP2 POP POP PUSH1 0x1 SWAP1 SUB SWAP1 PUSH1 0x0 MSTORE PUSH1 0x20 PUSH1 0x0 KECCAK256 ADD PUSH1 0x0 SWAP1 SWAP2 SWAP1 SWAP2 SWAP1 SWAP2 PUSH2 0x100 EXP DUP2 SLOAD DUP2 PUSH20 0xFFFFFFFFFFFFFFFFFFFFFFFFFFFFFFFFFFFFFFFF MUL NOT AND SWAP1 DUP4 PUSH20 0xFFFFFFFFFFFFFFFFFFFFFFFFFFFFFFFFFFFFFFFF AND MUL OR SWAP1 SSTORE POP PUSH3 0x78C PUSH8 0x9AA4C0F43C63DF4A PUSH1 0xC0 SHL PUSH3 0xAC7 JUMP JUMPDEST PUSH3 0x7A2 PUSH8 0x3A4D815BC9F90603 PUSH1 0xC0 SHL PUSH3 0xAC7 JUMP JUMPDEST DUP1 SWAP2 POP POP SWAP1 JUMP JUMPDEST PUSH1 0x0 PUSH3 0x7C1 PUSH8 0x98F214606A7BC807 PUSH1 0xC0 SHL PUSH3 0xAC7 JUMP JUMPDEST PUSH3 0x7D7 PUSH8 0x8A5D8DE229B68717 PUSH1 0xC0 SHL PUSH3 0xAC7 JUMP JUMPDEST PUSH3 0x7ED PUSH8 0xF82B8B5C14A12DA2 PUSH1 0xC0 SHL PUSH3 0xAC7 JUMP JUMPDEST PUSH1 0x0 DUP1 PUSH1 0x0 SWAP1 SLOAD SWAP1 PUSH2 0x100 EXP SWAP1 DIV PUSH20 0xFFFFFFFFFFFFFFFFFFFFFFFFFFFFFFFFFFFFFFFF AND CALLER PUSH1 0x40 MLOAD PUSH3 0x820 SWAP1 PUSH3 0xAD8 JUMP JUMPDEST PUSH3 0x82D SWAP3 SWAP2 SWAP1 PUSH3 0xCAC JUMP JUMPDEST PUSH1 0x40 MLOAD DUP1 SWAP2 SUB SWAP1 PUSH1 0x0 CREATE DUP1 ISZERO DUP1 ISZERO PUSH3 0x84A JUMPI RETURNDATASIZE PUSH1 0x0 DUP1 RETURNDATACOPY RETURNDATASIZE PUSH1 0x0 REVERT JUMPDEST POP SWAP1 POP PUSH3 0x863 PUSH8 0x2A7B568E7C69411C PUSH1 0xC0 SHL PUSH3 0xAC7 JUMP JUMPDEST PUSH3 0x879 PUSH8 0xB7BC6392186B1409 PUSH1 0xC0 SHL PUSH3 0xAC7 JUMP JUMPDEST PUSH32 0xF5B7F3F60ACD3043A8EA44F042BF8ABC20B068039901E50052F03E078FF3D9F0 DUP2 PUSH1 0x40 MLOAD PUSH3 0x8AA SWAP2 SWAP1 PUSH3 0xC8F JUMP JUMPDEST PUSH1 0x40 MLOAD DUP1 SWAP2 SUB SWAP1 LOG1 PUSH3 0x8C8 PUSH8 0xFFDD5B38465768DA PUSH1 0xC0 SHL PUSH3 0xAC7 JUMP JUMPDEST PUSH3 0x8DE PUSH8 0xE3F224380F32DB8A PUSH1 0xC0 SHL PUSH3 0xAC7 JUMP JUMPDEST PUSH1 0x3 DUP2 SWAP1 DUP1 PUSH1 0x1 DUP2 SLOAD ADD DUP1 DUP3 SSTORE DUP1 SWAP2 POP POP PUSH1 0x1 SWAP1 SUB SWAP1 PUSH1 0x0 MSTORE PUSH1 0x20 PUSH1 0x0 KECCAK256 ADD PUSH1 0x0 SWAP1 SWAP2 SWAP1 SWAP2 SWAP1 SWAP2 PUSH2 0x100 EXP DUP2 SLOAD DUP2 PUSH20 0xFFFFFFFFFFFFFFFFFFFFFFFFFFFFFFFFFFFFFFFF MUL NOT AND SWAP1 DUP4 PUSH20 0xFFFFFFFFFFFFFFFFFFFFFFFFFFFFFFFFFFFFFFFF AND MUL OR SWAP1 SSTORE POP PUSH3 0x957 PUSH8 0x7EC8D354452D174 PUSH1 0xC0 SHL PUSH3 0xAC7 JUMP JUMPDEST PUSH3 0x96D PUSH8 0xFE927076A3C3389E PUSH1 0xC0 SHL PUSH3 0xAC7 JUMP JUMPDEST DUP1 SWAP2 POP POP SWAP1 JUMP JUMPDEST PUSH1 0x0 PUSH3 0x98C PUSH8 0x556A049723407383 PUSH1 0xC0 SHL PUSH3 0xAC7 JUMP JUMPDEST PUSH3 0x9A2 PUSH8 0x767F10CBCFCAD097 PUSH1 0xC0 SHL PUSH3 0xAC7 JUMP JUMPDEST PUSH3 0x9B8 PUSH8 0x1FD9D38C8AB34152 PUSH1 0xC0 SHL PUSH3 0xAC7 JUMP JUMPDEST PUSH3 0x9CE PUSH8 0xBCFDAE9AE1F9EFC4 PUSH1 0xC0 SHL PUSH3 0xAC7 JUMP JUMPDEST PUSH1 0x2 DUP1 SLOAD SWAP1 POP DUP3 LT PUSH3 0xA18 JUMPI PUSH1 0x40 MLOAD PUSH32 0x8C379A000000000000000000000000000000000000000000000000000000000 DUP2 MSTORE PUSH1 0x4 ADD PUSH3 0xA0F SWAP1 PUSH3 0xD1D JUMP JUMPDEST PUSH1 0x40 MLOAD DUP1 SWAP2 SUB SWAP1 REVERT JUMPDEST PUSH3 0xA2E PUSH8 0x2DC8316630415C17 PUSH1 0xC0 SHL PUSH3 0xAC7 JUMP JUMPDEST PUSH3 0xA44 PUSH8 0x8A032726CAE17C59 PUSH1 0xC0 SHL PUSH3 0xAC7 JUMP JUMPDEST PUSH3 0xA5A PUSH8 0x99D7337FA5B57B1C PUSH1 0xC0 SHL PUSH3 0xAC7 JUMP JUMPDEST PUSH1 0x2 DUP3 DUP2 SLOAD DUP2 LT PUSH3 0xA95 JUMPI PUSH32 0x4E487B7100000000000000000000000000000000000000000000000000000000 PUSH1 0x0 MSTORE PUSH1 0x32 PUSH1 0x4 MSTORE PUSH1 0x24 PUSH1 0x0 REVERT JUMPDEST SWAP1 PUSH1 0x0 MSTORE PUSH1 0x20 PUSH1 0x0 KECCAK256 ADD PUSH1 0x0 SWAP1 SLOAD SWAP1 PUSH2 0x100 EXP SWAP1 DIV PUSH20 0xFFFFFFFFFFFFFFFFFFFFFFFFFFFFFFFFFFFFFFFF AND SWAP1 POP SWAP2 SWAP1 POP JUMP JUMPDEST POP JUMP JUMPDEST PUSH2 0x1630 DUP1 PUSH3 0xDC3 DUP4 CODECOPY ADD SWAP1 JUMP JUMPDEST PUSH2 0x102D DUP1 PUSH3 0x23F3 DUP4 CODECOPY ADD SWAP1 JUMP JUMPDEST PUSH1 0x0 DUP2 CALLDATALOAD SWAP1 POP PUSH3 0xAF7 DUP2 PUSH3 0xD8E JUMP JUMPDEST SWAP3 SWAP2 POP POP JUMP JUMPDEST PUSH1 0x0 DUP2 CALLDATALOAD SWAP1 POP PUSH3 0xB0E DUP2 PUSH3 0xDA8 JUMP JUMPDEST SWAP3 SWAP2 POP POP JUMP JUMPDEST PUSH1 0x0 PUSH1 0x20 DUP3 DUP5 SUB SLT ISZERO PUSH3 0xB27 JUMPI PUSH1 0x0 DUP1 REVERT JUMPDEST PUSH1 0x0 PUSH3 0xB37 DUP5 DUP3 DUP6 ADD PUSH3 0xAE6 JUMP JUMPDEST SWAP2 POP POP SWAP3 SWAP2 POP POP JUMP JUMPDEST PUSH1 0x0 PUSH1 0x20 DUP3 DUP5 SUB SLT ISZERO PUSH3 0xB53 JUMPI PUSH1 0x0 DUP1 REVERT JUMPDEST PUSH1 0x0 PUSH3 0xB63 DUP5 DUP3 DUP6 ADD PUSH3 0xAFD JUMP JUMPDEST SWAP2 POP POP SWAP3 SWAP2 POP POP JUMP JUMPDEST PUSH3 0xB77 DUP2 PUSH3 0xD50 JUMP JUMPDEST DUP3 MSTORE POP POP JUMP JUMPDEST PUSH1 0x0 PUSH3 0xB8C PUSH1 0x2A DUP4 PUSH3 0xD3F JUMP JUMPDEST SWAP2 POP PUSH32 0x4E657720696D706C656D656E746174696F6E20616464726573732063616E6E6F PUSH1 0x0 DUP4 ADD MSTORE PUSH32 0x74206265207A65726F2E00000000000000000000000000000000000000000000 PUSH1 0x20 DUP4 ADD MSTORE PUSH1 0x40 DUP3 ADD SWAP1 POP SWAP2 SWAP1 POP JUMP JUMPDEST PUSH1 0x0 PUSH3 0xBF4 PUSH1 0x26 DUP4 PUSH3 0xD3F JUMP JUMPDEST SWAP2 POP PUSH32 0x4F6E6C7920746865206F776E65722063616E2063616C6C20746869732066756E PUSH1 0x0 DUP4 ADD MSTORE PUSH32 0x6374696F6E2E0000000000000000000000000000000000000000000000000000 PUSH1 0x20 DUP4 ADD MSTORE PUSH1 0x40 DUP3 ADD SWAP1 POP SWAP2 SWAP1 POP JUMP JUMPDEST PUSH1 0x0 PUSH3 0xC5C PUSH1 0xD DUP4 PUSH3 0xD3F JUMP JUMPDEST SWAP2 POP PUSH32 0x496E76616C696420696E64657800000000000000000000000000000000000000 PUSH1 0x0 DUP4 ADD MSTORE PUSH1 0x20 DUP3 ADD SWAP1 POP SWAP2 SWAP1 POP JUMP JUMPDEST PUSH1 0x0 PUSH1 0x20 DUP3 ADD SWAP1 POP PUSH3 0xCA6 PUSH1 0x0 DUP4 ADD DUP5 PUSH3 0xB6C JUMP JUMPDEST SWAP3 SWAP2 POP POP JUMP JUMPDEST PUSH1 0x0 PUSH1 0x40 DUP3 ADD SWAP1 POP PUSH3 0xCC3 PUSH1 0x0 DUP4 ADD DUP6 PUSH3 0xB6C JUMP JUMPDEST PUSH3 0xCD2 PUSH1 0x20 DUP4 ADD DUP5 PUSH3 0xB6C JUMP JUMPDEST SWAP4 SWAP3 POP POP POP JUMP JUMPDEST PUSH1 0x0 PUSH1 0x20 DUP3 ADD SWAP1 POP DUP2 DUP2 SUB PUSH1 0x0 DUP4 ADD MSTORE PUSH3 0xCF4 DUP2 PUSH3 0xB7D JUMP JUMPDEST SWAP1 POP SWAP2 SWAP1 POP JUMP JUMPDEST PUSH1 0x0 PUSH1 0x20 DUP3 ADD SWAP1 POP DUP2 DUP2 SUB PUSH1 0x0 DUP4 ADD MSTORE PUSH3 0xD16 DUP2 PUSH3 0xBE5 JUMP JUMPDEST SWAP1 POP SWAP2 SWAP1 POP JUMP JUMPDEST PUSH1 0x0 PUSH1 0x20 DUP3 ADD SWAP1 POP DUP2 DUP2 SUB PUSH1 0x0 DUP4 ADD MSTORE PUSH3 0xD38 DUP2 PUSH3 0xC4D JUMP JUMPDEST SWAP1 POP SWAP2 SWAP1 POP JUMP JUMPDEST PUSH1 0x0 DUP3 DUP3 MSTORE PUSH1 0x20 DUP3 ADD SWAP1 POP SWAP3 SWAP2 POP POP JUMP JUMPDEST PUSH1 0x0 PUSH3 0xD5D DUP3 PUSH3 0xD64 JUMP JUMPDEST SWAP1 POP SWAP2 SWAP1 POP JUMP JUMPDEST PUSH1 0x0 PUSH20 0xFFFFFFFFFFFFFFFFFFFFFFFFFFFFFFFFFFFFFFFF DUP3 AND SWAP1 POP SWAP2 SWAP1 POP JUMP JUMPDEST PUSH1 0x0 DUP2 SWAP1 POP SWAP2 SWAP1 POP JUMP JUMPDEST PUSH3 0xD99 DUP2 PUSH3 0xD50 JUMP JUMPDEST DUP2 EQ PUSH3 0xDA5 JUMPI PUSH1 0x0 DUP1 REVERT JUMPDEST POP JUMP JUMPDEST PUSH3 0xDB3 DUP2 PUSH3 0xD84 JUMP JUMPDEST DUP2 EQ PUSH3 0xDBF JUMPI PUSH1 0x0 DUP1 REVERT JUMPDEST POP JUMP INVALID PUSH1 0x80 PUSH1 0x40 MSTORE PUSH1 0x40 MLOAD PUSH3 0x1630 CODESIZE SUB DUP1 PUSH3 0x1630 DUP4 CODECOPY DUP2 DUP2 ADD PUSH1 0x40 MSTORE DUP2 ADD SWAP1 PUSH3 0x29 SWAP2 SWAP1 PUSH3 0xC3 JUMP JUMPDEST PUSH3 0x45 PUSH8 0x64D3716EC8EA3D27 PUSH1 0xC0 SHL PUSH3 0xA9 PUSH1 0x20 SHL PUSH1 0x20 SHR JUMP JUMPDEST PUSH3 0x61 PUSH8 0xC26D8F051727398E PUSH1 0xC0 SHL PUSH3 0xA9 PUSH1 0x20 SHL PUSH1 0x20 SHR JUMP JUMPDEST DUP1 PUSH1 0x1 PUSH1 0x0 PUSH2 0x100 EXP DUP2 SLOAD DUP2 PUSH20 0xFFFFFFFFFFFFFFFFFFFFFFFFFFFFFFFFFFFFFFFF MUL NOT AND SWAP1 DUP4 PUSH20 0xFFFFFFFFFFFFFFFFFFFFFFFFFFFFFFFFFFFFFFFF AND MUL OR SWAP1 SSTORE POP POP PUSH3 0x13D JUMP JUMPDEST POP JUMP JUMPDEST PUSH1 0x0 DUP2 MLOAD SWAP1 POP PUSH3 0xBD DUP2 PUSH3 0x123 JUMP JUMPDEST SWAP3 SWAP2 POP POP JUMP JUMPDEST PUSH1 0x0 PUSH1 0x20 DUP3 DUP5 SUB SLT ISZERO PUSH3 0xD6 JUMPI PUSH1 0x0 DUP1 REVERT JUMPDEST PUSH1 0x0 PUSH3 0xE6 DUP5 DUP3 DUP6 ADD PUSH3 0xAC JUMP JUMPDEST SWAP2 POP POP SWAP3 SWAP2 POP POP JUMP JUMPDEST PUSH1 0x0 PUSH3 0xFC DUP3 PUSH3 0x103 JUMP JUMPDEST SWAP1 POP SWAP2 SWAP1 POP JUMP JUMPDEST PUSH1 0x0 PUSH20 0xFFFFFFFFFFFFFFFFFFFFFFFFFFFFFFFFFFFFFFFF DUP3 AND SWAP1 POP SWAP2 SWAP1 POP JUMP JUMPDEST PUSH3 0x12E DUP2 PUSH3 0xEF JUMP JUMPDEST DUP2 EQ PUSH3 0x13A JUMPI PUSH1 0x0 DUP1 REVERT JUMPDEST POP JUMP JUMPDEST PUSH2 0x14E3 DUP1 PUSH3 0x14D PUSH1 0x0 CODECOPY PUSH1 0x0 RETURN INVALID PUSH1 0x80 PUSH1 0x40 MSTORE CALLVALUE DUP1 ISZERO PUSH2 0x10 JUMPI PUSH1 0x0 DUP1 REVERT JUMPDEST POP PUSH1 0x4 CALLDATASIZE LT PUSH2 0x93 JUMPI PUSH1 0x0 CALLDATALOAD PUSH1 0xE0 SHR DUP1 PUSH4 0x8DA5CB5B GT PUSH2 0x66 JUMPI DUP1 PUSH4 0x8DA5CB5B EQ PUSH2 0x120 JUMPI DUP1 PUSH4 0xA5BF8EC6 EQ PUSH2 0x13E JUMPI DUP1 PUSH4 0xC23F001F EQ PUSH2 0x15A JUMPI DUP1 PUSH4 0xF348F4FC EQ PUSH2 0x18A JUMPI DUP1 PUSH4 0xF3FEF3A3 EQ PUSH2 0x1BA JUMPI PUSH2 0x93 JUMP JUMPDEST DUP1 PUSH4 0x3E38B80D EQ PUSH2 0x98 JUMPI DUP1 PUSH4 0x47E7EF24 EQ PUSH2 0xB6 JUMPI DUP1 PUSH4 0x5B0A296A EQ PUSH2 0xD2 JUMPI DUP1 PUSH4 0x70A08231 EQ PUSH2 0xF0 JUMPI JUMPDEST PUSH1 0x0 DUP1 REVERT JUMPDEST PUSH2 0xA0 PUSH2 0x1D6 JUMP JUMPDEST PUSH1 0x40 MLOAD PUSH2 0xAD SWAP2 SWAP1 PUSH2 0x12C9 JUMP JUMPDEST PUSH1 0x40 MLOAD DUP1 SWAP2 SUB SWAP1 RETURN JUMPDEST PUSH2 0xD0 PUSH1 0x4 DUP1 CALLDATASIZE SUB DUP2 ADD SWAP1 PUSH2 0xCB SWAP2 SWAP1 PUSH2 0xEC9 JUMP JUMPDEST PUSH2 0x1DC JUMP JUMPDEST STOP JUMPDEST PUSH2 0xDA PUSH2 0x4A5 JUMP JUMPDEST PUSH1 0x40 MLOAD PUSH2 0xE7 SWAP2 SWAP1 PUSH2 0x1173 JUMP JUMPDEST PUSH1 0x40 MLOAD DUP1 SWAP2 SUB SWAP1 RETURN JUMPDEST PUSH2 0x10A PUSH1 0x4 DUP1 CALLDATASIZE SUB DUP2 ADD SWAP1 PUSH2 0x105 SWAP2 SWAP1 PUSH2 0xE64 JUMP JUMPDEST PUSH2 0x50B JUMP JUMPDEST PUSH1 0x40 MLOAD PUSH2 0x117 SWAP2 SWAP1 PUSH2 0x12C9 JUMP JUMPDEST PUSH1 0x40 MLOAD DUP1 SWAP2 SUB SWAP1 RETURN JUMPDEST PUSH2 0x128 PUSH2 0x5CC JUMP JUMPDEST PUSH1 0x40 MLOAD PUSH2 0x135 SWAP2 SWAP1 PUSH2 0x118E JUMP JUMPDEST PUSH1 0x40 MLOAD DUP1 SWAP2 SUB SWAP1 RETURN JUMPDEST PUSH2 0x158 PUSH1 0x4 DUP1 CALLDATASIZE SUB DUP2 ADD SWAP1 PUSH2 0x153 SWAP2 SWAP1 PUSH2 0xE64 JUMP JUMPDEST PUSH2 0x5F2 JUMP JUMPDEST STOP JUMPDEST PUSH2 0x174 PUSH1 0x4 DUP1 CALLDATASIZE SUB DUP2 ADD SWAP1 PUSH2 0x16F SWAP2 SWAP1 PUSH2 0xE8D JUMP JUMPDEST PUSH2 0x91C JUMP JUMPDEST PUSH1 0x40 MLOAD PUSH2 0x181 SWAP2 SWAP1 PUSH2 0x12C9 JUMP JUMPDEST PUSH1 0x40 MLOAD DUP1 SWAP2 SUB SWAP1 RETURN JUMPDEST PUSH2 0x1A4 PUSH1 0x4 DUP1 CALLDATASIZE SUB DUP2 ADD SWAP1 PUSH2 0x19F SWAP2 SWAP1 PUSH2 0xE64 JUMP JUMPDEST PUSH2 0x941 JUMP JUMPDEST PUSH1 0x40 MLOAD PUSH2 0x1B1 SWAP2 SWAP1 PUSH2 0x12C9 JUMP JUMPDEST PUSH1 0x40 MLOAD DUP1 SWAP2 SUB SWAP1 RETURN JUMPDEST PUSH2 0x1D4 PUSH1 0x4 DUP1 CALLDATASIZE SUB DUP2 ADD SWAP1 PUSH2 0x1CF SWAP2 SWAP1 PUSH2 0xEC9 JUMP JUMPDEST PUSH2 0x959 JUMP JUMPDEST STOP JUMPDEST PUSH1 0x3 SLOAD DUP2 JUMP JUMPDEST PUSH2 0x1F0 PUSH8 0x42FF15C5A78E3A36 PUSH1 0xC0 SHL PUSH2 0xE22 JUMP JUMPDEST PUSH2 0x204 PUSH8 0xAB5B27A8F24A34C6 PUSH1 0xC0 SHL PUSH2 0xE22 JUMP JUMPDEST PUSH2 0x218 PUSH8 0x752608BA51062FFC PUSH1 0xC0 SHL PUSH2 0xE22 JUMP JUMPDEST PUSH2 0x22C PUSH8 0xF858F60EC4BDB283 PUSH1 0xC0 SHL PUSH2 0xE22 JUMP JUMPDEST PUSH1 0x0 DUP2 GT PUSH2 0x26F JUMPI PUSH1 0x40 MLOAD PUSH32 0x8C379A000000000000000000000000000000000000000000000000000000000 DUP2 MSTORE PUSH1 0x4 ADD PUSH2 0x266 SWAP1 PUSH2 0x1229 JUMP JUMPDEST PUSH1 0x40 MLOAD DUP1 SWAP2 SUB SWAP1 REVERT JUMPDEST PUSH2 0x283 PUSH8 0xC4810258DC9E3E3 PUSH1 0xC0 SHL PUSH2 0xE22 JUMP JUMPDEST PUSH2 0x297 PUSH8 0x205F7CFAE5A7974C PUSH1 0xC0 SHL PUSH2 0xE22 JUMP JUMPDEST PUSH2 0x2AB PUSH8 0xDC6DD8A36D7DFF46 PUSH1 0xC0 SHL PUSH2 0xE22 JUMP JUMPDEST PUSH2 0x2BF PUSH8 0xD58DAF945EA159AB PUSH1 0xC0 SHL PUSH2 0xE22 JUMP JUMPDEST PUSH1 0x0 PUSH20 0xFFFFFFFFFFFFFFFFFFFFFFFFFFFFFFFFFFFFFFFF AND DUP3 PUSH20 0xFFFFFFFFFFFFFFFFFFFFFFFFFFFFFFFFFFFFFFFF AND EQ ISZERO PUSH2 0x32F JUMPI PUSH1 0x40 MLOAD PUSH32 0x8C379A000000000000000000000000000000000000000000000000000000000 DUP2 MSTORE PUSH1 0x4 ADD PUSH2 0x326 SWAP1 PUSH2 0x1269 JUMP JUMPDEST PUSH1 0x40 MLOAD DUP1 SWAP2 SUB SWAP1 REVERT JUMPDEST PUSH2 0x343 PUSH8 0xD5F389FC2F765FF4 PUSH1 0xC0 SHL PUSH2 0xE22 JUMP JUMPDEST PUSH2 0x357 PUSH8 0x7C74B59E4581698A PUSH1 0xC0 SHL PUSH2 0xE22 JUMP JUMPDEST PUSH2 0x36B PUSH8 0x8E92B0A60ABC3C46 PUSH1 0xC0 SHL PUSH2 0xE22 JUMP JUMPDEST DUP2 PUSH20 0xFFFFFFFFFFFFFFFFFFFFFFFFFFFFFFFFFFFFFFFF AND PUSH4 0x23B872DD CALLER ADDRESS DUP5 PUSH1 0x40 MLOAD DUP5 PUSH4 0xFFFFFFFF AND PUSH1 0xE0 SHL DUP2 MSTORE PUSH1 0x4 ADD PUSH2 0x3A8 SWAP4 SWAP3 SWAP2 SWAP1 PUSH2 0x11A9 JUMP JUMPDEST PUSH1 0x20 PUSH1 0x40 MLOAD DUP1 DUP4 SUB DUP2 PUSH1 0x0 DUP8 DUP1 EXTCODESIZE ISZERO DUP1 ISZERO PUSH2 0x3C2 JUMPI PUSH1 0x0 DUP1 REVERT JUMPDEST POP GAS CALL ISZERO DUP1 ISZERO PUSH2 0x3D6 JUMPI RETURNDATASIZE PUSH1 0x0 DUP1 RETURNDATACOPY RETURNDATASIZE PUSH1 0x0 REVERT JUMPDEST POP POP POP POP PUSH1 0x40 MLOAD RETURNDATASIZE PUSH1 0x1F NOT PUSH1 0x1F DUP3 ADD AND DUP3 ADD DUP1 PUSH1 0x40 MSTORE POP DUP2 ADD SWAP1 PUSH2 0x3FA SWAP2 SWAP1 PUSH2 0xF05 JUMP JUMPDEST POP PUSH2 0x40F PUSH8 0x3C4FBE07D3FB3E00 PUSH1 0xC0 SHL PUSH2 0xE22 JUMP JUMPDEST DUP1 PUSH1 0x0 DUP1 CALLER PUSH20 0xFFFFFFFFFFFFFFFFFFFFFFFFFFFFFFFFFFFFFFFF AND PUSH20 0xFFFFFFFFFFFFFFFFFFFFFFFFFFFFFFFFFFFFFFFF AND DUP2 MSTORE PUSH1 0x20 ADD SWAP1 DUP2 MSTORE PUSH1 0x20 ADD PUSH1 0x0 KECCAK256 PUSH1 0x0 DUP5 PUSH20 0xFFFFFFFFFFFFFFFFFFFFFFFFFFFFFFFFFFFFFFFF AND PUSH20 0xFFFFFFFFFFFFFFFFFFFFFFFFFFFFFFFFFFFFFFFF AND DUP2 MSTORE PUSH1 0x20 ADD SWAP1 DUP2 MSTORE PUSH1 0x20 ADD PUSH1 0x0 KECCAK256 PUSH1 0x0 DUP3 DUP3 SLOAD PUSH2 0x49A SWAP2 SWAP1 PUSH2 0x12F5 JUMP JUMPDEST SWAP3 POP POP DUP2 SWAP1 SSTORE POP POP POP JUMP JUMPDEST PUSH1 0x0 PUSH2 0x4BB PUSH8 0x88037EDEAE76AF1F PUSH1 0xC0 SHL PUSH2 0xE22 JUMP JUMPDEST PUSH2 0x4CF PUSH8 0xF9FD36D0E35CB762 PUSH1 0xC0 SHL PUSH2 0xE22 JUMP JUMPDEST PUSH2 0x4E3 PUSH8 0x70E89A609090CF6B PUSH1 0xC0 SHL PUSH2 0xE22 JUMP JUMPDEST PUSH1 0x1 PUSH1 0x0 SWAP1 SLOAD SWAP1 PUSH2 0x100 EXP SWAP1 DIV PUSH20 0xFFFFFFFFFFFFFFFFFFFFFFFFFFFFFFFFFFFFFFFF AND SWAP1 POP SWAP1 JUMP JUMPDEST PUSH1 0x0 PUSH2 0x521 PUSH8 0xBC5FBA23BF64D9CB PUSH1 0xC0 SHL PUSH2 0xE22 JUMP JUMPDEST PUSH2 0x535 PUSH8 0xD0C6F7BA7345509 PUSH1 0xC0 SHL PUSH2 0xE22 JUMP JUMPDEST PUSH2 0x549 PUSH8 0x3BDA04ADA1E2CBFE PUSH1 0xC0 SHL PUSH2 0xE22 JUMP JUMPDEST PUSH1 0x0 DUP1 CALLER PUSH20 0xFFFFFFFFFFFFFFFFFFFFFFFFFFFFFFFFFFFFFFFF AND PUSH20 0xFFFFFFFFFFFFFFFFFFFFFFFFFFFFFFFFFFFFFFFF AND DUP2 MSTORE PUSH1 0x20 ADD SWAP1 DUP2 MSTORE PUSH1 0x20 ADD PUSH1 0x0 KECCAK256 PUSH1 0x0 DUP4 PUSH20 0xFFFFFFFFFFFFFFFFFFFFFFFFFFFFFFFFFFFFFFFF AND PUSH20 0xFFFFFFFFFFFFFFFFFFFFFFFFFFFFFFFFFFFFFFFF AND DUP2 MSTORE PUSH1 0x20 ADD SWAP1 DUP2 MSTORE PUSH1 0x20 ADD PUSH1 0x0 KECCAK256 SLOAD SWAP1 POP SWAP2 SWAP1 POP JUMP JUMPDEST PUSH1 0x1 PUSH1 0x0 SWAP1 SLOAD SWAP1 PUSH2 0x100 EXP SWAP1 DIV PUSH20 0xFFFFFFFFFFFFFFFFFFFFFFFFFFFFFFFFFFFFFFFF AND DUP2 JUMP JUMPDEST PUSH2 0x606 PUSH8 0xC26A3065C01C3D19 PUSH1 0xC0 SHL PUSH2 0xE22 JUMP JUMPDEST PUSH2 0x61A PUSH8 0x519A3C9540D21430 PUSH1 0xC0 SHL PUSH2 0xE22 JUMP JUMPDEST PUSH2 0x62E PUSH8 0x8495F1A01805ABDC PUSH1 0xC0 SHL PUSH2 0xE22 JUMP JUMPDEST PUSH2 0x642 PUSH8 0x6A6807F533E251AF PUSH1 0xC0 SHL PUSH2 0xE22 JUMP JUMPDEST PUSH2 0x656 PUSH8 0x175594D13A65205D PUSH1 0xC0 SHL PUSH2 0xE22 JUMP JUMPDEST PUSH1 0x1 PUSH1 0x0 SWAP1 SLOAD SWAP1 PUSH2 0x100 EXP SWAP1 DIV PUSH20 0xFFFFFFFFFFFFFFFFFFFFFFFFFFFFFFFFFFFFFFFF AND PUSH20 0xFFFFFFFFFFFFFFFFFFFFFFFFFFFFFFFFFFFFFFFF AND CALLER PUSH20 0xFFFFFFFFFFFFFFFFFFFFFFFFFFFFFFFFFFFFFFFF AND EQ PUSH2 0x6E6 JUMPI PUSH1 0x40 MLOAD PUSH32 0x8C379A000000000000000000000000000000000000000000000000000000000 DUP2 MSTORE PUSH1 0x4 ADD PUSH2 0x6DD SWAP1 PUSH2 0x1209 JUMP JUMPDEST PUSH1 0x40 MLOAD DUP1 SWAP2 SUB SWAP1 REVERT JUMPDEST PUSH2 0x6FA PUSH8 0xEF9F5E838525A77 PUSH1 0xC0 SHL PUSH2 0xE22 JUMP JUMPDEST PUSH2 0x70E PUSH8 0x51C3B7E5E792E854 PUSH1 0xC0 SHL PUSH2 0xE22 JUMP JUMPDEST PUSH2 0x722 PUSH8 0x6AFF7E26B4CD029F PUSH1 0xC0 SHL PUSH2 0xE22 JUMP JUMPDEST PUSH2 0x736 PUSH8 0x98FA10E0644147A2 PUSH1 0xC0 SHL PUSH2 0xE22 JUMP JUMPDEST PUSH2 0x74A PUSH8 0x75716D00802ECFC8 PUSH1 0xC0 SHL PUSH2 0xE22 JUMP JUMPDEST PUSH2 0x75E PUSH8 0xA96838BD02934A34 PUSH1 0xC0 SHL PUSH2 0xE22 JUMP JUMPDEST PUSH1 0x0 PUSH1 0x2 PUSH1 0x0 DUP4 PUSH20 0xFFFFFFFFFFFFFFFFFFFFFFFFFFFFFFFFFFFFFFFF AND PUSH20 0xFFFFFFFFFFFFFFFFFFFFFFFFFFFFFFFFFFFFFFFF AND DUP2 MSTORE PUSH1 0x20 ADD SWAP1 DUP2 MSTORE PUSH1 0x20 ADD PUSH1 0x0 KECCAK256 SLOAD SWAP1 POP PUSH2 0x7B6 PUSH8 0xC5D1C71B2A602ACE PUSH1 0xC0 SHL PUSH2 0xE22 JUMP JUMPDEST PUSH2 0x7CA PUSH8 0x1D3AE4A45E0A9249 PUSH1 0xC0 SHL PUSH2 0xE22 JUMP JUMPDEST PUSH2 0x7DE PUSH8 0x51C5B748A5F812BE PUSH1 0xC0 SHL PUSH2 0xE22 JUMP JUMPDEST PUSH1 0x0 DUP2 GT PUSH2 0x821 JUMPI PUSH1 0x40 MLOAD PUSH32 0x8C379A000000000000000000000000000000000000000000000000000000000 DUP2 MSTORE PUSH1 0x4 ADD PUSH2 0x818 SWAP1 PUSH2 0x1249 JUMP JUMPDEST PUSH1 0x40 MLOAD DUP1 SWAP2 SUB SWAP1 REVERT JUMPDEST PUSH2 0x835 PUSH8 0x2F6D0A11E2AE2440 PUSH1 0xC0 SHL PUSH2 0xE22 JUMP JUMPDEST PUSH2 0x849 PUSH8 0xB6AC816DFDCA46A9 PUSH1 0xC0 SHL PUSH2 0xE22 JUMP JUMPDEST DUP1 PUSH1 0x3 PUSH1 0x0 DUP3 DUP3 SLOAD PUSH2 0x85B SWAP2 SWAP1 PUSH2 0x137C JUMP JUMPDEST SWAP3 POP POP DUP2 SWAP1 SSTORE POP PUSH2 0x876 PUSH8 0xD29A9E885797D702 PUSH1 0xC0 SHL PUSH2 0xE22 JUMP JUMPDEST PUSH2 0x88A PUSH8 0xA2CBD55A1A44DA0E PUSH1 0xC0 SHL PUSH2 0xE22 JUMP JUMPDEST DUP2 PUSH20 0xFFFFFFFFFFFFFFFFFFFFFFFFFFFFFFFFFFFFFFFF AND PUSH4 0xA9059CBB CALLER DUP4 PUSH1 0x40 MLOAD DUP4 PUSH4 0xFFFFFFFF AND PUSH1 0xE0 SHL DUP2 MSTORE PUSH1 0x4 ADD PUSH2 0x8C5 SWAP3 SWAP2 SWAP1 PUSH2 0x11E0 JUMP JUMPDEST PUSH1 0x20 PUSH1 0x40 MLOAD DUP1 DUP4 SUB DUP2 PUSH1 0x0 DUP8 DUP1 EXTCODESIZE ISZERO DUP1 ISZERO PUSH2 0x8DF JUMPI PUSH1 0x0 DUP1 REVERT JUMPDEST POP GAS CALL ISZERO DUP1 ISZERO PUSH2 0x8F3 JUMPI RETURNDATASIZE PUSH1 0x0 DUP1 RETURNDATACOPY RETURNDATASIZE PUSH1 0x0 REVERT JUMPDEST POP POP POP POP PUSH1 0x40 MLOAD RETURNDATASIZE PUSH1 0x1F NOT PUSH1 0x1F DUP3 ADD AND DUP3 ADD DUP1 PUSH1 0x40 MSTORE POP DUP2 ADD SWAP1 PUSH2 0x917 SWAP2 SWAP1 PUSH2 0xF05 JUMP JUMPDEST POP POP POP JUMP JUMPDEST PUSH1 0x0 PUSH1 0x20 MSTORE DUP2 PUSH1 0x0 MSTORE PUSH1 0x40 PUSH1 0x0 KECCAK256 PUSH1 0x20 MSTORE DUP1 PUSH1 0x0 MSTORE PUSH1 0x40 PUSH1 0x0 KECCAK256 PUSH1 0x0 SWAP2 POP SWAP2 POP POP SLOAD DUP2 JUMP JUMPDEST PUSH1 0x2 PUSH1 0x20 MSTORE DUP1 PUSH1 0x0 MSTORE PUSH1 0x40 PUSH1 0x0 KECCAK256 PUSH1 0x0 SWAP2 POP SWAP1 POP SLOAD DUP2 JUMP JUMPDEST PUSH2 0x96D PUSH8 0x1D51001503D13446 PUSH1 0xC0 SHL PUSH2 0xE22 JUMP JUMPDEST PUSH2 0x981 PUSH8 0xC97ABDD284B32EBF PUSH1 0xC0 SHL PUSH2 0xE22 JUMP JUMPDEST PUSH2 0x995 PUSH8 0xBA2D5EA7DB351B7C PUSH1 0xC0 SHL PUSH2 0xE22 JUMP JUMPDEST PUSH2 0x9A9 PUSH8 0xB06955DF08DDD3DE PUSH1 0xC0 SHL PUSH2 0xE22 JUMP JUMPDEST PUSH1 0x0 DUP2 GT PUSH2 0x9EC JUMPI PUSH1 0x40 MLOAD PUSH32 0x8C379A000000000000000000000000000000000000000000000000000000000 DUP2 MSTORE PUSH1 0x4 ADD PUSH2 0x9E3 SWAP1 PUSH2 0x1289 JUMP JUMPDEST PUSH1 0x40 MLOAD DUP1 SWAP2 SUB SWAP1 REVERT JUMPDEST PUSH2 0xA00 PUSH8 0x6399E95C764CF63A PUSH1 0xC0 SHL PUSH2 0xE22 JUMP JUMPDEST PUSH2 0xA14 PUSH8 0x1EEC5C4BABC5186E PUSH1 0xC0 SHL PUSH2 0xE22 JUMP JUMPDEST PUSH2 0xA28 PUSH8 0x29BF313028C10BC5 PUSH1 0xC0 SHL PUSH2 0xE22 JUMP JUMPDEST PUSH2 0xA3C PUSH8 0xA1748B534B13DF7B PUSH1 0xC0 SHL PUSH2 0xE22 JUMP JUMPDEST DUP1 PUSH1 0x0 DUP1 CALLER PUSH20 0xFFFFFFFFFFFFFFFFFFFFFFFFFFFFFFFFFFFFFFFF AND PUSH20 0xFFFFFFFFFFFFFFFFFFFFFFFFFFFFFFFFFFFFFFFF AND DUP2 MSTORE PUSH1 0x20 ADD SWAP1 DUP2 MSTORE PUSH1 0x20 ADD PUSH1 0x0 KECCAK256 PUSH1 0x0 DUP5 PUSH20 0xFFFFFFFFFFFFFFFFFFFFFFFFFFFFFFFFFFFFFFFF AND PUSH20 0xFFFFFFFFFFFFFFFFFFFFFFFFFFFFFFFFFFFFFFFF AND DUP2 MSTORE PUSH1 0x20 ADD SWAP1 DUP2 MSTORE PUSH1 0x20 ADD PUSH1 0x0 KECCAK256 SLOAD LT ISZERO PUSH2 0xAFA JUMPI PUSH1 0x40 MLOAD PUSH32 0x8C379A000000000000000000000000000000000000000000000000000000000 DUP2 MSTORE PUSH1 0x4 ADD PUSH2 0xAF1 SWAP1 PUSH2 0x12A9 JUMP JUMPDEST PUSH1 0x40 MLOAD DUP1 SWAP2 SUB SWAP1 REVERT JUMPDEST PUSH2 0xB0E PUSH8 0xBAB5DB1F077CC6C2 PUSH1 0xC0 SHL PUSH2 0xE22 JUMP JUMPDEST PUSH2 0xB22 PUSH8 0x31A4BE32BE7360C6 PUSH1 0xC0 SHL PUSH2 0xE22 JUMP JUMPDEST PUSH2 0xB36 PUSH8 0x7655F54237B6D879 PUSH1 0xC0 SHL PUSH2 0xE22 JUMP JUMPDEST PUSH2 0xB4A PUSH8 0xDA303F94275AC301 PUSH1 0xC0 SHL PUSH2 0xE22 JUMP JUMPDEST PUSH1 0x0 PUSH20 0xFFFFFFFFFFFFFFFFFFFFFFFFFFFFFFFFFFFFFFFF AND DUP3 PUSH20 0xFFFFFFFFFFFFFFFFFFFFFFFFFFFFFFFFFFFFFFFF AND EQ ISZERO PUSH2 0xBBA JUMPI PUSH1 0x40 MLOAD PUSH32 0x8C379A000000000000000000000000000000000000000000000000000000000 DUP2 MSTORE PUSH1 0x4 ADD PUSH2 0xBB1 SWAP1 PUSH2 0x1269 JUMP JUMPDEST PUSH1 0x40 MLOAD DUP1 SWAP2 SUB SWAP1 REVERT JUMPDEST PUSH2 0xBCE PUSH8 0xD3080CF97BFE3FA7 PUSH1 0xC0 SHL PUSH2 0xE22 JUMP JUMPDEST PUSH2 0xBE2 PUSH8 0xEEF7674E44124ABC PUSH1 0xC0 SHL PUSH2 0xE22 JUMP JUMPDEST DUP1 PUSH1 0x0 DUP1 CALLER PUSH20 0xFFFFFFFFFFFFFFFFFFFFFFFFFFFFFFFFFFFFFFFF AND PUSH20 0xFFFFFFFFFFFFFFFFFFFFFFFFFFFFFFFFFFFFFFFF AND DUP2 MSTORE PUSH1 0x20 ADD SWAP1 DUP2 MSTORE PUSH1 0x20 ADD PUSH1 0x0 KECCAK256 PUSH1 0x0 DUP5 PUSH20 0xFFFFFFFFFFFFFFFFFFFFFFFFFFFFFFFFFFFFFFFF AND PUSH20 0xFFFFFFFFFFFFFFFFFFFFFFFFFFFFFFFFFFFFFFFF AND DUP2 MSTORE PUSH1 0x20 ADD SWAP1 DUP2 MSTORE PUSH1 0x20 ADD PUSH1 0x0 KECCAK256 PUSH1 0x0 DUP3 DUP3 SLOAD PUSH2 0xC6D SWAP2 SWAP1 PUSH2 0x137C JUMP JUMPDEST SWAP3 POP POP DUP2 SWAP1 SSTORE POP PUSH2 0xC88 PUSH8 0x20D55089F55F9EB5 PUSH1 0xC0 SHL PUSH2 0xE22 JUMP JUMPDEST PUSH2 0xC9C PUSH8 0x77EDB151F844899 PUSH1 0xC0 SHL PUSH2 0xE22 JUMP JUMPDEST PUSH1 0x0 PUSH2 0x3E8 DUP3 PUSH2 0xCAC SWAP2 SWAP1 PUSH2 0x134B JUMP JUMPDEST SWAP1 POP PUSH2 0xCC2 PUSH8 0xC727020AF8B8C5A7 PUSH1 0xC0 SHL PUSH2 0xE22 JUMP JUMPDEST DUP1 PUSH1 0x2 PUSH1 0x0 DUP6 PUSH20 0xFFFFFFFFFFFFFFFFFFFFFFFFFFFFFFFFFFFFFFFF AND PUSH20 0xFFFFFFFFFFFFFFFFFFFFFFFFFFFFFFFFFFFFFFFF AND DUP2 MSTORE PUSH1 0x20 ADD SWAP1 DUP2 MSTORE PUSH1 0x20 ADD PUSH1 0x0 KECCAK256 PUSH1 0x0 DUP3 DUP3 SLOAD PUSH2 0xD11 SWAP2 SWAP1 PUSH2 0x12F5 JUMP JUMPDEST SWAP3 POP POP DUP2 SWAP1 SSTORE POP PUSH2 0xD2C PUSH8 0xD3F15C27BA45999E PUSH1 0xC0 SHL PUSH2 0xE22 JUMP JUMPDEST DUP1 PUSH1 0x3 PUSH1 0x0 DUP3 DUP3 SLOAD PUSH2 0xD3E SWAP2 SWAP1 PUSH2 0x12F5 JUMP JUMPDEST SWAP3 POP POP DUP2 SWAP1 SSTORE POP PUSH2 0xD59 PUSH8 0x4106BA80E8A0D469 PUSH1 0xC0 SHL PUSH2 0xE22 JUMP JUMPDEST DUP1 DUP3 PUSH2 0xD65 SWAP2 SWAP1 PUSH2 0x137C JUMP JUMPDEST SWAP2 POP PUSH2 0xD7B PUSH8 0xFA58D86851EB0BB7 PUSH1 0xC0 SHL PUSH2 0xE22 JUMP JUMPDEST PUSH2 0xD8F PUSH8 0x7236E927FD0583E6 PUSH1 0xC0 SHL PUSH2 0xE22 JUMP JUMPDEST DUP3 PUSH20 0xFFFFFFFFFFFFFFFFFFFFFFFFFFFFFFFFFFFFFFFF AND PUSH4 0xA9059CBB CALLER DUP5 PUSH1 0x40 MLOAD DUP4 PUSH4 0xFFFFFFFF AND PUSH1 0xE0 SHL DUP2 MSTORE PUSH1 0x4 ADD PUSH2 0xDCA SWAP3 SWAP2 SWAP1 PUSH2 0x11E0 JUMP JUMPDEST PUSH1 0x20 PUSH1 0x40 MLOAD DUP1 DUP4 SUB DUP2 PUSH1 0x0 DUP8 DUP1 EXTCODESIZE ISZERO DUP1 ISZERO PUSH2 0xDE4 JUMPI PUSH1 0x0 DUP1 REVERT JUMPDEST POP GAS CALL ISZERO DUP1 ISZERO PUSH2 0xDF8 JUMPI RETURNDATASIZE PUSH1 0x0 DUP1 RETURNDATACOPY RETURNDATASIZE PUSH1 0x0 REVERT JUMPDEST POP POP POP POP PUSH1 0x40 MLOAD RETURNDATASIZE PUSH1 0x1F NOT PUSH1 0x1F DUP3 ADD AND DUP3 ADD DUP1 PUSH1 0x40 MSTORE POP DUP2 ADD SWAP1 PUSH2 0xE1C SWAP2 SWAP1 PUSH2 0xF05 JUMP JUMPDEST POP POP POP POP JUMP JUMPDEST POP JUMP JUMPDEST PUSH1 0x0 DUP2 CALLDATALOAD SWAP1 POP PUSH2 0xE34 DUP2 PUSH2 0x1468 JUMP JUMPDEST SWAP3 SWAP2 POP POP JUMP JUMPDEST PUSH1 0x0 DUP2 MLOAD SWAP1 POP PUSH2 0xE49 DUP2 PUSH2 0x147F JUMP JUMPDEST SWAP3 SWAP2 POP POP JUMP JUMPDEST PUSH1 0x0 DUP2 CALLDATALOAD SWAP1 POP PUSH2 0xE5E DUP2 PUSH2 0x1496 JUMP JUMPDEST SWAP3 SWAP2 POP POP JUMP JUMPDEST PUSH1 0x0 PUSH1 0x20 DUP3 DUP5 SUB SLT ISZERO PUSH2 0xE76 JUMPI PUSH1 0x0 DUP1 REVERT JUMPDEST PUSH1 0x0 PUSH2 0xE84 DUP5 DUP3 DUP6 ADD PUSH2 0xE25 JUMP JUMPDEST SWAP2 POP POP SWAP3 SWAP2 POP POP JUMP JUMPDEST PUSH1 0x0 DUP1 PUSH1 0x40 DUP4 DUP6 SUB SLT ISZERO PUSH2 0xEA0 JUMPI PUSH1 0x0 DUP1 REVERT JUMPDEST PUSH1 0x0 PUSH2 0xEAE DUP6 DUP3 DUP7 ADD PUSH2 0xE25 JUMP JUMPDEST SWAP3 POP POP PUSH1 0x20 PUSH2 0xEBF DUP6 DUP3 DUP7 ADD PUSH2 0xE25 JUMP JUMPDEST SWAP2 POP POP SWAP3 POP SWAP3 SWAP1 POP JUMP JUMPDEST PUSH1 0x0 DUP1 PUSH1 0x40 DUP4 DUP6 SUB SLT ISZERO PUSH2 0xEDC JUMPI PUSH1 0x0 DUP1 REVERT JUMPDEST PUSH1 0x0 PUSH2 0xEEA DUP6 DUP3 DUP7 ADD PUSH2 0xE25 JUMP JUMPDEST SWAP3 POP POP PUSH1 0x20 PUSH2 0xEFB DUP6 DUP3 DUP7 ADD PUSH2 0xE4F JUMP JUMPDEST SWAP2 POP POP SWAP3 POP SWAP3 SWAP1 POP JUMP JUMPDEST PUSH1 0x0 PUSH1 0x20 DUP3 DUP5 SUB SLT ISZERO PUSH2 0xF17 JUMPI PUSH1 0x0 DUP1 REVERT JUMPDEST PUSH1 0x0 PUSH2 0xF25 DUP5 DUP3 DUP6 ADD PUSH2 0xE3A JUMP JUMPDEST SWAP2 POP POP SWAP3 SWAP2 POP POP JUMP JUMPDEST PUSH2 0xF37 DUP2 PUSH2 0x13C2 JUMP JUMPDEST DUP3 MSTORE POP POP JUMP JUMPDEST PUSH2 0xF46 DUP2 PUSH2 0x13B0 JUMP JUMPDEST DUP3 MSTORE POP POP JUMP JUMPDEST PUSH1 0x0 PUSH2 0xF59 PUSH1 0x26 DUP4 PUSH2 0x12E4 JUMP JUMPDEST SWAP2 POP PUSH32 0x4F6E6C7920746865206F776E65722063616E2063616C6C20746869732066756E PUSH1 0x0 DUP4 ADD MSTORE PUSH32 0x6374696F6E2E0000000000000000000000000000000000000000000000000000 PUSH1 0x20 DUP4 ADD MSTORE PUSH1 0x40 DUP3 ADD SWAP1 POP SWAP2 SWAP1 POP JUMP JUMPDEST PUSH1 0x0 PUSH2 0xFBF PUSH1 0x25 DUP4 PUSH2 0x12E4 JUMP JUMPDEST SWAP2 POP PUSH32 0x4465706F73697420616D6F756E74206D75737420626520677265617465722074 PUSH1 0x0 DUP4 ADD MSTORE PUSH32 0x68616E2030000000000000000000000000000000000000000000000000000000 PUSH1 0x20 DUP4 ADD MSTORE PUSH1 0x40 DUP3 ADD SWAP1 POP SWAP2 SWAP1 POP JUMP JUMPDEST PUSH1 0x0 PUSH2 0x1025 PUSH1 0x2B DUP4 PUSH2 0x12E4 JUMP JUMPDEST SWAP2 POP PUSH32 0x5468657265206E6F20656E6F7567682074617820666F7220796F752077697468 PUSH1 0x0 DUP4 ADD MSTORE PUSH32 0x207468697320746F6B656E000000000000000000000000000000000000000000 PUSH1 0x20 DUP4 ADD MSTORE PUSH1 0x40 DUP3 ADD SWAP1 POP SWAP2 SWAP1 POP JUMP JUMPDEST PUSH1 0x0 PUSH2 0x108B PUSH1 0x1B DUP4 PUSH2 0x12E4 JUMP JUMPDEST SWAP2 POP PUSH32 0x546F6B656E2061646472657373206D7573742062652076616C69640000000000 PUSH1 0x0 DUP4 ADD MSTORE PUSH1 0x20 DUP3 ADD SWAP1 POP SWAP2 SWAP1 POP JUMP JUMPDEST PUSH1 0x0 PUSH2 0x10CB PUSH1 0x28 DUP4 PUSH2 0x12E4 JUMP JUMPDEST SWAP2 POP PUSH32 0x5769746864726177616C20616D6F756E74206D75737420626520677265617465 PUSH1 0x0 DUP4 ADD MSTORE PUSH32 0x72207468616E2030000000000000000000000000000000000000000000000000 PUSH1 0x20 DUP4 ADD MSTORE PUSH1 0x40 DUP3 ADD SWAP1 POP SWAP2 SWAP1 POP JUMP JUMPDEST PUSH1 0x0 PUSH2 0x1131 PUSH1 0x15 DUP4 PUSH2 0x12E4 JUMP JUMPDEST SWAP2 POP PUSH32 0x52756E206F7574206F6620796F7572206D6F6E65790000000000000000000000 PUSH1 0x0 DUP4 ADD MSTORE PUSH1 0x20 DUP3 ADD SWAP1 POP SWAP2 SWAP1 POP JUMP JUMPDEST PUSH2 0x116D DUP2 PUSH2 0x1400 JUMP JUMPDEST DUP3 MSTORE POP POP JUMP JUMPDEST PUSH1 0x0 PUSH1 0x20 DUP3 ADD SWAP1 POP PUSH2 0x1188 PUSH1 0x0 DUP4 ADD DUP5 PUSH2 0xF3D JUMP JUMPDEST SWAP3 SWAP2 POP POP JUMP JUMPDEST PUSH1 0x0 PUSH1 0x20 DUP3 ADD SWAP1 POP PUSH2 0x11A3 PUSH1 0x0 DUP4 ADD DUP5 PUSH2 0xF2E JUMP JUMPDEST SWAP3 SWAP2 POP POP JUMP JUMPDEST PUSH1 0x0 PUSH1 0x60 DUP3 ADD SWAP1 POP PUSH2 0x11BE PUSH1 0x0 DUP4 ADD DUP7 PUSH2 0xF3D JUMP JUMPDEST PUSH2 0x11CB PUSH1 0x20 DUP4 ADD DUP6 PUSH2 0xF3D JUMP JUMPDEST PUSH2 0x11D8 PUSH1 0x40 DUP4 ADD DUP5 PUSH2 0x1164 JUMP JUMPDEST SWAP5 SWAP4 POP POP POP POP JUMP JUMPDEST PUSH1 0x0 PUSH1 0x40 DUP3 ADD SWAP1 POP PUSH2 0x11F5 PUSH1 0x0 DUP4 ADD DUP6 PUSH2 0xF3D JUMP JUMPDEST PUSH2 0x1202 PUSH1 0x20 DUP4 ADD DUP5 PUSH2 0x1164 JUMP JUMPDEST SWAP4 SWAP3 POP POP POP JUMP JUMPDEST PUSH1 0x0 PUSH1 0x20 DUP3 ADD SWAP1 POP DUP2 DUP2 SUB PUSH1 0x0 DUP4 ADD MSTORE PUSH2 0x1222 DUP2 PUSH2 0xF4C JUMP JUMPDEST SWAP1 POP SWAP2 SWAP1 POP JUMP JUMPDEST PUSH1 0x0 PUSH1 0x20 DUP3 ADD SWAP1 POP DUP2 DUP2 SUB PUSH1 0x0 DUP4 ADD MSTORE PUSH2 0x1242 DUP2 PUSH2 0xFB2 JUMP JUMPDEST SWAP1 POP SWAP2 SWAP1 POP JUMP JUMPDEST PUSH1 0x0 PUSH1 0x20 DUP3 ADD SWAP1 POP DUP2 DUP2 SUB PUSH1 0x0 DUP4 ADD MSTORE PUSH2 0x1262 DUP2 PUSH2 0x1018 JUMP JUMPDEST SWAP1 POP SWAP2 SWAP1 POP JUMP JUMPDEST PUSH1 0x0 PUSH1 0x20 DUP3 ADD SWAP1 POP DUP2 DUP2 SUB PUSH1 0x0 DUP4 ADD MSTORE PUSH2 0x1282 DUP2 PUSH2 0x107E JUMP JUMPDEST SWAP1 POP SWAP2 SWAP1 POP JUMP JUMPDEST PUSH1 0x0 PUSH1 0x20 DUP3 ADD SWAP1 POP DUP2 DUP2 SUB PUSH1 0x0 DUP4 ADD MSTORE PUSH2 0x12A2 DUP2 PUSH2 0x10BE JUMP JUMPDEST SWAP1 POP SWAP2 SWAP1 POP JUMP JUMPDEST PUSH1 0x0 PUSH1 0x20 DUP3 ADD SWAP1 POP DUP2 DUP2 SUB PUSH1 0x0 DUP4 ADD MSTORE PUSH2 0x12C2 DUP2 PUSH2 0x1124 JUMP JUMPDEST SWAP1 POP SWAP2 SWAP1 POP JUMP JUMPDEST PUSH1 0x0 PUSH1 0x20 DUP3 ADD SWAP1 POP PUSH2 0x12DE PUSH1 0x0 DUP4 ADD DUP5 PUSH2 0x1164 JUMP JUMPDEST SWAP3 SWAP2 POP POP JUMP JUMPDEST PUSH1 0x0 DUP3 DUP3 MSTORE PUSH1 0x20 DUP3 ADD SWAP1 POP SWAP3 SWAP2 POP POP JUMP JUMPDEST PUSH1 0x0 PUSH2 0x1300 DUP3 PUSH2 0x1400 JUMP JUMPDEST SWAP2 POP PUSH2 0x130B DUP4 PUSH2 0x1400 JUMP JUMPDEST SWAP3 POP DUP3 PUSH32 0xFFFFFFFFFFFFFFFFFFFFFFFFFFFFFFFFFFFFFFFFFFFFFFFFFFFFFFFFFFFFFFFF SUB DUP3 GT ISZERO PUSH2 0x1340 JUMPI PUSH2 0x133F PUSH2 0x140A JUMP JUMPDEST JUMPDEST DUP3 DUP3 ADD SWAP1 POP SWAP3 SWAP2 POP POP JUMP JUMPDEST PUSH1 0x0 PUSH2 0x1356 DUP3 PUSH2 0x1400 JUMP JUMPDEST SWAP2 POP PUSH2 0x1361 DUP4 PUSH2 0x1400 JUMP JUMPDEST SWAP3 POP DUP3 PUSH2 0x1371 JUMPI PUSH2 0x1370 PUSH2 0x1439 JUMP JUMPDEST JUMPDEST DUP3 DUP3 DIV SWAP1 POP SWAP3 SWAP2 POP POP JUMP JUMPDEST PUSH1 0x0 PUSH2 0x1387 DUP3 PUSH2 0x1400 JUMP JUMPDEST SWAP2 POP PUSH2 0x1392 DUP4 PUSH2 0x1400 JUMP JUMPDEST SWAP3 POP DUP3 DUP3 LT ISZERO PUSH2 0x13A5 JUMPI PUSH2 0x13A4 PUSH2 0x140A JUMP JUMPDEST JUMPDEST DUP3 DUP3 SUB SWAP1 POP SWAP3 SWAP2 POP POP JUMP JUMPDEST PUSH1 0x0 PUSH2 0x13BB DUP3 PUSH2 0x13E0 JUMP JUMPDEST SWAP1 POP SWAP2 SWAP1 POP JUMP JUMPDEST PUSH1 0x0 PUSH2 0x13CD DUP3 PUSH2 0x13E0 JUMP JUMPDEST SWAP1 POP SWAP2 SWAP1 POP JUMP JUMPDEST PUSH1 0x0 DUP2 ISZERO ISZERO SWAP1 POP SWAP2 SWAP1 POP JUMP JUMPDEST PUSH1 0x0 PUSH20 0xFFFFFFFFFFFFFFFFFFFFFFFFFFFFFFFFFFFFFFFF DUP3 AND SWAP1 POP SWAP2 SWAP1 POP JUMP JUMPDEST PUSH1 0x0 DUP2 SWAP1 POP SWAP2 SWAP1 POP JUMP JUMPDEST PUSH32 0x4E487B7100000000000000000000000000000000000000000000000000000000 PUSH1 0x0 MSTORE PUSH1 0x11 PUSH1 0x4 MSTORE PUSH1 0x24 PUSH1 0x0 REVERT JUMPDEST PUSH32 0x4E487B7100000000000000000000000000000000000000000000000000000000 PUSH1 0x0 MSTORE PUSH1 0x12 PUSH1 0x4 MSTORE PUSH1 0x24 PUSH1 0x0 REVERT JUMPDEST PUSH2 0x1471 DUP2 PUSH2 0x13B0 JUMP JUMPDEST DUP2 EQ PUSH2 0x147C JUMPI PUSH1 0x0 DUP1 REVERT JUMPDEST POP JUMP JUMPDEST PUSH2 0x1488 DUP2 PUSH2 0x13D4 JUMP JUMPDEST DUP2 EQ PUSH2 0x1493 JUMPI PUSH1 0x0 DUP1 REVERT JUMPDEST POP JUMP JUMPDEST PUSH2 0x149F DUP2 PUSH2 0x1400 JUMP JUMPDEST DUP2 EQ PUSH2 0x14AA JUMPI PUSH1 0x0 DUP1 REVERT JUMPDEST POP JUMP INVALID LOG2 PUSH5 0x6970667358 0x22 SLT KECCAK256 0xD0 PUSH20 0x30A022ABC8A8B4C7B9B10A8C8F373EFC53776980 0xC LOG3 SWAP7 PUSH14 0xEEED271675CF64736F6C63430008 STOP STOP CALLER PUSH1 0x80 PUSH1 0x40 MSTORE PUSH1 0x0 PUSH1 0x4 PUSH1 0x0 PUSH2 0x100 EXP DUP2 SLOAD DUP2 PUSH1 0xFF MUL NOT AND SWAP1 DUP4 ISZERO ISZERO MUL OR SWAP1 SSTORE POP CALLVALUE DUP1 ISZERO PUSH3 0x2C JUMPI PUSH1 0x0 DUP1 REVERT JUMPDEST POP PUSH1 0x40 MLOAD PUSH3 0x102D CODESIZE SUB DUP1 PUSH3 0x102D DUP4 CODECOPY DUP2 DUP2 ADD PUSH1 0x40 MSTORE DUP2 ADD SWAP1 PUSH3 0x52 SWAP2 SWAP1 PUSH3 0x5E5 JUMP JUMPDEST PUSH3 0x6E PUSH8 0x4C7A9AD35C6CACBF PUSH1 0xC0 SHL PUSH3 0x355 PUSH1 0x20 SHL PUSH1 0x20 SHR JUMP JUMPDEST PUSH3 0x8A PUSH8 0x40732AD98B3D3EB1 PUSH1 0xC0 SHL PUSH3 0x355 PUSH1 0x20 SHL PUSH1 0x20 SHR JUMP JUMPDEST PUSH3 0xA6 PUSH8 0x7728BA36A8CD1075 PUSH1 0xC0 SHL PUSH3 0x355 PUSH1 0x20 SHL PUSH1 0x20 SHR JUMP JUMPDEST PUSH3 0xB7 DUP3 PUSH3 0x358 PUSH1 0x20 SHL PUSH1 0x20 SHR JUMP JUMPDEST PUSH3 0xD3 PUSH8 0x534A6C42B0E86E63 PUSH1 0xC0 SHL PUSH3 0x355 PUSH1 0x20 SHL PUSH1 0x20 SHR JUMP JUMPDEST PUSH3 0xEF PUSH8 0x2431588DD6F9E578 PUSH1 0xC0 SHL PUSH3 0x355 PUSH1 0x20 SHL PUSH1 0x20 SHR JUMP JUMPDEST PUSH3 0x100 CALLER PUSH3 0x3F4 PUSH1 0x20 SHL PUSH1 0x20 SHR JUMP JUMPDEST PUSH3 0x11C PUSH8 0xE00E3A902DCCC181 PUSH1 0xC0 SHL PUSH3 0x355 PUSH1 0x20 SHL PUSH1 0x20 SHR JUMP JUMPDEST PUSH3 0x12C PUSH3 0x490 PUSH1 0x20 SHL PUSH1 0x20 SHR JUMP JUMPDEST PUSH1 0x4 PUSH1 0x1 PUSH2 0x100 EXP DUP2 SLOAD DUP2 PUSH20 0xFFFFFFFFFFFFFFFFFFFFFFFFFFFFFFFFFFFFFFFF MUL NOT AND SWAP1 DUP4 PUSH20 0xFFFFFFFFFFFFFFFFFFFFFFFFFFFFFFFFFFFFFFFF AND MUL OR SWAP1 SSTORE POP PUSH3 0x188 PUSH8 0x87729D15FF7435DE PUSH1 0xC0 SHL PUSH3 0x355 PUSH1 0x20 SHL PUSH1 0x20 SHR JUMP JUMPDEST PUSH3 0x198 PUSH3 0x52F PUSH1 0x20 SHL PUSH1 0x20 SHR JUMP JUMPDEST PUSH1 0x1 PUSH1 0x0 PUSH2 0x100 EXP DUP2 SLOAD DUP2 PUSH20 0xFFFFFFFFFFFFFFFFFFFFFFFFFFFFFFFFFFFFFFFF MUL NOT AND SWAP1 DUP4 PUSH20 0xFFFFFFFFFFFFFFFFFFFFFFFFFFFFFFFFFFFFFFFF AND MUL OR SWAP1 SSTORE POP PUSH3 0x1F4 PUSH8 0x5B6053CE334B94DC PUSH1 0xC0 SHL PUSH3 0x355 PUSH1 0x20 SHL PUSH1 0x20 SHR JUMP JUMPDEST PUSH3 0x210 PUSH8 0xDB5D9DFFF6FD81C PUSH1 0xC0 SHL PUSH3 0x355 PUSH1 0x20 SHL PUSH1 0x20 SHR JUMP JUMPDEST PUSH1 0x0 DUP2 PUSH1 0x40 MLOAD PUSH1 0x24 ADD PUSH3 0x225 SWAP2 SWAP1 PUSH3 0x687 JUMP JUMPDEST PUSH1 0x40 MLOAD PUSH1 0x20 DUP2 DUP4 SUB SUB DUP2 MSTORE SWAP1 PUSH1 0x40 MSTORE PUSH32 0x90B4B79C00000000000000000000000000000000000000000000000000000000 PUSH28 0xFFFFFFFFFFFFFFFFFFFFFFFFFFFFFFFFFFFFFFFFFFFFFFFFFFFFFFFF NOT AND PUSH1 0x20 DUP3 ADD DUP1 MLOAD PUSH28 0xFFFFFFFFFFFFFFFFFFFFFFFFFFFFFFFFFFFFFFFFFFFFFFFFFFFFFFFF DUP4 DUP2 DUP4 AND OR DUP4 MSTORE POP POP POP POP SWAP1 POP PUSH3 0x2C0 PUSH8 0xD5ABEC86A70E5212 PUSH1 0xC0 SHL PUSH3 0x355 PUSH1 0x20 SHL PUSH1 0x20 SHR JUMP JUMPDEST PUSH3 0x2DC PUSH8 0xFE139F0DCA604F83 PUSH1 0xC0 SHL PUSH3 0x355 PUSH1 0x20 SHL PUSH1 0x20 SHR JUMP JUMPDEST PUSH1 0x0 DUP4 PUSH20 0xFFFFFFFFFFFFFFFFFFFFFFFFFFFFFFFFFFFFFFFF AND DUP3 PUSH1 0x40 MLOAD PUSH3 0x305 SWAP2 SWAP1 PUSH3 0x66E JUMP JUMPDEST PUSH1 0x0 PUSH1 0x40 MLOAD DUP1 DUP4 SUB DUP2 DUP6 GAS DELEGATECALL SWAP2 POP POP RETURNDATASIZE DUP1 PUSH1 0x0 DUP2 EQ PUSH3 0x342 JUMPI PUSH1 0x40 MLOAD SWAP2 POP PUSH1 0x1F NOT PUSH1 0x3F RETURNDATASIZE ADD AND DUP3 ADD PUSH1 0x40 MSTORE RETURNDATASIZE DUP3 MSTORE RETURNDATASIZE PUSH1 0x0 PUSH1 0x20 DUP5 ADD RETURNDATACOPY PUSH3 0x347 JUMP JUMPDEST PUSH1 0x60 SWAP2 POP JUMPDEST POP SWAP2 POP POP POP POP POP POP PUSH3 0x73E JUMP JUMPDEST POP JUMP JUMPDEST PUSH3 0x374 PUSH8 0xA341A99DC1DADCCF PUSH1 0xC0 SHL PUSH3 0x355 PUSH1 0x20 SHL PUSH1 0x20 SHR JUMP JUMPDEST PUSH3 0x390 PUSH8 0x4F5F71BB3BD580C6 PUSH1 0xC0 SHL PUSH3 0x355 PUSH1 0x20 SHL PUSH1 0x20 SHR JUMP JUMPDEST PUSH3 0x3AC PUSH8 0x529EC0686F4B7A95 PUSH1 0xC0 SHL PUSH3 0x355 PUSH1 0x20 SHL PUSH1 0x20 SHR JUMP JUMPDEST PUSH1 0x0 PUSH32 0xBDEFF4DCB7832D4903FCC4E1B401B95E520306665AD43F1F2AE62DE00E2E963F SWAP1 POP PUSH3 0x3ED PUSH8 0xEBD46E6598644625 PUSH1 0xC0 SHL PUSH3 0x355 PUSH1 0x20 SHL PUSH1 0x20 SHR JUMP JUMPDEST DUP2 DUP2 SSTORE POP POP JUMP JUMPDEST PUSH3 0x410 PUSH8 0x1715C1415DF8C465 PUSH1 0xC0 SHL PUSH3 0x355 PUSH1 0x20 SHL PUSH1 0x20 SHR JUMP JUMPDEST PUSH3 0x42C PUSH8 0x53515AE78F23AC1F PUSH1 0xC0 SHL PUSH3 0x355 PUSH1 0x20 SHL PUSH1 0x20 SHR JUMP JUMPDEST PUSH3 0x448 PUSH8 0xF803D2872FFC00E1 PUSH1 0xC0 SHL PUSH3 0x355 PUSH1 0x20 SHL PUSH1 0x20 SHR JUMP JUMPDEST PUSH1 0x0 PUSH32 0x30AB0D7AC4C206E185DD69AF287E1177C2E55FBCC5348145664E0407B2BE9A23 SWAP1 POP PUSH3 0x489 PUSH8 0xF9296F5FB7F54546 PUSH1 0xC0 SHL PUSH3 0x355 PUSH1 0x20 SHL PUSH1 0x20 SHR JUMP JUMPDEST DUP2 DUP2 SSTORE POP POP JUMP JUMPDEST PUSH1 0x0 PUSH3 0x4AE PUSH8 0x14F627ACC398BC3 PUSH1 0xC0 SHL PUSH3 0x355 PUSH1 0x20 SHL PUSH1 0x20 SHR JUMP JUMPDEST PUSH3 0x4CA PUSH8 0x7727187F2D5139B8 PUSH1 0xC0 SHL PUSH3 0x355 PUSH1 0x20 SHL PUSH1 0x20 SHR JUMP JUMPDEST PUSH3 0x4E6 PUSH8 0x776001EF97BBA63B PUSH1 0xC0 SHL PUSH3 0x355 PUSH1 0x20 SHL PUSH1 0x20 SHR JUMP JUMPDEST PUSH1 0x0 PUSH32 0xBDEFF4DCB7832D4903FCC4E1B401B95E520306665AD43F1F2AE62DE00E2E963F SWAP1 POP PUSH3 0x527 PUSH8 0x8DE9ED4C15BAE8DD PUSH1 0xC0 SHL PUSH3 0x355 PUSH1 0x20 SHL PUSH1 0x20 SHR JUMP JUMPDEST DUP1 SLOAD SWAP2 POP POP SWAP1 JUMP JUMPDEST PUSH1 0x0 PUSH3 0x54D PUSH8 0x44A1E87D127EF734 PUSH1 0xC0 SHL PUSH3 0x355 PUSH1 0x20 SHL PUSH1 0x20 SHR JUMP JUMPDEST PUSH3 0x569 PUSH8 0xAA4B20674EC82A74 PUSH1 0xC0 SHL PUSH3 0x355 PUSH1 0x20 SHL PUSH1 0x20 SHR JUMP JUMPDEST PUSH3 0x585 PUSH8 0xA18763B86EB5109B PUSH1 0xC0 SHL PUSH3 0x355 PUSH1 0x20 SHL PUSH1 0x20 SHR JUMP JUMPDEST PUSH1 0x0 PUSH32 0x30AB0D7AC4C206E185DD69AF287E1177C2E55FBCC5348145664E0407B2BE9A23 SWAP1 POP PUSH3 0x5C6 PUSH8 0xCC458853D18BA0FC PUSH1 0xC0 SHL PUSH3 0x355 PUSH1 0x20 SHL PUSH1 0x20 SHR JUMP JUMPDEST DUP1 SLOAD SWAP2 POP POP SWAP1 JUMP JUMPDEST PUSH1 0x0 DUP2 MLOAD SWAP1 POP PUSH3 0x5DF DUP2 PUSH3 0x724 JUMP JUMPDEST SWAP3 SWAP2 POP POP JUMP JUMPDEST PUSH1 0x0 DUP1 PUSH1 0x40 DUP4 DUP6 SUB SLT ISZERO PUSH3 0x5F9 JUMPI PUSH1 0x0 DUP1 REVERT JUMPDEST PUSH1 0x0 PUSH3 0x609 DUP6 DUP3 DUP7 ADD PUSH3 0x5CE JUMP JUMPDEST SWAP3 POP POP PUSH1 0x20 PUSH3 0x61C DUP6 DUP3 DUP7 ADD PUSH3 0x5CE JUMP JUMPDEST SWAP2 POP POP SWAP3 POP SWAP3 SWAP1 POP JUMP JUMPDEST PUSH3 0x631 DUP2 PUSH3 0x6BA JUMP JUMPDEST DUP3 MSTORE POP POP JUMP JUMPDEST PUSH1 0x0 PUSH3 0x644 DUP3 PUSH3 0x6A4 JUMP JUMPDEST PUSH3 0x650 DUP2 DUP6 PUSH3 0x6AF JUMP JUMPDEST SWAP4 POP PUSH3 0x662 DUP2 DUP6 PUSH1 0x20 DUP7 ADD PUSH3 0x6EE JUMP JUMPDEST DUP1 DUP5 ADD SWAP2 POP POP SWAP3 SWAP2 POP POP JUMP JUMPDEST PUSH1 0x0 PUSH3 0x67C DUP3 DUP5 PUSH3 0x637 JUMP JUMPDEST SWAP2 POP DUP2 SWAP1 POP SWAP3 SWAP2 POP POP JUMP JUMPDEST PUSH1 0x0 PUSH1 0x20 DUP3 ADD SWAP1 POP PUSH3 0x69E PUSH1 0x0 DUP4 ADD DUP5 PUSH3 0x626 JUMP JUMPDEST SWAP3 SWAP2 POP POP JUMP JUMPDEST PUSH1 0x0 DUP2 MLOAD SWAP1 POP SWAP2 SWAP1 POP JUMP JUMPDEST PUSH1 0x0 DUP2 SWAP1 POP SWAP3 SWAP2 POP POP JUMP JUMPDEST PUSH1 0x0 PUSH3 0x6C7 DUP3 PUSH3 0x6CE JUMP JUMPDEST SWAP1 POP SWAP2 SWAP1 POP JUMP JUMPDEST PUSH1 0x0 PUSH20 0xFFFFFFFFFFFFFFFFFFFFFFFFFFFFFFFFFFFFFFFF DUP3 AND SWAP1 POP SWAP2 SWAP1 POP JUMP JUMPDEST PUSH1 0x0 JUMPDEST DUP4 DUP2 LT ISZERO PUSH3 0x70E JUMPI DUP1 DUP3 ADD MLOAD DUP2 DUP5 ADD MSTORE PUSH1 0x20 DUP2 ADD SWAP1 POP PUSH3 0x6F1 JUMP JUMPDEST DUP4 DUP2 GT ISZERO PUSH3 0x71E JUMPI PUSH1 0x0 DUP5 DUP5 ADD MSTORE JUMPDEST POP POP POP POP JUMP JUMPDEST PUSH3 0x72F DUP2 PUSH3 0x6BA JUMP JUMPDEST DUP2 EQ PUSH3 0x73B JUMPI PUSH1 0x0 DUP1 REVERT JUMPDEST POP JUMP JUMPDEST PUSH2 0x8DF DUP1 PUSH3 0x74E PUSH1 0x0 CODECOPY PUSH1 0x0 RETURN INVALID PUSH1 0x80 PUSH1 0x40 MSTORE PUSH1 0x4 CALLDATASIZE LT PUSH2 0x8A JUMPI PUSH1 0x0 CALLDATALOAD PUSH1 0xE0 SHR DUP1 PUSH4 0x7D6F9665 GT PUSH2 0x59 JUMPI DUP1 PUSH4 0x7D6F9665 EQ PUSH2 0x183 JUMPI DUP1 PUSH4 0x8DA5CB5B EQ PUSH2 0x1AE JUMPI DUP1 PUSH4 0xC23F001F EQ PUSH2 0x1D9 JUMPI DUP1 PUSH4 0xD7858183 EQ PUSH2 0x216 JUMPI DUP1 PUSH4 0xF348F4FC EQ PUSH2 0x241 JUMPI PUSH2 0x8B JUMP JUMPDEST DUP1 PUSH4 0x900F010 EQ PUSH2 0xD9 JUMPI DUP1 PUSH4 0x117803E3 EQ PUSH2 0x102 JUMPI DUP1 PUSH4 0x3E38B80D EQ PUSH2 0x12D JUMPI DUP1 PUSH4 0x5C60DA1B EQ PUSH2 0x158 JUMPI PUSH2 0x8B JUMP JUMPDEST JUMPDEST PUSH2 0x9F PUSH8 0x702352B9AC8CB11F PUSH1 0xC0 SHL PUSH2 0x27E JUMP JUMPDEST PUSH2 0xB3 PUSH8 0x522533DD673D9157 PUSH1 0xC0 SHL PUSH2 0x27E JUMP JUMPDEST PUSH2 0xC7 PUSH8 0x7A93301DEA86F623 PUSH1 0xC0 SHL PUSH2 0x27E JUMP JUMPDEST PUSH2 0xD7 PUSH2 0xD2 PUSH2 0x281 JUMP JUMPDEST PUSH2 0x300 JUMP JUMPDEST STOP JUMPDEST CALLVALUE DUP1 ISZERO PUSH2 0xE5 JUMPI PUSH1 0x0 DUP1 REVERT JUMPDEST POP PUSH2 0x100 PUSH1 0x4 DUP1 CALLDATASIZE SUB DUP2 ADD SWAP1 PUSH2 0xFB SWAP2 SWAP1 PUSH2 0x70F JUMP JUMPDEST PUSH2 0x3AE JUMP JUMPDEST STOP JUMPDEST CALLVALUE DUP1 ISZERO PUSH2 0x10E JUMPI PUSH1 0x0 DUP1 REVERT JUMPDEST POP PUSH2 0x117 PUSH2 0x510 JUMP JUMPDEST PUSH1 0x40 MLOAD PUSH2 0x124 SWAP2 SWAP1 PUSH2 0x7DF JUMP JUMPDEST PUSH1 0x40 MLOAD DUP1 SWAP2 SUB SWAP1 RETURN JUMPDEST CALLVALUE DUP1 ISZERO PUSH2 0x139 JUMPI PUSH1 0x0 DUP1 REVERT JUMPDEST POP PUSH2 0x142 PUSH2 0x576 JUMP JUMPDEST PUSH1 0x40 MLOAD PUSH2 0x14F SWAP2 SWAP1 PUSH2 0x815 JUMP JUMPDEST PUSH1 0x40 MLOAD DUP1 SWAP2 SUB SWAP1 RETURN JUMPDEST CALLVALUE DUP1 ISZERO PUSH2 0x164 JUMPI PUSH1 0x0 DUP1 REVERT JUMPDEST POP PUSH2 0x16D PUSH2 0x57C JUMP JUMPDEST PUSH1 0x40 MLOAD PUSH2 0x17A SWAP2 SWAP1 PUSH2 0x7DF JUMP JUMPDEST PUSH1 0x40 MLOAD DUP1 SWAP2 SUB SWAP1 RETURN JUMPDEST CALLVALUE DUP1 ISZERO PUSH2 0x18F JUMPI PUSH1 0x0 DUP1 REVERT JUMPDEST POP PUSH2 0x198 PUSH2 0x5A2 JUMP JUMPDEST PUSH1 0x40 MLOAD PUSH2 0x1A5 SWAP2 SWAP1 PUSH2 0x7FA JUMP JUMPDEST PUSH1 0x40 MLOAD DUP1 SWAP2 SUB SWAP1 RETURN JUMPDEST CALLVALUE DUP1 ISZERO PUSH2 0x1BA JUMPI PUSH1 0x0 DUP1 REVERT JUMPDEST POP PUSH2 0x1C3 PUSH2 0x5B5 JUMP JUMPDEST PUSH1 0x40 MLOAD PUSH2 0x1D0 SWAP2 SWAP1 PUSH2 0x7DF JUMP JUMPDEST PUSH1 0x40 MLOAD DUP1 SWAP2 SUB SWAP1 RETURN JUMPDEST CALLVALUE DUP1 ISZERO PUSH2 0x1E5 JUMPI PUSH1 0x0 DUP1 REVERT JUMPDEST POP PUSH2 0x200 PUSH1 0x4 DUP1 CALLDATASIZE SUB DUP2 ADD SWAP1 PUSH2 0x1FB SWAP2 SWAP1 PUSH2 0x738 JUMP JUMPDEST PUSH2 0x5DB JUMP JUMPDEST PUSH1 0x40 MLOAD PUSH2 0x20D SWAP2 SWAP1 PUSH2 0x815 JUMP JUMPDEST PUSH1 0x40 MLOAD DUP1 SWAP2 SUB SWAP1 RETURN JUMPDEST CALLVALUE DUP1 ISZERO PUSH2 0x222 JUMPI PUSH1 0x0 DUP1 REVERT JUMPDEST POP PUSH2 0x22B PUSH2 0x600 JUMP JUMPDEST PUSH1 0x40 MLOAD PUSH2 0x238 SWAP2 SWAP1 PUSH2 0x7DF JUMP JUMPDEST PUSH1 0x40 MLOAD DUP1 SWAP2 SUB SWAP1 RETURN JUMPDEST CALLVALUE DUP1 ISZERO PUSH2 0x24D JUMPI PUSH1 0x0 DUP1 REVERT JUMPDEST POP PUSH2 0x268 PUSH1 0x4 DUP1 CALLDATASIZE SUB DUP2 ADD SWAP1 PUSH2 0x263 SWAP2 SWAP1 PUSH2 0x70F JUMP JUMPDEST PUSH2 0x666 JUMP JUMPDEST PUSH1 0x40 MLOAD PUSH2 0x275 SWAP2 SWAP1 PUSH2 0x815 JUMP JUMPDEST PUSH1 0x40 MLOAD DUP1 SWAP2 SUB SWAP1 RETURN JUMPDEST POP JUMP JUMPDEST PUSH1 0x0 PUSH2 0x297 PUSH8 0x14F627ACC398BC3 PUSH1 0xC0 SHL PUSH2 0x27E JUMP JUMPDEST PUSH2 0x2AB PUSH8 0x7727187F2D5139B8 PUSH1 0xC0 SHL PUSH2 0x27E JUMP JUMPDEST PUSH2 0x2BF PUSH8 0x776001EF97BBA63B PUSH1 0xC0 SHL PUSH2 0x27E JUMP JUMPDEST PUSH1 0x0 PUSH32 0xBDEFF4DCB7832D4903FCC4E1B401B95E520306665AD43F1F2AE62DE00E2E963F SWAP1 POP PUSH2 0x2F8 PUSH8 0x8DE9ED4C15BAE8DD PUSH1 0xC0 SHL PUSH2 0x27E JUMP JUMPDEST DUP1 SLOAD SWAP2 POP POP SWAP1 JUMP JUMPDEST PUSH2 0x314 PUSH8 0x6A263C0A656EB02E PUSH1 0xC0 SHL PUSH2 0x27E JUMP JUMPDEST PUSH2 0x328 PUSH8 0x322F8BA2FC95466C PUSH1 0xC0 SHL PUSH2 0x27E JUMP JUMPDEST PUSH2 0x33C PUSH8 0xCDA9800BD4377FC7 PUSH1 0xC0 SHL PUSH2 0x27E JUMP JUMPDEST PUSH1 0x0 DUP2 PUSH20 0xFFFFFFFFFFFFFFFFFFFFFFFFFFFFFFFFFFFFFFFF AND PUSH1 0x0 CALLDATASIZE PUSH1 0x40 MLOAD PUSH2 0x366 SWAP3 SWAP2 SWAP1 PUSH2 0x7C6 JUMP JUMPDEST PUSH1 0x0 PUSH1 0x40 MLOAD DUP1 DUP4 SUB DUP2 DUP6 GAS DELEGATECALL SWAP2 POP POP RETURNDATASIZE DUP1 PUSH1 0x0 DUP2 EQ PUSH2 0x3A1 JUMPI PUSH1 0x40 MLOAD SWAP2 POP PUSH1 0x1F NOT PUSH1 0x3F RETURNDATASIZE ADD AND DUP3 ADD PUSH1 0x40 MSTORE RETURNDATASIZE DUP3 MSTORE RETURNDATASIZE PUSH1 0x0 PUSH1 0x20 DUP5 ADD RETURNDATACOPY PUSH2 0x3A6 JUMP JUMPDEST PUSH1 0x60 SWAP2 POP JUMPDEST POP SWAP2 POP POP POP POP JUMP JUMPDEST PUSH2 0x3C2 PUSH8 0x7519C7874F503729 PUSH1 0xC0 SHL PUSH2 0x27E JUMP JUMPDEST PUSH2 0x3D6 PUSH8 0x488FD798612D1C9B PUSH1 0xC0 SHL PUSH2 0x27E JUMP JUMPDEST PUSH2 0x3EA PUSH8 0xF63FFC486D706BBE PUSH1 0xC0 SHL PUSH2 0x27E JUMP JUMPDEST PUSH1 0x1 PUSH1 0x0 SWAP1 SLOAD SWAP1 PUSH2 0x100 EXP SWAP1 DIV PUSH20 0xFFFFFFFFFFFFFFFFFFFFFFFFFFFFFFFFFFFFFFFF AND PUSH20 0xFFFFFFFFFFFFFFFFFFFFFFFFFFFFFFFFFFFFFFFF AND CALLER PUSH20 0xFFFFFFFFFFFFFFFFFFFFFFFFFFFFFFFFFFFFFFFF AND EQ PUSH2 0x46C JUMPI PUSH2 0x453 PUSH8 0x772670C8288AF715 PUSH1 0xC0 SHL PUSH2 0x27E JUMP JUMPDEST PUSH2 0x467 PUSH8 0xECE39F297A12C032 PUSH1 0xC0 SHL PUSH2 0x27E JUMP JUMPDEST PUSH1 0x0 DUP1 REVERT JUMPDEST PUSH2 0x480 PUSH8 0x5CCA1C478A99F4C5 PUSH1 0xC0 SHL PUSH2 0x27E JUMP JUMPDEST PUSH2 0x494 PUSH8 0xC55F472A45B63F21 PUSH1 0xC0 SHL PUSH2 0x27E JUMP JUMPDEST PUSH2 0x4A8 PUSH8 0x3F103A2F28817C2C PUSH1 0xC0 SHL PUSH2 0x27E JUMP JUMPDEST PUSH2 0x4B1 DUP2 PUSH2 0x67E JUMP JUMPDEST PUSH2 0x4C5 PUSH8 0x856CAE8F93092816 PUSH1 0xC0 SHL PUSH2 0x27E JUMP JUMPDEST PUSH2 0x4CD PUSH2 0x281 JUMP JUMPDEST PUSH1 0x4 PUSH1 0x1 PUSH2 0x100 EXP DUP2 SLOAD DUP2 PUSH20 0xFFFFFFFFFFFFFFFFFFFFFFFFFFFFFFFFFFFFFFFF MUL NOT AND SWAP1 DUP4 PUSH20 0xFFFFFFFFFFFFFFFFFFFFFFFFFFFFFFFFFFFFFFFF AND MUL OR SWAP1 SSTORE POP POP JUMP JUMPDEST PUSH1 0x0 PUSH2 0x526 PUSH8 0xCBA700DEAB8F3BDF PUSH1 0xC0 SHL PUSH2 0x27E JUMP JUMPDEST PUSH2 0x53A PUSH8 0xDA1C4FA783C7A48A PUSH1 0xC0 SHL PUSH2 0x27E JUMP JUMPDEST PUSH2 0x54E PUSH8 0xC3D99CAA7575E1C6 PUSH1 0xC0 SHL PUSH2 0x27E JUMP JUMPDEST PUSH1 0x1 PUSH1 0x0 SWAP1 SLOAD SWAP1 PUSH2 0x100 EXP SWAP1 DIV PUSH20 0xFFFFFFFFFFFFFFFFFFFFFFFFFFFFFFFFFFFFFFFF AND SWAP1 POP SWAP1 JUMP JUMPDEST PUSH1 0x3 SLOAD DUP2 JUMP JUMPDEST PUSH1 0x4 PUSH1 0x1 SWAP1 SLOAD SWAP1 PUSH2 0x100 EXP SWAP1 DIV PUSH20 0xFFFFFFFFFFFFFFFFFFFFFFFFFFFFFFFFFFFFFFFF AND DUP2 JUMP JUMPDEST PUSH1 0x4 PUSH1 0x0 SWAP1 SLOAD SWAP1 PUSH2 0x100 EXP SWAP1 DIV PUSH1 0xFF AND DUP2 JUMP JUMPDEST PUSH1 0x1 PUSH1 0x0 SWAP1 SLOAD SWAP1 PUSH2 0x100 EXP SWAP1 DIV PUSH20 0xFFFFFFFFFFFFFFFFFFFFFFFFFFFFFFFFFFFFFFFF AND DUP2 JUMP JUMPDEST PUSH1 0x0 PUSH1 0x20 MSTORE DUP2 PUSH1 0x0 MSTORE PUSH1 0x40 PUSH1 0x0 KECCAK256 PUSH1 0x20 MSTORE DUP1 PUSH1 0x0 MSTORE PUSH1 0x40 PUSH1 0x0 KECCAK256 PUSH1 0x0 SWAP2 POP SWAP2 POP POP SLOAD DUP2 JUMP JUMPDEST PUSH1 0x0 PUSH2 0x616 PUSH8 0x96C667E29E5956CE PUSH1 0xC0 SHL PUSH2 0x27E JUMP JUMPDEST PUSH2 0x62A PUSH8 0x16A32E2EF48DA923 PUSH1 0xC0 SHL PUSH2 0x27E JUMP JUMPDEST PUSH2 0x63E PUSH8 0xA45B0E7893624256 PUSH1 0xC0 SHL PUSH2 0x27E JUMP JUMPDEST PUSH1 0x4 PUSH1 0x1 SWAP1 SLOAD SWAP1 PUSH2 0x100 EXP SWAP1 DIV PUSH20 0xFFFFFFFFFFFFFFFFFFFFFFFFFFFFFFFFFFFFFFFF AND SWAP1 POP SWAP1 JUMP JUMPDEST PUSH1 0x2 PUSH1 0x20 MSTORE DUP1 PUSH1 0x0 MSTORE PUSH1 0x40 PUSH1 0x0 KECCAK256 PUSH1 0x0 SWAP2 POP SWAP1 POP SLOAD DUP2 JUMP JUMPDEST PUSH2 0x692 PUSH8 0xA341A99DC1DADCCF PUSH1 0xC0 SHL PUSH2 0x27E JUMP JUMPDEST PUSH2 0x6A6 PUSH8 0x4F5F71BB3BD580C6 PUSH1 0xC0 SHL PUSH2 0x27E JUMP JUMPDEST PUSH2 0x6BA PUSH8 0x529EC0686F4B7A95 PUSH1 0xC0 SHL PUSH2 0x27E JUMP JUMPDEST PUSH1 0x0 PUSH32 0xBDEFF4DCB7832D4903FCC4E1B401B95E520306665AD43F1F2AE62DE00E2E963F SWAP1 POP PUSH2 0x6F3 PUSH8 0xEBD46E6598644625 PUSH1 0xC0 SHL PUSH2 0x27E JUMP JUMPDEST DUP2 DUP2 SSTORE POP POP JUMP JUMPDEST PUSH1 0x0 DUP2 CALLDATALOAD SWAP1 POP PUSH2 0x709 DUP2 PUSH2 0x892 JUMP JUMPDEST SWAP3 SWAP2 POP POP JUMP JUMPDEST PUSH1 0x0 PUSH1 0x20 DUP3 DUP5 SUB SLT ISZERO PUSH2 0x721 JUMPI PUSH1 0x0 DUP1 REVERT JUMPDEST PUSH1 0x0 PUSH2 0x72F DUP5 DUP3 DUP6 ADD PUSH2 0x6FA JUMP JUMPDEST SWAP2 POP POP SWAP3 SWAP2 POP POP JUMP JUMPDEST PUSH1 0x0 DUP1 PUSH1 0x40 DUP4 DUP6 SUB SLT ISZERO PUSH2 0x74B JUMPI PUSH1 0x0 DUP1 REVERT JUMPDEST PUSH1 0x0 PUSH2 0x759 DUP6 DUP3 DUP7 ADD PUSH2 0x6FA JUMP JUMPDEST SWAP3 POP POP PUSH1 0x20 PUSH2 0x76A DUP6 DUP3 DUP7 ADD PUSH2 0x6FA JUMP JUMPDEST SWAP2 POP POP SWAP3 POP SWAP3 SWAP1 POP JUMP JUMPDEST PUSH2 0x77D DUP2 PUSH2 0x83B JUMP JUMPDEST DUP3 MSTORE POP POP JUMP JUMPDEST PUSH2 0x78C DUP2 PUSH2 0x84D JUMP JUMPDEST DUP3 MSTORE POP POP JUMP JUMPDEST PUSH1 0x0 PUSH2 0x79E DUP4 DUP6 PUSH2 0x830 JUMP JUMPDEST SWAP4 POP PUSH2 0x7AB DUP4 DUP6 DUP5 PUSH2 0x883 JUMP JUMPDEST DUP3 DUP5 ADD SWAP1 POP SWAP4 SWAP3 POP POP POP JUMP JUMPDEST PUSH2 0x7C0 DUP2 PUSH2 0x879 JUMP JUMPDEST DUP3 MSTORE POP POP JUMP JUMPDEST PUSH1 0x0 PUSH2 0x7D3 DUP3 DUP5 DUP7 PUSH2 0x792 JUMP JUMPDEST SWAP2 POP DUP2 SWAP1 POP SWAP4 SWAP3 POP POP POP JUMP JUMPDEST PUSH1 0x0 PUSH1 0x20 DUP3 ADD SWAP1 POP PUSH2 0x7F4 PUSH1 0x0 DUP4 ADD DUP5 PUSH2 0x774 JUMP JUMPDEST SWAP3 SWAP2 POP POP JUMP JUMPDEST PUSH1 0x0 PUSH1 0x20 DUP3 ADD SWAP1 POP PUSH2 0x80F PUSH1 0x0 DUP4 ADD DUP5 PUSH2 0x783 JUMP JUMPDEST SWAP3 SWAP2 POP POP JUMP JUMPDEST PUSH1 0x0 PUSH1 0x20 DUP3 ADD SWAP1 POP PUSH2 0x82A PUSH1 0x0 DUP4 ADD DUP5 PUSH2 0x7B7 JUMP JUMPDEST SWAP3 SWAP2 POP POP JUMP JUMPDEST PUSH1 0x0 DUP2 SWAP1 POP SWAP3 SWAP2 POP POP JUMP JUMPDEST PUSH1 0x0 PUSH2 0x846 DUP3 PUSH2 0x859 JUMP JUMPDEST SWAP1 POP SWAP2 SWAP1 POP JUMP JUMPDEST PUSH1 0x0 DUP2 ISZERO ISZERO SWAP1 POP SWAP2 SWAP1 POP JUMP JUMPDEST PUSH1 0x0 PUSH20 0xFFFFFFFFFFFFFFFFFFFFFFFFFFFFFFFFFFFFFFFF DUP3 AND SWAP1 POP SWAP2 SWAP1 POP JUMP JUMPDEST PUSH1 0x0 DUP2 SWAP1 POP SWAP2 SWAP1 POP JUMP JUMPDEST DUP3 DUP2 DUP4 CALLDATACOPY PUSH1 0x0 DUP4 DUP4 ADD MSTORE POP POP POP JUMP JUMPDEST PUSH2 0x89B DUP2 PUSH2 0x83B JUMP JUMPDEST DUP2 EQ PUSH2 0x8A6 JUMPI PUSH1 0x0 DUP1 REVERT JUMPDEST POP JUMP INVALID LOG2 PUSH5 0x6970667358 0x22 SLT KECCAK256 0xC8 0x2B 0xB7 0xF8 DUP12 LOG1 DIV CHAINID 0xDD PUSH17 0xA4955A89CCF69262136B79F7DA9A4FA9B2 0xF8 0xBF PUSH10 0x359164736F6C63430008 STOP STOP CALLER LOG2 PUSH5 0x6970667358 0x22 SLT KECCAK256 0xC5 0x1E PUSH19 0xE94A87D1A2117ED1681AA47D74D83CEB116812 DUP8 0x2B SWAP13 0x4E 0xDF 0xC9 0xF6 0xB4 0xB2 LT PUSH5 0x736F6C6343 STOP ADDMOD STOP STOP CALLER "},"methodIdentifiers":{"OWNER()":"117803e3","deploySafe()":"644f7aac","deploySafeProxy()":"9a8787bf","getdeployProxyAddr(uint256)":"096f8dbc","getdeploySafeAddr(uint256)":"9f4fab76","safeImpl()":"1349cd91","updateImplementation(address)":"025b22bc"}}}}}