{"contracts/NewSimplesafe.sol":{"NewSimplesafe":{"abi":[{"inputs":[{"internalType":"address","name":"_owner","type":"address"}],"stateMutability":"payable","type":"constructor"},{"inputs":[],"name":"SAFEOWNER","outputs":[{"internalType":"address","name":"","type":"address"}],"stateMutability":"view","type":"function"},{"inputs":[],"name":"Totaltax","outputs":[{"internalType":"uint256","name":"","type":"uint256"}],"stateMutability":"view","type":"function"},{"inputs":[{"internalType":"address","name":"token","type":"address"}],"name":"balanceOf","outputs":[{"internalType":"uint256","name":"","type":"uint256"}],"stateMutability":"view","type":"function"},{"inputs":[{"internalType":"address","name":"","type":"address"},{"internalType":"address","name":"","type":"address"}],"name":"balances","outputs":[{"internalType":"uint256","name":"","type":"uint256"}],"stateMutability":"view","type":"function"},{"inputs":[{"internalType":"address","name":"token","type":"address"},{"internalType":"uint256","name":"amount","type":"uint256"}],"name":"deposit","outputs":[],"stateMutability":"nonpayable","type":"function"},{"inputs":[],"name":"owner","outputs":[{"internalType":"address payable","name":"","type":"address"}],"stateMutability":"view","type":"function"},{"inputs":[{"internalType":"address","name":"token","type":"address"}],"name":"takeFee","outputs":[],"stateMutability":"nonpayable","type":"function"},{"inputs":[{"internalType":"address","name":"","type":"address"}],"name":"tokenFee","outputs":[{"internalType":"uint256","name":"","type":"uint256"}],"stateMutability":"view","type":"function"},{"inputs":[{"internalType":"address","name":"token","type":"address"},{"internalType":"uint256","name":"amount","type":"uint256"}],"name":"withdraw","outputs":[],"stateMutability":"nonpayable","type":"function"}],"evm":{"bytecode":{"linkReferences":{},"object":"608060405260405162001630380380620016308339818101604052810190620000299190620000c3565b620000456764d3716ec8ea3d2760c01b620000a960201b60201c565b6200006167c26d8f051727398e60c01b620000a960201b60201c565b80600160006101000a81548173ffffffffffffffffffffffffffffffffffffffff021916908373ffffffffffffffffffffffffffffffffffffffff160217905550506200013d565b50565b600081519050620000bd8162000123565b92915050565b600060208284031215620000d657600080fd5b6000620000e684828501620000ac565b91505092915050565b6000620000fc8262000103565b9050919050565b600073ffffffffffffffffffffffffffffffffffffffff82169050919050565b6200012e81620000ef565b81146200013a57600080fd5b50565b6114e3806200014d6000396000f3fe608060405234801561001057600080fd5b50600436106100935760003560e01c80638da5cb5b116100665780638da5cb5b14610120578063a5bf8ec61461013e578063c23f001f1461015a578063f348f4fc1461018a578063f3fef3a3146101ba57610093565b80633e38b80d1461009857806347e7ef24146100b65780635b0a296a146100d257806370a08231146100f0575b600080fd5b6100a06101d6565b6040516100ad91906112c9565b60405180910390f35b6100d060048036038101906100cb9190610ec9565b6101dc565b005b6100da6104a5565b6040516100e79190611173565b60405180910390f35b61010a60048036038101906101059190610e64565b61050b565b60405161011791906112c9565b60405180910390f35b6101286105cc565b604051610135919061118e565b60405180910390f35b61015860048036038101906101539190610e64565b6105f2565b005b610174600480360381019061016f9190610e8d565b61091c565b60405161018191906112c9565b60405180910390f35b6101a4600480360381019061019f9190610e64565b610941565b6040516101b191906112c9565b60405180910390f35b6101d460048036038101906101cf9190610ec9565b610959565b005b60035481565b6101f06742ff15c5a78e3a3660c01b610e22565b61020467ab5b27a8f24a34c660c01b610e22565b61021867752608ba51062ffc60c01b610e22565b61022c67f858f60ec4bdb28360c01b610e22565b6000811161026f576040517f08c379a000000000000000000000000000000000000000000000000000000000815260040161026690611229565b60405180910390fd5b610283670c4810258dc9e3e360c01b610e22565b61029767205f7cfae5a7974c60c01b610e22565b6102ab67dc6dd8a36d7dff4660c01b610e22565b6102bf67d58daf945ea159ab60c01b610e22565b600073ffffffffffffffffffffffffffffffffffffffff168273ffffffffffffffffffffffffffffffffffffffff16141561032f576040517f08c379a000000000000000000000000000000000000000000000000000000000815260040161032690611269565b60405180910390fd5b61034367d5f389fc2f765ff460c01b610e22565b610357677c74b59e4581698a60c01b610e22565b61036b678e92b0a60abc3c4660c01b610e22565b8173ffffffffffffffffffffffffffffffffffffffff166323b872dd3330846040518463ffffffff1660e01b81526004016103a8939291906111a9565b602060405180830381600087803b1580156103c257600080fd5b505af11580156103d6573d6000803e3d6000fd5b505050506040513d601f19601f820116820180604052508101906103fa9190610f05565b5061040f673c4fbe07d3fb3e0060c01b610e22565b806000803373ffffffffffffffffffffffffffffffffffffffff1673ffffffffffffffffffffffffffffffffffffffff16815260200190815260200160002060008473ffffffffffffffffffffffffffffffffffffffff1673ffffffffffffffffffffffffffffffffffffffff168152602001908152602001600020600082825461049a91906112f5565b925050819055505050565b60006104bb6788037edeae76af1f60c01b610e22565b6104cf67f9fd36d0e35cb76260c01b610e22565b6104e36770e89a609090cf6b60c01b610e22565b600160009054906101000a900473ffffffffffffffffffffffffffffffffffffffff16905090565b600061052167bc5fba23bf64d9cb60c01b610e22565b610535670d0c6f7ba734550960c01b610e22565b610549673bda04ada1e2cbfe60c01b610e22565b6000803373ffffffffffffffffffffffffffffffffffffffff1673ffffffffffffffffffffffffffffffffffffffff16815260200190815260200160002060008373ffffffffffffffffffffffffffffffffffffffff1673ffffffffffffffffffffffffffffffffffffffff168152602001908152602001600020549050919050565b600160009054906101000a900473ffffffffffffffffffffffffffffffffffffffff1681565b61060667c26a3065c01c3d1960c01b610e22565b61061a67519a3c9540d2143060c01b610e22565b61062e678495f1a01805abdc60c01b610e22565b610642676a6807f533e251af60c01b610e22565b61065667175594d13a65205d60c01b610e22565b600160009054906101000a900473ffffffffffffffffffffffffffffffffffffffff1673ffffffffffffffffffffffffffffffffffffffff163373ffffffffffffffffffffffffffffffffffffffff16146106e6576040517f08c379a00000000000000000000000000000000000000000000000000000000081526004016106dd90611209565b60405180910390fd5b6106fa670ef9f5e838525a7760c01b610e22565b61070e6751c3b7e5e792e85460c01b610e22565b610722676aff7e26b4cd029f60c01b610e22565b6107366798fa10e0644147a260c01b610e22565b61074a6775716d00802ecfc860c01b610e22565b61075e67a96838bd02934a3460c01b610e22565b6000600260008373ffffffffffffffffffffffffffffffffffffffff1673ffffffffffffffffffffffffffffffffffffffff1681526020019081526020016000205490506107b667c5d1c71b2a602ace60c01b610e22565b6107ca671d3ae4a45e0a924960c01b610e22565b6107de6751c5b748a5f812be60c01b610e22565b60008111610821576040517f08c379a000000000000000000000000000000000000000000000000000000000815260040161081890611249565b60405180910390fd5b610835672f6d0a11e2ae244060c01b610e22565b61084967b6ac816dfdca46a960c01b610e22565b806003600082825461085b919061137c565b9250508190555061087667d29a9e885797d70260c01b610e22565b61088a67a2cbd55a1a44da0e60c01b610e22565b8173ffffffffffffffffffffffffffffffffffffffff1663a9059cbb33836040518363ffffffff1660e01b81526004016108c59291906111e0565b602060405180830381600087803b1580156108df57600080fd5b505af11580156108f3573d6000803e3d6000fd5b505050506040513d601f19601f820116820180604052508101906109179190610f05565b505050565b6000602052816000526040600020602052806000526040600020600091509150505481565b60026020528060005260406000206000915090505481565b61096d671d51001503d1344660c01b610e22565b61098167c97abdd284b32ebf60c01b610e22565b61099567ba2d5ea7db351b7c60c01b610e22565b6109a967b06955df08ddd3de60c01b610e22565b600081116109ec576040517f08c379a00000000000000000000000000000000000000000000000000000000081526004016109e390611289565b60405180910390fd5b610a00676399e95c764cf63a60c01b610e22565b610a14671eec5c4babc5186e60c01b610e22565b610a286729bf313028c10bc560c01b610e22565b610a3c67a1748b534b13df7b60c01b610e22565b806000803373ffffffffffffffffffffffffffffffffffffffff1673ffffffffffffffffffffffffffffffffffffffff16815260200190815260200160002060008473ffffffffffffffffffffffffffffffffffffffff1673ffffffffffffffffffffffffffffffffffffffff168152602001908152602001600020541015610afa576040517f08c379a0000000000000000000000000000000000000000000000000000000008152600401610af1906112a9565b60405180910390fd5b610b0e67bab5db1f077cc6c260c01b610e22565b610b226731a4be32be7360c660c01b610e22565b610b36677655f54237b6d87960c01b610e22565b610b4a67da303f94275ac30160c01b610e22565b600073ffffffffffffffffffffffffffffffffffffffff168273ffffffffffffffffffffffffffffffffffffffff161415610bba576040517f08c379a0000000000000000000000000000000000000000000000000000000008152600401610bb190611269565b60405180910390fd5b610bce67d3080cf97bfe3fa760c01b610e22565b610be267eef7674e44124abc60c01b610e22565b806000803373ffffffffffffffffffffffffffffffffffffffff1673ffffffffffffffffffffffffffffffffffffffff16815260200190815260200160002060008473ffffffffffffffffffffffffffffffffffffffff1673ffffffffffffffffffffffffffffffffffffffff1681526020019081526020016000206000828254610c6d919061137c565b92505081905550610c886720d55089f55f9eb560c01b610e22565b610c9c67077edb151f84489960c01b610e22565b60006103e882610cac919061134b565b9050610cc267c727020af8b8c5a760c01b610e22565b80600260008573ffffffffffffffffffffffffffffffffffffffff1673ffffffffffffffffffffffffffffffffffffffff1681526020019081526020016000206000828254610d1191906112f5565b92505081905550610d2c67d3f15c27ba45999e60c01b610e22565b8060036000828254610d3e91906112f5565b92505081905550610d59674106ba80e8a0d46960c01b610e22565b8082610d65919061137c565b9150610d7b67fa58d86851eb0bb760c01b610e22565b610d8f677236e927fd0583e660c01b610e22565b8273ffffffffffffffffffffffffffffffffffffffff1663a9059cbb33846040518363ffffffff1660e01b8152600401610dca9291906111e0565b602060405180830381600087803b158015610de457600080fd5b505af1158015610df8573d6000803e3d6000fd5b505050506040513d601f19601f82011682018060405250810190610e1c9190610f05565b50505050565b50565b600081359050610e3481611468565b92915050565b600081519050610e498161147f565b92915050565b600081359050610e5e81611496565b92915050565b600060208284031215610e7657600080fd5b6000610e8484828501610e25565b91505092915050565b60008060408385031215610ea057600080fd5b6000610eae85828601610e25565b9250506020610ebf85828601610e25565b9150509250929050565b60008060408385031215610edc57600080fd5b6000610eea85828601610e25565b9250506020610efb85828601610e4f565b9150509250929050565b600060208284031215610f1757600080fd5b6000610f2584828501610e3a565b91505092915050565b610f37816113c2565b82525050565b610f46816113b0565b82525050565b6000610f596026836112e4565b91507f4f6e6c7920746865206f776e65722063616e2063616c6c20746869732066756e60008301527f6374696f6e2e00000000000000000000000000000000000000000000000000006020830152604082019050919050565b6000610fbf6025836112e4565b91507f4465706f73697420616d6f756e74206d7573742062652067726561746572207460008301527f68616e20300000000000000000000000000000000000000000000000000000006020830152604082019050919050565b6000611025602b836112e4565b91507f5468657265206e6f20656e6f7567682074617820666f7220796f75207769746860008301527f207468697320746f6b656e0000000000000000000000000000000000000000006020830152604082019050919050565b600061108b601b836112e4565b91507f546f6b656e2061646472657373206d7573742062652076616c696400000000006000830152602082019050919050565b60006110cb6028836112e4565b91507f5769746864726177616c20616d6f756e74206d7573742062652067726561746560008301527f72207468616e20300000000000000000000000000000000000000000000000006020830152604082019050919050565b60006111316015836112e4565b91507f52756e206f7574206f6620796f7572206d6f6e657900000000000000000000006000830152602082019050919050565b61116d81611400565b82525050565b60006020820190506111886000830184610f3d565b92915050565b60006020820190506111a36000830184610f2e565b92915050565b60006060820190506111be6000830186610f3d565b6111cb6020830185610f3d565b6111d86040830184611164565b949350505050565b60006040820190506111f56000830185610f3d565b6112026020830184611164565b9392505050565b6000602082019050818103600083015261122281610f4c565b9050919050565b6000602082019050818103600083015261124281610fb2565b9050919050565b6000602082019050818103600083015261126281611018565b9050919050565b600060208201905081810360008301526112828161107e565b9050919050565b600060208201905081810360008301526112a2816110be565b9050919050565b600060208201905081810360008301526112c281611124565b9050919050565b60006020820190506112de6000830184611164565b92915050565b600082825260208201905092915050565b600061130082611400565b915061130b83611400565b9250827fffffffffffffffffffffffffffffffffffffffffffffffffffffffffffffffff038211156113405761133f61140a565b5b828201905092915050565b600061135682611400565b915061136183611400565b92508261137157611370611439565b5b828204905092915050565b600061138782611400565b915061139283611400565b9250828210156113a5576113a461140a565b5b828203905092915050565b60006113bb826113e0565b9050919050565b60006113cd826113e0565b9050919050565b60008115159050919050565b600073ffffffffffffffffffffffffffffffffffffffff82169050919050565b6000819050919050565b7f4e487b7100000000000000000000000000000000000000000000000000000000600052601160045260246000fd5b7f4e487b7100000000000000000000000000000000000000000000000000000000600052601260045260246000fd5b611471816113b0565b811461147c57600080fd5b50565b611488816113d4565b811461149357600080fd5b50565b61149f81611400565b81146114aa57600080fd5b5056fea2646970667358221220d07330a022abc8a8b4c7b9b10a8c8f373efc537769800ca3966deeed271675cf64736f6c63430008000033","opcodes":"PUSH1 0x80 PUSH1 0x40 MSTORE PUSH1 0x40 MLOAD PUSH3 0x1630 CODESIZE SUB DUP1 PUSH3 0x1630 DUP4 CODECOPY DUP2 DUP2 ADD PUSH1 0x40 MSTORE DUP2 ADD SWAP1 PUSH3 0x29 SWAP2 SWAP1 PUSH3 0xC3 JUMP JUMPDEST PUSH3 0x45 PUSH8 0x64D3716EC8EA3D27 PUSH1 0xC0 SHL PUSH3 0xA9 PUSH1 0x20 SHL PUSH1 0x20 SHR JUMP JUMPDEST PUSH3 0x61 PUSH8 0xC26D8F051727398E PUSH1 0xC0 SHL PUSH3 0xA9 PUSH1 0x20 SHL PUSH1 0x20 SHR JUMP JUMPDEST DUP1 PUSH1 0x1 PUSH1 0x0 PUSH2 0x100 EXP DUP2 SLOAD DUP2 PUSH20 0xFFFFFFFFFFFFFFFFFFFFFFFFFFFFFFFFFFFFFFFF MUL NOT AND SWAP1 DUP4 PUSH20 0xFFFFFFFFFFFFFFFFFFFFFFFFFFFFFFFFFFFFFFFF AND MUL OR SWAP1 SSTORE POP POP PUSH3 0x13D JUMP JUMPDEST POP JUMP JUMPDEST PUSH1 0x0 DUP2 MLOAD SWAP1 POP PUSH3 0xBD DUP2 PUSH3 0x123 JUMP JUMPDEST SWAP3 SWAP2 POP POP JUMP JUMPDEST PUSH1 0x0 PUSH1 0x20 DUP3 DUP5 SUB SLT ISZERO PUSH3 0xD6 JUMPI PUSH1 0x0 DUP1 REVERT JUMPDEST PUSH1 0x0 PUSH3 0xE6 DUP5 DUP3 DUP6 ADD PUSH3 0xAC JUMP JUMPDEST SWAP2 POP POP SWAP3 SWAP2 POP POP JUMP JUMPDEST PUSH1 0x0 PUSH3 0xFC DUP3 PUSH3 0x103 JUMP JUMPDEST SWAP1 POP SWAP2 SWAP1 POP JUMP JUMPDEST PUSH1 0x0 PUSH20 0xFFFFFFFFFFFFFFFFFFFFFFFFFFFFFFFFFFFFFFFF DUP3 AND SWAP1 POP SWAP2 SWAP1 POP JUMP JUMPDEST PUSH3 0x12E DUP2 PUSH3 0xEF JUMP JUMPDEST DUP2 EQ PUSH3 0x13A JUMPI PUSH1 0x0 DUP1 REVERT JUMPDEST POP JUMP JUMPDEST PUSH2 0x14E3 DUP1 PUSH3 0x14D PUSH1 0x0 CODECOPY PUSH1 0x0 RETURN INVALID PUSH1 0x80 PUSH1 0x40 MSTORE CALLVALUE DUP1 ISZERO PUSH2 0x10 JUMPI PUSH1 0x0 DUP1 REVERT JUMPDEST POP PUSH1 0x4 CALLDATASIZE LT PUSH2 0x93 JUMPI PUSH1 0x0 CALLDATALOAD PUSH1 0xE0 SHR DUP1 PUSH4 0x8DA5CB5B GT PUSH2 0x66 JUMPI DUP1 PUSH4 0x8DA5CB5B EQ PUSH2 0x120 JUMPI DUP1 PUSH4 0xA5BF8EC6 EQ PUSH2 0x13E JUMPI DUP1 PUSH4 0xC23F001F EQ PUSH2 0x15A JUMPI DUP1 PUSH4 0xF348F4FC EQ PUSH2 0x18A JUMPI DUP1 PUSH4 0xF3FEF3A3 EQ PUSH2 0x1BA JUMPI PUSH2 0x93 JUMP JUMPDEST DUP1 PUSH4 0x3E38B80D EQ PUSH2 0x98 JUMPI DUP1 PUSH4 0x47E7EF24 EQ PUSH2 0xB6 JUMPI DUP1 PUSH4 0x5B0A296A EQ PUSH2 0xD2 JUMPI DUP1 PUSH4 0x70A08231 EQ PUSH2 0xF0 JUMPI JUMPDEST PUSH1 0x0 DUP1 REVERT JUMPDEST PUSH2 0xA0 PUSH2 0x1D6 JUMP JUMPDEST PUSH1 0x40 MLOAD PUSH2 0xAD SWAP2 SWAP1 PUSH2 0x12C9 JUMP JUMPDEST PUSH1 0x40 MLOAD DUP1 SWAP2 SUB SWAP1 RETURN JUMPDEST PUSH2 0xD0 PUSH1 0x4 DUP1 CALLDATASIZE SUB DUP2 ADD SWAP1 PUSH2 0xCB SWAP2 SWAP1 PUSH2 0xEC9 JUMP JUMPDEST PUSH2 0x1DC JUMP JUMPDEST STOP JUMPDEST PUSH2 0xDA PUSH2 0x4A5 JUMP JUMPDEST PUSH1 0x40 MLOAD PUSH2 0xE7 SWAP2 SWAP1 PUSH2 0x1173 JUMP JUMPDEST PUSH1 0x40 MLOAD DUP1 SWAP2 SUB SWAP1 RETURN JUMPDEST PUSH2 0x10A PUSH1 0x4 DUP1 CALLDATASIZE SUB DUP2 ADD SWAP1 PUSH2 0x105 SWAP2 SWAP1 PUSH2 0xE64 JUMP JUMPDEST PUSH2 0x50B JUMP JUMPDEST PUSH1 0x40 MLOAD PUSH2 0x117 SWAP2 SWAP1 PUSH2 0x12C9 JUMP JUMPDEST PUSH1 0x40 MLOAD DUP1 SWAP2 SUB SWAP1 RETURN JUMPDEST PUSH2 0x128 PUSH2 0x5CC JUMP JUMPDEST PUSH1 0x40 MLOAD PUSH2 0x135 SWAP2 SWAP1 PUSH2 0x118E JUMP JUMPDEST PUSH1 0x40 MLOAD DUP1 SWAP2 SUB SWAP1 RETURN JUMPDEST PUSH2 0x158 PUSH1 0x4 DUP1 CALLDATASIZE SUB DUP2 ADD SWAP1 PUSH2 0x153 SWAP2 SWAP1 PUSH2 0xE64 JUMP JUMPDEST PUSH2 0x5F2 JUMP JUMPDEST STOP JUMPDEST PUSH2 0x174 PUSH1 0x4 DUP1 CALLDATASIZE SUB DUP2 ADD SWAP1 PUSH2 0x16F SWAP2 SWAP1 PUSH2 0xE8D JUMP JUMPDEST PUSH2 0x91C JUMP JUMPDEST PUSH1 0x40 MLOAD PUSH2 0x181 SWAP2 SWAP1 PUSH2 0x12C9 JUMP JUMPDEST PUSH1 0x40 MLOAD DUP1 SWAP2 SUB SWAP1 RETURN JUMPDEST PUSH2 0x1A4 PUSH1 0x4 DUP1 CALLDATASIZE SUB DUP2 ADD SWAP1 PUSH2 0x19F SWAP2 SWAP1 PUSH2 0xE64 JUMP JUMPDEST PUSH2 0x941 JUMP JUMPDEST PUSH1 0x40 MLOAD PUSH2 0x1B1 SWAP2 SWAP1 PUSH2 0x12C9 JUMP JUMPDEST PUSH1 0x40 MLOAD DUP1 SWAP2 SUB SWAP1 RETURN JUMPDEST PUSH2 0x1D4 PUSH1 0x4 DUP1 CALLDATASIZE SUB DUP2 ADD SWAP1 PUSH2 0x1CF SWAP2 SWAP1 PUSH2 0xEC9 JUMP JUMPDEST PUSH2 0x959 JUMP JUMPDEST STOP JUMPDEST PUSH1 0x3 SLOAD DUP2 JUMP JUMPDEST PUSH2 0x1F0 PUSH8 0x42FF15C5A78E3A36 PUSH1 0xC0 SHL PUSH2 0xE22 JUMP JUMPDEST PUSH2 0x204 PUSH8 0xAB5B27A8F24A34C6 PUSH1 0xC0 SHL PUSH2 0xE22 JUMP JUMPDEST PUSH2 0x218 PUSH8 0x752608BA51062FFC PUSH1 0xC0 SHL PUSH2 0xE22 JUMP JUMPDEST PUSH2 0x22C PUSH8 0xF858F60EC4BDB283 PUSH1 0xC0 SHL PUSH2 0xE22 JUMP JUMPDEST PUSH1 0x0 DUP2 GT PUSH2 0x26F JUMPI PUSH1 0x40 MLOAD PUSH32 0x8C379A000000000000000000000000000000000000000000000000000000000 DUP2 MSTORE PUSH1 0x4 ADD PUSH2 0x266 SWAP1 PUSH2 0x1229 JUMP JUMPDEST PUSH1 0x40 MLOAD DUP1 SWAP2 SUB SWAP1 REVERT JUMPDEST PUSH2 0x283 PUSH8 0xC4810258DC9E3E3 PUSH1 0xC0 SHL PUSH2 0xE22 JUMP JUMPDEST PUSH2 0x297 PUSH8 0x205F7CFAE5A7974C PUSH1 0xC0 SHL PUSH2 0xE22 JUMP JUMPDEST PUSH2 0x2AB PUSH8 0xDC6DD8A36D7DFF46 PUSH1 0xC0 SHL PUSH2 0xE22 JUMP JUMPDEST PUSH2 0x2BF PUSH8 0xD58DAF945EA159AB PUSH1 0xC0 SHL PUSH2 0xE22 JUMP JUMPDEST PUSH1 0x0 PUSH20 0xFFFFFFFFFFFFFFFFFFFFFFFFFFFFFFFFFFFFFFFF AND DUP3 PUSH20 0xFFFFFFFFFFFFFFFFFFFFFFFFFFFFFFFFFFFFFFFF AND EQ ISZERO PUSH2 0x32F JUMPI PUSH1 0x40 MLOAD PUSH32 0x8C379A000000000000000000000000000000000000000000000000000000000 DUP2 MSTORE PUSH1 0x4 ADD PUSH2 0x326 SWAP1 PUSH2 0x1269 JUMP JUMPDEST PUSH1 0x40 MLOAD DUP1 SWAP2 SUB SWAP1 REVERT JUMPDEST PUSH2 0x343 PUSH8 0xD5F389FC2F765FF4 PUSH1 0xC0 SHL PUSH2 0xE22 JUMP JUMPDEST PUSH2 0x357 PUSH8 0x7C74B59E4581698A PUSH1 0xC0 SHL PUSH2 0xE22 JUMP JUMPDEST PUSH2 0x36B PUSH8 0x8E92B0A60ABC3C46 PUSH1 0xC0 SHL PUSH2 0xE22 JUMP JUMPDEST DUP2 PUSH20 0xFFFFFFFFFFFFFFFFFFFFFFFFFFFFFFFFFFFFFFFF AND PUSH4 0x23B872DD CALLER ADDRESS DUP5 PUSH1 0x40 MLOAD DUP5 PUSH4 0xFFFFFFFF AND PUSH1 0xE0 SHL DUP2 MSTORE PUSH1 0x4 ADD PUSH2 0x3A8 SWAP4 SWAP3 SWAP2 SWAP1 PUSH2 0x11A9 JUMP JUMPDEST PUSH1 0x20 PUSH1 0x40 MLOAD DUP1 DUP4 SUB DUP2 PUSH1 0x0 DUP8 DUP1 EXTCODESIZE ISZERO DUP1 ISZERO PUSH2 0x3C2 JUMPI PUSH1 0x0 DUP1 REVERT JUMPDEST POP GAS CALL ISZERO DUP1 ISZERO PUSH2 0x3D6 JUMPI RETURNDATASIZE PUSH1 0x0 DUP1 RETURNDATACOPY RETURNDATASIZE PUSH1 0x0 REVERT JUMPDEST POP POP POP POP PUSH1 0x40 MLOAD RETURNDATASIZE PUSH1 0x1F NOT PUSH1 0x1F DUP3 ADD AND DUP3 ADD DUP1 PUSH1 0x40 MSTORE POP DUP2 ADD SWAP1 PUSH2 0x3FA SWAP2 SWAP1 PUSH2 0xF05 JUMP JUMPDEST POP PUSH2 0x40F PUSH8 0x3C4FBE07D3FB3E00 PUSH1 0xC0 SHL PUSH2 0xE22 JUMP JUMPDEST DUP1 PUSH1 0x0 DUP1 CALLER PUSH20 0xFFFFFFFFFFFFFFFFFFFFFFFFFFFFFFFFFFFFFFFF AND PUSH20 0xFFFFFFFFFFFFFFFFFFFFFFFFFFFFFFFFFFFFFFFF AND DUP2 MSTORE PUSH1 0x20 ADD SWAP1 DUP2 MSTORE PUSH1 0x20 ADD PUSH1 0x0 KECCAK256 PUSH1 0x0 DUP5 PUSH20 0xFFFFFFFFFFFFFFFFFFFFFFFFFFFFFFFFFFFFFFFF AND PUSH20 0xFFFFFFFFFFFFFFFFFFFFFFFFFFFFFFFFFFFFFFFF AND DUP2 MSTORE PUSH1 0x20 ADD SWAP1 DUP2 MSTORE PUSH1 0x20 ADD PUSH1 0x0 KECCAK256 PUSH1 0x0 DUP3 DUP3 SLOAD PUSH2 0x49A SWAP2 SWAP1 PUSH2 0x12F5 JUMP JUMPDEST SWAP3 POP POP DUP2 SWAP1 SSTORE POP POP POP JUMP JUMPDEST PUSH1 0x0 PUSH2 0x4BB PUSH8 0x88037EDEAE76AF1F PUSH1 0xC0 SHL PUSH2 0xE22 JUMP JUMPDEST PUSH2 0x4CF PUSH8 0xF9FD36D0E35CB762 PUSH1 0xC0 SHL PUSH2 0xE22 JUMP JUMPDEST PUSH2 0x4E3 PUSH8 0x70E89A609090CF6B PUSH1 0xC0 SHL PUSH2 0xE22 JUMP JUMPDEST PUSH1 0x1 PUSH1 0x0 SWAP1 SLOAD SWAP1 PUSH2 0x100 EXP SWAP1 DIV PUSH20 0xFFFFFFFFFFFFFFFFFFFFFFFFFFFFFFFFFFFFFFFF AND SWAP1 POP SWAP1 JUMP JUMPDEST PUSH1 0x0 PUSH2 0x521 PUSH8 0xBC5FBA23BF64D9CB PUSH1 0xC0 SHL PUSH2 0xE22 JUMP JUMPDEST PUSH2 0x535 PUSH8 0xD0C6F7BA7345509 PUSH1 0xC0 SHL PUSH2 0xE22 JUMP JUMPDEST PUSH2 0x549 PUSH8 0x3BDA04ADA1E2CBFE PUSH1 0xC0 SHL PUSH2 0xE22 JUMP JUMPDEST PUSH1 0x0 DUP1 CALLER PUSH20 0xFFFFFFFFFFFFFFFFFFFFFFFFFFFFFFFFFFFFFFFF AND PUSH20 0xFFFFFFFFFFFFFFFFFFFFFFFFFFFFFFFFFFFFFFFF AND DUP2 MSTORE PUSH1 0x20 ADD SWAP1 DUP2 MSTORE PUSH1 0x20 ADD PUSH1 0x0 KECCAK256 PUSH1 0x0 DUP4 PUSH20 0xFFFFFFFFFFFFFFFFFFFFFFFFFFFFFFFFFFFFFFFF AND PUSH20 0xFFFFFFFFFFFFFFFFFFFFFFFFFFFFFFFFFFFFFFFF AND DUP2 MSTORE PUSH1 0x20 ADD SWAP1 DUP2 MSTORE PUSH1 0x20 ADD PUSH1 0x0 KECCAK256 SLOAD SWAP1 POP SWAP2 SWAP1 POP JUMP JUMPDEST PUSH1 0x1 PUSH1 0x0 SWAP1 SLOAD SWAP1 PUSH2 0x100 EXP SWAP1 DIV PUSH20 0xFFFFFFFFFFFFFFFFFFFFFFFFFFFFFFFFFFFFFFFF AND DUP2 JUMP JUMPDEST PUSH2 0x606 PUSH8 0xC26A3065C01C3D19 PUSH1 0xC0 SHL PUSH2 0xE22 JUMP JUMPDEST PUSH2 0x61A PUSH8 0x519A3C9540D21430 PUSH1 0xC0 SHL PUSH2 0xE22 JUMP JUMPDEST PUSH2 0x62E PUSH8 0x8495F1A01805ABDC PUSH1 0xC0 SHL PUSH2 0xE22 JUMP JUMPDEST PUSH2 0x642 PUSH8 0x6A6807F533E251AF PUSH1 0xC0 SHL PUSH2 0xE22 JUMP JUMPDEST PUSH2 0x656 PUSH8 0x175594D13A65205D PUSH1 0xC0 SHL PUSH2 0xE22 JUMP JUMPDEST PUSH1 0x1 PUSH1 0x0 SWAP1 SLOAD SWAP1 PUSH2 0x100 EXP SWAP1 DIV PUSH20 0xFFFFFFFFFFFFFFFFFFFFFFFFFFFFFFFFFFFFFFFF AND PUSH20 0xFFFFFFFFFFFFFFFFFFFFFFFFFFFFFFFFFFFFFFFF AND CALLER PUSH20 0xFFFFFFFFFFFFFFFFFFFFFFFFFFFFFFFFFFFFFFFF AND EQ PUSH2 0x6E6 JUMPI PUSH1 0x40 MLOAD PUSH32 0x8C379A000000000000000000000000000000000000000000000000000000000 DUP2 MSTORE PUSH1 0x4 ADD PUSH2 0x6DD SWAP1 PUSH2 0x1209 JUMP JUMPDEST PUSH1 0x40 MLOAD DUP1 SWAP2 SUB SWAP1 REVERT JUMPDEST PUSH2 0x6FA PUSH8 0xEF9F5E838525A77 PUSH1 0xC0 SHL PUSH2 0xE22 JUMP JUMPDEST PUSH2 0x70E PUSH8 0x51C3B7E5E792E854 PUSH1 0xC0 SHL PUSH2 0xE22 JUMP JUMPDEST PUSH2 0x722 PUSH8 0x6AFF7E26B4CD029F PUSH1 0xC0 SHL PUSH2 0xE22 JUMP JUMPDEST PUSH2 0x736 PUSH8 0x98FA10E0644147A2 PUSH1 0xC0 SHL PUSH2 0xE22 JUMP JUMPDEST PUSH2 0x74A PUSH8 0x75716D00802ECFC8 PUSH1 0xC0 SHL PUSH2 0xE22 JUMP JUMPDEST PUSH2 0x75E PUSH8 0xA96838BD02934A34 PUSH1 0xC0 SHL PUSH2 0xE22 JUMP JUMPDEST PUSH1 0x0 PUSH1 0x2 PUSH1 0x0 DUP4 PUSH20 0xFFFFFFFFFFFFFFFFFFFFFFFFFFFFFFFFFFFFFFFF AND PUSH20 0xFFFFFFFFFFFFFFFFFFFFFFFFFFFFFFFFFFFFFFFF AND DUP2 MSTORE PUSH1 0x20 ADD SWAP1 DUP2 MSTORE PUSH1 0x20 ADD PUSH1 0x0 KECCAK256 SLOAD SWAP1 POP PUSH2 0x7B6 PUSH8 0xC5D1C71B2A602ACE PUSH1 0xC0 SHL PUSH2 0xE22 JUMP JUMPDEST PUSH2 0x7CA PUSH8 0x1D3AE4A45E0A9249 PUSH1 0xC0 SHL PUSH2 0xE22 JUMP JUMPDEST PUSH2 0x7DE PUSH8 0x51C5B748A5F812BE PUSH1 0xC0 SHL PUSH2 0xE22 JUMP JUMPDEST PUSH1 0x0 DUP2 GT PUSH2 0x821 JUMPI PUSH1 0x40 MLOAD PUSH32 0x8C379A000000000000000000000000000000000000000000000000000000000 DUP2 MSTORE PUSH1 0x4 ADD PUSH2 0x818 SWAP1 PUSH2 0x1249 JUMP JUMPDEST PUSH1 0x40 MLOAD DUP1 SWAP2 SUB SWAP1 REVERT JUMPDEST PUSH2 0x835 PUSH8 0x2F6D0A11E2AE2440 PUSH1 0xC0 SHL PUSH2 0xE22 JUMP JUMPDEST PUSH2 0x849 PUSH8 0xB6AC816DFDCA46A9 PUSH1 0xC0 SHL PUSH2 0xE22 JUMP JUMPDEST DUP1 PUSH1 0x3 PUSH1 0x0 DUP3 DUP3 SLOAD PUSH2 0x85B SWAP2 SWAP1 PUSH2 0x137C JUMP JUMPDEST SWAP3 POP POP DUP2 SWAP1 SSTORE POP PUSH2 0x876 PUSH8 0xD29A9E885797D702 PUSH1 0xC0 SHL PUSH2 0xE22 JUMP JUMPDEST PUSH2 0x88A PUSH8 0xA2CBD55A1A44DA0E PUSH1 0xC0 SHL PUSH2 0xE22 JUMP JUMPDEST DUP2 PUSH20 0xFFFFFFFFFFFFFFFFFFFFFFFFFFFFFFFFFFFFFFFF AND PUSH4 0xA9059CBB CALLER DUP4 PUSH1 0x40 MLOAD DUP4 PUSH4 0xFFFFFFFF AND PUSH1 0xE0 SHL DUP2 MSTORE PUSH1 0x4 ADD PUSH2 0x8C5 SWAP3 SWAP2 SWAP1 PUSH2 0x11E0 JUMP JUMPDEST PUSH1 0x20 PUSH1 0x40 MLOAD DUP1 DUP4 SUB DUP2 PUSH1 0x0 DUP8 DUP1 EXTCODESIZE ISZERO DUP1 ISZERO PUSH2 0x8DF JUMPI PUSH1 0x0 DUP1 REVERT JUMPDEST POP GAS CALL ISZERO DUP1 ISZERO PUSH2 0x8F3 JUMPI RETURNDATASIZE PUSH1 0x0 DUP1 RETURNDATACOPY RETURNDATASIZE PUSH1 0x0 REVERT JUMPDEST POP POP POP POP PUSH1 0x40 MLOAD RETURNDATASIZE PUSH1 0x1F NOT PUSH1 0x1F DUP3 ADD AND DUP3 ADD DUP1 PUSH1 0x40 MSTORE POP DUP2 ADD SWAP1 PUSH2 0x917 SWAP2 SWAP1 PUSH2 0xF05 JUMP JUMPDEST POP POP POP JUMP JUMPDEST PUSH1 0x0 PUSH1 0x20 MSTORE DUP2 PUSH1 0x0 MSTORE PUSH1 0x40 PUSH1 0x0 KECCAK256 PUSH1 0x20 MSTORE DUP1 PUSH1 0x0 MSTORE PUSH1 0x40 PUSH1 0x0 KECCAK256 PUSH1 0x0 SWAP2 POP SWAP2 POP POP SLOAD DUP2 JUMP JUMPDEST PUSH1 0x2 PUSH1 0x20 MSTORE DUP1 PUSH1 0x0 MSTORE PUSH1 0x40 PUSH1 0x0 KECCAK256 PUSH1 0x0 SWAP2 POP SWAP1 POP SLOAD DUP2 JUMP JUMPDEST PUSH2 0x96D PUSH8 0x1D51001503D13446 PUSH1 0xC0 SHL PUSH2 0xE22 JUMP JUMPDEST PUSH2 0x981 PUSH8 0xC97ABDD284B32EBF PUSH1 0xC0 SHL PUSH2 0xE22 JUMP JUMPDEST PUSH2 0x995 PUSH8 0xBA2D5EA7DB351B7C PUSH1 0xC0 SHL PUSH2 0xE22 JUMP JUMPDEST PUSH2 0x9A9 PUSH8 0xB06955DF08DDD3DE PUSH1 0xC0 SHL PUSH2 0xE22 JUMP JUMPDEST PUSH1 0x0 DUP2 GT PUSH2 0x9EC JUMPI PUSH1 0x40 MLOAD PUSH32 0x8C379A000000000000000000000000000000000000000000000000000000000 DUP2 MSTORE PUSH1 0x4 ADD PUSH2 0x9E3 SWAP1 PUSH2 0x1289 JUMP JUMPDEST PUSH1 0x40 MLOAD DUP1 SWAP2 SUB SWAP1 REVERT JUMPDEST PUSH2 0xA00 PUSH8 0x6399E95C764CF63A PUSH1 0xC0 SHL PUSH2 0xE22 JUMP JUMPDEST PUSH2 0xA14 PUSH8 0x1EEC5C4BABC5186E PUSH1 0xC0 SHL PUSH2 0xE22 JUMP JUMPDEST PUSH2 0xA28 PUSH8 0x29BF313028C10BC5 PUSH1 0xC0 SHL PUSH2 0xE22 JUMP JUMPDEST PUSH2 0xA3C PUSH8 0xA1748B534B13DF7B PUSH1 0xC0 SHL PUSH2 0xE22 JUMP JUMPDEST DUP1 PUSH1 0x0 DUP1 CALLER PUSH20 0xFFFFFFFFFFFFFFFFFFFFFFFFFFFFFFFFFFFFFFFF AND PUSH20 0xFFFFFFFFFFFFFFFFFFFFFFFFFFFFFFFFFFFFFFFF AND DUP2 MSTORE PUSH1 0x20 ADD SWAP1 DUP2 MSTORE PUSH1 0x20 ADD PUSH1 0x0 KECCAK256 PUSH1 0x0 DUP5 PUSH20 0xFFFFFFFFFFFFFFFFFFFFFFFFFFFFFFFFFFFFFFFF AND PUSH20 0xFFFFFFFFFFFFFFFFFFFFFFFFFFFFFFFFFFFFFFFF AND DUP2 MSTORE PUSH1 0x20 ADD SWAP1 DUP2 MSTORE PUSH1 0x20 ADD PUSH1 0x0 KECCAK256 SLOAD LT ISZERO PUSH2 0xAFA JUMPI PUSH1 0x40 MLOAD PUSH32 0x8C379A000000000000000000000000000000000000000000000000000000000 DUP2 MSTORE PUSH1 0x4 ADD PUSH2 0xAF1 SWAP1 PUSH2 0x12A9 JUMP JUMPDEST PUSH1 0x40 MLOAD DUP1 SWAP2 SUB SWAP1 REVERT JUMPDEST PUSH2 0xB0E PUSH8 0xBAB5DB1F077CC6C2 PUSH1 0xC0 SHL PUSH2 0xE22 JUMP JUMPDEST PUSH2 0xB22 PUSH8 0x31A4BE32BE7360C6 PUSH1 0xC0 SHL PUSH2 0xE22 JUMP JUMPDEST PUSH2 0xB36 PUSH8 0x7655F54237B6D879 PUSH1 0xC0 SHL PUSH2 0xE22 JUMP JUMPDEST PUSH2 0xB4A PUSH8 0xDA303F94275AC301 PUSH1 0xC0 SHL PUSH2 0xE22 JUMP JUMPDEST PUSH1 0x0 PUSH20 0xFFFFFFFFFFFFFFFFFFFFFFFFFFFFFFFFFFFFFFFF AND DUP3 PUSH20 0xFFFFFFFFFFFFFFFFFFFFFFFFFFFFFFFFFFFFFFFF AND EQ ISZERO PUSH2 0xBBA JUMPI PUSH1 0x40 MLOAD PUSH32 0x8C379A000000000000000000000000000000000000000000000000000000000 DUP2 MSTORE PUSH1 0x4 ADD PUSH2 0xBB1 SWAP1 PUSH2 0x1269 JUMP JUMPDEST PUSH1 0x40 MLOAD DUP1 SWAP2 SUB SWAP1 REVERT JUMPDEST PUSH2 0xBCE PUSH8 0xD3080CF97BFE3FA7 PUSH1 0xC0 SHL PUSH2 0xE22 JUMP JUMPDEST PUSH2 0xBE2 PUSH8 0xEEF7674E44124ABC PUSH1 0xC0 SHL PUSH2 0xE22 JUMP JUMPDEST DUP1 PUSH1 0x0 DUP1 CALLER PUSH20 0xFFFFFFFFFFFFFFFFFFFFFFFFFFFFFFFFFFFFFFFF AND PUSH20 0xFFFFFFFFFFFFFFFFFFFFFFFFFFFFFFFFFFFFFFFF AND DUP2 MSTORE PUSH1 0x20 ADD SWAP1 DUP2 MSTORE PUSH1 0x20 ADD PUSH1 0x0 KECCAK256 PUSH1 0x0 DUP5 PUSH20 0xFFFFFFFFFFFFFFFFFFFFFFFFFFFFFFFFFFFFFFFF AND PUSH20 0xFFFFFFFFFFFFFFFFFFFFFFFFFFFFFFFFFFFFFFFF AND DUP2 MSTORE PUSH1 0x20 ADD SWAP1 DUP2 MSTORE PUSH1 0x20 ADD PUSH1 0x0 KECCAK256 PUSH1 0x0 DUP3 DUP3 SLOAD PUSH2 0xC6D SWAP2 SWAP1 PUSH2 0x137C JUMP JUMPDEST SWAP3 POP POP DUP2 SWAP1 SSTORE POP PUSH2 0xC88 PUSH8 0x20D55089F55F9EB5 PUSH1 0xC0 SHL PUSH2 0xE22 JUMP JUMPDEST PUSH2 0xC9C PUSH8 0x77EDB151F844899 PUSH1 0xC0 SHL PUSH2 0xE22 JUMP JUMPDEST PUSH1 0x0 PUSH2 0x3E8 DUP3 PUSH2 0xCAC SWAP2 SWAP1 PUSH2 0x134B JUMP JUMPDEST SWAP1 POP PUSH2 0xCC2 PUSH8 0xC727020AF8B8C5A7 PUSH1 0xC0 SHL PUSH2 0xE22 JUMP JUMPDEST DUP1 PUSH1 0x2 PUSH1 0x0 DUP6 PUSH20 0xFFFFFFFFFFFFFFFFFFFFFFFFFFFFFFFFFFFFFFFF AND PUSH20 0xFFFFFFFFFFFFFFFFFFFFFFFFFFFFFFFFFFFFFFFF AND DUP2 MSTORE PUSH1 0x20 ADD SWAP1 DUP2 MSTORE PUSH1 0x20 ADD PUSH1 0x0 KECCAK256 PUSH1 0x0 DUP3 DUP3 SLOAD PUSH2 0xD11 SWAP2 SWAP1 PUSH2 0x12F5 JUMP JUMPDEST SWAP3 POP POP DUP2 SWAP1 SSTORE POP PUSH2 0xD2C PUSH8 0xD3F15C27BA45999E PUSH1 0xC0 SHL PUSH2 0xE22 JUMP JUMPDEST DUP1 PUSH1 0x3 PUSH1 0x0 DUP3 DUP3 SLOAD PUSH2 0xD3E SWAP2 SWAP1 PUSH2 0x12F5 JUMP JUMPDEST SWAP3 POP POP DUP2 SWAP1 SSTORE POP PUSH2 0xD59 PUSH8 0x4106BA80E8A0D469 PUSH1 0xC0 SHL PUSH2 0xE22 JUMP JUMPDEST DUP1 DUP3 PUSH2 0xD65 SWAP2 SWAP1 PUSH2 0x137C JUMP JUMPDEST SWAP2 POP PUSH2 0xD7B PUSH8 0xFA58D86851EB0BB7 PUSH1 0xC0 SHL PUSH2 0xE22 JUMP JUMPDEST PUSH2 0xD8F PUSH8 0x7236E927FD0583E6 PUSH1 0xC0 SHL PUSH2 0xE22 JUMP JUMPDEST DUP3 PUSH20 0xFFFFFFFFFFFFFFFFFFFFFFFFFFFFFFFFFFFFFFFF AND PUSH4 0xA9059CBB CALLER DUP5 PUSH1 0x40 MLOAD DUP4 PUSH4 0xFFFFFFFF AND PUSH1 0xE0 SHL DUP2 MSTORE PUSH1 0x4 ADD PUSH2 0xDCA SWAP3 SWAP2 SWAP1 PUSH2 0x11E0 JUMP JUMPDEST PUSH1 0x20 PUSH1 0x40 MLOAD DUP1 DUP4 SUB DUP2 PUSH1 0x0 DUP8 DUP1 EXTCODESIZE ISZERO DUP1 ISZERO PUSH2 0xDE4 JUMPI PUSH1 0x0 DUP1 REVERT JUMPDEST POP GAS CALL ISZERO DUP1 ISZERO PUSH2 0xDF8 JUMPI RETURNDATASIZE PUSH1 0x0 DUP1 RETURNDATACOPY RETURNDATASIZE PUSH1 0x0 REVERT JUMPDEST POP POP POP POP PUSH1 0x40 MLOAD RETURNDATASIZE PUSH1 0x1F NOT PUSH1 0x1F DUP3 ADD AND DUP3 ADD DUP1 PUSH1 0x40 MSTORE POP DUP2 ADD SWAP1 PUSH2 0xE1C SWAP2 SWAP1 PUSH2 0xF05 JUMP JUMPDEST POP POP POP POP JUMP JUMPDEST POP JUMP JUMPDEST PUSH1 0x0 DUP2 CALLDATALOAD SWAP1 POP PUSH2 0xE34 DUP2 PUSH2 0x1468 JUMP JUMPDEST SWAP3 SWAP2 POP POP JUMP JUMPDEST PUSH1 0x0 DUP2 MLOAD SWAP1 POP PUSH2 0xE49 DUP2 PUSH2 0x147F JUMP JUMPDEST SWAP3 SWAP2 POP POP JUMP JUMPDEST PUSH1 0x0 DUP2 CALLDATALOAD SWAP1 POP PUSH2 0xE5E DUP2 PUSH2 0x1496 JUMP JUMPDEST SWAP3 SWAP2 POP POP JUMP JUMPDEST PUSH1 0x0 PUSH1 0x20 DUP3 DUP5 SUB SLT ISZERO PUSH2 0xE76 JUMPI PUSH1 0x0 DUP1 REVERT JUMPDEST PUSH1 0x0 PUSH2 0xE84 DUP5 DUP3 DUP6 ADD PUSH2 0xE25 JUMP JUMPDEST SWAP2 POP POP SWAP3 SWAP2 POP POP JUMP JUMPDEST PUSH1 0x0 DUP1 PUSH1 0x40 DUP4 DUP6 SUB SLT ISZERO PUSH2 0xEA0 JUMPI PUSH1 0x0 DUP1 REVERT JUMPDEST PUSH1 0x0 PUSH2 0xEAE DUP6 DUP3 DUP7 ADD PUSH2 0xE25 JUMP JUMPDEST SWAP3 POP POP PUSH1 0x20 PUSH2 0xEBF DUP6 DUP3 DUP7 ADD PUSH2 0xE25 JUMP JUMPDEST SWAP2 POP POP SWAP3 POP SWAP3 SWAP1 POP JUMP JUMPDEST PUSH1 0x0 DUP1 PUSH1 0x40 DUP4 DUP6 SUB SLT ISZERO PUSH2 0xEDC JUMPI PUSH1 0x0 DUP1 REVERT JUMPDEST PUSH1 0x0 PUSH2 0xEEA DUP6 DUP3 DUP7 ADD PUSH2 0xE25 JUMP JUMPDEST SWAP3 POP POP PUSH1 0x20 PUSH2 0xEFB DUP6 DUP3 DUP7 ADD PUSH2 0xE4F JUMP JUMPDEST SWAP2 POP POP SWAP3 POP SWAP3 SWAP1 POP JUMP JUMPDEST PUSH1 0x0 PUSH1 0x20 DUP3 DUP5 SUB SLT ISZERO PUSH2 0xF17 JUMPI PUSH1 0x0 DUP1 REVERT JUMPDEST PUSH1 0x0 PUSH2 0xF25 DUP5 DUP3 DUP6 ADD PUSH2 0xE3A JUMP JUMPDEST SWAP2 POP POP SWAP3 SWAP2 POP POP JUMP JUMPDEST PUSH2 0xF37 DUP2 PUSH2 0x13C2 JUMP JUMPDEST DUP3 MSTORE POP POP JUMP JUMPDEST PUSH2 0xF46 DUP2 PUSH2 0x13B0 JUMP JUMPDEST DUP3 MSTORE POP POP JUMP JUMPDEST PUSH1 0x0 PUSH2 0xF59 PUSH1 0x26 DUP4 PUSH2 0x12E4 JUMP JUMPDEST SWAP2 POP PUSH32 0x4F6E6C7920746865206F776E65722063616E2063616C6C20746869732066756E PUSH1 0x0 DUP4 ADD MSTORE PUSH32 0x6374696F6E2E0000000000000000000000000000000000000000000000000000 PUSH1 0x20 DUP4 ADD MSTORE PUSH1 0x40 DUP3 ADD SWAP1 POP SWAP2 SWAP1 POP JUMP JUMPDEST PUSH1 0x0 PUSH2 0xFBF PUSH1 0x25 DUP4 PUSH2 0x12E4 JUMP JUMPDEST SWAP2 POP PUSH32 0x4465706F73697420616D6F756E74206D75737420626520677265617465722074 PUSH1 0x0 DUP4 ADD MSTORE PUSH32 0x68616E2030000000000000000000000000000000000000000000000000000000 PUSH1 0x20 DUP4 ADD MSTORE PUSH1 0x40 DUP3 ADD SWAP1 POP SWAP2 SWAP1 POP JUMP JUMPDEST PUSH1 0x0 PUSH2 0x1025 PUSH1 0x2B DUP4 PUSH2 0x12E4 JUMP JUMPDEST SWAP2 POP PUSH32 0x5468657265206E6F20656E6F7567682074617820666F7220796F752077697468 PUSH1 0x0 DUP4 ADD MSTORE PUSH32 0x207468697320746F6B656E000000000000000000000000000000000000000000 PUSH1 0x20 DUP4 ADD MSTORE PUSH1 0x40 DUP3 ADD SWAP1 POP SWAP2 SWAP1 POP JUMP JUMPDEST PUSH1 0x0 PUSH2 0x108B PUSH1 0x1B DUP4 PUSH2 0x12E4 JUMP JUMPDEST SWAP2 POP PUSH32 0x546F6B656E2061646472657373206D7573742062652076616C69640000000000 PUSH1 0x0 DUP4 ADD MSTORE PUSH1 0x20 DUP3 ADD SWAP1 POP SWAP2 SWAP1 POP JUMP JUMPDEST PUSH1 0x0 PUSH2 0x10CB PUSH1 0x28 DUP4 PUSH2 0x12E4 JUMP JUMPDEST SWAP2 POP PUSH32 0x5769746864726177616C20616D6F756E74206D75737420626520677265617465 PUSH1 0x0 DUP4 ADD MSTORE PUSH32 0x72207468616E2030000000000000000000000000000000000000000000000000 PUSH1 0x20 DUP4 ADD MSTORE PUSH1 0x40 DUP3 ADD SWAP1 POP SWAP2 SWAP1 POP JUMP JUMPDEST PUSH1 0x0 PUSH2 0x1131 PUSH1 0x15 DUP4 PUSH2 0x12E4 JUMP JUMPDEST SWAP2 POP PUSH32 0x52756E206F7574206F6620796F7572206D6F6E65790000000000000000000000 PUSH1 0x0 DUP4 ADD MSTORE PUSH1 0x20 DUP3 ADD SWAP1 POP SWAP2 SWAP1 POP JUMP JUMPDEST PUSH2 0x116D DUP2 PUSH2 0x1400 JUMP JUMPDEST DUP3 MSTORE POP POP JUMP JUMPDEST PUSH1 0x0 PUSH1 0x20 DUP3 ADD SWAP1 POP PUSH2 0x1188 PUSH1 0x0 DUP4 ADD DUP5 PUSH2 0xF3D JUMP JUMPDEST SWAP3 SWAP2 POP POP JUMP JUMPDEST PUSH1 0x0 PUSH1 0x20 DUP3 ADD SWAP1 POP PUSH2 0x11A3 PUSH1 0x0 DUP4 ADD DUP5 PUSH2 0xF2E JUMP JUMPDEST SWAP3 SWAP2 POP POP JUMP JUMPDEST PUSH1 0x0 PUSH1 0x60 DUP3 ADD SWAP1 POP PUSH2 0x11BE PUSH1 0x0 DUP4 ADD DUP7 PUSH2 0xF3D JUMP JUMPDEST PUSH2 0x11CB PUSH1 0x20 DUP4 ADD DUP6 PUSH2 0xF3D JUMP JUMPDEST PUSH2 0x11D8 PUSH1 0x40 DUP4 ADD DUP5 PUSH2 0x1164 JUMP JUMPDEST SWAP5 SWAP4 POP POP POP POP JUMP JUMPDEST PUSH1 0x0 PUSH1 0x40 DUP3 ADD SWAP1 POP PUSH2 0x11F5 PUSH1 0x0 DUP4 ADD DUP6 PUSH2 0xF3D JUMP JUMPDEST PUSH2 0x1202 PUSH1 0x20 DUP4 ADD DUP5 PUSH2 0x1164 JUMP JUMPDEST SWAP4 SWAP3 POP POP POP JUMP JUMPDEST PUSH1 0x0 PUSH1 0x20 DUP3 ADD SWAP1 POP DUP2 DUP2 SUB PUSH1 0x0 DUP4 ADD MSTORE PUSH2 0x1222 DUP2 PUSH2 0xF4C JUMP JUMPDEST SWAP1 POP SWAP2 SWAP1 POP JUMP JUMPDEST PUSH1 0x0 PUSH1 0x20 DUP3 ADD SWAP1 POP DUP2 DUP2 SUB PUSH1 0x0 DUP4 ADD MSTORE PUSH2 0x1242 DUP2 PUSH2 0xFB2 JUMP JUMPDEST SWAP1 POP SWAP2 SWAP1 POP JUMP JUMPDEST PUSH1 0x0 PUSH1 0x20 DUP3 ADD SWAP1 POP DUP2 DUP2 SUB PUSH1 0x0 DUP4 ADD MSTORE PUSH2 0x1262 DUP2 PUSH2 0x1018 JUMP JUMPDEST SWAP1 POP SWAP2 SWAP1 POP JUMP JUMPDEST PUSH1 0x0 PUSH1 0x20 DUP3 ADD SWAP1 POP DUP2 DUP2 SUB PUSH1 0x0 DUP4 ADD MSTORE PUSH2 0x1282 DUP2 PUSH2 0x107E JUMP JUMPDEST SWAP1 POP SWAP2 SWAP1 POP JUMP JUMPDEST PUSH1 0x0 PUSH1 0x20 DUP3 ADD SWAP1 POP DUP2 DUP2 SUB PUSH1 0x0 DUP4 ADD MSTORE PUSH2 0x12A2 DUP2 PUSH2 0x10BE JUMP JUMPDEST SWAP1 POP SWAP2 SWAP1 POP JUMP JUMPDEST PUSH1 0x0 PUSH1 0x20 DUP3 ADD SWAP1 POP DUP2 DUP2 SUB PUSH1 0x0 DUP4 ADD MSTORE PUSH2 0x12C2 DUP2 PUSH2 0x1124 JUMP JUMPDEST SWAP1 POP SWAP2 SWAP1 POP JUMP JUMPDEST PUSH1 0x0 PUSH1 0x20 DUP3 ADD SWAP1 POP PUSH2 0x12DE PUSH1 0x0 DUP4 ADD DUP5 PUSH2 0x1164 JUMP JUMPDEST SWAP3 SWAP2 POP POP JUMP JUMPDEST PUSH1 0x0 DUP3 DUP3 MSTORE PUSH1 0x20 DUP3 ADD SWAP1 POP SWAP3 SWAP2 POP POP JUMP JUMPDEST PUSH1 0x0 PUSH2 0x1300 DUP3 PUSH2 0x1400 JUMP JUMPDEST SWAP2 POP PUSH2 0x130B DUP4 PUSH2 0x1400 JUMP JUMPDEST SWAP3 POP DUP3 PUSH32 0xFFFFFFFFFFFFFFFFFFFFFFFFFFFFFFFFFFFFFFFFFFFFFFFFFFFFFFFFFFFFFFFF SUB DUP3 GT ISZERO PUSH2 0x1340 JUMPI PUSH2 0x133F PUSH2 0x140A JUMP JUMPDEST JUMPDEST DUP3 DUP3 ADD SWAP1 POP SWAP3 SWAP2 POP POP JUMP JUMPDEST PUSH1 0x0 PUSH2 0x1356 DUP3 PUSH2 0x1400 JUMP JUMPDEST SWAP2 POP PUSH2 0x1361 DUP4 PUSH2 0x1400 JUMP JUMPDEST SWAP3 POP DUP3 PUSH2 0x1371 JUMPI PUSH2 0x1370 PUSH2 0x1439 JUMP JUMPDEST JUMPDEST DUP3 DUP3 DIV SWAP1 POP SWAP3 SWAP2 POP POP JUMP JUMPDEST PUSH1 0x0 PUSH2 0x1387 DUP3 PUSH2 0x1400 JUMP JUMPDEST SWAP2 POP PUSH2 0x1392 DUP4 PUSH2 0x1400 JUMP JUMPDEST SWAP3 POP DUP3 DUP3 LT ISZERO PUSH2 0x13A5 JUMPI PUSH2 0x13A4 PUSH2 0x140A JUMP JUMPDEST JUMPDEST DUP3 DUP3 SUB SWAP1 POP SWAP3 SWAP2 POP POP JUMP JUMPDEST PUSH1 0x0 PUSH2 0x13BB DUP3 PUSH2 0x13E0 JUMP JUMPDEST SWAP1 POP SWAP2 SWAP1 POP JUMP JUMPDEST PUSH1 0x0 PUSH2 0x13CD DUP3 PUSH2 0x13E0 JUMP JUMPDEST SWAP1 POP SWAP2 SWAP1 POP JUMP JUMPDEST PUSH1 0x0 DUP2 ISZERO ISZERO SWAP1 POP SWAP2 SWAP1 POP JUMP JUMPDEST PUSH1 0x0 PUSH20 0xFFFFFFFFFFFFFFFFFFFFFFFFFFFFFFFFFFFFFFFF DUP3 AND SWAP1 POP SWAP2 SWAP1 POP JUMP JUMPDEST PUSH1 0x0 DUP2 SWAP1 POP SWAP2 SWAP1 POP JUMP JUMPDEST PUSH32 0x4E487B7100000000000000000000000000000000000000000000000000000000 PUSH1 0x0 MSTORE PUSH1 0x11 PUSH1 0x4 MSTORE PUSH1 0x24 PUSH1 0x0 REVERT JUMPDEST PUSH32 0x4E487B7100000000000000000000000000000000000000000000000000000000 PUSH1 0x0 MSTORE PUSH1 0x12 PUSH1 0x4 MSTORE PUSH1 0x24 PUSH1 0x0 REVERT JUMPDEST PUSH2 0x1471 DUP2 PUSH2 0x13B0 JUMP JUMPDEST DUP2 EQ PUSH2 0x147C JUMPI PUSH1 0x0 DUP1 REVERT JUMPDEST POP JUMP JUMPDEST PUSH2 0x1488 DUP2 PUSH2 0x13D4 JUMP JUMPDEST DUP2 EQ PUSH2 0x1493 JUMPI PUSH1 0x0 DUP1 REVERT JUMPDEST POP JUMP JUMPDEST PUSH2 0x149F DUP2 PUSH2 0x1400 JUMP JUMPDEST DUP2 EQ PUSH2 0x14AA JUMPI PUSH1 0x0 DUP1 REVERT JUMPDEST POP JUMP INVALID LOG2 PUSH5 0x6970667358 0x22 SLT KECCAK256 0xD0 PUSH20 0x30A022ABC8A8B4C7B9B10A8C8F373EFC53776980 0xC LOG3 SWAP7 PUSH14 0xEEED271675CF64736F6C63430008 STOP STOP CALLER "},"methodIdentifiers":{"SAFEOWNER()":"5b0a296a","Totaltax()":"3e38b80d","balanceOf(address)":"70a08231","balances(address,address)":"c23f001f","deposit(address,uint256)":"47e7ef24","owner()":"8da5cb5b","takeFee(address)":"a5bf8ec6","tokenFee(address)":"f348f4fc","withdraw(address,uint256)":"f3fef3a3"}}}}}