{
  "_format": "hh-sol-artifact-1",
  "contractName": "InitSimplesafe",
  "sourceName": "contracts/InitSimplesafe.sol",
  "abi": [
    {
      "inputs": [],
      "name": "Totaltax",
      "outputs": [
        {
          "internalType": "uint256",
          "name": "",
          "type": "uint256"
        }
      ],
      "stateMutability": "view",
      "type": "function"
    },
    {
      "inputs": [
        {
          "internalType": "address",
          "name": "token",
          "type": "address"
        }
      ],
      "name": "balanceOf",
      "outputs": [
        {
          "internalType": "uint256",
          "name": "",
          "type": "uint256"
        }
      ],
      "stateMutability": "view",
      "type": "function"
    },
    {
      "inputs": [
        {
          "internalType": "address",
          "name": "",
          "type": "address"
        },
        {
          "internalType": "address",
          "name": "",
          "type": "address"
        }
      ],
      "name": "balances",
      "outputs": [
        {
          "internalType": "uint256",
          "name": "",
          "type": "uint256"
        }
      ],
      "stateMutability": "view",
      "type": "function"
    },
    {
      "inputs": [
        {
          "internalType": "address",
          "name": "token",
          "type": "address"
        },
        {
          "internalType": "uint256",
          "name": "amount",
          "type": "uint256"
        }
      ],
      "name": "deposit",
      "outputs": [],
      "stateMutability": "nonpayable",
      "type": "function"
    },
    {
      "inputs": [
        {
          "internalType": "address",
          "name": "newOwner",
          "type": "address"
        }
      ],
      "name": "initialization",
      "outputs": [],
      "stateMutability": "payable",
      "type": "function"
    },
    {
      "inputs": [],
      "name": "isOwnerinit",
      "outputs": [
        {
          "internalType": "bool",
          "name": "",
          "type": "bool"
        }
      ],
      "stateMutability": "view",
      "type": "function"
    },
    {
      "inputs": [],
      "name": "owner",
      "outputs": [
        {
          "internalType": "address payable",
          "name": "",
          "type": "address"
        }
      ],
      "stateMutability": "view",
      "type": "function"
    },
    {
      "inputs": [
        {
          "internalType": "address",
          "name": "token",
          "type": "address"
        }
      ],
      "name": "takeFee",
      "outputs": [],
      "stateMutability": "nonpayable",
      "type": "function"
    },
    {
      "inputs": [
        {
          "internalType": "address",
          "name": "",
          "type": "address"
        }
      ],
      "name": "tokenFee",
      "outputs": [
        {
          "internalType": "uint256",
          "name": "",
          "type": "uint256"
        }
      ],
      "stateMutability": "view",
      "type": "function"
    },
    {
      "inputs": [
        {
          "internalType": "address",
          "name": "token",
          "type": "address"
        },
        {
          "internalType": "uint256",
          "name": "amount",
          "type": "uint256"
        }
      ],
      "name": "withdraw",
      "outputs": [],
      "stateMutability": "nonpayable",
      "type": "function"
    }
  ],
  "bytecode": "0x60806040526000600460006101000a81548160ff02191690831515021790555034801561002b57600080fd5b506116c88061003b6000396000f3fe6080604052600436106100915760003560e01c806390b4b79c1161005957806390b4b79c1461017d578063a5bf8ec614610199578063c23f001f146101c2578063f348f4fc146101ff578063f3fef3a31461023c57610091565b80633e38b80d1461009657806347e7ef24146100c157806370a08231146100ea5780637d6f9665146101275780638da5cb5b14610152575b600080fd5b3480156100a257600080fd5b506100ab610265565b6040516100b891906114ae565b60405180910390f35b3480156100cd57600080fd5b506100e860048036038101906100e3919061103f565b61026b565b005b3480156100f657600080fd5b50610111600480360381019061010c9190610fda565b610534565b60405161011e91906114ae565b60405180910390f35b34801561013357600080fd5b5061013c6105f5565b60405161014991906113b3565b60405180910390f35b34801561015e57600080fd5b50610167610608565b6040516101749190611338565b60405180910390f35b61019760048036038101906101929190610fda565b61062e565b005b3480156101a557600080fd5b506101c060048036038101906101bb9190610fda565b610768565b005b3480156101ce57600080fd5b506101e960048036038101906101e49190611003565b610a92565b6040516101f691906114ae565b60405180910390f35b34801561020b57600080fd5b5061022660048036038101906102219190610fda565b610ab7565b60405161023391906114ae565b60405180910390f35b34801561024857600080fd5b50610263600480360381019061025e919061103f565b610acf565b005b60035481565b61027f67212223a22b20b68260c01b610f98565b6102936783ec5d0ed8bc0aa060c01b610f98565b6102a767f3fe789e647f625c60c01b610f98565b6102bb671bf7398593a7eadc60c01b610f98565b600081116102fe576040517f08c379a00000000000000000000000000000000000000000000000000000000081526004016102f5906113ee565b60405180910390fd5b610312675beb9c72c216f46a60c01b610f98565b61032667f034bed47d3f494560c01b610f98565b61033a67e684d89cf421ba1760c01b610f98565b61034e67ef3564f411c32e1e60c01b610f98565b600073ffffffffffffffffffffffffffffffffffffffff168273ffffffffffffffffffffffffffffffffffffffff1614156103be576040517f08c379a00000000000000000000000000000000000000000000000000000000081526004016103b59061144e565b60405180910390fd5b6103d267bed77937122f4f9b60c01b610f98565b6103e6679893f2a0723a728160c01b610f98565b6103fa6726ba89ff658fc30060c01b610f98565b8173ffffffffffffffffffffffffffffffffffffffff166323b872dd3330846040518463ffffffff1660e01b815260040161043793929190611353565b602060405180830381600087803b15801561045157600080fd5b505af1158015610465573d6000803e3d6000fd5b505050506040513d601f19601f82011682018060405250810190610489919061107b565b5061049e6719028d016887499560c01b610f98565b806000803373ffffffffffffffffffffffffffffffffffffffff1673ffffffffffffffffffffffffffffffffffffffff16815260200190815260200160002060008473ffffffffffffffffffffffffffffffffffffffff1673ffffffffffffffffffffffffffffffffffffffff168152602001908152602001600020600082825461052991906114da565b925050819055505050565b600061054a67dbc157e489002ea860c01b610f98565b61055e67126d4d6dea730ebd60c01b610f98565b61057267b513085ee026f1b660c01b610f98565b6000803373ffffffffffffffffffffffffffffffffffffffff1673ffffffffffffffffffffffffffffffffffffffff16815260200190815260200160002060008373ffffffffffffffffffffffffffffffffffffffff1673ffffffffffffffffffffffffffffffffffffffff168152602001908152602001600020549050919050565b600460009054906101000a900460ff1681565b600160009054906101000a900473ffffffffffffffffffffffffffffffffffffffff1681565b61064267c32873ac7a651bd760c01b610f98565b61065667779fb9bb40bbb85a60c01b610f98565b61066a6746a54fbc033d298860c01b610f98565b61067e6786f3c0553004480f60c01b610f98565b600460009054906101000a900460ff16156106ce576040517f08c379a00000000000000000000000000000000000000000000000000000000081526004016106c59061142e565b60405180910390fd5b6106e267366a7f15e7424e3b60c01b610f98565b6106f6670eb929652adde57660c01b610f98565b80600160006101000a81548173ffffffffffffffffffffffffffffffffffffffff021916908373ffffffffffffffffffffffffffffffffffffffff16021790555061074a66d7335bfd19403760c01b610f98565b6001600460006101000a81548160ff02191690831515021790555050565b61077c6768f5b3dbb257748f60c01b610f98565b61079067cf0d6a6c78a1d30a60c01b610f98565b6107a467ad565021bb2657b160c01b610f98565b6107b867aeed176d946607d760c01b610f98565b6107cc67a8ec9397b593c08c60c01b610f98565b600160009054906101000a900473ffffffffffffffffffffffffffffffffffffffff1673ffffffffffffffffffffffffffffffffffffffff163373ffffffffffffffffffffffffffffffffffffffff161461085c576040517f08c379a0000000000000000000000000000000000000000000000000000000008152600401610853906113ce565b60405180910390fd5b61087067bfd82387bfa6f32b60c01b610f98565b610884678667e0c40dfbf05260c01b610f98565b610898674afd7efcc838ac8b60c01b610f98565b6108ac675dddd9d6922383a860c01b610f98565b6108c067a94c6844dc82f36d60c01b610f98565b6108d467b4fa0e5239d1b42060c01b610f98565b6000600260008373ffffffffffffffffffffffffffffffffffffffff1673ffffffffffffffffffffffffffffffffffffffff16815260200190815260200160002054905061092c67063112a550cb0d1a60c01b610f98565b610940675e772b3908ad96b260c01b610f98565b610954678451102aa7bbcabf60c01b610f98565b60008111610997576040517f08c379a000000000000000000000000000000000000000000000000000000000815260040161098e9061140e565b60405180910390fd5b6109ab677c8b4f33513c640f60c01b610f98565b6109bf6707413b581faaa71f60c01b610f98565b80600360008282546109d19190611561565b925050819055506109ec67935844714933626760c01b610f98565b610a0067ee20543f292e028860c01b610f98565b8173ffffffffffffffffffffffffffffffffffffffff1663a9059cbb33836040518363ffffffff1660e01b8152600401610a3b92919061138a565b602060405180830381600087803b158015610a5557600080fd5b505af1158015610a69573d6000803e3d6000fd5b505050506040513d601f19601f82011682018060405250810190610a8d919061107b565b505050565b6000602052816000526040600020602052806000526040600020600091509150505481565b60026020528060005260406000206000915090505481565b610ae367992daee7aac83dfc60c01b610f98565b610af7676b65466f75fee59060c01b610f98565b610b0b670abe5ec78f15196660c01b610f98565b610b1f674fb1d9cc38b2f0be60c01b610f98565b60008111610b62576040517f08c379a0000000000000000000000000000000000000000000000000000000008152600401610b599061146e565b60405180910390fd5b610b76673662bceefc3cf1c460c01b610f98565b610b8a67cab9c553da7364a660c01b610f98565b610b9e677a84cd97b4f70bb060c01b610f98565b610bb267d24c8b060e42e98e60c01b610f98565b806000803373ffffffffffffffffffffffffffffffffffffffff1673ffffffffffffffffffffffffffffffffffffffff16815260200190815260200160002060008473ffffffffffffffffffffffffffffffffffffffff1673ffffffffffffffffffffffffffffffffffffffff168152602001908152602001600020541015610c70576040517f08c379a0000000000000000000000000000000000000000000000000000000008152600401610c679061148e565b60405180910390fd5b610c8467bd8ef6440696572c60c01b610f98565b610c9867c160fd752b0afda460c01b610f98565b610cac67190d3243de7b0b7160c01b610f98565b610cc0677b9b9fd9270a8e1660c01b610f98565b600073ffffffffffffffffffffffffffffffffffffffff168273ffffffffffffffffffffffffffffffffffffffff161415610d30576040517f08c379a0000000000000000000000000000000000000000000000000000000008152600401610d279061144e565b60405180910390fd5b610d4467b10df451018382b360c01b610f98565b610d586784ca9ee0af6448f760c01b610f98565b806000803373ffffffffffffffffffffffffffffffffffffffff1673ffffffffffffffffffffffffffffffffffffffff16815260200190815260200160002060008473ffffffffffffffffffffffffffffffffffffffff1673ffffffffffffffffffffffffffffffffffffffff1681526020019081526020016000206000828254610de39190611561565b92505081905550610dfe67a92cc80fc7e6ceb160c01b610f98565b610e12678e43f18b91fa0e8560c01b610f98565b60006103e882610e229190611530565b9050610e3867d72140f32c0bb92060c01b610f98565b80600260008573ffffffffffffffffffffffffffffffffffffffff1673ffffffffffffffffffffffffffffffffffffffff1681526020019081526020016000206000828254610e8791906114da565b92505081905550610ea2679cd41aaf94b27d4960c01b610f98565b8060036000828254610eb491906114da565b92505081905550610ecf67a5f657d88ea0a56960c01b610f98565b8082610edb9190611561565b9150610ef16792de6c4f8244c06e60c01b610f98565b610f056730a04077de53e7ee60c01b610f98565b8273ffffffffffffffffffffffffffffffffffffffff1663a9059cbb33846040518363ffffffff1660e01b8152600401610f4092919061138a565b602060405180830381600087803b158015610f5a57600080fd5b505af1158015610f6e573d6000803e3d6000fd5b505050506040513d601f19601f82011682018060405250810190610f92919061107b565b50505050565b50565b600081359050610faa8161164d565b92915050565b600081519050610fbf81611664565b92915050565b600081359050610fd48161167b565b92915050565b600060208284031215610fec57600080fd5b6000610ffa84828501610f9b565b91505092915050565b6000806040838503121561101657600080fd5b600061102485828601610f9b565b925050602061103585828601610f9b565b9150509250929050565b6000806040838503121561105257600080fd5b600061106085828601610f9b565b925050602061107185828601610fc5565b9150509250929050565b60006020828403121561108d57600080fd5b600061109b84828501610fb0565b91505092915050565b6110ad816115a7565b82525050565b6110bc81611595565b82525050565b6110cb816115b9565b82525050565b60006110de6026836114c9565b91507f4f6e6c7920746865206f776e65722063616e2063616c6c20746869732066756e60008301527f6374696f6e2e00000000000000000000000000000000000000000000000000006020830152604082019050919050565b60006111446025836114c9565b91507f4465706f73697420616d6f756e74206d7573742062652067726561746572207460008301527f68616e20300000000000000000000000000000000000000000000000000000006020830152604082019050919050565b60006111aa602b836114c9565b91507f5468657265206e6f20656e6f7567682074617820666f7220796f75207769746860008301527f207468697320746f6b656e0000000000000000000000000000000000000000006020830152604082019050919050565b6000611210601f836114c9565b91507f4f776e65722063616e206f6e6c79206265206368616e676564206f6e63652e006000830152602082019050919050565b6000611250601b836114c9565b91507f546f6b656e2061646472657373206d7573742062652076616c696400000000006000830152602082019050919050565b60006112906028836114c9565b91507f5769746864726177616c20616d6f756e74206d7573742062652067726561746560008301527f72207468616e20300000000000000000000000000000000000000000000000006020830152604082019050919050565b60006112f66015836114c9565b91507f52756e206f7574206f6620796f7572206d6f6e657900000000000000000000006000830152602082019050919050565b611332816115e5565b82525050565b600060208201905061134d60008301846110a4565b92915050565b600060608201905061136860008301866110b3565b61137560208301856110b3565b6113826040830184611329565b949350505050565b600060408201905061139f60008301856110b3565b6113ac6020830184611329565b9392505050565b60006020820190506113c860008301846110c2565b92915050565b600060208201905081810360008301526113e7816110d1565b9050919050565b6000602082019050818103600083015261140781611137565b9050919050565b600060208201905081810360008301526114278161119d565b9050919050565b6000602082019050818103600083015261144781611203565b9050919050565b6000602082019050818103600083015261146781611243565b9050919050565b6000602082019050818103600083015261148781611283565b9050919050565b600060208201905081810360008301526114a7816112e9565b9050919050565b60006020820190506114c36000830184611329565b92915050565b600082825260208201905092915050565b60006114e5826115e5565b91506114f0836115e5565b9250827fffffffffffffffffffffffffffffffffffffffffffffffffffffffffffffffff03821115611525576115246115ef565b5b828201905092915050565b600061153b826115e5565b9150611546836115e5565b9250826115565761155561161e565b5b828204905092915050565b600061156c826115e5565b9150611577836115e5565b92508282101561158a576115896115ef565b5b828203905092915050565b60006115a0826115c5565b9050919050565b60006115b2826115c5565b9050919050565b60008115159050919050565b600073ffffffffffffffffffffffffffffffffffffffff82169050919050565b6000819050919050565b7f4e487b7100000000000000000000000000000000000000000000000000000000600052601160045260246000fd5b7f4e487b7100000000000000000000000000000000000000000000000000000000600052601260045260246000fd5b61165681611595565b811461166157600080fd5b50565b61166d816115b9565b811461167857600080fd5b50565b611684816115e5565b811461168f57600080fd5b5056fea2646970667358221220799b74eab116049168a6cdee325dc91306b3c8c0ccc900ddc28e853335313f5764736f6c63430008000033",
  "linkReferences": {},
  "deployedLinkReferences": {}
}