{
  "_format": "hh-sol-artifact-1",
  "contractName": "NewSimplesafe",
  "sourceName": "contracts/NewSimplesafe.sol",
  "abi": [
    {
      "inputs": [
        {
          "internalType": "address",
          "name": "_owner",
          "type": "address"
        }
      ],
      "stateMutability": "payable",
      "type": "constructor"
    },
    {
      "inputs": [],
      "name": "SAFEOWNER",
      "outputs": [
        {
          "internalType": "address",
          "name": "",
          "type": "address"
        }
      ],
      "stateMutability": "view",
      "type": "function"
    },
    {
      "inputs": [],
      "name": "Totaltax",
      "outputs": [
        {
          "internalType": "uint256",
          "name": "",
          "type": "uint256"
        }
      ],
      "stateMutability": "view",
      "type": "function"
    },
    {
      "inputs": [
        {
          "internalType": "address",
          "name": "token",
          "type": "address"
        }
      ],
      "name": "balanceOf",
      "outputs": [
        {
          "internalType": "uint256",
          "name": "",
          "type": "uint256"
        }
      ],
      "stateMutability": "view",
      "type": "function"
    },
    {
      "inputs": [
        {
          "internalType": "address",
          "name": "",
          "type": "address"
        },
        {
          "internalType": "address",
          "name": "",
          "type": "address"
        }
      ],
      "name": "balances",
      "outputs": [
        {
          "internalType": "uint256",
          "name": "",
          "type": "uint256"
        }
      ],
      "stateMutability": "view",
      "type": "function"
    },
    {
      "inputs": [
        {
          "internalType": "address",
          "name": "token",
          "type": "address"
        },
        {
          "internalType": "uint256",
          "name": "amount",
          "type": "uint256"
        }
      ],
      "name": "deposit",
      "outputs": [],
      "stateMutability": "nonpayable",
      "type": "function"
    },
    {
      "inputs": [],
      "name": "owner",
      "outputs": [
        {
          "internalType": "address payable",
          "name": "",
          "type": "address"
        }
      ],
      "stateMutability": "view",
      "type": "function"
    },
    {
      "inputs": [
        {
          "internalType": "address",
          "name": "token",
          "type": "address"
        }
      ],
      "name": "takeFee",
      "outputs": [],
      "stateMutability": "nonpayable",
      "type": "function"
    },
    {
      "inputs": [
        {
          "internalType": "address",
          "name": "",
          "type": "address"
        }
      ],
      "name": "tokenFee",
      "outputs": [
        {
          "internalType": "uint256",
          "name": "",
          "type": "uint256"
        }
      ],
      "stateMutability": "view",
      "type": "function"
    },
    {
      "inputs": [
        {
          "internalType": "address",
          "name": "token",
          "type": "address"
        },
        {
          "internalType": "uint256",
          "name": "amount",
          "type": "uint256"
        }
      ],
      "name": "withdraw",
      "outputs": [],
      "stateMutability": "nonpayable",
      "type": "function"
    }
  ],
  "bytecode": "0x608060405260405162001630380380620016308339818101604052810190620000299190620000c3565b620000456764d3716ec8ea3d2760c01b620000a960201b60201c565b6200006167c26d8f051727398e60c01b620000a960201b60201c565b80600160006101000a81548173ffffffffffffffffffffffffffffffffffffffff021916908373ffffffffffffffffffffffffffffffffffffffff160217905550506200013d565b50565b600081519050620000bd8162000123565b92915050565b600060208284031215620000d657600080fd5b6000620000e684828501620000ac565b91505092915050565b6000620000fc8262000103565b9050919050565b600073ffffffffffffffffffffffffffffffffffffffff82169050919050565b6200012e81620000ef565b81146200013a57600080fd5b50565b6114e3806200014d6000396000f3fe608060405234801561001057600080fd5b50600436106100935760003560e01c80638da5cb5b116100665780638da5cb5b14610120578063a5bf8ec61461013e578063c23f001f1461015a578063f348f4fc1461018a578063f3fef3a3146101ba57610093565b80633e38b80d1461009857806347e7ef24146100b65780635b0a296a146100d257806370a08231146100f0575b600080fd5b6100a06101d6565b6040516100ad91906112c9565b60405180910390f35b6100d060048036038101906100cb9190610ec9565b6101dc565b005b6100da6104a5565b6040516100e79190611173565b60405180910390f35b61010a60048036038101906101059190610e64565b61050b565b60405161011791906112c9565b60405180910390f35b6101286105cc565b604051610135919061118e565b60405180910390f35b61015860048036038101906101539190610e64565b6105f2565b005b610174600480360381019061016f9190610e8d565b61091c565b60405161018191906112c9565b60405180910390f35b6101a4600480360381019061019f9190610e64565b610941565b6040516101b191906112c9565b60405180910390f35b6101d460048036038101906101cf9190610ec9565b610959565b005b60035481565b6101f06742ff15c5a78e3a3660c01b610e22565b61020467ab5b27a8f24a34c660c01b610e22565b61021867752608ba51062ffc60c01b610e22565b61022c67f858f60ec4bdb28360c01b610e22565b6000811161026f576040517f08c379a000000000000000000000000000000000000000000000000000000000815260040161026690611229565b60405180910390fd5b610283670c4810258dc9e3e360c01b610e22565b61029767205f7cfae5a7974c60c01b610e22565b6102ab67dc6dd8a36d7dff4660c01b610e22565b6102bf67d58daf945ea159ab60c01b610e22565b600073ffffffffffffffffffffffffffffffffffffffff168273ffffffffffffffffffffffffffffffffffffffff16141561032f576040517f08c379a000000000000000000000000000000000000000000000000000000000815260040161032690611269565b60405180910390fd5b61034367d5f389fc2f765ff460c01b610e22565b610357677c74b59e4581698a60c01b610e22565b61036b678e92b0a60abc3c4660c01b610e22565b8173ffffffffffffffffffffffffffffffffffffffff166323b872dd3330846040518463ffffffff1660e01b81526004016103a8939291906111a9565b602060405180830381600087803b1580156103c257600080fd5b505af11580156103d6573d6000803e3d6000fd5b505050506040513d601f19601f820116820180604052508101906103fa9190610f05565b5061040f673c4fbe07d3fb3e0060c01b610e22565b806000803373ffffffffffffffffffffffffffffffffffffffff1673ffffffffffffffffffffffffffffffffffffffff16815260200190815260200160002060008473ffffffffffffffffffffffffffffffffffffffff1673ffffffffffffffffffffffffffffffffffffffff168152602001908152602001600020600082825461049a91906112f5565b925050819055505050565b60006104bb6788037edeae76af1f60c01b610e22565b6104cf67f9fd36d0e35cb76260c01b610e22565b6104e36770e89a609090cf6b60c01b610e22565b600160009054906101000a900473ffffffffffffffffffffffffffffffffffffffff16905090565b600061052167bc5fba23bf64d9cb60c01b610e22565b610535670d0c6f7ba734550960c01b610e22565b610549673bda04ada1e2cbfe60c01b610e22565b6000803373ffffffffffffffffffffffffffffffffffffffff1673ffffffffffffffffffffffffffffffffffffffff16815260200190815260200160002060008373ffffffffffffffffffffffffffffffffffffffff1673ffffffffffffffffffffffffffffffffffffffff168152602001908152602001600020549050919050565b600160009054906101000a900473ffffffffffffffffffffffffffffffffffffffff1681565b61060667c26a3065c01c3d1960c01b610e22565b61061a67519a3c9540d2143060c01b610e22565b61062e678495f1a01805abdc60c01b610e22565b610642676a6807f533e251af60c01b610e22565b61065667175594d13a65205d60c01b610e22565b600160009054906101000a900473ffffffffffffffffffffffffffffffffffffffff1673ffffffffffffffffffffffffffffffffffffffff163373ffffffffffffffffffffffffffffffffffffffff16146106e6576040517f08c379a00000000000000000000000000000000000000000000000000000000081526004016106dd90611209565b60405180910390fd5b6106fa670ef9f5e838525a7760c01b610e22565b61070e6751c3b7e5e792e85460c01b610e22565b610722676aff7e26b4cd029f60c01b610e22565b6107366798fa10e0644147a260c01b610e22565b61074a6775716d00802ecfc860c01b610e22565b61075e67a96838bd02934a3460c01b610e22565b6000600260008373ffffffffffffffffffffffffffffffffffffffff1673ffffffffffffffffffffffffffffffffffffffff1681526020019081526020016000205490506107b667c5d1c71b2a602ace60c01b610e22565b6107ca671d3ae4a45e0a924960c01b610e22565b6107de6751c5b748a5f812be60c01b610e22565b60008111610821576040517f08c379a000000000000000000000000000000000000000000000000000000000815260040161081890611249565b60405180910390fd5b610835672f6d0a11e2ae244060c01b610e22565b61084967b6ac816dfdca46a960c01b610e22565b806003600082825461085b919061137c565b9250508190555061087667d29a9e885797d70260c01b610e22565b61088a67a2cbd55a1a44da0e60c01b610e22565b8173ffffffffffffffffffffffffffffffffffffffff1663a9059cbb33836040518363ffffffff1660e01b81526004016108c59291906111e0565b602060405180830381600087803b1580156108df57600080fd5b505af11580156108f3573d6000803e3d6000fd5b505050506040513d601f19601f820116820180604052508101906109179190610f05565b505050565b6000602052816000526040600020602052806000526040600020600091509150505481565b60026020528060005260406000206000915090505481565b61096d671d51001503d1344660c01b610e22565b61098167c97abdd284b32ebf60c01b610e22565b61099567ba2d5ea7db351b7c60c01b610e22565b6109a967b06955df08ddd3de60c01b610e22565b600081116109ec576040517f08c379a00000000000000000000000000000000000000000000000000000000081526004016109e390611289565b60405180910390fd5b610a00676399e95c764cf63a60c01b610e22565b610a14671eec5c4babc5186e60c01b610e22565b610a286729bf313028c10bc560c01b610e22565b610a3c67a1748b534b13df7b60c01b610e22565b806000803373ffffffffffffffffffffffffffffffffffffffff1673ffffffffffffffffffffffffffffffffffffffff16815260200190815260200160002060008473ffffffffffffffffffffffffffffffffffffffff1673ffffffffffffffffffffffffffffffffffffffff168152602001908152602001600020541015610afa576040517f08c379a0000000000000000000000000000000000000000000000000000000008152600401610af1906112a9565b60405180910390fd5b610b0e67bab5db1f077cc6c260c01b610e22565b610b226731a4be32be7360c660c01b610e22565b610b36677655f54237b6d87960c01b610e22565b610b4a67da303f94275ac30160c01b610e22565b600073ffffffffffffffffffffffffffffffffffffffff168273ffffffffffffffffffffffffffffffffffffffff161415610bba576040517f08c379a0000000000000000000000000000000000000000000000000000000008152600401610bb190611269565b60405180910390fd5b610bce67d3080cf97bfe3fa760c01b610e22565b610be267eef7674e44124abc60c01b610e22565b806000803373ffffffffffffffffffffffffffffffffffffffff1673ffffffffffffffffffffffffffffffffffffffff16815260200190815260200160002060008473ffffffffffffffffffffffffffffffffffffffff1673ffffffffffffffffffffffffffffffffffffffff1681526020019081526020016000206000828254610c6d919061137c565b92505081905550610c886720d55089f55f9eb560c01b610e22565b610c9c67077edb151f84489960c01b610e22565b60006103e882610cac919061134b565b9050610cc267c727020af8b8c5a760c01b610e22565b80600260008573ffffffffffffffffffffffffffffffffffffffff1673ffffffffffffffffffffffffffffffffffffffff1681526020019081526020016000206000828254610d1191906112f5565b92505081905550610d2c67d3f15c27ba45999e60c01b610e22565b8060036000828254610d3e91906112f5565b92505081905550610d59674106ba80e8a0d46960c01b610e22565b8082610d65919061137c565b9150610d7b67fa58d86851eb0bb760c01b610e22565b610d8f677236e927fd0583e660c01b610e22565b8273ffffffffffffffffffffffffffffffffffffffff1663a9059cbb33846040518363ffffffff1660e01b8152600401610dca9291906111e0565b602060405180830381600087803b158015610de457600080fd5b505af1158015610df8573d6000803e3d6000fd5b505050506040513d601f19601f82011682018060405250810190610e1c9190610f05565b50505050565b50565b600081359050610e3481611468565b92915050565b600081519050610e498161147f565b92915050565b600081359050610e5e81611496565b92915050565b600060208284031215610e7657600080fd5b6000610e8484828501610e25565b91505092915050565b60008060408385031215610ea057600080fd5b6000610eae85828601610e25565b9250506020610ebf85828601610e25565b9150509250929050565b60008060408385031215610edc57600080fd5b6000610eea85828601610e25565b9250506020610efb85828601610e4f565b9150509250929050565b600060208284031215610f1757600080fd5b6000610f2584828501610e3a565b91505092915050565b610f37816113c2565b82525050565b610f46816113b0565b82525050565b6000610f596026836112e4565b91507f4f6e6c7920746865206f776e65722063616e2063616c6c20746869732066756e60008301527f6374696f6e2e00000000000000000000000000000000000000000000000000006020830152604082019050919050565b6000610fbf6025836112e4565b91507f4465706f73697420616d6f756e74206d7573742062652067726561746572207460008301527f68616e20300000000000000000000000000000000000000000000000000000006020830152604082019050919050565b6000611025602b836112e4565b91507f5468657265206e6f20656e6f7567682074617820666f7220796f75207769746860008301527f207468697320746f6b656e0000000000000000000000000000000000000000006020830152604082019050919050565b600061108b601b836112e4565b91507f546f6b656e2061646472657373206d7573742062652076616c696400000000006000830152602082019050919050565b60006110cb6028836112e4565b91507f5769746864726177616c20616d6f756e74206d7573742062652067726561746560008301527f72207468616e20300000000000000000000000000000000000000000000000006020830152604082019050919050565b60006111316015836112e4565b91507f52756e206f7574206f6620796f7572206d6f6e657900000000000000000000006000830152602082019050919050565b61116d81611400565b82525050565b60006020820190506111886000830184610f3d565b92915050565b60006020820190506111a36000830184610f2e565b92915050565b60006060820190506111be6000830186610f3d565b6111cb6020830185610f3d565b6111d86040830184611164565b949350505050565b60006040820190506111f56000830185610f3d565b6112026020830184611164565b9392505050565b6000602082019050818103600083015261122281610f4c565b9050919050565b6000602082019050818103600083015261124281610fb2565b9050919050565b6000602082019050818103600083015261126281611018565b9050919050565b600060208201905081810360008301526112828161107e565b9050919050565b600060208201905081810360008301526112a2816110be565b9050919050565b600060208201905081810360008301526112c281611124565b9050919050565b60006020820190506112de6000830184611164565b92915050565b600082825260208201905092915050565b600061130082611400565b915061130b83611400565b9250827fffffffffffffffffffffffffffffffffffffffffffffffffffffffffffffffff038211156113405761133f61140a565b5b828201905092915050565b600061135682611400565b915061136183611400565b92508261137157611370611439565b5b828204905092915050565b600061138782611400565b915061139283611400565b9250828210156113a5576113a461140a565b5b828203905092915050565b60006113bb826113e0565b9050919050565b60006113cd826113e0565b9050919050565b60008115159050919050565b600073ffffffffffffffffffffffffffffffffffffffff82169050919050565b6000819050919050565b7f4e487b7100000000000000000000000000000000000000000000000000000000600052601160045260246000fd5b7f4e487b7100000000000000000000000000000000000000000000000000000000600052601260045260246000fd5b611471816113b0565b811461147c57600080fd5b50565b611488816113d4565b811461149357600080fd5b50565b61149f81611400565b81146114aa57600080fd5b5056fea2646970667358221220d07330a022abc8a8b4c7b9b10a8c8f373efc537769800ca3966deeed271675cf64736f6c63430008000033",
  "linkReferences": {},
  "deployedLinkReferences": {}
}