{
  "_format": "hh-sol-artifact-1",
  "contractName": "SafeFactory",
  "sourceName": "contracts/SafeFactory.sol",
  "abi": [
    {
      "inputs": [
        {
          "internalType": "address",
          "name": "_implementation",
          "type": "address"
        }
      ],
      "stateMutability": "nonpayable",
      "type": "constructor"
    },
    {
      "anonymous": false,
      "inputs": [
        {
          "indexed": false,
          "internalType": "address",
          "name": "_contract",
          "type": "address"
        }
      ],
      "name": "CreateContract",
      "type": "event"
    },
    {
      "anonymous": false,
      "inputs": [
        {
          "indexed": false,
          "internalType": "address",
          "name": "newImplementation",
          "type": "address"
        }
      ],
      "name": "ImpleUpdated",
      "type": "event"
    },
    {
      "inputs": [],
      "name": "OWNER",
      "outputs": [
        {
          "internalType": "address",
          "name": "",
          "type": "address"
        }
      ],
      "stateMutability": "view",
      "type": "function"
    },
    {
      "inputs": [],
      "name": "deploySafe",
      "outputs": [
        {
          "internalType": "address",
          "name": "",
          "type": "address"
        }
      ],
      "stateMutability": "nonpayable",
      "type": "function"
    },
    {
      "inputs": [],
      "name": "deploySafeProxy",
      "outputs": [
        {
          "internalType": "address",
          "name": "",
          "type": "address"
        }
      ],
      "stateMutability": "nonpayable",
      "type": "function"
    },
    {
      "inputs": [
        {
          "internalType": "uint256",
          "name": "index",
          "type": "uint256"
        }
      ],
      "name": "getdeployProxyAddr",
      "outputs": [
        {
          "internalType": "address",
          "name": "",
          "type": "address"
        }
      ],
      "stateMutability": "view",
      "type": "function"
    },
    {
      "inputs": [
        {
          "internalType": "uint256",
          "name": "index",
          "type": "uint256"
        }
      ],
      "name": "getdeploySafeAddr",
      "outputs": [
        {
          "internalType": "address",
          "name": "",
          "type": "address"
        }
      ],
      "stateMutability": "view",
      "type": "function"
    },
    {
      "inputs": [],
      "name": "safeImpl",
      "outputs": [
        {
          "internalType": "address",
          "name": "",
          "type": "address"
        }
      ],
      "stateMutability": "view",
      "type": "function"
    },
    {
      "inputs": [
        {
          "internalType": "address",
          "name": "_newImpl",
          "type": "address"
        }
      ],
      "name": "updateImplementation",
      "outputs": [],
      "stateMutability": "nonpayable",
      "type": "function"
    }
  ],
  "bytecode": "0x60806040523480156200001157600080fd5b506040516200360c3803806200360c83398181016040528101906200003791906200012d565b6200005367a5b304c0aa59871260c01b6200011360201b60201c565b6200006f6785686ee08a27db9660c01b6200011360201b60201c565b33600160006101000a81548173ffffffffffffffffffffffffffffffffffffffff021916908373ffffffffffffffffffffffffffffffffffffffff160217905550620000cc67efe869202669df0660c01b6200011360201b60201c565b806000806101000a81548173ffffffffffffffffffffffffffffffffffffffff021916908373ffffffffffffffffffffffffffffffffffffffff16021790555050620001a7565b50565b60008151905062000127816200018d565b92915050565b6000602082840312156200014057600080fd5b6000620001508482850162000116565b91505092915050565b600062000166826200016d565b9050919050565b600073ffffffffffffffffffffffffffffffffffffffff82169050919050565b620001988162000159565b8114620001a457600080fd5b50565b61345580620001b76000396000f3fe60806040523480156200001157600080fd5b5060043610620000885760003560e01c80631349cd9111620000635780631349cd911462000105578063644f7aac14620001275780639a8787bf14620001495780639f4fab76146200016b5762000088565b8063025b22bc146200008d578063096f8dbc14620000ad578063117803e314620000e3575b600080fd5b620000ab6004803603810190620000a5919062000b14565b620001a1565b005b620000cb6004803603810190620000c5919062000b40565b6200041e565b604051620000da919062000c8f565b60405180910390f35b620000ed62000571565b604051620000fc919062000c8f565b60405180910390f35b6200010f620005dd565b6040516200011e919062000c8f565b60405180910390f35b6200013162000601565b60405162000140919062000c8f565b60405180910390f35b62000153620007a9565b60405162000162919062000c8f565b60405180910390f35b62000189600480360381019062000183919062000b40565b62000974565b60405162000198919062000c8f565b60405180910390f35b620001b767cdddb9f6a6ecedfa60c01b62000ac7565b620001cd67c95e8e004f7a304a60c01b62000ac7565b620001e3670a11f2a3df8b22f660c01b62000ac7565b620001f967c7e172b563bec8fe60c01b62000ac7565b6200020f67b2d843d7a91ca46860c01b62000ac7565b600160009054906101000a900473ffffffffffffffffffffffffffffffffffffffff1673ffffffffffffffffffffffffffffffffffffffff163373ffffffffffffffffffffffffffffffffffffffff1614620002a2576040517f08c379a0000000000000000000000000000000000000000000000000000000008152600401620002999062000cfb565b60405180910390fd5b620002b86753533c2423d53ba060c01b62000ac7565b620002ce6779b5a4c6a75e26f860c01b62000ac7565b620002e467d27a73640b1e808f60c01b62000ac7565b620002fa672c2e5a45a1ca965360c01b62000ac7565b6200031067a314a81d9ed30aa860c01b62000ac7565b62000326670d7381719db2232860c01b62000ac7565b6200033c678b1cb21632f73e6260c01b62000ac7565b600073ffffffffffffffffffffffffffffffffffffffff168173ffffffffffffffffffffffffffffffffffffffff161415620003af576040517f08c379a0000000000000000000000000000000000000000000000000000000008152600401620003a69062000cd9565b60405180910390fd5b620003c5671cb9643e0c6499ce60c01b62000ac7565b620003db67bbf7b095cd59f2e160c01b62000ac7565b806000806101000a81548173ffffffffffffffffffffffffffffffffffffffff021916908373ffffffffffffffffffffffffffffffffffffffff16021790555050565b6000620004366707c551a74f23ced060c01b62000ac7565b6200044c676312119dc925377760c01b62000ac7565b6200046267de0cb5167f23348b60c01b62000ac7565b6200047867dbc8bd938beaf1f760c01b62000ac7565b6003805490508210620004c2576040517f08c379a0000000000000000000000000000000000000000000000000000000008152600401620004b99062000d1d565b60405180910390fd5b620004d8677abcee150738a56b60c01b62000ac7565b620004ee678cd529cc1596083860c01b62000ac7565b6200050467fb43cb8dc3be0f1660c01b62000ac7565b600382815481106200053f577f4e487b7100000000000000000000000000000000000000000000000000000000600052603260045260246000fd5b9060005260206000200160009054906101000a900473ffffffffffffffffffffffffffffffffffffffff169050919050565b60006200058967391fa83b8f58ed7a60c01b62000ac7565b6200059f678972fc3fdf1ae35a60c01b62000ac7565b620005b567c6079f645556743060c01b62000ac7565b600160009054906101000a900473ffffffffffffffffffffffffffffffffffffffff16905090565b60008054906101000a900473ffffffffffffffffffffffffffffffffffffffff1681565b60006200061967aac3ef9f096eb0a160c01b62000ac7565b6200062f67d98dff4bcb1b138160c01b62000ac7565b62000645678e471c0ed3b789cf60c01b62000ac7565b600033604051620006569062000aca565b62000662919062000c8f565b604051809103906000f0801580156200067f573d6000803e3d6000fd5b50905062000698670a1c4101250f6fab60c01b62000ac7565b620006ae676a99b6406fba027860c01b62000ac7565b7ff5b7f3f60acd3043a8ea44f042bf8abc20b068039901e50052f03e078ff3d9f081604051620006df919062000c8f565b60405180910390a1620006fd67ea56d6d52a130ba560c01b62000ac7565b6200071367eda98709b55a6abf60c01b62000ac7565b6002819080600181540180825580915050600190039060005260206000200160009091909190916101000a81548173ffffffffffffffffffffffffffffffffffffffff021916908373ffffffffffffffffffffffffffffffffffffffff1602179055506200078c679aa4c0f43c63df4a60c01b62000ac7565b620007a2673a4d815bc9f9060360c01b62000ac7565b8091505090565b6000620007c16798f214606a7bc80760c01b62000ac7565b620007d7678a5d8de229b6871760c01b62000ac7565b620007ed67f82b8b5c14a12da260c01b62000ac7565b60008060009054906101000a900473ffffffffffffffffffffffffffffffffffffffff1633604051620008209062000ad8565b6200082d92919062000cac565b604051809103906000f0801580156200084a573d6000803e3d6000fd5b50905062000863672a7b568e7c69411c60c01b62000ac7565b6200087967b7bc6392186b140960c01b62000ac7565b7ff5b7f3f60acd3043a8ea44f042bf8abc20b068039901e50052f03e078ff3d9f081604051620008aa919062000c8f565b60405180910390a1620008c867ffdd5b38465768da60c01b62000ac7565b620008de67e3f224380f32db8a60c01b62000ac7565b6003819080600181540180825580915050600190039060005260206000200160009091909190916101000a81548173ffffffffffffffffffffffffffffffffffffffff021916908373ffffffffffffffffffffffffffffffffffffffff160217905550620009576707ec8d354452d17460c01b62000ac7565b6200096d67fe927076a3c3389e60c01b62000ac7565b8091505090565b60006200098c67556a04972340738360c01b62000ac7565b620009a267767f10cbcfcad09760c01b62000ac7565b620009b8671fd9d38c8ab3415260c01b62000ac7565b620009ce67bcfdae9ae1f9efc460c01b62000ac7565b600280549050821062000a18576040517f08c379a000000000000000000000000000000000000000000000000000000000815260040162000a0f9062000d1d565b60405180910390fd5b62000a2e672dc8316630415c1760c01b62000ac7565b62000a44678a032726cae17c5960c01b62000ac7565b62000a5a6799d7337fa5b57b1c60c01b62000ac7565b6002828154811062000a95577f4e487b7100000000000000000000000000000000000000000000000000000000600052603260045260246000fd5b9060005260206000200160009054906101000a900473ffffffffffffffffffffffffffffffffffffffff169050919050565b50565b6116308062000dc383390190565b61102d80620023f383390190565b60008135905062000af78162000d8e565b92915050565b60008135905062000b0e8162000da8565b92915050565b60006020828403121562000b2757600080fd5b600062000b378482850162000ae6565b91505092915050565b60006020828403121562000b5357600080fd5b600062000b638482850162000afd565b91505092915050565b62000b778162000d50565b82525050565b600062000b8c602a8362000d3f565b91507f4e657720696d706c656d656e746174696f6e20616464726573732063616e6e6f60008301527f74206265207a65726f2e000000000000000000000000000000000000000000006020830152604082019050919050565b600062000bf460268362000d3f565b91507f4f6e6c7920746865206f776e65722063616e2063616c6c20746869732066756e60008301527f6374696f6e2e00000000000000000000000000000000000000000000000000006020830152604082019050919050565b600062000c5c600d8362000d3f565b91507f496e76616c696420696e646578000000000000000000000000000000000000006000830152602082019050919050565b600060208201905062000ca6600083018462000b6c565b92915050565b600060408201905062000cc3600083018562000b6c565b62000cd2602083018462000b6c565b9392505050565b6000602082019050818103600083015262000cf48162000b7d565b9050919050565b6000602082019050818103600083015262000d168162000be5565b9050919050565b6000602082019050818103600083015262000d388162000c4d565b9050919050565b600082825260208201905092915050565b600062000d5d8262000d64565b9050919050565b600073ffffffffffffffffffffffffffffffffffffffff82169050919050565b6000819050919050565b62000d998162000d50565b811462000da557600080fd5b50565b62000db38162000d84565b811462000dbf57600080fd5b5056fe608060405260405162001630380380620016308339818101604052810190620000299190620000c3565b620000456764d3716ec8ea3d2760c01b620000a960201b60201c565b6200006167c26d8f051727398e60c01b620000a960201b60201c565b80600160006101000a81548173ffffffffffffffffffffffffffffffffffffffff021916908373ffffffffffffffffffffffffffffffffffffffff160217905550506200013d565b50565b600081519050620000bd8162000123565b92915050565b600060208284031215620000d657600080fd5b6000620000e684828501620000ac565b91505092915050565b6000620000fc8262000103565b9050919050565b600073ffffffffffffffffffffffffffffffffffffffff82169050919050565b6200012e81620000ef565b81146200013a57600080fd5b50565b6114e3806200014d6000396000f3fe608060405234801561001057600080fd5b50600436106100935760003560e01c80638da5cb5b116100665780638da5cb5b14610120578063a5bf8ec61461013e578063c23f001f1461015a578063f348f4fc1461018a578063f3fef3a3146101ba57610093565b80633e38b80d1461009857806347e7ef24146100b65780635b0a296a146100d257806370a08231146100f0575b600080fd5b6100a06101d6565b6040516100ad91906112c9565b60405180910390f35b6100d060048036038101906100cb9190610ec9565b6101dc565b005b6100da6104a5565b6040516100e79190611173565b60405180910390f35b61010a60048036038101906101059190610e64565b61050b565b60405161011791906112c9565b60405180910390f35b6101286105cc565b604051610135919061118e565b60405180910390f35b61015860048036038101906101539190610e64565b6105f2565b005b610174600480360381019061016f9190610e8d565b61091c565b60405161018191906112c9565b60405180910390f35b6101a4600480360381019061019f9190610e64565b610941565b6040516101b191906112c9565b60405180910390f35b6101d460048036038101906101cf9190610ec9565b610959565b005b60035481565b6101f06742ff15c5a78e3a3660c01b610e22565b61020467ab5b27a8f24a34c660c01b610e22565b61021867752608ba51062ffc60c01b610e22565b61022c67f858f60ec4bdb28360c01b610e22565b6000811161026f576040517f08c379a000000000000000000000000000000000000000000000000000000000815260040161026690611229565b60405180910390fd5b610283670c4810258dc9e3e360c01b610e22565b61029767205f7cfae5a7974c60c01b610e22565b6102ab67dc6dd8a36d7dff4660c01b610e22565b6102bf67d58daf945ea159ab60c01b610e22565b600073ffffffffffffffffffffffffffffffffffffffff168273ffffffffffffffffffffffffffffffffffffffff16141561032f576040517f08c379a000000000000000000000000000000000000000000000000000000000815260040161032690611269565b60405180910390fd5b61034367d5f389fc2f765ff460c01b610e22565b610357677c74b59e4581698a60c01b610e22565b61036b678e92b0a60abc3c4660c01b610e22565b8173ffffffffffffffffffffffffffffffffffffffff166323b872dd3330846040518463ffffffff1660e01b81526004016103a8939291906111a9565b602060405180830381600087803b1580156103c257600080fd5b505af11580156103d6573d6000803e3d6000fd5b505050506040513d601f19601f820116820180604052508101906103fa9190610f05565b5061040f673c4fbe07d3fb3e0060c01b610e22565b806000803373ffffffffffffffffffffffffffffffffffffffff1673ffffffffffffffffffffffffffffffffffffffff16815260200190815260200160002060008473ffffffffffffffffffffffffffffffffffffffff1673ffffffffffffffffffffffffffffffffffffffff168152602001908152602001600020600082825461049a91906112f5565b925050819055505050565b60006104bb6788037edeae76af1f60c01b610e22565b6104cf67f9fd36d0e35cb76260c01b610e22565b6104e36770e89a609090cf6b60c01b610e22565b600160009054906101000a900473ffffffffffffffffffffffffffffffffffffffff16905090565b600061052167bc5fba23bf64d9cb60c01b610e22565b610535670d0c6f7ba734550960c01b610e22565b610549673bda04ada1e2cbfe60c01b610e22565b6000803373ffffffffffffffffffffffffffffffffffffffff1673ffffffffffffffffffffffffffffffffffffffff16815260200190815260200160002060008373ffffffffffffffffffffffffffffffffffffffff1673ffffffffffffffffffffffffffffffffffffffff168152602001908152602001600020549050919050565b600160009054906101000a900473ffffffffffffffffffffffffffffffffffffffff1681565b61060667c26a3065c01c3d1960c01b610e22565b61061a67519a3c9540d2143060c01b610e22565b61062e678495f1a01805abdc60c01b610e22565b610642676a6807f533e251af60c01b610e22565b61065667175594d13a65205d60c01b610e22565b600160009054906101000a900473ffffffffffffffffffffffffffffffffffffffff1673ffffffffffffffffffffffffffffffffffffffff163373ffffffffffffffffffffffffffffffffffffffff16146106e6576040517f08c379a00000000000000000000000000000000000000000000000000000000081526004016106dd90611209565b60405180910390fd5b6106fa670ef9f5e838525a7760c01b610e22565b61070e6751c3b7e5e792e85460c01b610e22565b610722676aff7e26b4cd029f60c01b610e22565b6107366798fa10e0644147a260c01b610e22565b61074a6775716d00802ecfc860c01b610e22565b61075e67a96838bd02934a3460c01b610e22565b6000600260008373ffffffffffffffffffffffffffffffffffffffff1673ffffffffffffffffffffffffffffffffffffffff1681526020019081526020016000205490506107b667c5d1c71b2a602ace60c01b610e22565b6107ca671d3ae4a45e0a924960c01b610e22565b6107de6751c5b748a5f812be60c01b610e22565b60008111610821576040517f08c379a000000000000000000000000000000000000000000000000000000000815260040161081890611249565b60405180910390fd5b610835672f6d0a11e2ae244060c01b610e22565b61084967b6ac816dfdca46a960c01b610e22565b806003600082825461085b919061137c565b9250508190555061087667d29a9e885797d70260c01b610e22565b61088a67a2cbd55a1a44da0e60c01b610e22565b8173ffffffffffffffffffffffffffffffffffffffff1663a9059cbb33836040518363ffffffff1660e01b81526004016108c59291906111e0565b602060405180830381600087803b1580156108df57600080fd5b505af11580156108f3573d6000803e3d6000fd5b505050506040513d601f19601f820116820180604052508101906109179190610f05565b505050565b6000602052816000526040600020602052806000526040600020600091509150505481565b60026020528060005260406000206000915090505481565b61096d671d51001503d1344660c01b610e22565b61098167c97abdd284b32ebf60c01b610e22565b61099567ba2d5ea7db351b7c60c01b610e22565b6109a967b06955df08ddd3de60c01b610e22565b600081116109ec576040517f08c379a00000000000000000000000000000000000000000000000000000000081526004016109e390611289565b60405180910390fd5b610a00676399e95c764cf63a60c01b610e22565b610a14671eec5c4babc5186e60c01b610e22565b610a286729bf313028c10bc560c01b610e22565b610a3c67a1748b534b13df7b60c01b610e22565b806000803373ffffffffffffffffffffffffffffffffffffffff1673ffffffffffffffffffffffffffffffffffffffff16815260200190815260200160002060008473ffffffffffffffffffffffffffffffffffffffff1673ffffffffffffffffffffffffffffffffffffffff168152602001908152602001600020541015610afa576040517f08c379a0000000000000000000000000000000000000000000000000000000008152600401610af1906112a9565b60405180910390fd5b610b0e67bab5db1f077cc6c260c01b610e22565b610b226731a4be32be7360c660c01b610e22565b610b36677655f54237b6d87960c01b610e22565b610b4a67da303f94275ac30160c01b610e22565b600073ffffffffffffffffffffffffffffffffffffffff168273ffffffffffffffffffffffffffffffffffffffff161415610bba576040517f08c379a0000000000000000000000000000000000000000000000000000000008152600401610bb190611269565b60405180910390fd5b610bce67d3080cf97bfe3fa760c01b610e22565b610be267eef7674e44124abc60c01b610e22565b806000803373ffffffffffffffffffffffffffffffffffffffff1673ffffffffffffffffffffffffffffffffffffffff16815260200190815260200160002060008473ffffffffffffffffffffffffffffffffffffffff1673ffffffffffffffffffffffffffffffffffffffff1681526020019081526020016000206000828254610c6d919061137c565b92505081905550610c886720d55089f55f9eb560c01b610e22565b610c9c67077edb151f84489960c01b610e22565b60006103e882610cac919061134b565b9050610cc267c727020af8b8c5a760c01b610e22565b80600260008573ffffffffffffffffffffffffffffffffffffffff1673ffffffffffffffffffffffffffffffffffffffff1681526020019081526020016000206000828254610d1191906112f5565b92505081905550610d2c67d3f15c27ba45999e60c01b610e22565b8060036000828254610d3e91906112f5565b92505081905550610d59674106ba80e8a0d46960c01b610e22565b8082610d65919061137c565b9150610d7b67fa58d86851eb0bb760c01b610e22565b610d8f677236e927fd0583e660c01b610e22565b8273ffffffffffffffffffffffffffffffffffffffff1663a9059cbb33846040518363ffffffff1660e01b8152600401610dca9291906111e0565b602060405180830381600087803b158015610de457600080fd5b505af1158015610df8573d6000803e3d6000fd5b505050506040513d601f19601f82011682018060405250810190610e1c9190610f05565b50505050565b50565b600081359050610e3481611468565b92915050565b600081519050610e498161147f565b92915050565b600081359050610e5e81611496565b92915050565b600060208284031215610e7657600080fd5b6000610e8484828501610e25565b91505092915050565b60008060408385031215610ea057600080fd5b6000610eae85828601610e25565b9250506020610ebf85828601610e25565b9150509250929050565b60008060408385031215610edc57600080fd5b6000610eea85828601610e25565b9250506020610efb85828601610e4f565b9150509250929050565b600060208284031215610f1757600080fd5b6000610f2584828501610e3a565b91505092915050565b610f37816113c2565b82525050565b610f46816113b0565b82525050565b6000610f596026836112e4565b91507f4f6e6c7920746865206f776e65722063616e2063616c6c20746869732066756e60008301527f6374696f6e2e00000000000000000000000000000000000000000000000000006020830152604082019050919050565b6000610fbf6025836112e4565b91507f4465706f73697420616d6f756e74206d7573742062652067726561746572207460008301527f68616e20300000000000000000000000000000000000000000000000000000006020830152604082019050919050565b6000611025602b836112e4565b91507f5468657265206e6f20656e6f7567682074617820666f7220796f75207769746860008301527f207468697320746f6b656e0000000000000000000000000000000000000000006020830152604082019050919050565b600061108b601b836112e4565b91507f546f6b656e2061646472657373206d7573742062652076616c696400000000006000830152602082019050919050565b60006110cb6028836112e4565b91507f5769746864726177616c20616d6f756e74206d7573742062652067726561746560008301527f72207468616e20300000000000000000000000000000000000000000000000006020830152604082019050919050565b60006111316015836112e4565b91507f52756e206f7574206f6620796f7572206d6f6e657900000000000000000000006000830152602082019050919050565b61116d81611400565b82525050565b60006020820190506111886000830184610f3d565b92915050565b60006020820190506111a36000830184610f2e565b92915050565b60006060820190506111be6000830186610f3d565b6111cb6020830185610f3d565b6111d86040830184611164565b949350505050565b60006040820190506111f56000830185610f3d565b6112026020830184611164565b9392505050565b6000602082019050818103600083015261122281610f4c565b9050919050565b6000602082019050818103600083015261124281610fb2565b9050919050565b6000602082019050818103600083015261126281611018565b9050919050565b600060208201905081810360008301526112828161107e565b9050919050565b600060208201905081810360008301526112a2816110be565b9050919050565b600060208201905081810360008301526112c281611124565b9050919050565b60006020820190506112de6000830184611164565b92915050565b600082825260208201905092915050565b600061130082611400565b915061130b83611400565b9250827fffffffffffffffffffffffffffffffffffffffffffffffffffffffffffffffff038211156113405761133f61140a565b5b828201905092915050565b600061135682611400565b915061136183611400565b92508261137157611370611439565b5b828204905092915050565b600061138782611400565b915061139283611400565b9250828210156113a5576113a461140a565b5b828203905092915050565b60006113bb826113e0565b9050919050565b60006113cd826113e0565b9050919050565b60008115159050919050565b600073ffffffffffffffffffffffffffffffffffffffff82169050919050565b6000819050919050565b7f4e487b7100000000000000000000000000000000000000000000000000000000600052601160045260246000fd5b7f4e487b7100000000000000000000000000000000000000000000000000000000600052601260045260246000fd5b611471816113b0565b811461147c57600080fd5b50565b611488816113d4565b811461149357600080fd5b50565b61149f81611400565b81146114aa57600080fd5b5056fea2646970667358221220d07330a022abc8a8b4c7b9b10a8c8f373efc537769800ca3966deeed271675cf64736f6c6343000800003360806040526000600460006101000a81548160ff0219169083151502179055503480156200002c57600080fd5b506040516200102d3803806200102d8339818101604052810190620000529190620005e5565b6200006e674c7a9ad35c6cacbf60c01b6200035560201b60201c565b6200008a6740732ad98b3d3eb160c01b6200035560201b60201c565b620000a6677728ba36a8cd107560c01b6200035560201b60201c565b620000b7826200035860201b60201c565b620000d367534a6c42b0e86e6360c01b6200035560201b60201c565b620000ef672431588dd6f9e57860c01b6200035560201b60201c565b6200010033620003f460201b60201c565b6200011c67e00e3a902dccc18160c01b6200035560201b60201c565b6200012c6200049060201b60201c565b600460016101000a81548173ffffffffffffffffffffffffffffffffffffffff021916908373ffffffffffffffffffffffffffffffffffffffff160217905550620001886787729d15ff7435de60c01b6200035560201b60201c565b620001986200052f60201b60201c565b600160006101000a81548173ffffffffffffffffffffffffffffffffffffffff021916908373ffffffffffffffffffffffffffffffffffffffff160217905550620001f4675b6053ce334b94dc60c01b6200035560201b60201c565b62000210670db5d9dfff6fd81c60c01b6200035560201b60201c565b60008160405160240162000225919062000687565b6040516020818303038152906040527f90b4b79c000000000000000000000000000000000000000000000000000000007bffffffffffffffffffffffffffffffffffffffffffffffffffffffff19166020820180517bffffffffffffffffffffffffffffffffffffffffffffffffffffffff83818316178352505050509050620002c067d5abec86a70e521260c01b6200035560201b60201c565b620002dc67fe139f0dca604f8360c01b6200035560201b60201c565b60008373ffffffffffffffffffffffffffffffffffffffff16826040516200030591906200066e565b600060405180830381855af49150503d806000811462000342576040519150601f19603f3d011682016040523d82523d6000602084013e62000347565b606091505b50915050505050506200073e565b50565b6200037467a341a99dc1dadccf60c01b6200035560201b60201c565b62000390674f5f71bb3bd580c660c01b6200035560201b60201c565b620003ac67529ec0686f4b7a9560c01b6200035560201b60201c565b60007fbdeff4dcb7832d4903fcc4e1b401b95e520306665ad43f1f2ae62de00e2e963f9050620003ed67ebd46e659864462560c01b6200035560201b60201c565b8181555050565b62000410671715c1415df8c46560c01b6200035560201b60201c565b6200042c6753515ae78f23ac1f60c01b6200035560201b60201c565b6200044867f803d2872ffc00e160c01b6200035560201b60201c565b60007f30ab0d7ac4c206e185dd69af287e1177c2e55fbcc5348145664e0407b2be9a2390506200048967f9296f5fb7f5454660c01b6200035560201b60201c565b8181555050565b6000620004ae67014f627acc398bc360c01b6200035560201b60201c565b620004ca677727187f2d5139b860c01b6200035560201b60201c565b620004e667776001ef97bba63b60c01b6200035560201b60201c565b60007fbdeff4dcb7832d4903fcc4e1b401b95e520306665ad43f1f2ae62de00e2e963f905062000527678de9ed4c15bae8dd60c01b6200035560201b60201c565b805491505090565b60006200054d6744a1e87d127ef73460c01b6200035560201b60201c565b6200056967aa4b20674ec82a7460c01b6200035560201b60201c565b6200058567a18763b86eb5109b60c01b6200035560201b60201c565b60007f30ab0d7ac4c206e185dd69af287e1177c2e55fbcc5348145664e0407b2be9a239050620005c667cc458853d18ba0fc60c01b6200035560201b60201c565b805491505090565b600081519050620005df8162000724565b92915050565b60008060408385031215620005f957600080fd5b60006200060985828601620005ce565b92505060206200061c85828601620005ce565b9150509250929050565b6200063181620006ba565b82525050565b60006200064482620006a4565b620006508185620006af565b935062000662818560208601620006ee565b80840191505092915050565b60006200067c828462000637565b915081905092915050565b60006020820190506200069e600083018462000626565b92915050565b600081519050919050565b600081905092915050565b6000620006c782620006ce565b9050919050565b600073ffffffffffffffffffffffffffffffffffffffff82169050919050565b60005b838110156200070e578082015181840152602081019050620006f1565b838111156200071e576000848401525b50505050565b6200072f81620006ba565b81146200073b57600080fd5b50565b6108df806200074e6000396000f3fe60806040526004361061008a5760003560e01c80637d6f9665116100595780637d6f9665146101835780638da5cb5b146101ae578063c23f001f146101d9578063d785818314610216578063f348f4fc146102415761008b565b80630900f010146100d9578063117803e3146101025780633e38b80d1461012d5780635c60da1b146101585761008b565b5b61009f67702352b9ac8cb11f60c01b61027e565b6100b367522533dd673d915760c01b61027e565b6100c7677a93301dea86f62360c01b61027e565b6100d76100d2610281565b610300565b005b3480156100e557600080fd5b5061010060048036038101906100fb919061070f565b6103ae565b005b34801561010e57600080fd5b50610117610510565b60405161012491906107df565b60405180910390f35b34801561013957600080fd5b50610142610576565b60405161014f9190610815565b60405180910390f35b34801561016457600080fd5b5061016d61057c565b60405161017a91906107df565b60405180910390f35b34801561018f57600080fd5b506101986105a2565b6040516101a591906107fa565b60405180910390f35b3480156101ba57600080fd5b506101c36105b5565b6040516101d091906107df565b60405180910390f35b3480156101e557600080fd5b5061020060048036038101906101fb9190610738565b6105db565b60405161020d9190610815565b60405180910390f35b34801561022257600080fd5b5061022b610600565b60405161023891906107df565b60405180910390f35b34801561024d57600080fd5b506102686004803603810190610263919061070f565b610666565b6040516102759190610815565b60405180910390f35b50565b600061029767014f627acc398bc360c01b61027e565b6102ab677727187f2d5139b860c01b61027e565b6102bf67776001ef97bba63b60c01b61027e565b60007fbdeff4dcb7832d4903fcc4e1b401b95e520306665ad43f1f2ae62de00e2e963f90506102f8678de9ed4c15bae8dd60c01b61027e565b805491505090565b610314676a263c0a656eb02e60c01b61027e565b61032867322f8ba2fc95466c60c01b61027e565b61033c67cda9800bd4377fc760c01b61027e565b60008173ffffffffffffffffffffffffffffffffffffffff166000366040516103669291906107c6565b600060405180830381855af49150503d80600081146103a1576040519150601f19603f3d011682016040523d82523d6000602084013e6103a6565b606091505b509150505050565b6103c2677519c7874f50372960c01b61027e565b6103d667488fd798612d1c9b60c01b61027e565b6103ea67f63ffc486d706bbe60c01b61027e565b600160009054906101000a900473ffffffffffffffffffffffffffffffffffffffff1673ffffffffffffffffffffffffffffffffffffffff163373ffffffffffffffffffffffffffffffffffffffff161461046c5761045367772670c8288af71560c01b61027e565b61046767ece39f297a12c03260c01b61027e565b600080fd5b610480675cca1c478a99f4c560c01b61027e565b61049467c55f472a45b63f2160c01b61027e565b6104a8673f103a2f28817c2c60c01b61027e565b6104b18161067e565b6104c567856cae8f9309281660c01b61027e565b6104cd610281565b600460016101000a81548173ffffffffffffffffffffffffffffffffffffffff021916908373ffffffffffffffffffffffffffffffffffffffff16021790555050565b600061052667cba700deab8f3bdf60c01b61027e565b61053a67da1c4fa783c7a48a60c01b61027e565b61054e67c3d99caa7575e1c660c01b61027e565b600160009054906101000a900473ffffffffffffffffffffffffffffffffffffffff16905090565b60035481565b600460019054906101000a900473ffffffffffffffffffffffffffffffffffffffff1681565b600460009054906101000a900460ff1681565b600160009054906101000a900473ffffffffffffffffffffffffffffffffffffffff1681565b6000602052816000526040600020602052806000526040600020600091509150505481565b60006106166796c667e29e5956ce60c01b61027e565b61062a6716a32e2ef48da92360c01b61027e565b61063e67a45b0e789362425660c01b61027e565b600460019054906101000a900473ffffffffffffffffffffffffffffffffffffffff16905090565b60026020528060005260406000206000915090505481565b61069267a341a99dc1dadccf60c01b61027e565b6106a6674f5f71bb3bd580c660c01b61027e565b6106ba67529ec0686f4b7a9560c01b61027e565b60007fbdeff4dcb7832d4903fcc4e1b401b95e520306665ad43f1f2ae62de00e2e963f90506106f367ebd46e659864462560c01b61027e565b8181555050565b60008135905061070981610892565b92915050565b60006020828403121561072157600080fd5b600061072f848285016106fa565b91505092915050565b6000806040838503121561074b57600080fd5b6000610759858286016106fa565b925050602061076a858286016106fa565b9150509250929050565b61077d8161083b565b82525050565b61078c8161084d565b82525050565b600061079e8385610830565b93506107ab838584610883565b82840190509392505050565b6107c081610879565b82525050565b60006107d3828486610792565b91508190509392505050565b60006020820190506107f46000830184610774565b92915050565b600060208201905061080f6000830184610783565b92915050565b600060208201905061082a60008301846107b7565b92915050565b600081905092915050565b600061084682610859565b9050919050565b60008115159050919050565b600073ffffffffffffffffffffffffffffffffffffffff82169050919050565b6000819050919050565b82818337600083830152505050565b61089b8161083b565b81146108a657600080fd5b5056fea2646970667358221220c82bb7f88ba10446dd70a4955a89ccf69262136b79f7da9a4fa9b2f8bf69359164736f6c63430008000033a2646970667358221220c51e72e94a87d1a2117ed1681aa47d74d83ceb116812872b9c4edfc9f6b4b21064736f6c63430008000033",
  "linkReferences": {},
  "deployedLinkReferences": {}
}