{
  "_format": "hh-sol-artifact-1",
  "contractName": "myToken",
  "sourceName": "contracts/MyToken.sol",
  "abi": [
    {
      "inputs": [],
      "stateMutability": "nonpayable",
      "type": "constructor"
    },
    {
      "anonymous": false,
      "inputs": [
        {
          "indexed": true,
          "internalType": "address",
          "name": "owner",
          "type": "address"
        },
        {
          "indexed": true,
          "internalType": "address",
          "name": "spender",
          "type": "address"
        },
        {
          "indexed": false,
          "internalType": "uint256",
          "name": "value",
          "type": "uint256"
        }
      ],
      "name": "Approval",
      "type": "event"
    },
    {
      "anonymous": false,
      "inputs": [
        {
          "indexed": true,
          "internalType": "address",
          "name": "from",
          "type": "address"
        },
        {
          "indexed": true,
          "internalType": "address",
          "name": "to",
          "type": "address"
        },
        {
          "indexed": false,
          "internalType": "uint256",
          "name": "value",
          "type": "uint256"
        }
      ],
      "name": "Transfer",
      "type": "event"
    },
    {
      "inputs": [
        {
          "internalType": "address",
          "name": "owner",
          "type": "address"
        },
        {
          "internalType": "address",
          "name": "spender",
          "type": "address"
        }
      ],
      "name": "allowance",
      "outputs": [
        {
          "internalType": "uint256",
          "name": "",
          "type": "uint256"
        }
      ],
      "stateMutability": "view",
      "type": "function"
    },
    {
      "inputs": [
        {
          "internalType": "address",
          "name": "spender",
          "type": "address"
        },
        {
          "internalType": "uint256",
          "name": "amount",
          "type": "uint256"
        }
      ],
      "name": "approve",
      "outputs": [
        {
          "internalType": "bool",
          "name": "",
          "type": "bool"
        }
      ],
      "stateMutability": "nonpayable",
      "type": "function"
    },
    {
      "inputs": [
        {
          "internalType": "address",
          "name": "account",
          "type": "address"
        }
      ],
      "name": "balanceOf",
      "outputs": [
        {
          "internalType": "uint256",
          "name": "",
          "type": "uint256"
        }
      ],
      "stateMutability": "view",
      "type": "function"
    },
    {
      "inputs": [],
      "name": "decimals",
      "outputs": [
        {
          "internalType": "uint8",
          "name": "",
          "type": "uint8"
        }
      ],
      "stateMutability": "view",
      "type": "function"
    },
    {
      "inputs": [
        {
          "internalType": "address",
          "name": "spender",
          "type": "address"
        },
        {
          "internalType": "uint256",
          "name": "subtractedValue",
          "type": "uint256"
        }
      ],
      "name": "decreaseAllowance",
      "outputs": [
        {
          "internalType": "bool",
          "name": "",
          "type": "bool"
        }
      ],
      "stateMutability": "nonpayable",
      "type": "function"
    },
    {
      "inputs": [
        {
          "internalType": "address",
          "name": "spender",
          "type": "address"
        },
        {
          "internalType": "uint256",
          "name": "addedValue",
          "type": "uint256"
        }
      ],
      "name": "increaseAllowance",
      "outputs": [
        {
          "internalType": "bool",
          "name": "",
          "type": "bool"
        }
      ],
      "stateMutability": "nonpayable",
      "type": "function"
    },
    {
      "inputs": [],
      "name": "name",
      "outputs": [
        {
          "internalType": "string",
          "name": "",
          "type": "string"
        }
      ],
      "stateMutability": "view",
      "type": "function"
    },
    {
      "inputs": [],
      "name": "owner",
      "outputs": [
        {
          "internalType": "address",
          "name": "",
          "type": "address"
        }
      ],
      "stateMutability": "view",
      "type": "function"
    },
    {
      "inputs": [],
      "name": "symbol",
      "outputs": [
        {
          "internalType": "string",
          "name": "",
          "type": "string"
        }
      ],
      "stateMutability": "view",
      "type": "function"
    },
    {
      "inputs": [],
      "name": "totalSupply",
      "outputs": [
        {
          "internalType": "uint256",
          "name": "",
          "type": "uint256"
        }
      ],
      "stateMutability": "view",
      "type": "function"
    },
    {
      "inputs": [
        {
          "internalType": "address",
          "name": "to",
          "type": "address"
        },
        {
          "internalType": "uint256",
          "name": "amount",
          "type": "uint256"
        }
      ],
      "name": "transfer",
      "outputs": [
        {
          "internalType": "bool",
          "name": "",
          "type": "bool"
        }
      ],
      "stateMutability": "nonpayable",
      "type": "function"
    },
    {
      "inputs": [
        {
          "internalType": "address",
          "name": "from",
          "type": "address"
        },
        {
          "internalType": "address",
          "name": "to",
          "type": "address"
        },
        {
          "internalType": "uint256",
          "name": "amount",
          "type": "uint256"
        }
      ],
      "name": "transferFrom",
      "outputs": [
        {
          "internalType": "bool",
          "name": "",
          "type": "bool"
        }
      ],
      "stateMutability": "nonpayable",
      "type": "function"
    }
  ],
  "bytecode": "0x60806040523480156200001157600080fd5b506040518060400160405280600781526020017f6d79546f6b656e000000000000000000000000000000000000000000000000008152506040518060400160405280600381526020017f49434500000000000000000000000000000000000000000000000000000000008152508160039080519060200190620000969291906200032c565b508060049080519060200190620000af9291906200032c565b505050620000ce67e9772d7313aa146f60c01b620001a860201b60201c565b620000ea671153ee3a27e62ecd60c01b620001a860201b60201c565b6200010667b6478dfd486b987e60c01b620001a860201b60201c565b62000145336200011b620001ab60201b60201c565b600a62000129919062000537565b620e0a4262000139919062000674565b620001b460201b60201c565b620001616726cc44ad585a8ed760c01b620001a860201b60201c565b33600560006101000a81548173ffffffffffffffffffffffffffffffffffffffff021916908373ffffffffffffffffffffffffffffffffffffffff1602179055506200078d565b50565b60006012905090565b600073ffffffffffffffffffffffffffffffffffffffff168273ffffffffffffffffffffffffffffffffffffffff16141562000227576040517f08c379a00000000000000000000000000000000000000000000000000000000081526004016200021e906200042f565b60405180910390fd5b6200023b600083836200032260201b60201c565b80600260008282546200024f91906200047f565b92505081905550806000808473ffffffffffffffffffffffffffffffffffffffff1673ffffffffffffffffffffffffffffffffffffffff168152602001908152602001600020600082825401925050819055508173ffffffffffffffffffffffffffffffffffffffff16600073ffffffffffffffffffffffffffffffffffffffff167fddf252ad1be2c89b69c2b068fc378daa952ba7f163c4a11628f55a4df523b3ef8360405162000302919062000451565b60405180910390a36200031e600083836200032760201b60201c565b5050565b505050565b505050565b8280546200033a90620006ec565b90600052602060002090601f0160209004810192826200035e5760008555620003aa565b82601f106200037957805160ff1916838001178555620003aa565b82800160010185558215620003aa579182015b82811115620003a95782518255916020019190600101906200038c565b5b509050620003b99190620003bd565b5090565b5b80821115620003d8576000816000905550600101620003be565b5090565b6000620003eb601f836200046e565b91507f45524332303a206d696e7420746f20746865207a65726f2061646472657373006000830152602082019050919050565b6200042981620006d5565b82525050565b600060208201905081810360008301526200044a81620003dc565b9050919050565b60006020820190506200046860008301846200041e565b92915050565b600082825260208201905092915050565b60006200048c82620006d5565b91506200049983620006d5565b9250827fffffffffffffffffffffffffffffffffffffffffffffffffffffffffffffffff03821115620004d157620004d062000722565b5b828201905092915050565b6000808291508390505b60018511156200052e5780860481111562000506576200050562000722565b5b6001851615620005165780820291505b8081029050620005268562000780565b9450620004e6565b94509492505050565b60006200054482620006d5565b91506200055183620006df565b9250620005807fffffffffffffffffffffffffffffffffffffffffffffffffffffffffffffffff848462000588565b905092915050565b6000826200059a57600190506200066d565b81620005aa57600090506200066d565b8160018114620005c35760028114620005ce5762000604565b60019150506200066d565b60ff841115620005e357620005e262000722565b5b8360020a915084821115620005fd57620005fc62000722565b5b506200066d565b5060208310610133831016604e8410600b84101617156200063e5782820a90508381111562000638576200063762000722565b5b6200066d565b6200064d8484846001620004dc565b9250905081840481111562000667576200066662000722565b5b81810290505b9392505050565b60006200068182620006d5565b91506200068e83620006d5565b9250817fffffffffffffffffffffffffffffffffffffffffffffffffffffffffffffffff0483118215151615620006ca57620006c962000722565b5b828202905092915050565b6000819050919050565b600060ff82169050919050565b600060028204905060018216806200070557607f821691505b602082108114156200071c576200071b62000751565b5b50919050565b7f4e487b7100000000000000000000000000000000000000000000000000000000600052601160045260246000fd5b7f4e487b7100000000000000000000000000000000000000000000000000000000600052602260045260246000fd5b60008160011c9050919050565b61126f806200079d6000396000f3fe608060405234801561001057600080fd5b50600436106100b45760003560e01c806370a082311161007157806370a08231146101a35780638da5cb5b146101d357806395d89b41146101f1578063a457c2d71461020f578063a9059cbb1461023f578063dd62ed3e1461026f576100b4565b806306fdde03146100b9578063095ea7b3146100d757806318160ddd1461010757806323b872dd14610125578063313ce567146101555780633950935114610173575b600080fd5b6100c161029f565b6040516100ce9190610f38565b60405180910390f35b6100f160048036038101906100ec9190610bad565b610331565b6040516100fe9190610f1d565b60405180910390f35b61010f610354565b60405161011c919061103a565b60405180910390f35b61013f600480360381019061013a9190610b5e565b61035e565b60405161014c9190610f1d565b60405180910390f35b61015d61038d565b60405161016a9190611055565b60405180910390f35b61018d60048036038101906101889190610bad565b610396565b60405161019a9190610f1d565b60405180910390f35b6101bd60048036038101906101b89190610af9565b6103cd565b6040516101ca919061103a565b60405180910390f35b6101db610415565b6040516101e89190610f02565b60405180910390f35b6101f961043b565b6040516102069190610f38565b60405180910390f35b61022960048036038101906102249190610bad565b6104cd565b6040516102369190610f1d565b60405180910390f35b61025960048036038101906102549190610bad565b610544565b6040516102669190610f1d565b60405180910390f35b61028960048036038101906102849190610b22565b610567565b604051610296919061103a565b60405180910390f35b6060600380546102ae9061116a565b80601f01602080910402602001604051908101604052809291908181526020018280546102da9061116a565b80156103275780601f106102fc57610100808354040283529160200191610327565b820191906000526020600020905b81548152906001019060200180831161030a57829003601f168201915b5050505050905090565b60008061033c6105ee565b90506103498185856105f6565b600191505092915050565b6000600254905090565b6000806103696105ee565b90506103768582856107c1565b61038185858561084d565b60019150509392505050565b60006012905090565b6000806103a16105ee565b90506103c28185856103b38589610567565b6103bd919061108c565b6105f6565b600191505092915050565b60008060008373ffffffffffffffffffffffffffffffffffffffff1673ffffffffffffffffffffffffffffffffffffffff168152602001908152602001600020549050919050565b600560009054906101000a900473ffffffffffffffffffffffffffffffffffffffff1681565b60606004805461044a9061116a565b80601f01602080910402602001604051908101604052809291908181526020018280546104769061116a565b80156104c35780601f10610498576101008083540402835291602001916104c3565b820191906000526020600020905b8154815290600101906020018083116104a657829003601f168201915b5050505050905090565b6000806104d86105ee565b905060006104e68286610567565b90508381101561052b576040517f08c379a00000000000000000000000000000000000000000000000000000000081526004016105229061101a565b60405180910390fd5b61053882868684036105f6565b60019250505092915050565b60008061054f6105ee565b905061055c81858561084d565b600191505092915050565b6000600160008473ffffffffffffffffffffffffffffffffffffffff1673ffffffffffffffffffffffffffffffffffffffff16815260200190815260200160002060008373ffffffffffffffffffffffffffffffffffffffff1673ffffffffffffffffffffffffffffffffffffffff16815260200190815260200160002054905092915050565b600033905090565b600073ffffffffffffffffffffffffffffffffffffffff168373ffffffffffffffffffffffffffffffffffffffff161415610666576040517f08c379a000000000000000000000000000000000000000000000000000000000815260040161065d90610ffa565b60405180910390fd5b600073ffffffffffffffffffffffffffffffffffffffff168273ffffffffffffffffffffffffffffffffffffffff1614156106d6576040517f08c379a00000000000000000000000000000000000000000000000000000000081526004016106cd90610f7a565b60405180910390fd5b80600160008573ffffffffffffffffffffffffffffffffffffffff1673ffffffffffffffffffffffffffffffffffffffff16815260200190815260200160002060008473ffffffffffffffffffffffffffffffffffffffff1673ffffffffffffffffffffffffffffffffffffffff168152602001908152602001600020819055508173ffffffffffffffffffffffffffffffffffffffff168373ffffffffffffffffffffffffffffffffffffffff167f8c5be1e5ebec7d5bd14f71427d1e84f3dd0314c0f7b2291e5b200ac8c7c3b925836040516107b4919061103a565b60405180910390a3505050565b60006107cd8484610567565b90507fffffffffffffffffffffffffffffffffffffffffffffffffffffffffffffffff81146108475781811015610839576040517f08c379a000000000000000000000000000000000000000000000000000000000815260040161083090610f9a565b60405180910390fd5b61084684848484036105f6565b5b50505050565b600073ffffffffffffffffffffffffffffffffffffffff168373ffffffffffffffffffffffffffffffffffffffff1614156108bd576040517f08c379a00000000000000000000000000000000000000000000000000000000081526004016108b490610fda565b60405180910390fd5b600073ffffffffffffffffffffffffffffffffffffffff168273ffffffffffffffffffffffffffffffffffffffff16141561092d576040517f08c379a000000000000000000000000000000000000000000000000000000000815260040161092490610f5a565b60405180910390fd5b610938838383610ac5565b60008060008573ffffffffffffffffffffffffffffffffffffffff1673ffffffffffffffffffffffffffffffffffffffff168152602001908152602001600020549050818110156109be576040517f08c379a00000000000000000000000000000000000000000000000000000000081526004016109b590610fba565b60405180910390fd5b8181036000808673ffffffffffffffffffffffffffffffffffffffff1673ffffffffffffffffffffffffffffffffffffffff16815260200190815260200160002081905550816000808573ffffffffffffffffffffffffffffffffffffffff1673ffffffffffffffffffffffffffffffffffffffff168152602001908152602001600020600082825401925050819055508273ffffffffffffffffffffffffffffffffffffffff168473ffffffffffffffffffffffffffffffffffffffff167fddf252ad1be2c89b69c2b068fc378daa952ba7f163c4a11628f55a4df523b3ef84604051610aac919061103a565b60405180910390a3610abf848484610aca565b50505050565b505050565b505050565b600081359050610ade8161120b565b92915050565b600081359050610af381611222565b92915050565b600060208284031215610b0b57600080fd5b6000610b1984828501610acf565b91505092915050565b60008060408385031215610b3557600080fd5b6000610b4385828601610acf565b9250506020610b5485828601610acf565b9150509250929050565b600080600060608486031215610b7357600080fd5b6000610b8186828701610acf565b9350506020610b9286828701610acf565b9250506040610ba386828701610ae4565b9150509250925092565b60008060408385031215610bc057600080fd5b6000610bce85828601610acf565b9250506020610bdf85828601610ae4565b9150509250929050565b610bf2816110e2565b82525050565b610c01816110f4565b82525050565b6000610c1282611070565b610c1c818561107b565b9350610c2c818560208601611137565b610c35816111fa565b840191505092915050565b6000610c4d60238361107b565b91507f45524332303a207472616e7366657220746f20746865207a65726f206164647260008301527f65737300000000000000000000000000000000000000000000000000000000006020830152604082019050919050565b6000610cb360228361107b565b91507f45524332303a20617070726f766520746f20746865207a65726f20616464726560008301527f73730000000000000000000000000000000000000000000000000000000000006020830152604082019050919050565b6000610d19601d8361107b565b91507f45524332303a20696e73756666696369656e7420616c6c6f77616e63650000006000830152602082019050919050565b6000610d5960268361107b565b91507f45524332303a207472616e7366657220616d6f756e742065786365656473206260008301527f616c616e636500000000000000000000000000000000000000000000000000006020830152604082019050919050565b6000610dbf60258361107b565b91507f45524332303a207472616e736665722066726f6d20746865207a65726f20616460008301527f64726573730000000000000000000000000000000000000000000000000000006020830152604082019050919050565b6000610e2560248361107b565b91507f45524332303a20617070726f76652066726f6d20746865207a65726f2061646460008301527f72657373000000000000000000000000000000000000000000000000000000006020830152604082019050919050565b6000610e8b60258361107b565b91507f45524332303a2064656372656173656420616c6c6f77616e63652062656c6f7760008301527f207a65726f0000000000000000000000000000000000000000000000000000006020830152604082019050919050565b610eed81611120565b82525050565b610efc8161112a565b82525050565b6000602082019050610f176000830184610be9565b92915050565b6000602082019050610f326000830184610bf8565b92915050565b60006020820190508181036000830152610f528184610c07565b905092915050565b60006020820190508181036000830152610f7381610c40565b9050919050565b60006020820190508181036000830152610f9381610ca6565b9050919050565b60006020820190508181036000830152610fb381610d0c565b9050919050565b60006020820190508181036000830152610fd381610d4c565b9050919050565b60006020820190508181036000830152610ff381610db2565b9050919050565b6000602082019050818103600083015261101381610e18565b9050919050565b6000602082019050818103600083015261103381610e7e565b9050919050565b600060208201905061104f6000830184610ee4565b92915050565b600060208201905061106a6000830184610ef3565b92915050565b600081519050919050565b600082825260208201905092915050565b600061109782611120565b91506110a283611120565b9250827fffffffffffffffffffffffffffffffffffffffffffffffffffffffffffffffff038211156110d7576110d661119c565b5b828201905092915050565b60006110ed82611100565b9050919050565b60008115159050919050565b600073ffffffffffffffffffffffffffffffffffffffff82169050919050565b6000819050919050565b600060ff82169050919050565b60005b8381101561115557808201518184015260208101905061113a565b83811115611164576000848401525b50505050565b6000600282049050600182168061118257607f821691505b60208210811415611196576111956111cb565b5b50919050565b7f4e487b7100000000000000000000000000000000000000000000000000000000600052601160045260246000fd5b7f4e487b7100000000000000000000000000000000000000000000000000000000600052602260045260246000fd5b6000601f19601f8301169050919050565b611214816110e2565b811461121f57600080fd5b50565b61122b81611120565b811461123657600080fd5b5056fea264697066735822122072a800e2f891a5747308c54939c1e7e8a1a749116767ad8f9ebe215600cb306564736f6c63430008000033",
  "linkReferences": {},
  "deployedLinkReferences": {}
}